:100000000C9463000C9411260C9411260C94112668
:100010000C9411260C94A6180C944E1C0C941126CA
:100020000C94051B0C9411260C9411260C9411268B
:100030000C9411260C9411260C94691B0C94991B9A
:100040000C9411260C9411260C9411260C94112654
:100050000C9411260C9411260C9411260C94112644
:100060000C94EA170C9411260C94221C0C94F61B89
:100070000C9411260C948F190C9411260C941126B3
:100080000C9411260C9411260C94371B0C941126F9
:100090000F0F870F310F370F400F630F730F870F4D
:1000A0008A0F930F990F7A0F60006221806221629C
:1000B00032004C5A62326299806299629B004C6BAA
:1000C000629B62A2800011241FBECFEFCDBFDFE78D
:1000D000DEBFE8EAF0E040E017C0B591A5913591A8
:1000E0002591059107FD0CC095918591EF01F92FA0
:1000F000E82F05900D92A217B307D9F7FE0104C0AF
:100100001D92A217B307E1F7E53CF40731F70E940F
:0A011000E21F0C942522F894FFCFA3
:10011A0052783A200048574555493A200073797376
:10012A00206765742068776575690D0A000D0A54A1
:10013A00783A20000A496E697469616C697A696E55
:10014A006720524E327878332E2E2E0A4669726D07
:10015A00776172653A20006D616320736176650D7F
:10016A000A006D616320736574206368206472728B
:10017A00616E6765202564203020330D0A006D61A9
:10018A00632073657420636820647272616E6765A8
:10019A00202564203420340D0A006D6163207365C4
:1001AA007420636820737461747573202564206FEA
:1001BA006E0D0A006D616320736574206368207395
:1001CA007461747573202564206F66660D0A000ACF
:1001DA000A436F6E6669677572696E6720524E329E
:1001EA0078783320466F7220414250206A6F696ED8
:1001FA000A002D2D2D2D2D2D2D2D2D2D2D2D2D2D75
:10020A002D2D2D2D2D2D2D2D2D2D2D2D2D2D2D2D14
:10021A002D2D2D2D2D2D2D2D2D2D2D2D2D2D2D2D04
:10022A002D2D2D2D2D2D2D2D2D2D2D2D2D2D2D2DF4
:10023A002D2D2D2D2D2D2D2D2D0A006D6163207351
:10024A0065742064657665756920373042334435B4
:10025A00374544303035414130420D0A006D616303
:10026A002073657420646576616464722032363066
:10027A0043323242360D0A006D6163207365742081
:10028A00617070736B65792035303143333132399F
:10029A0045333643304335363544444433313132BD
:1002AA0038354338463533340D0A006D616320739F
:1002BA006574206E776B736B6579203643303730FF
:1002CA0042313236353239463835364434363237A9
:1002DA0045354234323533353033350D0A006D61D8
:1002EA006320736574206172206F6E0D0A006D6160
:1002FA00632073657420727864656C617931203586
:10030A003030300D0A006D61632073657420727895
:10031A0032203132203932333330303030300D0A26
:10032A00006D61632073657420616472206F6E0DC5
:10033A000A006D61632073657420647220340D0AAB
:10034A00000A000A0A436F6E6669677572696E670A
:10035A0020524E3278783320466F72204F544141F2
:10036A00206A6F696E0A006D61632070617573653A
:10037A000D0A006D616320726573756D650D0A0063
:10038A006D616320736574206465766575692030D4
:10039A003030344133304230304638394237340D08
:1003AA000A006D6163207365742064657661646414
:1003BA00722030303030303030300D0A006D6163D9
:1003CA002073657420617070736B657920303030EA
:1003DA003030303030303030303030303030303013
:1003EA00303030303030303030303030300D0A007C
:1003FA006D616320736574206E776B736B6579200A
:10040A0030303030303030303030303030303030E2
:10041A0030303030303030303030303030303030D2
:10042A000D0A006D616320736574206170706B65DD
:10043A0079203942323732364242344130413836F5
:10044A0045414642323341333941334530373241EF
:10045A0031340D0A006D6163207365742061707018
:10046A0065756920303030303030303030303030DF
:10047A00303030300D0A000A0A4A6F696E696E67B9
:10048A002054544E2077697468204F5441410A0021
:10049A0054783A206D6163206A6F696E206F7461C7
:1004AA00610A006D6163206A6F696E206F74616111
:1004BA000D0A000A0A4A6F696E696E672054544E23
:1004CA002077697468204142500A0054783A206DB6
:1004DA006163206A6F696E206162700A006D6163F0
:1004EA00206A6F696E206162700D0A000A50726597
:1004FA00737320627574746F6E20746F20747261E6
:10050A006E736D69742064617461000A0A547261C1
:10051A006E736D697474696E6720446174610A0050
:10052A002D2D2D2D2D2D2D2D2D2D2D2D2D2D2D2DF1
:10053A002D2D2D2D2D2D2D2D2D2D2D2D2D2D2D2DE1
:10054A002D2D2D2D2D2D2D2D2D2D2D2D2D2D2D2DD1
:10055A002D2D2D2D0A000A54783A206D61632074DE
:10056A007820636E6620313020006D6163207478D4
:10057A0020636E6620313020000A54783A206D617B
:10058A006320747820756E636E6620313120006DA9
:10059A00616320747820756E636E662031312000A5
:1005AA006D616320676574207374617475730D0AD5
:1005BA000073797320736C65657020313830303080
:0205CA003000FF
:1005CC0025640A000A41667465722031303030208F
:1005DC004D6F6973747572652052656164696E67DD
:1005EC0073002D2D2D2D2D2D2D2D2D2D2D2D2D2D16
:1005FC002D2D2D2D2D2D2D2D2D2D2D2D2D2D2D2D1F
:10060C002D2D2D2D2D2D2D2D2D2D2D2D2D2D2D2D0E
:10061C002D2D2D2D2D2D2D2D2D2D2D2D2D2D2D2DFE
:10062C002D2D2D2D2D2D2D2D2D00546865204D415A
:10063C00582072656164696E672077617320256448
:10064C000A00546865204D494E2072656164696EDC
:10065C0067207761732025640A0A00546865204D71
:10066C004158206D61707320746F2025640A00540A
:10067C006865204D494E206D61707320746F202584
:10068C00640A000A0A43757272656E742053656EB3
:10069C00736F7220446174610A002D2D2D2D2D2D48
:1006AC002D2D2D2D2D2D2D2D2D2D2D2D2D2D2D2D6E
:1006BC002D2D2D2D2D2D2D2D2D2D2D2D2D2D2D2D5E
:1006CC002D2D2D2D2D2D2D2D2D2D2D2D2D2D2D2D4E
:1006DC002D2D2D2D2D2D2D2D2D2D2D2D2D2D2D2D3E
:1006EC002D0A0052656C61746976652048756D69D8
:1006FC00646974793A2025752525200D0A004D6F03
:10070C006973747572653A2025752525200D0A00CC
:10071C0050726573737572653A2025752068506147
:10072C000D0A0054656D70657261747572653A20BE
:10073C0025692043200D0A000A4A534F4E20466F6C
:10074C00726D61740D005061796C6F61643A207B3D
:10075C002074656D703A2025692C2068756D69646C
:10076C006974793A2025752C206D6F6973747572D4
:10077C00653A2025752C2070726573737572653A15
:10078C00202575207D0D0A0A005061796C6F61641B
:10079C0020737472696E673A2025730A6E756D54F6
:1007AC00783A2025640A0030313233343536373804
:1007BC0039414243444546000A5765617468657285
:1007CC0020436C69636B204E4F5420696E697469C9
:1007DC00616C697A65642070726F7065726C7921D6
:1007EC00000A496E7465726163746976652054659C
:1007FC00726D696E616C20697320616374697665D2
:10080C003A20636F6D6D616E64732073756368203D
:10081C006173202773797320666163746F727952E8
:10082C0045534554272077696C6C006265207365CD
:10083C006E7420746F2074686520524E3278783351
:10084C0020616E6420726573706F6E7365732077B0
:10085C00696C6C20626520617070656172206865DE
:10086C0072652E000A5768656E2072656164792C7A
:10087C0020707265737320627574746F6E20746F60
:10088C00206A6F696E2054544E0A00544F444F3AFC
:10089C0020205772697465206C6F7720706F7765B4
:0B08AC00722074657374732E2E2E00F2
:1008B7000A496E697469616C697A696E6720424D8D
:1008C700453238302E2E2E00424D453238302069C1
:0B08D7006E697469616C697A656400E9
:1008E20057656C636F6D6520746F20746865204175
:0A08F2006772692D496F542E0A0049
:1008FC0068076C094C836A9074A07AC00080688881
:06090C0000846C820081F2
:0809120000000000DCCFD1352C
:08091A000000000000C0153FC1
:080922000000803F0000C03F0F
:07092A00286E756C6C2900BA
:06093100286E696C29002C
:10093800A3E2B0E0E2EAF4E00C94B31F29833A831F
:100948004B835C8329013A01E89477F80E940625D5
:1009580009F4F4C40E94E8247B018C016115710537
:10096800A0E88A07AFE39A0709F4E8C429873A8719
:100978004B875C874B015C016B017C01E894F7F8BD
:10098800B1E0CB16D104B0E8EB06BFE7FB0644F4B0
:10099800E1E04E165104E0E86E06EFE77E063CF013
:1009A8000E947024C501B4010E94DA23D0C40E94B9
:1009B800A72437FF45C04114510410E861061BE421
:1009C80071060CF042C04114510420E862062FE37E
:1009D80072060CF460C0D301C20107E10E940B2625
:1009E8000A95E1F70E94AC2427E130E0281B390B77
:1009F800D301C201022E02C00E940B260A94E2F71C
:100A0800AC01BD0102C00E944C252A95E2F74416AC
:100A180055066606770609F03EC081709927AA2711
:100A2800BB2742E050E060E070E08A019B01081BB0
:100A3800190B2A0B3B0B0D831E832F8338872FC07E
:100A48001D821E821F82188608C022E030E040E026
:100A580050E02D833E834F8358874114510430E87A
:100A680063063FE77306D9F4C114D10440E8E406ED
:100A78004FE3F40609F462C43CF00E94982417FD81
:100A880060C40E94932463C40E94982417FF59C429
:100A98000E94932478C01D821E821F8218864114EA
:100AA800510400E860060FE3700649F40E94982498
:100AB80017FF4BC4A50194010E94922559C00981D2
:100AC8001A812B813C8101151105210540E4340769
:100AD80029F4A5019401C501B401A7C089819A81AF
:100AE800AB81BC810097A105BF4349F40E94A724AC
:100AF80037FD05C0C501B4010E94430C28C4C501D7
:100B0800B4010E9415260E94B12449F09501840180
:100B18003F730115110520483F4309F036C009818C
:100B28001A812B813C8137FF04C00E946F250E94E7
:100B3800F1250E94752457FF0AC430E8E31A3FE301
:100B4800F30A0D811E812F813885C02AD12AE22A15
:100B5800F32A0E94B12479F421E230E02093006066
:100B6800309301609B01AC010E94D9239B01AC0129
:100B78000E94F125ECC30E946B2421303105410508
:100B8800510509F0E4C39058E2C30E94A72437FF37
:100B98001EC00E946B24232B242B252B59F481E2A1
:100BA80090E08093006090930160A5019401C501D5
:100BB800B401DACF0D811E812F81388501301105EE
:100BC8002105310569F40E94E1255FEB0BC000E0C7
:100BD80010E020E83FE30D831E832F83388706C08B
:100BE8000E94B5252D833E834F83588731E04316F5
:100BF800510461043DE473060CF471C048EFC41657
:100C08004FEFD4064FE7E4064FE3F4068CF40E9456
:100C1800982417FF6FC22AEC32EF49E451E70E948B
:100C280069232AEC32EF49E451E70E94F5258FC386
:100C380008E0C016D10400E8E0060FE3F00644F02F
:100C48000E9498241E141F041006110624F352C291
:100C58000E94B5250E94D9236B017C0120E03AEA65
:100C680048EB5FE30E94F5254B015C0120E735EA7C
:100C78004CEE56E3C701B6010E94702340E85EE3DC
:100C88000E94E3249B01AC016BEA7AEA8AEA9EE3BC
:100C98000E94D923A70196010E94B62460E070E063
:100CA80080E09FE30E94D9232B013C010E94842409
:100CB8009B01AC01C301B2010E94F5252BE33AEA7E
:100CC80048EB5FE30E94F5250E945B230E94D9232D
:100CD8006B017C010E94D9240E94762297C1C1141D
:100CE800D10400E8E006F10454F40E94E1255BE435
:100CF8000E94BB2448EE5FEF6FEF7FEF03C040E038
:100D080050E0BA01D701C60117E10E940B261A95D7
:100D1800E1F70E94AC248C019D01040F151F261FCA
:100D2800371F0D8B1E8B2F8B388FE894E7F8FF2425
:100D3800460157016894A7F81FE3B12A22E7C216B3
:100D480024ECD2062CE1E206F104B4F037EDC31628
:100D580033EBD3063DE5E306F10494F08D899E89D3
:100D6800AF89B88D0196A11DB11D8D8B9E8BAF8B60
:100D7800B88F90E8A91AB108412C512C320104C04F
:100D8800412C512C32014394C201880F991F880FBE
:100D9800991F7C01990F000BE98EFA8E0B8FA02FFB
:100DA800C7018E5D964FAF4F0E9461240E94C524F3
:100DB8000E9489246C8F7D8F8E8F9F8F0E947A244A
:100DC800C501B4010E94DA230E946F250E94F12513
:100DD80068A379A38AA39BA39B01AC016C8D7D8D2D
:100DE8008E8D9F8D0E94F5250E94E8240E94A724DD
:100DF8000027107F09831A832B833C8375016401C4
:100E08000E945625CC2410EFD122E894F5F8689476
:100E1800F5F8D701C601A05CBF4F73016201F5E187
:100E28000E948825FA95E1F70E948325A70196017B
:100E38000E94C0240E94B6246C8D7D8D8E8D9F8D5E
:100E48000E94D9232B013C010E947A240E94DE24AF
:100E58000E9489240E9466240E94B624C301B2011C
:100E68000E94D92328A139A14AA15BA10E94F52596
:100E78000E94C5240E947524CA01B9010E94BB249E
:100E880022E431EF43E55EE30E94F52525E532E3F0
:100E98004CE60E94F42225E033EA4BE80E94F42253
:100EA8002BEA3AEA4AEA0E94F42227EB3DE64BEDA8
:100EB8000E94F4222AE939E949E15FE30E949D246E
:100EC8000E9484240E94D9240E94BB240E94662484
:100ED8006D857E858F8598890E94DA230E947A2401
:100EE8000E94F525A70196010E94A2240E9466246B
:100EF800CA01B9010E94F5252B013C0120E030E030
:100F080040E450E40E94DA23A70196010E949D2440
:100F1800882420EF9222A50194010E94C0240E94F7
:100F2800702340E450E40E948E24A30192010E94A1
:100F380062230E9475240E94BB24A501940169893B
:100F48007A898B899C890E9477236B017C010E9496
:100F58005B230E94DA232B013C01442430EF532207
:100F680020E030E446E75FE3C301B2010E94F525C3
:100F78000E94C5240E946624C301B2010E94622314
:100F88002FE438E346E75FE30E94BB2426EC33E214
:100F980046EF58EBC301B2010E9477236B017C0135
:100FA800898D9A8DAB8D8E5E964FAF4F0E946124CE
:100FB8000E94D4240E94A2246D897E898F89988DED
:100FC8000E94CA194B015C01898D9A8DAB8D865E92
:100FD800964FAF4F0E9461242B013C01A701960157
:100FE80069897A898B899C890E94DA23A3019201F5
:100FF8000E94DA23A50194010E9476220E94D92337
:10100800A30192010E94D9230E947A240E9462239C
:101018004B015C01C984DA84EB84FC84CC2440EF66
:10102800D422A70196010E9493240E94D9230E94EA
:1010380075240E94F5252B013C010E947024C501EE
:10104800B4010E94B624C301B2010E94DA230E94AF
:10105800CF24A70196016D857E858F8598890E948A
:10106800F525962EA72EB82E892E6D87798B182FE9
:10107800092F262F372F482F592F0E94C0240E944E
:10108800A2240E94CA24DC01CB010197A105B34424
:101098000CF0C1CD0E94702421153105410553443F
:1010A80099F42CE33AEA48E353E30E94C0240E94EF
:1010B800DA232B013C010E947F22C301B2010E9466
:1010C800B0251816F4F4A7CDD701C601BF7701974C
:1010D800A641B3447CF40E94702421153105464191
:1010E800534C79F40E947F220E94C0240E94AB25B1
:1010F80018163CF00E94ED240E9469230E94ED24FA
:1011080094CDD701C601BF7781309105A105EFE3E2
:10111800BE070CF461C057E10E940B265A95E1F70F
:101128008E5740E050E060E870E08A019B0104C0FF
:1011380035952795179507958A95D2F7C00ED11E34
:10114800E21EF31ED701C601BF7767E10E940B2696
:101158006A95E1F70E94AC244FEF5FEF6FE770E00C
:10116800082E04C075956795579547950A94D2F748
:1011780040955095609570959A01AB012C213D21C1
:101188004E215F21E894E7F8FF246894E7F867E1C7
:1011980070E0FB01E81BF90B2601370102C00E9431
:1011A8007925EA95E2F7E984FA840B851C8517FF0F
:1011B80008C07094609450944094411C511C611C68
:1011C800711C692D7A2D8B2D982D0E94D9236D873E
:1011D800798B182F092F03C0412C512C32010E9402
:1011E80066246D857989812F902F0E949D248824FB
:1011F80020E8922220E032E741E35FE3C501B40131
:101208000E94F5250E94CA242D853989412F502F27
:101218000E948E240E945B230E94D92328E132E792
:1012280041E35FE30E94BB242CE83EEB4FEB55E320
:10123800C501B4010E9477234B015C019B01AC01FD
:101248000E9493240E94A2240E9470240E94D92301
:101258000E9489240E94CF240E9484244B015C01AF
:101268002CE43BEB41E353E30E94F5252EE03AEEF4
:101278004DED55E30E94D9230E947F2425E533EBE9
:101288004AE858E30E94DA230E947F2421E63BE0E3
:1012980046E35BE30E94D9230E947F242BEA3AEAC3
:1012A8004AE25EE30E94DA23A50194010E94B62473
:1012B8000E94DE244B015C010E94D4240E94F52583
:1012C8000E94CA2420E030E040E050E40E948E24CE
:1012D8009B01AC010E9493240E94F1254B015C0103
:1012E8000E9466240E94E3240E9466240E94DA2356
:1012F8000E948924A70196010E94D9230E946F2584
:101308000E94D9239301820147E1000F111F221F78
:10131800331F4A95D1F7060F171F281F391F0115CC
:10132800110540E82407310524F4A2010E94CE16D5
:1013380002C0C901B8010E946B2477CC0E94922593
:1013480006C060E070E0CB0102C0C501B401A396FD
:06135800E0E10C94FC1F13
:10135E002F923F924F926F927F928F929F92AF9267
:10136E00BF92CF92DF92EF92FF920F931F93CF9384
:10137E00DF93CDB7DEB72E97CDBFDEBF4C016B012D
:10138E00380119821A828FEF9FEF8B839C831D8207
:10139E001E824F83588729873A87A12CB12CD601FC
:1013AE002D913D914C912A0D3B1D411DB7FC4A9547
:1013BE000E940125811114C0F601208331834283DE
:1013CE000E940125853209F044C11901442EFFEF18
:1013DE002F1A3F0A4F0AD6012D923D924C9217C0FA
:1013EE00853251F3B401082E000C990B0E94601740
:1013FE004FEFA41AB40AD3CF2C328CF02D32D9F47D
:10140E0029813A81216029833A830E947E230E949A
:10141E0091222B3289F729813A812460F4CF203230
:10142E0021F429813A812860EECF233251F42981AB
:10143E003A812061E8CF203321F429813A8122605C
:10144E00E2CFB701C6010E94A11A8D839E8397FF3A
:10145E000BC029813A81F1E02F2729833A83919598
:10146E00819591098D839E8389819A8180FF03C026
:10147E008D7F89839A830E9491222E3241F40E949D
:10148E007E23B701C6010E94A11A8B839C83C601DD
:10149E000E94A917182FD6012C9111968C91119795
:1014AE0012969C91E22FF82F849197FD8081082E41
:1014BE00000C990B0E944C23893609F42FC084F43A
:1014CE00833609F481C034F4853209F495C081362F
:1014DE00E1F0A0C0843611F188360CF46CC09AC0CD
:1014EE00803709F442C03CF48E3609F459C08F3669
:1014FE0009F42BC08FC0853709F41EC0883709F454
:10150E002DC0833709F086C069C00E949A2209F463
:10151E009EC00E94FC240E94000096C0612F70E0C5
:10152E00970141E050E00E94022409F490C00E940D
:10153E00F7240E948A1488C00E940C2309F487C0E5
:10154E000E94F7240E94CE1C7FC00E940C2309F437
:10155E007EC00E94F7240E94FF1976C00E940C23C1
:10156E0009F475C00E94F32016C0970140E050E0C8
:10157E0060EF70E00E94022409F469C00E94F92510
:10158E008B859C85892B31F400E010E021E339E056
:10159E0040E054C028E70E9414230E94300D54C02E
:1015AE00A501460D571D612F70E09701CE010B96D8
:1015BE000E9400004CC00E949A2209F448C00E946A
:1015CE00FC240E94000040C0103809F040C00E9468
:1015DE00042302968D939C9380811AC0103809F0D3
:1015EE0036C00E94042303968D939C9320813181F3
:1015FE00428100E010E022C0103849F5F60120814A
:10160E00318142812F5F3F4F4F4F20833183428381
:10161E008B870EC085E28B87F60120823182428253
:10162E0019821A821D821E828FEF9FEF8B839C83FD
:10163E009E01255F3F4F40E801E010E0BE016F5F65
:10164E007F4FC4010E9469188A0D9B1D03C00E9422
:10165E00F925C5012E96CDBFDEBFDF91CF911F912B
:10166E000F91FF90EF90DF90CF90BF90AF909F9033
:0E167E008F907F906F904F903F902F90089527
:10168C004F925F926F927F928F929F92AF92BF9286
:10169C00CF92DF92EF92FF92A3E5B2E64D905D9070
:1016AC006D907C900E9479258AEF581A6108710818
:1016BC00C301B20122E00E947E252A95E1F70E9427
:1016CC0074256B017C01E0E0F2E6A285B3859B01F9
:1016DC00AC016DE00E943824E9F70E945B2573E0B1
:1016EC000E9465257A95E1F7A085B185A301920149
:1016FC000E9460250E940B26880D991DAA1DBB1DFA
:10170C0032E10E94D925E9F79C01AD0130584F4FC9
:10171C005F4FA681B7810E941A224B015C014FE0FA
:10172C000E9465254A95E1F781149104A104B10446
:10173C0009F493C0A70196016BE00E943824E9F7E5
:10174C00A089B1890E9444236B017C01A685B785D1
:10175C00A30192010E9460250E9451250E948325BD
:10176C00D701C60122E00E94D525E9F7C484D584AF
:10177C000D2C000CEE08FF087601DD24CC240E9411
:10178C0083254CE00E9456254A95E1F7E7E5F2E601
:10179C000E943D25A7019601280F391F4A1F5B1F88
:1017AC00ABECB3EF0E944723805B9C4397FD06C0D4
:1017BC000E94DD25991F0E94BD2304C00E94BD23F9
:1017CC000E948825C701B60123E0969587957795E9
:1017DC0067952A95D1F70E9474259B01AC016DE0A9
:1017EC0056954795379527956A95D1F7E0E0F2E63F
:1017FC00A689B7890E945B257CE00E9465257A95B5
:10180C00E1F7A7019601A2E05695479537952795E4
:10181C00AA95D1F7A489B5890E9460252DE00E9474
:10182C00D525E9F7B501A401480F591F6A1F7B1F85
:10183C0082899389092E000CAA0BBB0B840F951F70
:10184C00A61FB71F34E00E94D925E9F7BC01CD01D2
:10185C006C0D7D1D8E1D9F1D03C060E070E0CB01E3
:10186C00FF90EF90DF90CF90BF90AF909F908F90B4
:0A187C007F906F905F904F900895E9
:101886004F925F926F927F928F929F92AF92BF928A
:10189600CF92DF92EF92FF920F931F936B017C0121
:1018A600DC01CB01B701A6014427552760787F7775
:1018B6004115510560487F4749F40E946A250E94F8
:1018C600F525A70196010E94DA2318C018161906F5
:1018D6001A061B06C4F0892B8A2B8B2B09F4A6C08B
:1018E60081E290E080930060909301600E946A25F7
:1018F6000E94D9239B01AC010E94F125562F472F48
:10190600382F292F97C067E10E9456256A95E1F77F
:101916000E94B124D1F4C12CD12C7601A7FD08C0B8
:101926000E9451252FEFC21AD20AE20AF20AF6CF16
:1019360021E0C21AD108E108F108F094E094D094AD
:10194600C094C11CD11CE11CF11C2FE7C21AD1089E
:10195600E108F108AF77BB27A068C0FE02C00E946D
:1019660051250E9456250E945125E9E1F0E040E00C
:1019760050E060E071E0812C912C540100E010E011
:10198600980128013901440E551E661E771E8415DE
:101996009505A605B70574F093018201040F151F7E
:1019A600261F371F84199509A609B709840E951EA7
:1019B600A61EB71E0E9451257695679557954795A1
:1019C6003197F9F6892B8A2B8B2B21F10E945C2407
:1019D6000E94D9230E94B5250E94B02587FD1AC012
:1019E6000E945C240E94DA230E94B5250E94B0253D
:1019F600181634F482E0880E911CA11CB11C0AC092
:101A0600D501C40181709927AA27BB27880E991E84
:101A1600AA1EBB1ED501C4010E940B26B15C37E18C
:101A26000E9488253A95E1F70E9483255C2D4D2D6D
:101A36003E2D2F2D652F742F832F922F1F910F91DF
:101A4600FF90EF90DF90CF90BF90AF909F908F90D8
:0A1A56007F906F905F904F9008950D
:101A6000AFE0B0E0E6E3FDE00C94B11F1C016B01B8
:101A700049835A832B83FB018281938184809580E3
:101A8000E080F180A680B78097FD03C0E894E1F87C
:101A900002C081E090E0E981FA814080518062805B
:101AA00073809701207133272C833D838401E4FEEA
:101AB00005C00E94062511F002501109F701E870D7
:101AC000FF27EE83FF83E3FE02C001501109F601F8
:101AD0000084F185E02D3197EE87FF87EA0DFB1D2D
:101AE00010829C01201B310B28873987C701827027
:101AF00099278A879B87EB818E2FEE0F990B9C018C
:101B0000215431092C873D872E853F8522303105B0
:101B100030F48C819D81892B09F03FC057C00E9411
:101B2000062559F18E859F8501978E879F87C20173
:101B30008F7099278A30910514F4C09602C0895A93
:101B40009F4FEC85FD857A9748F49C0120622156D1
:101B500031092A31310510F40E94E222EE85FF8519
:101B6000EA0DFB1D80830150110984E0769467948F
:101B7000579447948A95D1F7C7CF88859985800F68
:101B8000911F1816190674F2101611060CF0C1CF29
:101B9000EA85FB85EF2B31F6BCCFE981FA810E9403
:101BA0003D25892B8A2B8B2B89F0EE85FF85EA0D4D
:101BB000FB1D31972B8120838E859F8502978E8711
:101BC0009F87FC01EA0DFB1D80E38083EE81FF818E
:101BD000EF2B59F02E853F85215031092E873F8705
:101BE000F901EA0DFB1D80E28083F6012085318535
:101BF000215031098E859F85281B390B8A0D9B1D2D
:101C0000AC0160E88401C1010E9438169C01F10119
:101C10008081918190FF03C00E9408240CF4C901C7
:081C20002F96E2E10C94FA1F7B
:101C28004F925F926F927F928F929F92AF92BF92E4
:101C3800CF92DF92EF92FF92E3E5F2E68080918007
:101C4800A280B3802CE2921A21E0A20AB108ABE587
:101C5800B2E6CD90DD90ED90FC90BEE00E94882524
:101C6800BA95E1F7E0E0F2E6848D958D092E000C37
:101C7800AA0BBB0B24E10E943224E9F7C81AD90A3F
:101C8800EA0AFB0AA68DB78DA50194010E94442398
:101C9800C61AD70AE80AF90A30E4D30EE11CF11C87
:101CA8003FE00E9456253A95E1F7A0911B62B0E00B
:101CB800A50194010E941A222B013C014BE00E94CD
:101CC80079254A95E1F740E8540E611C711CA091F2
:101CD80020620A2E000CBB0BA50194010E9444232C
:101CE8005AE00E947E255A95E1F7A30192010E94CD
:101CF8002621DC01CB016AE00E940B266A95E1F7F8
:101D08009C01AD01405E5F4FA18DB28D0E946025A0
:101D1800905EAF4FBF4FBC01CD01EEE00E947E2523
:101D2800EA95E1F7A70196010E9426216B017C0143
:101D3800FFE00E947E25FA95E1F70E9474259B0139
:101D4800AC01A7E05595479537952795AA95D1F702
:101D5800A0911862B0E00E941A22DC01CB0124E0B5
:101D68000E94D525E9F7A7019601281B390B4A0BD4
:101D78005B0BDA01C90157FF03C080E090E0DC018A
:101D880081309105A10539E1B30724F080E090E0A6
:101D9800A0E0B9E1BC01CD012CE00E947E252A9586
:101DA800E1F7FF90EF90DF90CF90BF90AF909F90BA
:0C1DB8008F907F906F905F904F90089587
:101DC400CF930E94332580FF1BC080919E62843094
:101DD40049F08B3069F0813071F480E28093A5047E
:101DE40082E007C083E080939E620E94142403C0B3
:101DF40083E080939E620E9433258E7F0E94382563
:101E0400E0919E628E2F90E08C30910508F096C090
:101E1400FC01E85BFF4F0C94562480E28093A504F8
:101E24000E9429140E94711E811105C064EC77E0A0
:101E340080E00E94EB2280E28093A6046DEE77E0BE
:101E440080E00E94EB2267E378E080E00E94EB22CE
:101E540060E778E080E00E94EB2281E06DC00E94A0
:101E640013260E94D02283E067C00E949A23C09365
:101E7400A6040E944E220E94F71C2BC0ABE4B2E6DB
:101E84008D919D910D90BC91A02D843B9105A10550
:101E9400B10509F03AC080919D6291E0803F08F459
:101EA40090E020EF929F80191124811102C083E0F9
:101EB40001C085E080939E620E9414240E94BE2289
:101EC40024C00E949A23C093A5040E944E220E941B
:101ED400481D0E940E2484E080939E62C093A50452
:101EE4002DC00E94BE220E94CD200E940E2423C039
:101EF400EBE4F2E60E943D250297A105B10529F421
:101F04000E94142486E080939E62CF910C947A1CE4
:101F14000E94711E0E94A1230E94EE100E94A82319
:101F24000AC067E978E080E00E94EB2204C00E94C6
:101F3400A1230E94EE108BE080939E62CF910895BE
:101F44000F931F93CF93DF93CDB7DEB76897CDBFC1
:101F5400DEBF28E10E94D12568E886E70E94831647
:101F640000E012E68A810E94CD252981820F911D0D
:101F7400F801808391838C810E94CD252B81820F6F
:101F8400911D828393838E810E94CD252D81820FA2
:101F9400911D8483958388850E94CD252F81820F8E
:101FA400911D868397838A850E94CD252985820F7A
:101FB400911D808791878C850E94CD252B85820F6A
:101FC400911D828793878E850E94CD252D85820F52
:101FD400911D8487958788890E94CD252F85820F3E
:101FE400911D868797878A890E94CD252989820F2A
:101FF400911D808B918B8C890E94CD252B89820F1A
:10200400911D828B938B8E890E94CD252D89820F01
:10201400911D848B958B888D0E94CD252F89820FED
:10202400911D868B978B21E00E94D12561EA86E77A
:102034000E9483168981F801808F27E00E94D125B0
:1020440061EE86E70E9483162A8130E0322F222730
:102054009981290F311DF801218F328F9B81938F34
:102064009D812C81F0E12F9F90011124492F4F7005
:10207400242BF801248F358F2E81F0E12F9F9001BE
:10208400112492959F70292BF801268F378F9F81F9
:1020940090A36896CDBFDEBFDF91CF911F910F91C2
:0220A40008959D
:1020A600CF93DF9380E094E023E0FC012083C0E43B
:1020B600D4E035E03883A0E6B4E032E13C9360EA50
:1020C60074E030E2FB013083FC01148241E04C8372
:1020D60040E114964C931497FB013483FC010E9453
:1020E6001025148A158A168A178A188A198A1A8A4E
:1020F6001B8A1C8A1D8A1E8A1F8A50961C9250971C
:1021060051961C92519752961C92529753961C9236
:10211600539754961C92549755961C9255975696DB
:102126001C92569757961C92FB010E941025148A02
:10213600158A8BE0868B178AE0EEF5E01182108215
:102146001582178210861186168222838BE196E20B
:1021560080937B6290937C628CE196E280937962B5
:1021660090937A628DE196E280937762909378629B
:102176008EE196E280937562909376628FE196E2A5
:10218600809373629093746280E296E280937162A8
:102196009093726281E296E280936F62909370628E
:1021A60082E296E280936D6290936E6283E296E29B
:1021B60080936B6290936C628AE196E28093696287
:1021C60090936A6289E196E280936762909368626F
:0621D600DF91CF91089596
:1021DC00CF93DF93EC016FE876E080E00E94E21D84
:1021EC0066EA76E080E00E94E21D89811F928F935F
:1021FC008FEE96E0A0E0AF939F938F930E94A72061
:10220C008A811F928F938AE097E0A0E0AF939F930F
:10221C008F930E94A7208B812AE0829FC0011124FA
:10222C009F938F938CE197E0A0E0AF939F938F9354
:10223C000E94A7208881282F082E000C330B3F9377
:10224C008F938FE297E0A0E0AF939F938F930E94C0
:10225C00A72064E477E080E00E94EB226EEE75E04C
:10226C0080E00E94EB228B812AE0829FC001112426
:10227C009F938F938A811F928F9389811F928F9343
:10228C008881282F082E000C330B3F938F9382E507
:10229C0097E0A0E0AF939F938F930E94A7208DB7F8
:0E22AC009EB74F968DBF9EBFDF91CF910895D4
:1022BA008F929F92AF92BF92CF92DF92EF92FF924C
:1022CA00EFE5F2E60E943D25E0E0F2E64081518129
:1022DA0060E070E06C017D0124E00E9456252A9599
:1022EA00E1F7C41AD50AE60AF70A33E00E94D925AB
:1022FA00E9F70E944C254C015D01841A950AA60A49
:10230A00B70AA5019401A281B3810E945B253BE033
:10231A000E9465253A95E1F70E946A250E942621C6
:10232A009B01AC016CE00E943824E9F7A481B581D5
:10233A000E9460257EE00E940B267A95E1F7A501AE
:10234A009401280F391F4A1F5B1FE3E5F2E6208339
:10235A00318342835383A5E0B0E00E941A22DC0154
:10236A00CB0180589F4FAF4FBF4F692F7A2F8B2FCA
:10237A00992787FD9A95FF90EF90DF90CF90BF90B5
:08238A00AF909F908F90089521
:1023920010C00E94EE2358F00E94E72340F029F477
:1023A2005F3F29F00C94502451110C94F6230C94A5
:1023B2000E260E94D91E68F39923B1F3552391F397
:1023C200951B550BBB27AA2762177307840738F0A2
:1023D2009F5F5F4F220F331F441FAA1FA9F332D002
:1023E2000E2E3AF0E0E82FD091505040E695001CB6
:1023F200CAF728D0FE2F26D00E94DD25BB1F261744
:1024020037074807AB07B0E809F0BB0B802DBF01C7
:10241200FF2793585F4F3AF09E3F510568F00C94A6
:1024220050240C94F6235F3FE4F3983ED4F3869550
:102432000E94F2249F5FD9F7880F911D9695879588
:1024420097F90895E1E00E94DD25BB1F621773072B
:102452008407BA0720F0621B730B840BBA0BEE1FC2
:0624620090F7E0950895DB
:102468000FC00E94E72338F00E94EE2320F0952346
:1024780011F00C9450240C940E2611240C94F6237D
:102488000E94D91E70F3959FC1F3950F50E0551F18
:10249800629FF001729FBB27F00DB11D639FAA27B1
:1024A800F00DB11DAA1F649F6627B00DA11D661F00
:1024B800829F2227B00DA11D621F739FB00DA11D21
:1024C800621F839FA00D611D221F749F3327A00DDB
:1024D800611D231F849F600D211D822F762F6A2F77
:1024E80011249F5750409AF0E1F088234AF0EE0FEC
:1024F800FF1FBB1F661F771F881F91505040A9F709
:102508009E3F510570F00C9450240C94F6235F3FC5
:10251800E4F3983ED4F386950E94F224E7959F5FF2
:10252800D1F7FE2B880F911D9695879597F90895F9
:1025380011C00E94E72338F00E94EE2320F039F4FE
:102548009F3F19F426F40C940E260EF4E095E7FB51
:102558000C945024E92F0E94D91E58F3BA17620729
:1025680073078407950720F079F4A6F50C94F523F2
:102578000EF4E0950B2EBA2FA02D0B01B901900196
:102588000C01CA01A0011124FF27591B99F0593FDA
:1025980050F4503E58F11A16F040A22F232F342F32
:1025A8004427585FF3CF469537952795A795F04070
:1025B8005395C9F77EF41F16BA0B620B730B840B85
:1025C800AAF0915091F0FF0FBB1F661F771F881F5D
:1025D800C2F70CC0BA0F621F731F841F38F48795A7
:1025E8000E94F2249E3F08F0B2CF9395880F08F01E
:0A25F8009927EE0F97958795089537
:10260200A0E0B0E0E7E0F3E10C94B31FDC012801A5
:102612001696AD90BC901797F70180819181129622
:10262200ED91FC9113971896CD91DC911997219712
:10263200F7FF02C0E1E0F0E0CA0DDB1D188269017C
:10264200A1E0B0E08F01021B130B4C01F2E08F22DC
:102652009924052C000C66087708CE018A199B097B
:10266200CA15DB0519F1411551056105710589F09E
:10267200CB01BA01A30192010E94FB1ECA01A62F3F
:10268200B72F605D6A9341E0C41AD108A901BC0169
:10269200E4CF98012C0D3D1D121613064CF31C14A9
:1026A2001D0434F48114910419F702C080E090E013
:1026B200AB2B31F4F701208131812F7E20833183CE
:0A26C200CDB7DEB7E0E10C94FC1F79
:1026CC00CF92DF92EF92CF93DF93CDB7DEB76197C6
:1026DC00CDBFDEBF9C01AB0183EBC82E87E0D82EAB
:1026EC0080E0E82E81E1F601DE0111967E2D0E943C
:1026FC00DD21FA0180810E94C9258083FA01808145
:10270C000E9408268183FA0181810E94C925828357
:10271C00FA0181810E9408268383FA0182810E943A
:10272C00C9258483FA0182810E9408268583FA01D7
:10273C0083810E94C9258683FA0183810E94082621
:10274C0087838DE080878AE08187128680919D62E5
:10275C001F928F93C901A0E8AF939F932F9385E9A4
:10276C0097E0A0E0AF939F938F930E94BA20CDBFC8
:10277C00DEBF6196CDBFDEBFDF91CF91EF90DF90D2
:04278C00CF9008954D
:10279000CF93DF93DC01F90168387105D1F05CF467
:1027A0006138710521F16438710589F1603871056E
:1027B00009F04AC02CC0603C710521F1603F7105F1
:1027C00009F437C0603A710509F03EC00E948C23BD
:1027D00022C00E948C23452B39F04881042E000C26
:1027E000550B660B770B1DC0488150E02AC0C08195
:1027F000D181CE01049680839183488159816A8179
:102800007B810FC0C081D181CE01029616C00E948B
:102810008C23452BA1F048815981052E000C660BB5
:10282000770B4D935D936D937C93139781E090E0CC
:102830000DC0C081D181CE010396808391834881F0
:10284000598160E070E0EDCF80E090E0DF91CF91C2
:022850000895E9
:10285200CF938EE391E0A0E0AF939F938F930E947A
:1028620094204FEF62E070E682E492E60E94C42375
:102872004FEF61E071E68DE392E60E94C42382E0AD
:10288200809366042FE739EA93E02150304090406C
:10289200E1F700C00000809365042FE738E381E090
:1028A200215030408040E1F700C0000084E0809376
:1028B20045040F900F900F900E942624882339F030
:1028C2000E940226682F8DE392E60E946B208DE320
:1028D20092E60E949C25882379F30E942024882373
:1028E20059F38DE392E60E946C22C82F0E94452183
:1028F200CA3011F78AE00E9445219FE728E331E0C0
:10290200915020403040E1F700C00000CF910C947C
:02291200E118CA
:10291400A2E0B0E0E0E9F4E10C94B11F4C016B01DA
:10292400FB0122813381A480B5800E949323FA01A4
:102934002080318042805380B201A10157FE07C03C
:1029440044275527BA01421953096409750937FD0B
:1029540003C08D7F89839A83950157FC05C08981C3
:1029640082FD02C083FF02C021503109CE010196CD
:102974007C010AE010E0C6010E94011357FC03C069
:10298400298122FF08C00E940B2557FC02C02BE2BC
:1029940007C02DE205C023FF04C00E940B2520E2DE
:1029A40020830E9463218501C4010E9438169C0182
:1029B400F4018081918190FF03C00E9408240CF4EB
:0A29C400C9012296E2E10C94FA1F0B
:1029CE002F923F924F926F927F928F92AF92BF92C1
:1029DE00CF92EF92FF920F931F93CF93DF93CDB7CA
:1029EE00DEB7A097CDBFDEBF00E010E0CE010196AE
:1029FE007C018EEB682E81E0782E80E0882E170108
:102A0E0090E8492E94EAA92E91E0B92E90E0C92EB5
:102A1E0088EF800F883030F41F930F93CF92BF92C0
:102A2E00AF9205C01F930F938F927F926F92FF927A
:102A3E00EF920E94E020842DB1010E941B19CDBFA0
:102A4E00DEBF0F5F1F4F0834110511F7A096CDBFE3
:102A5E00DEBFDF91CF911F910F91FF90EF90CF903E
:102A6E00BF90AF908F907F906F904F903F902F9030
:022A7E000895B9
:102A8000CF93DF93CDB7DEB72897CDBFDEBF28E069
:102A90000E94D12567EF86E70E9483168F81988573
:102AA000982789279827A0E0B0E0EBE5F2E60E949E
:102AB0002E258C810E94AF230E944C25FA95E1F7C8
:102AC0009D81892F90E0A0E0B0E024E00E943224B4
:102AD000E9F7842B952BA62BB72B2E8122952F70EF
:102AE000822BEFE5F2E60E942E2589810E94AF231A
:102AF0000E944C25FA95E1F79A81892F90E0A0E099
:102B0000B0E024E00E943224E9F7842B952BA62B19
:102B1000B72B2B8122952F70822BE7E5F2E60E94DE
:0E2B20002E252896CDBFDEBFDF91CF91089500
:102B2E006DE473E080E00E943C2361E773E080E097
:102B3E000E941B196DE773E080E00E941B196AE882
:102B4E0073E080E00E941B196CEA73E080E00E9443
:102B5E001B1967EC73E080E00E941B196AEF73E0AB
:102B6E0080E00E941B196DE274E080E00E941B1948
:102B7E006FE574E080E00E941B1968EE72E080E061
:102B8E000E941B1968EF72E080E00E941B1960E141
:102B9E0073E080E00E941B196BE273E080E00E94FC
:102BAE001B190E94E71461E671E080E00E941B1978
:102BBE006BE473E080E00E94E21D0E94E5250E9416
:0A2BCE00E925E9F700C000000895B2
:102BD8006F927F928F92EF92FF920F931F93CF93F2
:102BE800DF93CDB7DEB76197CDBFDEBFFE0131966B
:102BF80051E1DF011D925A95E9F7A2E0B1E0A983FE
:102C0800BA838B839C8377FF09C08FE490E080931D
:102C18000060909301608FEF9FEF19C03901842EF7
:102C28007C01615071096E837F839801682DA3012F
:102C3800CF010E941220488559852E813F81421775
:102C4800530708F49A01F701E20FF31F1082619607
:102C5800CDBFDEBFDF91CF911F910F91FF90EF9015
:082C68008F907F906F9008959A
:102C70006F927F928F92AF92BF92CF92DF92EF923C
:102C8000FF920F931F93CF93DF935C013A01862E3F
:102C9000E901670181E0C822DD24E0FC03C02017C0
:102CA000310758F09E01682DA301C5010E94D31A77
:102CB000C017D10710F0CE0118C07801EC1AFD0A38
:102CC000E114F10449F0B50180E290E00E94601740
:102CD00081E0E81AF108F4CFCD2831F49E01682D87
:102CE000A301C5010E94D31AC801DF91CF911F91A2
:102CF0000F91FF90EF90DF90CF90BF90AF908F90AB
:062D00007F906F90089522
:102D0600EF92FF920F931F93CF93DF930F92CDB75E
:102D1600DEB769837A01022F60E00E944E1E182FEB
:102D2600882381F161E0CE0101960E941D1F182FB4
:102D3600811104C083E08093040924C080910709AF
:102D460081608093070981E08093040980910509D9
:102D560085FD0BC08091050982FD07C0809105099C
:102D660083FD03C00E94422589F70E948D21882396
:102D760029F083E08093040910E004C0602FC701A6
:102D86000E94971D812F0F90DF91CF911F910F9178
:062D9600FF90EF9008958C
:102D9C000F931F93CF93DF93EA014038510594F0C2
:102DAC000E9454239E012F573109203831050CF114
:102DBC000E945423CE5FD109C038D105DCF0CFE797
:102DCC00D0E018C042385F4FACF40E94FC239E0147
:102DDC002A593F4F22384FEF34075CF40E94FC23F2
:102DEC00C453DF4FC2382FEFD20724F4C2E8DFEF11
:102DFC0001C0E9019E0121583F4F8901330F220B7D
:102E0C00330BA9019801E7E1220F331F441F551F13
:102E1C00EA95D1F70E94F525DF91CF911F910F9183
:022E2C00089507
:102E2E00A3E8B0E0EDE1F7E10C94B71F5C014901B6
:102E3E00CF57DF4F488359836A83C158D040C12C86
:102E4E00D12CCF57DF4F2881C158D040CE57DF4FFE
:102E5E009881C258D040CD57DF4F8881C358D0409B
:102E6E00E22FF92F949187FD90819923E1F074015F
:102E7E00860120E830E00E94D125BE016F577F4FBA
:102E8E00C5010E94AF098C0D9D1D8C159D054CF43E
:102E9E008FE490E080930060909301608FEF9FEF3E
:102EAE0003C06C01CECFC601CD57DF4FECE00C94C2
:022EBE000020F2
:102EC0000F931F93CF93DF93DB012D913C911197CB
:102ED00030FF25C017964D915C91189715962D914E
:102EE0003C9116974217530778F41296ED91FC9196
:102EF0001397808312962D913C9113972F5F3F4F2C
:102F000012962D933C93139717962D913C911897F9
:102F10002F5F3F4F17962D933C93189715C01D9622
:102F2000ED91FC911E97309719F48FEF9FEF0CC035
:102F30008B01EC010995892BC1F7F80187819085F8
:102F4000019687839087CE01DF91CF911F910F91DA
:022F50000895E2
:102F5200CF92DF92EF92DC0190E0292F30E0220F36
:102F6200331F6901032E000CEE086E2DA60144509A
:102F7200574F6F4F6A01E62EFA018491E7FC808178
:102F8200811106C00E943022849147FD80811DC0BC
:102F9200CD90DD90EC901297F6014491E7FC4081D0
:102FA20084130EC00E943022949147FD90815FEFFE
:102FB200C51AD50AE50ACD92DD92EC92129701C0AC
:102FC2009F5F9B3008F4C9CF892FEF90DF90CF909D
:022FD200089560
:102FD4001F920F920FB60F9211242F933F934F938A
:102FE4005F936F937F938F939F93AF93BF93EF936D
:102FF400FF937A9B05C0E0917762F091786209951E
:103004007D9B05C0E0917562F091766209957C9B89
:1030140005C0E0917362F09174620995799B05C0D3
:10302400E0916962F0916A6209958FEF8FB9FF911F
:10303400EF91BF91AF919F918F917F916F915F912C
:103044004F913F912F910F900FBE0F901F901895A5
:103054008F929F92AF92BF92CF92DF92EF92FF92A4
:103064000E94460B4B015C010E94472524E036E593
:103074004AE150E40E94DA2323E333E948E853E4C5
:103084000E94DA239B01AC0164E076E58AE190E4D6
:103094000E94F1250E946F250E94D92328E539E377
:1030A40048EA50EC0E949C046B017C01C501B40108
:1030B4000E94C722A70196010E94F525FF90EF9078
:0E30C400DF90CF90BF90AF909F908F900895B7
:1030D2006F927F928F92CF92DF92EF92FF920F9335
:1030E2001F93CF93DF936C01FB013901842EC8013A
:1030F200C281D38104811581E080F180232B242BAE
:1031020031F42AE2622E29E0722E20E0822E00970C
:1031120021F4882DB3010E944020D7FD04C0C817B6
:10312200D90708F4CE019C01682DA301C6010E94B3
:103132003816DF91CF911F910F91FF90EF90DF90A2
:0A314200CF908F907F906F9008955A
:10314C001F920F920FB60F9211242F933F934F9310
:10315C005F936F937F938F939F93AF93BF93EF93F3
:10316C00FF938091430180FF07C0E0918362F0914F
:10317C008462309709F009958091430181FF07C063
:10318C00E0918162F0918262309709F0099583E0B9
:10319C0080934301FF91EF91BF91AF919F918F91DC
:1031AC007F916F915F914F913F912F910F900FBE37
:0631BC000F901F90189512
:1031C200CF936FE171E080E00E94E21D47E251E09F
:1031D20060E082E492E60E946D1A0E944A2431F075
:1031E2000E94ED25D1F30E94D223F7CFC0E0C11196
:1031F20018C00E942624882321F00E943E240E94A7
:103202006B200E944424A9F30E942024882389F37E
:103212000E94A625C1E08A3009F0C0E00E94452143
:10322200E6CF0E94E5250E94E925E9F700C00000EB
:04323200CF9108959B
:103236006F927F928F92CF92DF92EF92CF936B0134
:10324600E82E67E371E080E00E94CB236E2DA60195
:1032560082E492E60E946D1AC0E036018E2C6C0E56
:10326600711C811CF301849187FC8081882351F0B5
:103276000E944A24B9F30E94ED25A1F30E94D223AD
:10328600CF5FEBCF0E94E5250E94E925E9F700C054
:103296000000CF91EF90DF90CF908F907F906F904E
:0432A6000C94201D47
:1032AA00CF92DF92EF92CF93DF93FB01249187FDB8
:1032BA002081DA011D96ED91FC911E97EF2B21F0EA
:1032CA00EA016B01E82E0FC08FEF9FEF1DC0822F1E
:1032DA000995BFEFCB1ADB0AEB0A892BA9F7F6018E
:1032EA002491E7FC2081ED85FE85BE012111EFCFF7
:1032FA008AE0099521E030E0892B11F420E030E0E2
:10330A0088279927821B930BDF91CF91EF90DF904B
:04331A00CF900895B3
:10331E001F920F920FB60F9211242F933F934F933C
:10332E005F936F937F938F939F93AF93BF93EF931F
:10333E00FF93599B05C0E0917B62F0917C620995E9
:10334E00589B05C0E0917962F0917A6209955A9B7B
:10335E0005C0E0916B62F0916C6209958FEF8BB9AD
:10336E00FF91EF91BF91AF919F918F917F916F914F
:10337E005F914F913F912F910F900FBE0F901F9025
:02338E00189590
:10339000E89404C097FB16F40E94FC229923A9F03C
:1033A000F92F96E9BB279395F695879577956795BD
:1033B000B795F111F8CFF2F4BB0F11F460FF1AC00A
:1033C0006F5F7F4F8F4F9F4F15C0882311F096E995
:1033D00010C0772321F09EE8872F762F05C0662343
:1033E00069F096E8862F70E060E022F09A950E94DE
:0E33F000DD25E2F7880F9695879597F90895E9
:1033FE00A2E0B0E0E5E0FAE10C94B51F0E94442291
:10340E0037FD03C08D7F89839A830E94A32208E033
:10341E0010E09401C6010E940113298124FF04C00B
:10342E000E940B2520E32083298123FF04C00E94E4
:10343E000B2520E220830E9463218401C5010E9496
:10344E0038169C01F5018081918190FF03C00E9486
:0E345E0008240CF4C9012296EEE00C94FE1F27
:10346C00CF93DF936AE171E080E00E94E21DC0E03F
:10347C00C230F9F00E942624882321F00E943E24B9
:10348C000E946B200E94442499F30E9420248823DC
:10349C0079F30E94A625D82F0E944521DA3041F7F6
:1034AC00CF5FC13029F76AE171E080E00E94E21D34
:1034BC00E1CF8AE00E9445212FE78AE196E00E9445
:0E34CC00E925E9F700C00000DF91CF910895D7
:1034DA00CF92DF92EF92DC01FA01849167FD80813D
:1034EA0090E014962C91149730E069017FEFC71A87
:1034FA00D70A1396EC911397F0E0CE16DF06C1F0C7
:10350A008823B1F0ED91FC911197E20FF31F8083AC
:10351A0014968C9114978F5F14968C9314979F5FCF
:10352A006A01E62EC90ED11CE11C0E94A125D9CF41
:08353A00EF90DF90CF9008959F
:10354200DC012D913D914C9112970E9401258A3206
:1035520021F080E090E07AE00DC00E948523DB013B
:10356200ED91FC911197CF0102968D939C938081EE
:10357200918108952D913D914C911297F9015491A9
:1035820047FD508150535A3060F4789FF001799F83
:10359200F00D1124CF01850F911D0E9485231297F2
:0435A200E9CF0895D0
:1035A6006F927F928F92CF92DF92EF920F931F933B
:1035B600CF93DF938C016A01E62EE9013A01862E4C
:1035C600620E731E811C37FD8A94C614D704E80464
:1035D60069F00E94A125B801082E000C990B0E94E3
:1035E60060178FEFC81AD80AE80AEFCFCE01DF912D
:1035F600CF911F910F91EF90DF90CF908F907F909A
:043606006F90089524
:10360A001F920F920FB60F9211242F933F934F934D
:10361A005F936F937F938F939F93AF93BF93EF9330
:10362A00FF93189B05C0E0916F62F0917062099553
:10363A00199B05C0E0916D62F0916E6209958FEF5A
:10364A0083B9FF91EF91BF91AF919F918F917F9134
:10365A006F915F914F913F912F910F900FBE0F90F5
:04366A001F90189500
:10366E001F920F920FB60F9211242F933F934F93E9
:10367E005F936F937F938F939F93AF93BF93EF93CC
:10368E00FF93BE9B05C0E0917162F0917262099545
:10369E00BD9B05C0E0916762F091686209958FEF5E
:1036AE0087BBFF91EF91BF91AF919F918F917F91CA
:1036BE006F915F914F913F912F910F900FBE0F9091
:0436CE001F9018959C
:1036D2001F920F920FB60F9211242F933F934F9385
:1036E2005F936F937F938F939F93AF93BF93EF9368
:1036F200FF938091060B80FF0AC0E0917D62F091FA
:103702007E62309709F0099581E08093060BFF9164
:10371200EF91BF91AF919F918F917F916F915F9147
:103722004F913F912F910F900FBE0F901F901895C0
:103732001F920F920FB60F9211242F933F934F9324
:103742005F936F937F938F939F93AF93BF93EF9307
:10375200FF938091160B80FF0AC0E0918562F09181
:103762008662309709F0099581E08093160BFF91EC
:10377200EF91BF91AF919F918F917F916F915F91E7
:103782004F913F912F910F900FBE0F901F90189560
:1037920060E080E60E94152581E60E94152585E6F7
:1037A2000E94152588E790E00E94BD256CE088E61E
:1037B2000E94152589E60E94152580E70E9415259D
:1037C2008CE70E94152582E60E94152583E60E9459
:1037D200152584E60E94152580E890E00E94BD250B
:0A37E2008091650081FFFCCF08957F
:1037EC001F920F920FB60F9211242F933F934F936A
:1037FC005F936F937F938F939F93AF93BF93EF934D
:10380C00FF9382E080930D06E0916562F091666211
:10381C00309709F00995FF91EF91BF91AF919F916E
:10382C008F917F916F915F914F913F912F910F905D
:08383C000FBE0F901F901895BC
:103844001F920F920FB60F9211242F933F934F9311
:103854005F936F937F938F939F93AF93BF93EF93F4
:10386400FF9381E080930D06E0916362F0916462BE
:10387400309709F00995FF91EF91BF91AF919F9116
:103884008F917F916F915F914F913F912F910F9005
:083894000FBE0F901F90189564
:10389C001F920F920FB60F9211242F933F934F93B9
:1038AC005F936F937F938F939F93AF93BF93EF939C
:1038BC00FF93E0917F62F0918062309709F0099557
:1038CC0081E080935301FF91EF91BF91AF919F9154
:1038DC008F917F916F915F914F913F912F910F90AD
:0838EC000FBE0F901F9018950C
:1038F4000E941A24882339F00E94FC25682F82E450
:1039040092E60E946B200E942624882321F00E94C4
:103914003E240E946B200E94442441F00E942024F3
:10392400882321F00E94A6250E94FF250E944A2494
:1039340049F00E94ED2531F082E492E60E946C2267
:063944000C940526089515
:10394A000E94E11E80F09F5790F0B92F9927B75136
:10395A00A8F0D9F00E94DD25991F1AF0BA95D1F77F
:10396A0014C0B13091F00E94F523B1E008950C948F
:10397A00F523672F782F8827B85F39F0B93FCCF342
:10398A00869577956795B395D9F716F40E94FC2228
:02399A0008958E
:10399C00A2E0B0E0E4EDFCE10C94B51F0E944422DF
:1039AC0037FD03C08D7F89839A830E94A3220AE08E
:1039BC0010E09401C6010E9401130E94632184014E
:1039CC00C5010E9438169C01F5018081918190FF00
:1039DC0003C00E9408240CF4C9012296EEE00C945A
:0239EC00FE1FBC
:1039EE00CF92DF92EF920E94D02160E675E080E0E8
:1039FE000E94CB2344E755E060E00E94D9220E944A
:103A0E006D1A0E944A2431F00E94ED25D1F30E94D6
:103A1E00D223F7CF2FE78AE196E00E94E925E9F756
:103A2E0000C000000E94361AEF90DF90CF900C94E9
:023A3E00C321A2
:103A4000CF936AE171E080E00E94E21D0E9426248B
:103A5000882321F00E943E240E946B200E9444246F
:103A6000A9F30E942024882389F30E94A625C82F49
:103A70000E944521CA3051F78AE00E9445210E94E8
:103A8000E5250E94E925E9F700C00000CF910895DF
:103A9000CF92DF92EF920E94D02163E875E080E040
:103AA0000E94CB2349E955E060E00E94D9220E94A0
:103AB0006D1A0E944A2431F00E94ED25D1F30E9434
:103AC000D223F7CF0E94E5250E94E925E9F700C03F
:103AD00000000E94361AEF90DF90CF900C94C32123
:103AE000CF93DF93CDB7DEB72697CDBFDEBF85EF8F
:103AF0008D838091A1628E8342E0BE016B5F0E9444
:103B00008D2582EF8B838091A0628C8342E0BE0181
:103B10006D5F0E948D2584EF898380919F620E9452
:0E3B2000B6232696CDBFDEBFDF91CF9108956C
:103B2E0020E220930509FC0190E082E09617D1F087
:103B3E002091050925FD0DC02091050922FD09C022
:103B4E002091050923FD05C020910509237023301E
:103B5E0079F72091080921939F5F691739F38093B4
:0C3B6E000409E4CF87E080930409089567
:103B7A00E0E0F8E083E896E00E94F62186E296E229
:103B8A0080938B6290938C6285E296E2809389623D
:103B9A0090938A6284E296E2809387629093886225
:103BAA0010928D6210928E62E0919962F0919A62FF
:0A3BBA0081E292E680839183089572
:103BC4006F927F928F92CF92DF92EF92CF933B01CD
:103BD400882EC0E0E82C6301CC0ED11CE11C0E94AD
:103BE400A125882351F00E9420248823C1F30E9438
:103BF400A1250E944521CF5FEDCFCF91EF90DF90BB
:0A3C0400CF908F907F906F9008958D
:103C0E00990F0008550FAA0BE0E8FEEF16161706DF
:103C1E00E807F907C0F012161306E407F50798F047
:103C2E00621B730B840B950B39F40A2661F0232B60
:103C3E00242B252B21F408950A2609F4A140A695DC
:083C4E008FEF811D811D089517
:103C5600E0E0F2E00E9410258EE4848B158A10A61F
:103C660010A211A212A213A214A215A216A217A2A2
:103C760011A617A610AA85E081AB12AA13AA14AA48
:103C860015A616A612A613A614A615AA16AA17AA4C
:063C960010AE80E008956D
:103C9C009091050993709330D1F0880F682B609345
:103CAC0007098091050985FD0BC08091050982FDEE
:103CBC0007C08091050983FD03C00E94422589F746
:103CCC000E948D21882329F083E08093040980E0F1
:063CDC00089581E0089547
:103CE20067EB78E080E00E94EB220E9436218FE4AD
:103CF20093EC0197F1F700C000000E94A20F80919F
:103D0200A16281788093A16285E280939F6281E0C3
:103D12008093A0620E94701D6FEC78E080E00E94A8
:063D2200EB2281E0089590
:103D280061E874E080E00E943C236AE974E080E086
:103D38000E94E21D4DEA54E060E082E492E60E94AF
:103D48006D1A0E944A2431F00E94ED25D1F30E9499
:103D5800D223F7CF0E94E5250E94E925E9F700C0A4
:063D680000000C94361A65
:103D6E00CF93DF93EC010E94C5250E9447250E9448
:103D7E00E02368830E942A1820E030E040E251E4FC
:103D8E000E94F1250E94A51C6B830E9462220E9454
:103D9E00A51C69830E9429258A83CE01DF91CF91CC
:043DAE000C94EE1073
:103DB20057FD9058440F551F59F05F3F71F04795DA
:103DC200880F97FB991F61F09F3F79F087950895BF
:103DD200121613061406551FF2CF4695F1DF08C0DE
:103DE200161617061806991FF1CF869571056105FB
:043DF2000894089594
:103DF600A1E21A2EAA1BBB1BFD010DC0AA1FBB1FE9
:103E0600EE1FFF1FA217B307E407F50720F0A21B5A
:103E1600B30BE40BF50B661F771F881F991F1A94C7
:103E260069F760957095809590959B01AC01BD01F1
:043E3600CF0108951B
:103E3A00282FFC018E2F821B8617C0F48191809354
:103E4A0008098091050985FD0BC08091050982FD4D
:103E5A0007C08091050983FD03C00E94422589F7A6
:103E6A008091050984FFE6CF80E0089581E00895F6
:103E7A00E0E4F1E0809141018111FACF8FEF93E004
:103E8A0084879587108611868287938781E080933D
:103E9A00470110924201809151018111FCCF81E0CA
:0E3EAA008093520189E48093500180E00895D6
:103EB80089342DE0920738F4883027E0920728F4F7
:103EC80088E097E002C088E49DE0BC016850774034
:103ED80080E090E00E94C8192BEB3FE040E85DE3EA
:0E3EE8000E94F5250E94A51C84E6861B089505
:103EF600E0E2F8E086E191E00E94F62189E296E2AE
:103F0600809393629093946288E296E280939162A2
:103F16009093926287E296E280938F62909390628A
:0A3F260010929562109296620895C1
:103F3000E0E0F6E011821282138214821686138664
:103F4000148681E0808780E481878FEF85838FEFFF
:103F50009FE0848B958B128A138A83E0808380E0B4
:023F60000895C2
:103F62002F923F924F925F926F927F928F929F9287
:103F7200AF92BF92CF92DF92EF92FF920F931F9375
:103F8200CF93DF93CDB7DEB7CA1BDB0BCDBFDEBF4E
:023F9200099490
:103F94000E9453100E94981F0E94C91B0E942B1E4E
:103FA4000E943D1F0E9471210E947F210E94B62120
:103FB4000E94BD1D0E947B1F0E9424230C94A921F2
:103FC4000E94CA1F0E949B218AE290E20E941A2545
:103FD4008CEA92E20E94242585EB92E20E941F253E
:103FE40062EE78E080E00E94EB220E94E20EFDCFB8
:103FF4002A88398848885F846E847D848C849B8475
:10400400AA84B984C884DF80EE80FD800C811B8182
:10401400AA81B981CE0FD11DCDBFDEBFED010895B8
:10402400A2E0B0E0E8E1F0E20C94BF1F8C01298328
:104034003A839E012F5F3F4F0E941717F80120819A
:1040440024FF02C08FEF9FEF2296E4E00C94082037
:104054008091A80486FF0EC080E28093A5040E948C
:10406400332581600E9438250E9433258F7E0E946B
:0C4074003825089580E28093A60408958A
:10408000CF92DF92EF926B01E82EA82FCB01FC01BB
:104090002491A7FD2081222319F00196A11DF7CFBD
:0C40A0008C199D09EF90DF90CF900895DF
:1040AC001F93CF93DF93EB01142F60E00E944E1E01
:1040BC00882339F0612FCE010E941D1F93E090934D
:0A40CC000409DF91CF911F910895C0
:1040D600FC01248130E0A9014F5F5F4F838190E0AE
:1040E6004817590749F080819181DC01A20FB31F5F
:0A40F6006C9384818F5F848308952A
:10410000CF93DF9300D0CDB7DEB780919F628C7FD5
:10411000816080939F6294EF99830E94B6230F90F1
:084120000F90DF91CF9108958B
:10412800A0E0B0E0EAE9F0E20C94C11F0E94882206
:10413800E0919962F0919A62808191810E941220A7
:06414800E2E00C940A20E5
:10414E00A0E0B0E0EDEAF0E20C94C11F0E948822DC
:10415E00E0919962F0919A62808191810E94122081
:06416E00E2E00C940A20BF
:10417400A0E0B0E0E0ECF0E20C94C11F0E948822C1
:10418400E0919962F0919A62808191810E9412205B
:06419400E2E00C940A2099
:10419A0082E00E9404219F938F938CEC95E0A0E02B
:1041AA00AF939F938F930E94A7200F900F900F9029
:0641BA000F900F90089524
:1041C000A0E0B0E0E6EEF0E20C94C11F9E01265F95
:1041D0003F4F4F81588569858D819E810E940E22B7
:0641E000E2E00C940A204D
:1041E600F60180819181A2819C014A2F2F5F3F4F6A
:1041F6004F4F208331834283FC012491A7FD208108
:02420600089519
:104208008093080681E080930A060E94B9258823D6
:10421800E1F3809110069091110621E020930D069C
:024228000895F7
:10422A00092E0394000C11F4882352F0BB0F40F4BA
:10423A00BF2B11F460FF04C06F5F7F4F8F4F9F4FFA
:02424A000895D5
:10424C00DB018F939F930E941A22BF91AF91A29F83
:10425C00800D911DA39F900DB29F900D1124089578
:10426C00CF93DF9300D0CDB7DEB780EE898386EB9A
:0E427C000E94B6230F900F90DF91CF9108950E
:10428A00CF93C82F0E942024882339F090910408E4
:0E429A00906490930408C0930208CF91089599
:1042A800A29FB001B39FC001A39F700D811D11246F
:0E42B800911DB29F700D811D1124911D08955E
:1042C600E980FA80F6012085318521503109281BC5
:0C42D600390B860D971DAC0160E80895BF
:1042E20043E068ED80E590E00E94C12540E068ED82
:0C42F20081E590E00E94C12580E0089565
:1042FE00E0E0FBE08FEF9FEF0E941C2381E18483BF
:0C430E0081E0858316821186808308956B
:10431A00809105098C7141F490910509937081E0AF
:0C432A00933019F080E0089581E00895C0
:104336000E943423E0E0F9E084E0808381E0828318
:0C4346009DEF95839FE09683838308958C
:1043520040E068ED80E191E00E94C125E0E1F1E0FA
:0A43620012821382789480E008951F
:10436C00E0E1FBE080EA9FE00E941C23148281E0E4
:0A437C008583168211868083089560
:1043860061E671E080E00E941B190E94E5250E940B
:0A439600E925E9F700C000000895D2
:1043A0006B01E82E65E175E080E00E94E21D6AE2A3
:0A43B00075E080E00E94E21D089510
:1043BA00992777FD05C005900D920197E1F70895B9
:0A43CA0001900D920197E1F70895AC
:1043D400CF93C82F0E9420248823E1F3C0930208BE
:0843E40080E090E0CF91089504
:1043EC0080879187158280EC868383E08783138690
:0843FC0014861686158608954B
:1044040057FD05C0659175918591959108956191C8
:084414007191819191910895CD
:10441C000F931F9389019A01462F6FEF7FE70E943C
:08442C00EC151F910F9108959A
:104434000E945421A59F900DB49F900DA49F800DC0
:06444400911D11240895F2
:10444A00EC010E942B260E942A26CE010E942C26CD
:06445A00CE010E941726AE
:104460002F5F3F4F032E000C440B2450374F4F4F0C
:04447000F9010895B1
:10447400F60180819181A2810196A11D808391839F
:04448400A283089572
:104488005C016B01FB0122813381848095800E944D
:0444980093230895CD
:10449C0087E492E60E94B71E0E94A82362E372E6AC
:0444AC0080E8089507
:1044B0008F70E1E0F0E0EC0FFD1FE80FF11D80814F
:0444C000F901089561
:1044C4000E94140E0E94C8190E94E1255AE30E941A
:0444D400F52508952D
:1044D800FC019381A081B181A90FB11D8C919F5FCF
:0444E800938308951D
:1044EC000E94DA236627707F0E94E824A5019401BC
:0244FC00089521
:1044FE00292D3A2D4B2D582D0E94DE249B01AC0107
:02450E0008950E
:104510009E012B5F3F4FF9014191519161919F01A4
:024520000895FC
:10452200F60180819181A281FC012491A7FD208165
:024532000895EA
:10453400612F70E0A701CE010B960E940000892B29
:024544000895D8
:10454600FA014081518162817381CE0101967C011D
:024556000895C6
:10455800EFE4F2E60E942C23EFE4F2E60E942E2517
:024568000895B4
:10456A00EBE4F2E60E942C23EBE4F2E60E942E250D
:02457A000895A2
:10457C0010924B6210924C6210924D6210924E62ED
:02458C00089590
:10458E000E94C81920E030E048EC52E40E94F12568
:02459E0008957E
:1045A0000E94941E0E94C32166EF74E080E00C9488
:0245B000EB22FC
:1045B20082E492E60E946D1A6E2DA60182E492E6D2
:0245C20008955A
:1045C4009C01215631092A31310510F48F75992740
:0245D400089548
:1045D600E0919962F0919A62408151810E94551949
:0245E600089536
:1045E8005EE30E94DA23A70196010E94F52508954B
:1045F80090958095709561957F4F8F4F9F4F089547
:104608000E943A22D701ED91FC911197CF010895AC
:10461800612F70E0970140E050E00E940224089565
:10462800AE01455F5F4FBE016F5F7F4FC4010895C4
:10463800848795871286138686E08183108608957D
:10464800E0EBF0E0148285E88083128280E0089530
:1046580080819181A281B3810196A11DB11D089528
:10466800E0E0F4E08AE0818388E0838B828B089520
:104678000E94E21D6CEF71E080E00E94E21D089547
:10468800B7FF0C941A220E941A22821B930B0895DA
:104698009C01215431092A31310508F480620895BA
:0E46A80020E030E040E05FE70E94F525089535
:0E46B6009B01AC0169817A818B819C81089502
:0E46C4000E94D9230E94D4240E94D923089575
:0E46D2006D817E818F8198850E94F525089567
:0E46E0000E94F5250E94CF2420E030E00895CE
:0E46EE000E94F5250E94D4240E94DA2308952C
:0E46FC000196A11DF60180839183A28308958B
:0E470A002F5F3F4F4F4F2D933D934C930895DB
:0E471800C081D181CE010296808391830895E5
:0E4726008081918189839A83668077800895CF
:0E47340080919D628F5F80939D62C0E2089528
:0E47420087E492E60E94B71E87E492E608958F
:0E47500067E472E682E392E60E946613089523
:0E475E0090E0A0E0B0E0AC01BD01FCE00895E9
:0E476C008A8342E0BE016F5F0E948D25089592
:0E477A00A50194010E94FB1E69017A010895B9
:0E478800FC01608371834283138214820895C2
:0E4796000E94E21D8E2DB6010E94E21D0895C4
:0E47A40082E492E60E946C220E94052608958F
:0E47B2005058BB27AA270E949C120C94152178
:0E47C0000E94A51C6894B1110C94F623089574
:0E47CE0000240A941616170618060906089508
:0E47DC0000240A94121613061406050608950A
:0E47EA00E894BB2766277727CB0197F908953F
:0C47F8000E94E1255CE00E94F525089578
:0C480400CE010B960E94C813892B08956A
:0C481000F60182819381821793070895BE
:0C481C00E0E4F1E0808181608083089579
:0C482800E0E4F1E080818E7F8083089541
:0C48340080910408881F8827881F0895C1
:0C4840008091040885FB882780F908950A
:0C484C0080912408881F8827881F089589
:0C4858008091240885FB882780F90895D2
:0C486400880F991FAA1FBB1F2A950895FA
:0C48700055954795379527956A95089552
:0C487C000E940226682F8DE392E608954A
:0C4888008DE392E60E949C258823089591
:0C48940082E492E60E949C25882308958F
:0C48A00097F99F6780E870E060E00895E1
:0C48AC00EE0FFF1F0590F491E02D099421
:0A48B8000E94ED240E94922508954D
:0A48C200FC015A2F0E940222089503
:0A48CC0029813A814B815C81089537
:0A48D6002D813E814F815885089521
:0A48E00029853A854B855C85089513
:0A48EA002D853E854F8558890895FD
:0A48F40029893A894B895C890895EF
:0A48FE00A50194010E94F52508951C
:0A490800A70196010E94E324089520
:0A4912000E94D9240E94D9230895C1
:0A491C00C501B4010E94D9230895DB
:0A49260069857A858B859C850895CC
:0A493000E980FA800B811C810895D4
:0A493A000E94DA234B015C0108958E
:0A4944000E94DA236B017C01089544
:0A494E000D851E852F853889089518
:0A4958008F579109A109B1090895D4
:0A496200C114D104E104F10408952A
:0A496C000E94F5259B01AC0108959F
:0A4976000E94F5256B017C010895F5
:0A49800069817A818B819C81089582
:0A498A00698B7A8B8B8B9C8B089550
:0A49940069877A878B879C87089556
:0A499E0069837A838B839C8308955C
:0A49A8009B01AC01C701B6010895A0
:0A49B2009B01AC01C501B40108959A
:0A49BC00C701B6010E94D923089537
:0A49C600C701B6010E94F52508950F
:0A49D0006D877E878F87988B08950E
:0A49DA0020E632E442EA5DE00895B1
:0A49E40077956795B795F79508954C
:0A49EE000E943A220E94142308954B
:0A49F8000E94F3200E94142308958A
:0A4A0200F901849147FD80810895B9
:0A4A0C00411451046104710408957F
:0A4A16000197F301E80FF91F08955E
:0A4A2000108A118A128A138A089581
:0A4A2A0090E00E94BD2560E00895B1
:0A4A340080937D6290937E620895E6
:0A4A3E0080937F62909380620895D8
:0A4A480080938562909386620895C2
:0A4A520082E00E9404210C945C1F16
:0A4A5C0080839183A283B383089541
:0A4A66008091976290919862089584
:0A4A70008093976290939862089576
:0A4A7A0080819181A281B38108952B
:0A4A840080910509837083300895C6
:0A4A8E000E945D110E94C7220895E6
:0A4A9800440F551F661F771F089595
:0A4AA200880F991FAA1FBB1F08957B
:0A4AAC00F594E794D794C794089599
:0A4AB6000E9444234B015C010895A7
:0A4AC0000E944423DC01CB0108959D
:0A4ACA00B594A7949794879408957B
:0A4AD400A7019601C701B60108957D
:0A4ADE009B01AC010E94922508958F
:0A4AE8009B01AC010E9426210895F5
:0A4AF2007594679457944794089553
:0A4AFC0095958795779567950895C5
:0A4B0600C80ED91EEA1EFB1E08951A
:0A4B1000CC0CDD1CEE1CFF1C089508
:0A4B1A007F4F86E70E9456200895A1
:0A4B240060E070E080E89FE3089570
:0A4B2E00B595A79597958795089512
:0A4B3800FC0183819481891B08951C
:0A4B4200F6018491E7FC80810895DC
:0A4B4C008DE392E60E946C220895AA
:0A4B56000E94071E08F481E0089594
:0A4B60000E94071E08F48FEF08956D
:084B6A000E94E1255FE30895BC
:084B720080910D068170089589
:084B7A00462F68ED0C94C125E3
:084B8200FC0164BF40830895AB
:084B8A000E9480200C944015EC
:084B920082950E94582208954B
:084B9A0090E0982F8827089590
:084BA200AE014F5F5F4F089563
:084BAA000E9497252A95089549
:084BB2000E9497253A95089531
:084BBA00660F771F881F0895A4
:084BC20020E030E040E8089516
:084BCA002FE788E391E0089554
:084BD20021508040904008953D
:084BDA000E942C248823089599
:084BE2000E94C9110C94152179
:084BEA000E9434120C94152105
:064BF2000E943A22089522
:064BF80080910008089501
:064BFE00809302080895F7
:064C0400809120080895D4
:064C0A00809322080895CA
:064C10000E9458220895E5
:064C16000E94972508959D
:064C1C009FEF80EC0895FB
:044C22000C940000EE
:044C26000C9497153E
:044C2A009F770895D3
:044C2E000E948B0055
:024C32000895E3
:024C34000895E1
:024C36000895DF
:024C38000895DD
:024C3A000895DB
:024C3C000895D9
:024C3E000895D7
:024C40000895D5
:024C42000895D3
:024C44000895D1
:024C46000895CF
:024C48000895CD
:024C4A000895CB
:024C4C000895C9
:024C4E000895C7
:024C50000895C5
:024C52000895C3
:024C54000895C1
:024C56000895BF
:024C58000895BD
:104C5A0003000000000000000000000000EA21003C
:014C6A000049
:024C6B009B624A
:02000004008278
:090000000000000000D00800001F
:00000001FF
