:100000000C9469000C9469240C9469240C94692460
:100010000C9469240C9439170C94A21A0C9469243A
:100020000C942A190C9469240C9469240C94692466
:100030000C9469240C9469240C948E190C94BE19A8
:100040000C9469240C9469240C9469240C946924FC
:100050000C9469240C9469240C9469240C946924EC
:100060000C947F160C9469240C94761A0C944A1AFA
:100070000C9469240C94E6170C9469240C9469245C
:100080000C9469240C9469240C945C190C946924D4
:10009000C40E380FE20EE80EF10E140F240F380FC5
:1000A0003B0F440F490F2B0F6000622180622162D9
:1000B0004700490A624762528062526277004930C3
:1000C000627762D38062D362D500495562D562DC23
:1000D0008000809101108F7C806080688093011087
:1000E00011241FBECFEFCDBFDFE7DEBFE8EAF0E0AF
:1000F00040E017C0B591A59135912591059107FD77
:100100000CC095918591EF01F92FE82F05900D9284
:10011000A217B307D9F7FE0104C01D92A217B307B7
:10012000E1F7E13DF40731F70E94DC1E0C94A620B4
:04013000F894FFCF71
:1001340052783A200048574555493A20007379735C
:10014400206765742068776575690D0A000D0A5487
:10015400783A20000A496E697469616C697A696E3B
:100164006720524E327878332E2E2E0A4669726DED
:10017400776172653A20006D616320736176650D65
:100184000A006D6163207365742063682064727271
:10019400616E6765202564203020330D0A006D618F
:1001A400632073657420636820647272616E67658E
:1001B400202564203420340D0A006D6163207365AA
:1001C4007420636820737461747573202564206FD0
:1001D4006E0D0A006D61632073657420636820737B
:1001E4007461747573202564206F66660D0A000AB5
:1001F4000A436F6E6669677572696E6720524E3284
:1002040078783320466F7220414250206A6F696EBD
:100214000A002D2D2D2D2D2D2D2D2D2D2D2D2D2D5A
:100224002D2D2D2D2D2D2D2D2D2D2D2D2D2D2D2DFA
:100234002D2D2D2D2D2D2D2D2D2D2D2D2D2D2D2DEA
:100244002D2D2D2D2D2D2D2D2D2D2D2D2D2D2D2DDA
:100254002D2D2D2D2D2D2D2D2D0A006D6163207337
:10026400657420646576657569203730423344359A
:10027400374544303035414130420D0A006D6163E9
:10028400207365742064657661646472203236304C
:1002940043323242360D0A006D6163207365742067
:1002A400617070736B657920353031433331323985
:1002B40045333643304335363544444433313132A3
:1002C40038354338463533340D0A006D6163207385
:1002D4006574206E776B736B6579203643303730E5
:1002E400423132363532394638353644343632378F
:1002F40045354234323533353033350D0A006D61BE
:100304006320736574206172206F6E0D0A006D6145
:10031400632073657420727864656C61793120356B
:100324003030300D0A006D6163207365742072787B
:1003340032203132203932333330303030300D0A0C
:10034400006D61632073657420616472206F6E0DAB
:100354000A006D61632073657420647220340D0A91
:10036400000A000A0A436F6E6669677572696E67F0
:1003740020524E3278783320466F72204F544141D8
:10038400206A6F696E0A006D616320706175736520
:100394000D0A006D616320726573756D650D0A0049
:1003A4006D616320736574206465766575692030BA
:1003B4003030344133304230304638394237340DEE
:1003C4000A006D61632073657420646576616464FA
:1003D400722030303030303030300D0A006D6163BF
:1003E4002073657420617070736B657920303030D0
:1003F40030303030303030303030303030303030F9
:10040400303030303030303030303030300D0A0061
:100414006D616320736574206E776B736B657920EF
:1004240030303030303030303030303030303030C8
:1004340030303030303030303030303030303030B8
:100444000D0A006D616320736574206170706B65C3
:1004540079203942323732364242344130413836DB
:1004640045414642323341333941334530373241D5
:1004740031340D0A006D61632073657420617070FE
:1004840065756920303030303030303030303030C5
:10049400303030300D0A000A0A4A6F696E696E679F
:1004A4002054544E2077697468204F5441410A0007
:1004B40054783A206D6163206A6F696E206F7461AD
:1004C400610A006D6163206A6F696E206F746161F7
:1004D4000D0A000A0A4A6F696E696E672054544E09
:1004E4002077697468204142500A0054783A206D9C
:1004F4006163206A6F696E206162700A006D6163D6
:10050400206A6F696E206162700D0A000A5072657C
:10051400737320627574746F6E20746F20747261CB
:100524006E736D69742064617461000A0A547261A7
:100534006E736D697474696E6720446174610A0036
:100544002D2D2D2D2D2D2D2D2D2D2D2D2D2D2D2DD7
:100554002D2D2D2D2D2D2D2D2D2D2D2D2D2D2D2DC7
:100564002D2D2D2D2D2D2D2D2D2D2D2D2D2D2D2DB7
:100574002D2D2D2D0A000A54783A206D61632074C4
:100584007820636E6620313020006D6163207478BA
:1005940020636E6620313020000A54783A206D6161
:1005A4006320747820756E636E6620313120006D8F
:1005B400616320747820756E636E6620313120008B
:1005C4006D616320676574207374617475730D0ABB
:1005D4000073797320736C65657020313830303066
:0205E4003000E5
:1005E60025640A000A416674657220313030302075
:1005F6004D6F6973747572652052656164696E67C3
:1006060073002D2D2D2D2D2D2D2D2D2D2D2D2D2DFB
:100616002D2D2D2D2D2D2D2D2D2D2D2D2D2D2D2D04
:100626002D2D2D2D2D2D2D2D2D2D2D2D2D2D2D2DF4
:100636002D2D2D2D2D2D2D2D2D2D2D2D2D2D2D2DE4
:100646002D2D2D2D2D2D2D2D2D00546865204D4140
:10065600582072656164696E67207761732025642E
:100666000A00546865204D494E2072656164696EC2
:1006760067207761732025640A0A00546865204D57
:100686004158206D61707320746F2025640A0054F0
:100696006865204D494E206D61707320746F20256A
:1006A600640A000A0A43757272656E742053656E99
:1006B600736F7220446174610A002D2D2D2D2D2D2E
:1006C6002D2D2D2D2D2D2D2D2D2D2D2D2D2D2D2D54
:1006D6002D2D2D2D2D2D2D2D2D2D2D2D2D2D2D2D44
:1006E6002D2D2D2D2D2D2D2D2D2D2D2D2D2D2D2D34
:1006F6002D2D2D2D2D2D2D2D2D2D2D2D2D2D2D2D24
:100706002D0A0052656C61746976652048756D69BD
:10071600646974793A2025752525200D0A004D6FE8
:100726006973747572653A2025752525200D0A00B2
:1007360050726573737572653A202575206850612D
:100746000D0A0054656D70657261747572653A20A4
:1007560025692043200D0A000A4A534F4E20466F52
:10076600726D61740D005061796C6F61643A207B23
:100776002074656D703A2025692C2068756D696452
:100786006974793A2025752C206D6F6973747572BA
:10079600653A2025752C2070726573737572653AFB
:1007A600202575207D0D0A0A005061796C6F616401
:1007B60020737472696E673A2025730A6E756D54DC
:1007C600783A2025640A00303132333435363738EA
:1007D60039414243444546000A576561746865726B
:1007E60020436C69636B204E4F5420696E697469AF
:1007F600616C697A65642070726F7065726C7921BC
:10080600000A496E74657261637469766520546581
:10081600726D696E616C20697320616374697665B7
:100826003A20636F6D6D616E647320737563682023
:100836006173202773797320666163746F727952CE
:1008460045534554272077696C6C006265207365B3
:100856006E7420746F2074686520524E3278783337
:1008660020616E6420726573706F6E736573207796
:10087600696C6C20626520617070656172206865C4
:1008860072652E000A5768656E2072656164792C60
:1008960020707265737320627574746F6E20746F46
:1008A600206A6F696E2054544E0A00544F444F3AE2
:1008B60020205772697465206C6F7720706F77659A
:0B08C600722074657374732E2E2E00D8
:1008D1000A496E697469616C697A696E6720424D73
:1008E100453238302E2E2E00424D453238302069A7
:0B08F1006E697469616C697A656400CF
:1008FC0057656C636F6D6520746F2074686520415B
:0A090C006772692D496F542E0A002E
:10091600A2E2B0E0E1E9F4E00C947E1E29833A837A
:100926004B835C8329013A01E89477F80E945823A7
:1009360009F4E9C40E94EF227B018C01611571055F
:10094600A0E88A07AFE39A0709F4DDC42D873E873E
:100956004F87588B4B015C016B017C01E894F7F8DB
:10096600B1E0CB16D104B0E8EB06BFE7FB0644F4D2
:10097600E1E04E165104E0E86E06EFE77E062CF045
:100986000E94CC220E94E522C7C40E94FE2237FFA5
:1009960047C04114510410E861061BE471060CF0CF
:1009A60044C04114510420E862062FE372060CF499
:1009B60062C0D301C20107E10E9463240A95E1F7F0
:1009C6008F579109A109B10927E130E0281B390B9E
:1009D600D301C201022E02C00E9463240A94E2F7E8
:1009E600AC01BD0102C00E94A3232A95E2F744167A
:1009F60055066606770609F03EC081709927AA2734
:100A0600BB2742E050E060E070E08A019B01081BD2
:100A1600190B2A0B3B0B0D831E832F8338872FC0A0
:100A26001D821E821F82188608C022E030E040E048
:100A360050E02D833E834F8358874114510430E89C
:100A460063063FE77306D9F4C114D10440E8E4060F
:100A56004FE3F40609F457C43CF00E94082317FD3F
:100A660055C40E940D2358C40E94082317FF4EC484
:100A76000E940D2376C01D821E821F821886411495
:100A8600510400E860060FE3700649F40E9408234B
:100A960017FF40C4A50194010E94E92357C00981AC
:100AA6001A812B813C8101151105210540E434078B
:100AB60029F4A5019401C501B401A5C089819A81D3
:100AC600AB81BC810097A105BF4349F40E94FE2279
:100AD60037FD05C0C501B4010E94F70B1DC4C50151
:100AE600B4010E946D240E94032349F095018401FC
:100AF6003F730115110520483F4309F034C00981B1
:100B06001A812B813C8137FF04C00E94C6230E94B4
:100B160043240E94C72257FFFFC330E8E31A3FE38E
:100B2600F30A0D811E812F813885C02AD12AE22A37
:100B3600F32A0E94032369F421E230E02093006047
:100B4600309301609B01AC010E9435230E9443242F
:100B5600E3C30E94C222213031054105510509F047
:100B6600DBC39058D9C30E94FE2237FF1EC00E94E5
:100B7600C222232B242B252B59F481E290E080936B
:100B8600006090930160A5019401C501B401DCCF1A
:100B96000D811E812F813885013011052105310512
:100BA60069F40E9433245FEB0BC000E010E020E8FC
:100BB6003FE30D831E832F83388706C00E940724D8
:100BC6002D833E834F83588731E0431651046104D9
:100BD6003DE473060CF46EC048EFC4164FEFD4061E
:100BE6004FE7E4064FE3F4068CF40E94082317FF50
:100BF60065C22AEC32EF49E451E70E94D4212AEC7F
:100C060032EF49E451E70E94472486C308E0C01644
:100C1600D10400E8E0060FE3F00644F00E94082342
:100C26001E141F041006110624F348C20E9407244E
:100C36000E9428226B017C0120E03AEA48EB5FE340
:100C46000E94172320E735EA4CEE56E3C701B601AA
:100C56000E9412230E9433245EE30E94D6226BEA8E
:100C66007AEA8AEA9EE30E942822A70196010E9458
:100C76004B2460E070E080E09FE30E9428222B0175
:100C86003C01A70196010E94D6220E94E0222BE396
:100C96003AEA48EB5FE30E9447240E94DB220E9467
:100CA60028226B017C019B01AC01C501B4010E94A5
:100CB600852091C1C114D10400E8E006F10454F482
:100CC6000E9433245BE40E941C2348EE5FEF6FEF23
:100CD6007FEF03C040E050E0BA01D701C60117E13B
:100CE6000E9463241A95E1F78F579109A109B1096A
:100CF6008C019D01040F151F261F371F0D8B1E8BA0
:100D06002F8B388FE894E7F8FF2446015701689443
:100D1600A7F81FE3B12A22E7C21624ECD2062CE17B
:100D2600E206F104B4F037EDC31633EBD3063DE526
:100D3600E306F1049CF08D899E89AF89B88D0196F2
:100D4600A11DB11D8D8B9E8BAF8BB88F90E8A91A14
:100D5600B10819861A861B861C8608C0E12CF12C60
:100D66008701E394E986FA860B871C8709851A852D
:100D7600000F111F000F111F09A31AA3F801EE5946
:100D8600FD49E080F18002811381E98AFA8A0B8BA2
:100D96001C8BA80197010E94EA22698F7A8F8B8F9C
:100DA6009C8FA80197010E94E5220E94C6230E94FB
:100DB60043246D8F7E8F8F8F98A39B01AC01698D25
:100DC6007A8D8B8D9C8D0E94122349805A806B8070
:100DD6007C80442400EF5022750164010E94AD23FB
:100DE600CC2410EFD122E894F5F86894F5F8D701F1
:100DF600C601A05CBF4FC984DA84EB84FC84F5E1AC
:100E06000E94DF23FA95E1F70E94DA23A7019601F3
:100E1600C301B2010E944B24698D7A8D8B8D9C8D06
:100E26000E9428220E94EF2229893A894B895C89EF
:100E3600C701B6010E94CD21A30192010E944B2455
:100E46000E9426230E9428222D8D3E8D4F8D58A16B
:100E56000E9447240E94EF220E94BD22CA01B901C6
:100E66000E941C2322E431EF43E55EE30E944724FF
:100E760025E532E34CE60E94472125E033EA4BE8BC
:100E86000E9447212BEA3AEA4AEA0E94472127EBC9
:100E96003DE64BED0E9447212AE939E949E15FE346
:100EA6000E94F422A70196010E94D622C501B40130
:100EB6000E941C23A30192010E9421230E94C722A3
:100EC6000E944724A70196010E94F922A3019201DC
:100ED6000E94E022698B7A8B8B8B9C8B20E030E022
:100EE60040E450E40E942922A70196010E94F422C0
:100EF600882420EF9222A50194010E94E0222B0172
:100F06003C0120E030E040E450E40E94EA222989D6
:100F16003A894B895C890E9428220E94C6210E9438
:100F2600BD220E941C23A50194010E9426230E9433
:100F36009020C301B2010E94F922CC2430EFD322C3
:100F460020E030E446E75FE3C701B6010E941223C2
:100F5600A3019201C701B6010E94CD212FE438E317
:100F660046E75FE30E94172326EC33E246EF58EB91
:100F76000E94D6220E94E522E9A1FAA1EE5AFD4975
:100F860020813181428153810E94F9226D897E89B7
:100F96008F89988D0E9459184B015C0109A11AA1ED
:100FA600065A1D49D8014D905D906D907C90A70121
:100FB60096010E942123A30192010E942922A501E4
:100FC60094010E9485200E942822A30192010E947A
:100FD60028220E94BD220E9428220E94C6214B017F
:100FE6005C01CD84DE84EF84F888CC24B0EFDB226C
:100FF600A70196010E940D230E9428220E94C72263
:101006000E9447242B013C010E94CC22C501B40159
:101016000E944B24C301B2010E9429220E94302360
:10102600A70196010E9426230E944724962EA72EEA
:10103600B82E892E6987798B182F092F262F372FDF
:10104600482F592F0E9421236B017C010E942B23DC
:1010560081E0C816D104E10483E4F8060CF0C9CD9A
:101066000E94CC22211531054105534489F42CE315
:101076003AEA48E353E30E9421232B013C010E94F4
:10108600ED20C301B2010E9402241816F4F4B1CD7A
:10109600D701C601BF770197A641B3447CF40E94ED
:1010A600CC22211531054641534C79F40E94ED209E
:1010B6000E943F230E94FD2318163CF00E94442301
:1010C6000E94D4210E9444239ECDD701C601BF773A
:1010D60081309105A105EFE3BE070CF462C057E12C
:1010E6000E9463245A95E1F78E5740E050E060E88D
:1010F60070E08A019B0104C03595279517950795E1
:101106008A95D2F7C00ED11EE21EF31E26013701C4
:10111600E89477F867E10E94D0236A95E1F71FE724
:10112600411A5108610871088FEF9FEFAFE7B0E0F1
:10113600042C02C00E9463240A94E2F780959095DD
:10114600A095B0959C01AD012C213D214E215F213A
:10115600E894E7F8FF246894E7F887E190E08419BB
:1011660095092601370102C00E94D0238A95E2F72D
:10117600ED84FE840F85188917FF08C0709460946B
:1011860050944094411C511C611C711C692D7A2D90
:101196008B2D982D0E9428226987798B182F092F6D
:1011A60003C0412C512C32010E94BD2269857989E8
:1011B600812F902F0E94F422882420E8922220E09A
:1011C60032E741E35FE3C501B4010E9447240E9470
:1011D6002B2329853989412F502F0E94EA220E940C
:1011E600DB220E94282228E132E741E35FE30E94E6
:1011F6001C232CE83EEB4FEB55E3C501B4010E94DE
:1012060090200E940D230E94F9220E94CC220E9467
:10121600CD210E9430230E94C1230E9417232CE473
:101226003BEB41E353E30E9447242EE03AEE4DEDBB
:1012360055E30E9428220E94D12225E533EB4AE895
:1012460058E30E9429220E94D12221E63BE046E390
:101256005BE30E9428220E94D1222BEA3AEA4AE264
:101266005EE30E942922A50194010E9447240E9460
:10127600C6214B015C019B01AC01C701B6010E946E
:1012860047240E942B2320E030E040E050E40E94F7
:10129600EA229B01AC010E940D230E9443244B01CC
:1012A6005C010E94BD22C701B6010E9447240E942C
:1012B600BD220E9429229B01AC010E94EA22A701BD
:1012C60096010E9428220E94C6230E94282293018A
:1012D600820147E1000F111F221F331F4A95D1F7E4
:1012E600060F171F281F391F0115110540E824078F
:1012F600310524F4A2010E94191502C0C901B801E2
:101306000E94C22280CC0E94E92306C060E070E001
:10131600CB0102C0C501B401A296E0E10C94AF1E58
:10132600AEE0B0E0E9E9F9E00C947F1E4C016B01F8
:1013360019821A828FEF9FEF8B839C831D821E82F8
:101346004F83588729873A87A12CB12CD6016D90F7
:101356007C90F301EA0DFB1D808181110FC0D6013F
:10136600ED93FC938081853209F03CC13F01BFEFCC
:101376006B1A7B0AF6016082718219C0853279F395
:10138600B401082E000C990B0E94AB154FEFA41A5E
:10139600B40ADCCF8C32ACF08D32F9F489819A81B3
:1013A600816089839A833196D601ED93FC93D601A9
:1013B600ED91FC9180818B3269F789819A818460F5
:1013C600F0CF803221F489819A818860EACF833216
:1013D60051F489819A818061E4CF803321F4898137
:1013E6009A818260DECFB701C6010E944C1B8D83B5
:1013F6009E8397FF0BC029813A81B1E02B27298371
:101406003A839195819591098D839E8389819A81ED
:1014160080FF03C08D7F89839A83D601ED91FC916D
:10142600119780818E3249F43196ED93FC93B70182
:10143600C6010E944C1B8B839C83C6010E944E1DD5
:10144600582ED601ED91FC918081082E000C990B47
:101456000E94B721893609F42FC084F4833609F433
:1014660087C034F4853209F494C08136E1F09DC01A
:10147600843611F188360CF472C097C0803709F4AF
:1014860044C03CF48E3609F45AC08F3609F42DC098
:101496008CC0853709F41EC0883709F42FC08337FE
:1014A60009F083C06CC00E94F62009F499C00E941E
:1014B60053230E94000091C0652D70E0970141E022
:1014C60050E00E945E2209F48BC00E944E230E94C7
:1014D600A71283C00E94672109F482C00E945F217F
:1014E6000E944E240E94F71878C00E94672109F4D2
:1014F60077C00E944E230E943A166FC00E94672151
:1015060009F46EC00E94B12015C0970140E050E07A
:1015160060EF70E00E945E2209F462C00E945124CE
:101526008B859C85892B29F420E030E041E752E643
:101536004EC028E70E944E240E94E40C4EC0A5012E
:10154600400F511F652D70E09701CE010B960E944A
:101556000000892B09F444C00E945F2143C00E9409
:10156600F62009F43DC00E9453230E94000035C0B6
:10157600B0E85B1235C00E945822808114C0B0E8E2
:101586005B122EC00E9458224081518120E030E03B
:101596001EC0B0E85B1224C0F601208131812F5FA6
:1015A6003F4F208331838B870DC085E28B87D60121
:1015B6006D927C9219821A821D821E828FEF9FEF96
:1015C6008B839C8321E030E0AE01455F5F4FBE0117
:1015D6006F5F7F4FC4010E94F91A8A0D9B1D03C0DD
:0E15E6000E945124C5012E96EFE00C94B01E19
:1015F4004F925F926F927F928F929F92AF92BF921F
:10160400CF92DF92EF92FF92ADE8B2E64D905D90FB
:101614006D907C900E94D0238AEF581A610871085B
:10162400C301B20122E00E94D5232A95E1F70E946A
:10163400CB236B017C01E0E0F2E6A285B3859B013C
:10164400AC016DE00E949422E9F70E94B22373E09A
:101654000E94BC237A95E1F7A085B185A30192018C
:101664000E94B7230E946324880D991DAA1DBB1DE7
:1016740032E10E942B24E9F79C01AD0130584F4F11
:101684005F4FA681B7810E949B204B015C014FE014
:101694000E94BC234A95E1F781149104A104B1048A
:1016A40009F493C0A70196016BE00E949422E9F724
:1016B400A089B1890E94AF216B017C01A685B78501
:1016C400A30192010E94B7230E94A8230E94DA2357
:1016D400D701C60122E00E942724E9F7C484D584F7
:1016E4000D2C000CEE08FF087601DD24CC240E94AA
:1016F400DA234CE00E94AD234A95E1F7E1E9F2E6F2
:101704000E949423A7019601280F391F4A1F5B1FCB
:10171400ABECB3EF0E94B221805B9C4397FD06C003
:101724000E942F24991F0E940C2204C00E940C22A4
:101734000E94DF23C701B60123E09695879577952C
:1017440067952A95D1F70E94CB239B01AC016DE0EC
:1017540056954795379527956A95D1F7E0E0F2E6D7
:10176400A689B7890E94B2237CE00E94BC237A95A3
:10177400E1F7A7019601A2E056954795379527957D
:10178400AA95D1F7A489B5890E94B7232DE00E94B8
:101794002724E9F7B501A401480F591F6A1F7B1FCD
:1017A40082899389092E000CAA0BBB0B840F951F09
:1017B400A61FB71F34E00E942B24E9F7BC01CD011A
:1017C4006C0D7D1D8E1D9F1D03C060E070E0CB017C
:1017D400FF90EF90DF90CF90BF90AF909F908F904D
:0A17E4007F906F905F904F90089582
:1017EE004F925F926F927F928F929F92AF92BF9223
:1017FE00CF92DF92EF92FF920F931F936B017C01BA
:10180E00DC01CB01B701A6014427552760787F770D
:10181E004115510560487F4749F40E94C1230E943B
:10182E004724A70196010E94292218C018161906EE
:10183E001A061B06C4F0892B8A2B8B2B09F4A6C023
:10184E0081E290E080930060909301600E94C1233A
:10185E000E9428229B01AC010E944324562F472F41
:10186E00382F292F97C067E10E94AD236A95E1F7C3
:10187E000E940323D1F4C12CD12C7601A7FD08C000
:10188E000E94A8232FEFC21AD20AE20AF20AF6CF5A
:10189E0021E0C21AD108E108F108F094E094D09446
:1018AE00C094C11CD11CE11CF11C2FE7C21AD10837
:1018BE00E108F108AF77BB27A068C0FE02C00E9406
:1018CE00A8230E94AD230E94A823E9E1F0E040E0A6
:1018DE0050E060E071E0812C912C540100E010E0AA
:1018EE00980128013901440E551E661E771E841577
:1018FE009505A605B70574F093018201040F151F17
:10190E00261F371F84199509A609B709840E951E3F
:10191E00A61EB71E0E94A8237695679557954795E4
:10192E003197F9F6892B8A2B8B2B21F10E94B82245
:10193E000E9428220E9407240E94022487FD1AC0BA
:10194E000E94B8220E9429220E9407240E9402248B
:10195E00181634F482E0880E911CA11CB11C0AC02A
:10196E00D501C40181709927AA27BB27880E991E1D
:10197E00AA1EBB1ED501C4010E946324B15C37E1CF
:10198E000E94DF233A95E1F70E94DA235C2D4D2D5C
:10199E003E2D2F2D652F742F832F922F1F910F9178
:1019AE00FF90EF90DF90CF90BF90AF909F908F9071
:0A19BE007F906F905F904F900895A6
:1019C800AFE0B0E0EAEEFCE00C947C1E1C016B0179
:1019D80049835A832B83FB0182819381848095807C
:1019E80000811181A680B78097FD02C00D7F02C0DB
:1019F80081E090E0E981FA814080518062807380C3
:101A08009801207133272C833D83740104FF06C09D
:101A18000E94582319F032E0E31AF108F801E8703F
:101A2800FF27EE83FF8303FF03C0F1E0EF1AF108FD
:101A3800F6010084F185E02D3197EE87FF87EA0DE6
:101A4800FB1D10829C012E193F0928873987C80180
:101A5800827099278A879B87EB818E2FEE0F990BCF
:101A68009C01215431092C873D872E853F852230E2
:101A7800310530F48C819D81892B09F040C058C014
:101A88000E94582361F18E859F8501978E879F87D5
:101A9800C2018F7099278A30910514F4C09602C04C
:101AA800895A9F4FEC85FD857A9748F49C012062FE
:101AB800215631092A31310510F40E943521EE856D
:101AC800FF85EA0DFB1D8083F1E0EF1AF10884E041
:101AD80076946794579447948A95D1F7C6CF8885AA
:101AE80099858E0D9F1D181619066CF21E141F0479
:101AF8000CF0C0CFEA85FB85EF2B29F6BBCFE98137
:101B0800FA810E949423892B8A2B8B2B89F0EE85EE
:101B1800FF85EA0DFB1D31972B8120838E859F85DC
:101B280002978E879F87FC01EA0DFB1D80E3808367
:101B3800EE81FF81EF2B59F02E853F852150310929
:101B48002E873F87F901EA0DFB1D80E28083F601AD
:101B580040855185415051092E853F85421B530BC5
:101B6800B9016A0D7B1D9401C1010E9474179C0183
:101B7800F1018081918190FF03C00E9464220CF4DE
:0A1B8800C9012F96E2E10C94AD1E96
:101B92004F925F926F927F928F929F92AF92BF927B
:101BA200CF92DF92EF92FF92EDE8F2E68080918091
:101BB200A280B3802CE2921A21E0A20AB108A5E920
:101BC200B2E6CD90DD90ED90FC90BEE00E94DF2366
:101BD200BA95E1F7E0E0F2E6848D958D092E000CCE
:101BE200AA0BBB0B24E10E948E22E9F7C81AD90A7C
:101BF200EA0AFB0AA68DB78DA50194010E94AF21C6
:101C0200C61AD70AE80AF90A30E4D30EE11CF11C1D
:101C12003FE00E94AD233A95E1F7A0911B62B0E04C
:101C2200A50194010E949B202B013C014BE00E94E4
:101C3200D0234A95E1F740E8540E611C711CA09133
:101C420020620A2E000CBB0BA50194010E94AF2159
:101C52005AE00E94D5235A95E1F7A30192010E940E
:101C6200C41FDC01CB016AE00E9463246A95E1F79C
:101C72009C01AD01405E5F4FA18DB28D0E94B723E2
:101C8200905EAF4FBF4FBC01CD01EEE00E94D52365
:101C9200EA95E1F7A70196010E94C41F6B017C013E
:101CA200FFE00E94D523FA95E1F70E94CB239B0126
:101CB200AC01A7E05595479537952795AA95D1F799
:101CC200A0911862B0E00E949B20DC01CB0124E0CD
:101CD2000E942724E9F7A7019601281B390B4A0B1A
:101CE2005B0BDA01C90157FF03C080E090E0DC0121
:101CF20081309105A10539E1B30724F080E090E03D
:101D0200A0E0B9E1BC01CD012CE00E94D5232A95C7
:101D1200E1F7FF90EF90DF90CF90BF90AF909F9050
:0C1D22008F907F906F905F904F9008951D
:101D2E00CF930E948A2380FF1BC08091D86284309B
:101D3E0049F08B3069F0813071F480E28093A50414
:101D4E0082E007C083E08093D8620E94702203C0B5
:101D5E0083E08093D8620E948A238E7F0E948F2315
:101D6E00E091D8628E2F90E08C30910508F091C0F2
:101D7E00FC01E85BFF4F0C94B22280E28093A50435
:101D8E000E946C130E942D1D811104C08EED97E8E8
:101D9E000E943E2180E28093A60487E098E80E948C
:101DAE003E2181E598E80E943E218AE898E80E944B
:101DBE003E2181E06CC00E946B240E949F2183E033
:101DCE0066C00E94E921C093A6040E941A210E94B7
:101DDE00751B2BC0A5E8B2E68D919D910D90BC911F
:101DEE00A02D843B9105A105B10509F03AC0809163
:101DFE00D76291E0803F08F490E020EF929F801927
:101E0E001124811102C083E001C085E08093D86265
:101E1E000E9470220E94232124C00E94E921C093B7
:101E2E00A5040E941A210E94EB1B0E946A2284E0E4
:101E3E008093D862C093A5042CC00E9423210E94D7
:101E4E00B41F0E946A2222C0E5E8F2E60E949423A3
:101E5E000297A105B10529F40E94702286E08093B5
:101E6E00D862CF910C94CE1A0E942D1D0E94F021A3
:101E7E000E940B130E94F72109C081EB98E80E9483
:101E8E003E2104C00E94F0210E940B138BE0809330
:061E9E00D862CF91089507
:101EA4000F931F93CF93DF93CDB7DEB76897CDBF62
:101EB400DEBF28E10E94232468E886E70E94CE144E
:101EC40000E012E68A810E941F242981820F911D5D
:101ED400F801808391838C810E941F242B81820FBF
:101EE400911D828393838E810E941F242D81820FF2
:101EF400911D8483958388850E941F242F81820FDE
:101F0400911D868397838A850E941F242985820FC9
:101F1400911D808791878C850E941F242B85820FB9
:101F2400911D828793878E850E941F242D85820FA1
:101F3400911D8487958788890E941F242F85820F8D
:101F4400911D868797878A890E941F242989820F79
:101F5400911D808B918B8C890E941F242B89820F69
:101F6400911D828B938B8E890E941F242D89820F51
:101F7400911D848B958B888D0E941F242F89820F3D
:101F8400911D868B978B21E00E94232461EA86E7CA
:101F94000E94CE148981F801808F27E00E942324B7
:101FA40061EE86E70E94CE142A8130E0322F222788
:101FB4009981290F311DF801218F328F9B81938FD5
:101FC4009D812C81F0E12F9F90011124492F4F70A6
:101FD400242BF801248F358F2E81F0E12F9F90015F
:101FE400112492959F70292BF801268F378F9F819A
:101FF40090A36896CDBFDEBFDF91CF911F910F9163
:0220040008953D
:10200600CF93DF9380E094E023E0FC012083C0E4DB
:10201600D4E035E03883A0E6B4E032E13C9360EAF0
:1020260074E030E2FB013083FC01148241E04C8312
:1020360040E114964C931497FB013483FC010E94F3
:102046006723148A158A168A178A188A198A1A8A99
:102056001B8A1C8A1D8A1E8A1F8A50961C925097BC
:1020660051961C92519752961C92529753961C92D7
:10207600539754961C92549755961C92559756967C
:102086001C92569757961C92FB010E946723148A4E
:10209600158A8BE0868B178AE0EEF5E011821082B6
:1020A60015821782108611861682228383E794E2B0
:1020B6008093B5629093B66284E794E28093B362AC
:1020C6009093B46285E794E28093B1629093B26292
:1020D60086E794E28093AF629093B06287E794E2DA
:1020E6008093AD629093AE6288E794E28093AB6290
:1020F6009093AC6289E794E28093A9629093AA6276
:102106008AE794E28093A7629093A8628BE794E2B1
:102116008093A5629093A66282E794E28093A3627D
:102126009093A46281E794E28093A1629093A26265
:06213600DF91CF91089536
:10213C008F929F92AF92BF92CF92DF92EF92FF92CB
:10214C00E9E9F2E60E949423E0E0F2E64081518155
:10215C0060E070E06C017D0124E00E94AD232A95C3
:10216C00E1F7C41AD50AE60AF70A33E00E942B24D9
:10217C00E9F70E94A3234C015D01841A950AA60A73
:10218C00B70AA5019401A281B3810E94B2233BE05E
:10219C000E94BC233A95E1F70E94C1230E94C41F00
:1021AC009B01AC016CE00E949422E9F7A481B581FB
:1021BC000E94B7237EE00E9463247A95E1F7A50183
:1021CC009401280F391F4A1F5B1FEDE8F2E62083AC
:1021DC00318342835383A5E0B0E00E949B20DC0155
:1021EC00CB0180589F4FAF4FBF4F692F7A2F8B2F4A
:1021FC00992787FD9A95FF90EF90DF90CF90BF9035
:08220C00AF909F908F900895A0
:1022140010C00E943D2258F00E94362240F029F45A
:102224005F3F29F00C94AC2251110C9445220C947C
:1022340066240E94E91C68F39923B1F3552391F3B2
:10224400951B550BBB27AA2762177307840738F021
:102254009F5F5F4F220F331F441FAA1FA9F332D081
:102264000E2E3AF0E0E82FD091505040E695001C35
:10227400CAF728D0FE2F26D00E942F24BB1F261772
:1022840037074807AB07B0E809F0BB0B802DBF0147
:10229400FF2793585F4F3AF09E3F510568F00C9426
:1022A400AC220C9445225F3FE4F3983ED4F3869528
:1022B4000E9449239F5FD9F7880F911D96958795B2
:1022C40097F90895E1E00E942F24BB1F621773075A
:1022D4008407BA0720F0621B730B840BBA0BEE1F42
:0622E40090F7E09508955B
:1022EA000FC00E94362238F00E943D2220F095232A
:1022FA0011F00C94AC220C94662411240C944522FF
:10230A000E94E91C70F3959FC1F3950F50E0551F89
:10231A00629FF001729FBB27F00DB11D639FAA2730
:10232A00F00DB11DAA1F649F6627B00DA11D661F7F
:10233A00829F2227B00DA11D621F739FB00DA11DA0
:10234A00621F839FA00D611D221F749F3327A00D5A
:10235A00611D231F849F600D211D822F762F6A2FF6
:10236A0011249F5750409AF0E1F088234AF0EE0F6B
:10237A00FF1FBB1F661F771F881F91505040A9F788
:10238A009E3F510570F00C94AC220C9445225F3F9D
:10239A00E4F3983ED4F386950E944923E7959F5F1C
:1023AA00D1F7FE2B880F911D9695879597F9089579
:1023BA0011C00E94362238F00E943D2220F039F4E2
:1023CA009F3F19F426F40C9466240EF4E095E7FB7B
:1023DA000C94AC22E92F0E94E91C58F3BA17620741
:1023EA0073078407950720F079F4A6F50C94442224
:1023FA000EF4E0950B2EBA2FA02D0B01B901900116
:10240A000C01CA01A0011124FF27591B99F0593F59
:10241A0050F4503E58F11A16F040A22F232F342FB1
:10242A004427585FF3CF469537952795A795F040EF
:10243A005395C9F77EF41F16BA0B620B730B840B04
:10244A00AAF0915091F0FF0FBB1F661F771F881FDC
:10245A00C2F70CC0BA0F621F731F841F38F4879526
:10246A000E9449239E3F08F0B2CF9395880F08F047
:0A247A009927EE0F979587950895B6
:10248400A0E0B0E0E8E4F2E10C947E1EDC01280157
:102494001696AD90BC901797F701808191811296A2
:1024A400ED91FC9113971896CD91DC911997219792
:1024B400F7FF02C0E1E0F0E0CA0DDB1D18826901FC
:1024C400A1E0B0E08F01021B130B4C01F2E08F225C
:1024D4009924052C000C66087708CE018A199B09FB
:1024E400CA15DB0519F1411551056105710589F01E
:1024F400CB01BA01A30192010E940B1DCA01A62FB0
:10250400B72F605D6A9341E0C41AD108A901BC01E8
:10251400E4CF98012C0D3D1D121613064CF31C1428
:102524001D0434F48114910419F702C080E090E092
:10253400AB2B31F4F701208131812F7E208331834D
:0A254400CDB7DEB7E0E10C94AF1E46
:10254E00A2E0B0E0EDEAF2E10C947C1E3C010E94A8
:10255E006223A480B5800E945D2386809780FA0155
:10256E002080318042805380B201A10157FE07C006
:10257E0044275527BA01421953096409750937FDD5
:10258E0003C08D7F89839A83950157FC05C089818D
:10259E0082FD02C083FF02C021503109CE01019697
:1025AE007C010AE010E0C6010E94421257FC03C0F3
:1025BE00298122FF0AC00197F401E80FF91F57FC89
:1025CE0002C02BE209C02DE207C023FF06C001970F
:1025DE00F401E80FF91F20E220830E94BB20B40112
:1025EE00680F791F9501C3010E9474179C01F301B6
:1025FE008081918190FF03C00E9464220CF4C90176
:08260E002296E2E10C94AD1EDE
:10261600CF93DF93EC0189EA96E80E940B1E80ECCB
:1026260096E80E940B1E89811F928F9389E097E896
:102636009F938F930E945A1F8A811F928F9384E2E1
:1026460097E89F938F930E945A1F8B812AE0829F5F
:10265600C00111249F938F9386E397E89F938F93EE
:102666000E945A1F8881282F082E000C330B3F9397
:102676008F9389E497E89F938F930E945A1F8EE564
:1026860097E80E943E2188E096E80E943E218B81D1
:102696002AE0829FC00111249F938F938A811F9203
:1026A6008F9389811F928F938881282F082E000C83
:1026B600330B3F938F938CE697E89F938F930E94FB
:1026C6005A1F8DB79EB74A968DBF9EBFDF91CF9199
:0226D600089565
:1026D800CF9388E591E89F938F930E94471F4FEF10
:1026E80062E070E68CE792E60E9413224FEF61E009
:1026F80071E687E792E60E94132282E080936604DF
:102708002FE739EA93E0215030409040E1F700C0CC
:102718000000809365042FE738E381E021503040C2
:102728008040E1F700C0000084E0809345040F90EA
:102738000F900E948222882339F00E945A24682F21
:1027480087E792E60E941E1F87E792E60E94F3231E
:10275800882379F30E947C22882359F387E792E63D
:102768000E94D920C82F0E94E31FCA3011F78AE0BF
:102778000E94E31F9FE728E331E09150204030405A
:0C278800E1F700C00000CF910C941F1876
:10279400CF93DF93DC01F90168387105D1F05CF463
:1027A4006138710521F16438710561F16038710592
:1027B40009F041C027C0603C710509F435C0603F91
:1027C400710591F1603A710509F035C00E94E2216A
:1027D4001DC00E94E221452B39F04881042E000CD3
:1027E400550B660B770B18C0488150E021C0C0819F
:1027F400D181CE01049680839183488159816A8175
:102804007B810AC00E94E221452B81F048815981D5
:10281400052E000C660B770B4D935D936D937C93A3
:10282400139781E090E009C00E94E2214881598118
:1028340060E070E0F1CF80E090E0DF91CF91089507
:10284400CF93DF93CDB7DEB72897CDBFDEBF28E0A7
:102854000E94232467EF86E70E94CE148F81988517
:10286400982789279827A0E0B0E0E5E9F2E60E94DE
:1028740085238C810E94FE210E94A323FA95E1F70F
:102884009D81892F90E0A0E0B0E024E00E948E2298
:10289400E9F7842B952BA62BB72B2E8122952F702D
:1028A400822BE9E9F2E60E94852389810E94FE21B8
:1028B4000E94A323FA95E1F79A81892F90E0A0E082
:1028C400B0E024E00E948E22E9F7842B952BA62BFE
:1028D400B72B2B8122952F70822BE1E9F2E60E941F
:0E28E40085232896CDBFDEBFDF91CF910895EA
:1028F200CF93DF93CDB7DEB76197CDBFDEBF21E1C6
:10290200EDECF7E8DE01119601900D922A95E1F7C0
:10291200FB0120810E941B242083FB0120810E9455
:1029220060242183FB0121810E941B242283FB015D
:1029320021810E9460242383FB0122810E941B24A7
:102942002483FB0122810E9460242583FB012381D1
:102952000E941B242683FB0123810E94602427837B
:102962002DE020872AE0218712862091D7621F92CC
:102972002F939F938F938FEA97E89F938F930E9451
:102982006D1F0F900F900F900F900F900F90619608
:0A299200CDBFDEBFDF91CF910895A5
:10299C00EF92FF920F931F93CF93DF930F92CDB7CC
:1029AC00DEB769837A01022F60E00E94A41C182F05
:1029BC00882381F161E0CE0101960E946E1D182FD3
:1029CC00811104C083E08093040924C0809107091D
:1029DC0081608093070981E0809304098091050947
:1029EC0085FD0BC08091050982FD07C0809105090A
:1029FC0083FD03C00E94992389F70E941D20882320
:102A0C0029F083E08093040910E004C0602FC70113
:102A1C000E94121C812F0F90DF91CF911F910F916B
:062A2C00FF90EF900895F9
:102A32000F931F93CF93DF93EA014038510594F02F
:102A42000E94BF219E012F573109203831050CF118
:102A52000E94BF21CE5FD109C038D105DCF0CFE79B
:102A6200D0E018C042385F4FACF40E9452229E015F
:102A72002A593F4F22384FEF34075CF40E9452220A
:102A8200C453DF4FC2382FEFD20724F4C2E8DFEF7E
:102A920001C0E9019E0121583F4F8901330F220BEA
:102AA200330BA9019801E7E1220F331F441F551F81
:102AB200EA95D1F70E944724DF91CF911F910F91A0
:022AC200089575
:102AC400AF92BF92CF92DF92EF92FF920F931F9338
:102AD400CF93DF93CDB7DEB7A097CDBFDEBF00E0C5
:102AE40010E0CE0101967C0188EDC82E81E8D82E35
:102AF4009EEBA92E91E8B92E88EF800F883028F438
:102B04001F930F93BF92AF9204C01F930F93DF9252
:102B1400CF92FF92EF920E94801FC7010E94C318B8
:102B24000F900F900F900F900F900F900F5F1F4F0B
:102B34000834110509F7A096CDBFDEBFDF91CF9110
:102B44001F910F91FF90EF90DF90CF90BF90AF90C7
:022B54000895E2
:102B56000F931F93CF93DF93DB012D913C91119738
:102B660030FF25C016964D915C91179714962D91BE
:102B76003C9115974217530778F41296ED91FC9104
:102B86001397808312962D913C9113972F5F3F4F99
:102B960012962D933C93139716962D913C91179769
:102BA6002F5F3F4F16962D933C93179715C01C9693
:102BB600ED91FC911D97309719F48FEF9FEF0CC0A4
:102BC6008B01EC010995892BC1F7F8018681978164
:102BD600019686839783CE01DF91CF911F910F9146
:022BE600089550
:102BE80087E693E80E941A228BE893E80E94C318AC
:102BF80087E993E80E94C31884EA93E80E94C318FF
:102C080086EC93E80E94C31881EE93E80E94C318EB
:102C180084E194E80E94C31887E494E80E94C318EA
:102C280089E794E80E94C31882E093E80E94C318D9
:102C380082E193E80E94C3188AE293E80E94C318CD
:102C480085E493E80E94C3180E9462158BE791E817
:102C58000E94C31885E693E80E940B1E0E94372441
:0C2C68000E943B24E9F700C00000089522
:102C7400A2E0B0E0E0E4F6E10C94801E4C010E9476
:102C84006223648075800E945D23A680B78037FD2F
:102C940003C08D7F89839A830E94FF2008E010E09F
:102CA4009301C6010E944212298124FF06C00197A4
:102CB400F501E80FF91F20E32083298123FF06C0D3
:102CC4000197F501E80FF91F20E220830E94BB2041
:102CD400B501680F791F9301C4010E9474179C0108
:102CE400F4018081918190FF03C00E9464220CF45E
:0A2CF400C9012296EEE00C94B11E17
:102CFE001F920F920FB60F9211242F933F934F9363
:102D0E005F936F937F938F939F93AF93BF93EF9345
:102D1E00FF937A9B05C0E091B162F091B262099582
:102D2E007D9B05C0E091AF62F091B06209957C9BEE
:102D3E0005C0E091AD62F091AE620995799B05C038
:102D4E00E091A362F091A46209958FEF8FB9FF9184
:102D5E00EF91BF91AF919F918F917F916F915F9105
:102D6E004F913F912F910F900FBE0F901F9018957E
:102D7E008F929F92AF92BF92CF92DF92EF92FF927D
:102D8E000E94FA0A4B015C010E949E2324E036E564
:102D9E004AE150E40E94292223E333E948E853E450
:102DAE000E9429229B01AC0164E076E58AE190E461
:102DBE000E9443240E94C6230E94282228E539E35C
:102DCE0048EA50EC0E948B046B017C01C501B401F2
:102DDE000E942C21A70196010E944724FF90EF909C
:0E2DEE00DF90CF90BF90AF909F908F90089590
:102DFC00A2E8B0E0E4E0F7E10C94821E5C014A0129
:102E0C00CF57DF4F68837983C158D040C12CD12C68
:102E1C00CF57DF4FE881F981C158D040808188239A
:102E2C00E1F07401860120E830E00E942324BE0109
:102E3C006F577F4FC5010E9493098C0D9D1D8C15FA
:102E4C009D054CF48FE490E08093006090930160BA
:102E5C008FEF9FEF03C06C01DBCFC601CE57DF4F66
:062E6C00ECE00C94B31E23
:102E72001F920F920FB60F9211242F933F934F93ED
:102E82005F936F937F938F939F93AF93BF93EF93D0
:102E9200FF938091430180FF07C0E091BD62F091F2
:102EA200BE62309709F009958091430181FF07C006
:102EB200E091BB62F091BC62309709F0099583E022
:102EC20080934301FF91EF91BF91AF919F918F91B9
:102ED2007F916F915F914F913F912F910F900FBE14
:062EE2000F901F901895EF
:102EE800A0E0B0E0EAE7F7E10C94821E6C015B0118
:102EF8007A01E901480181E08822992400FD03C094
:102F08004217530750F0A701B501C6010E94291EB8
:102F1800EC16FD0610F0C70117C08E010E191F0927
:102F28000115110541F0B60180E290E00E94AB1551
:102F380001501109F5CF8114910429F4A701B501B5
:102F4800C6010E94291ECE01CDB7DEB7ECE00C9475
:022F5800B31EA6
:102F5A00A0E1B0E0E3EBF7E10C94881EFB01BA01B3
:102F6A000E9423247A0140E1D7011D924A95E9F78C
:102F7A0042E051E049835A838B839C83F7FF09C05F
:102F8A008FE490E080930060909301608FEF9FEF51
:102F9A0014C0A9018C013197ED83FE83C7010E94F9
:102FAA00C51E4F8158852D813E814217530708F46B
:102FBA009A01F801E20FF31F10826096E6E00C9482
:022FCA00B91E2E
:102FCC001F920F920FB60F9211242F933F934F9392
:102FDC005F936F937F938F939F93AF93BF93EF9375
:102FEC00FF93599B05C0E091B562F091B6620995CB
:102FFC00589B05C0E091B362F091B46209955A9B5D
:10300C0005C0E091A562F091A66209958FEF8BB98E
:10301C00FF91EF91BF91AF919F918F917F916F91A4
:10302C005F914F913F912F910F900FBE0F901F907A
:02303C001895E5
:10303E00CF9389E391E80E940B1E61E471E88CE75F
:10304E0092E60E94EC1D0E94A62231F00E943F24BF
:10305E00D1F30E942122F7CFC0E0C11118C00E9407
:10306E008222882321F00E949A220E941E1F0E9413
:10307E00A022A9F30E947C22882389F30E94F823C0
:10308E00C1E08A3009F0C0E00E94E31FE6CF0E9443
:10309E0037240E943B24E9F700C00000CF91089529
:1030AE00E89404C097FB16F40E944F219923A9F0CF
:1030BE00F92F96E9BB279395F695879577956795A2
:1030CE00B795F111F8CFF2F4BB0F11F460FF1AC0EF
:1030DE006F5F7F4F8F4F9F4F15C0882311F096E97A
:1030EE0010C0772321F09EE8872F762F05C0662328
:1030FE0069F096E8862F70E060E022F09A950E94C3
:0E310E002F24E2F7880F9695879597F908957C
:10311C00CF93DF9384E391E80E940B1EC0E0C23092
:10312C00F1F00E948222882321F00E949A220E94B0
:10313C001E1F0E94A02299F30E947C22882379F3FF
:10314C000E94F823D82F0E94E31FDA3041F7CF5F9B
:10315C00C13029F784E391E80E940B1EE2CF8AE08C
:10316C000E94E31F2FE78AE196E00E943B24E9F7D7
:0A317C0000C00000DF91CF9108951C
:10318600EF92FF920F931F93CF938C0181E591E805
:103196000E940B1EC8010E940B1EB8018CE792E626
:1031A6000E94EC1DC0E07801EC0EF11CF701808155
:1031B600882351F00E94A622C9F30E943F24B1F34E
:1031C6000E942122CF5FEFCFFFE728E381E0F15095
:1031D60020408040E1F700C00000CF911F910F9181
:0831E600FF90EF900C94C41B54
:1031EE00A2E0B0E0EDEFF8E10C94801E5C010E94CD
:1031FE006223848095800E945D236680778037FDF0
:10320E0003C08D7F89839A830E94FF200AE010E01D
:10321E009401C6010E9442120E94BB20B301680FA6
:10322E00791F9401C5010E9474179C01F5018081DC
:10323E00918190FF03C00E9464220CF4C901229672
:06324E00EEE00C94B11E3D
:103254001F920F920FB60F9211242F933F934F9307
:103264005F936F937F938F939F93AF93BF93EF93EA
:10327400FF93189B05C0E091A962F091AA62099599
:10328400199B05C0E091A762F091A86209958FEFA0
:1032940083B9FF91EF91BF91AF919F918F917F91EE
:1032A4006F915F914F913F912F910F900FBE0F90AF
:0432B4001F901895BA
:1032B8001F920F920FB60F9211242F933F934F93A3
:1032C8005F936F937F938F939F93AF93BF93EF9386
:1032D800FF93BE9B05C0E091AB62F091AC6209958B
:1032E800BD9B05C0E091A162F091A26209958FEFA4
:1032F80087BBFF91EF91BF91AF919F918F917F9184
:103308006F915F914F913F912F910F900FBE0F904A
:043318001F90189555
:10331C001F920F920FB60F9211242F933F934F933E
:10332C005F936F937F938F939F93AF93BF93EF9321
:10333C00FF938091060B80FF0AC0E091B762F09179
:10334C00B862309709F0099581E08093060BFF91E4
:10335C00EF91BF91AF919F918F917F916F915F9101
:10336C004F913F912F910F900FBE0F901F9018957A
:10337C001F920F920FB60F9211242F933F934F93DE
:10338C005F936F937F938F939F93AF93BF93EF93C1
:10339C00FF938091160B80FF0AC0E091BF62F09101
:1033AC00C062309709F0099581E08093160BFF916C
:1033BC00EF91BF91AF919F918F917F916F915F91A1
:1033CC004F913F912F910F900FBE0F901F9018951A
:1033DC000F931F93CF93DF938C010F5F1F4FFC0153
:1033EC008081FB0124853585232B11F0EB0109C06D
:1033FC008FEF9FEF17C00995892BD1F7F8018191B9
:10340C008F01EC85FD85BE018111F5CF8AE0099510
:10341C0021E030E0892B11F420E030E08827992757
:0E342C00821B930BDF91CF911F910F9108959A
:10343A0060E080E60E946C2381E60E946C2385E6A8
:10344A000E946C2388E790E00E940F246CE088E6D3
:10345A000E946C2389E60E946C2380E70E946C23F9
:10346A008CE70E946C2382E60E946C2383E60E940A
:10347A006C2384E60E946C2380E890E00E940F246B
:0A348A008091650081FFFCCF0895DA
:103494001F920F920FB60F9211242F933F934F93C5
:1034A4005F936F937F938F939F93AF93BF93EF93A8
:1034B400FF9382E080930D06E0919F62F091A062F9
:1034C400309709F00995FF91EF91BF91AF919F91CA
:1034D4008F917F916F915F914F913F912F910F90B9
:0834E4000FBE0F901F90189518
:1034EC001F920F920FB60F9211242F933F934F936D
:1034FC005F936F937F938F939F93AF93BF93EF9350
:10350C00FF9381E080930D06E0919D62F0919E62A5
:10351C00309709F00995FF91EF91BF91AF919F9171
:10352C008F917F916F915F914F913F912F910F9060
:08353C000FBE0F901F901895BF
:103544001F920F920FB60F9211242F933F934F9314
:103554005F936F937F938F939F93AF93BF93EF93F7
:10356400FF93E091B962F091BA62309709F009953E
:1035740081E080935301FF91EF91BF91AF919F91AF
:103584008F917F916F915F914F913F912F910F9008
:083594000FBE0F901F90189567
:10359C000E947622882339F00E945424682F8CE7ED
:1035AC0092E60E941E1F0E948222882321F00E9414
:1035BC009A220E941E1F0E94A02241F00E947C228F
:1035CC00882321F00E94F8230E9457240E94A622EF
:1035DC0049F00E943F2431F08CE792E60E94D920FA
:0635EC000C945D2408951B
:1035F200A0E0B0E0EFEFFAE10C94841E7C01FB0145
:10360200EA01C901A280B380C480D5800081118102
:10361200209711F4CAE6D2E6009719F4CE010E946F
:103622003920B7FC04C0A816B90608F4C5019601F2
:10363200AC01BE01C7010E947417CDB7DEB7EAE044
:043642000C94B51E11
:103646000E94F11C80F09F5790F0B92F9927B7512F
:10365600A8F0D9F00E942F24991F1AF0BA95D1F735
:1036660014C0B13091F00E944422B1E008950C9448
:103676004422672F782F8827B85F39F0B93FCCF3FB
:10368600869577956795B395D9F716F40E944F21DD
:02369600089595
:10369800DC01ED91FC91119780818A3221F080E064
:1036A80090E03AE009C03196ED93FC93DB010E946B
:1036B8007721808191810895ED91FC911197208166
:1036C80020532A3068F4389FA001399F500D1124E7
:1036D800CA01820F911D3196ED93FC931197ECCF9F
:0236E800089543
:1036EA00CF93DF930E94E3208AE795E80E940B1E9E
:1036FA00CE010E940B1E6EE875E80E94A7210E9467
:10370A00EC1D0E94A62231F00E943F24D1F30E94B0
:10371A002122F7CF2FE78AE196E00E943B24E9F7BE
:10372A0000C000000E948E18DF91CF910C9479207E
:10373A00CF93DF93CDB7DEB72697CDBFDEBF85EF38
:10374A008D838091DB628E8342E0BE016B5F0E94B3
:10375A00E42382EF8B838091DA628C8342E0BE019C
:10376A006D5F0E94E42384EF89838091D9620E946D
:0E377A0005222696CDBFDEBFDF91CF910895C8
:10378800CF9384E391E80E940B1E0E948222882333
:1037980021F00E949A220E941E1F0E94A022A9F3D3
:1037A8000E947C22882389F30E94F823C82F0E9454
:1037B800E31FCA3051F78AE00E94E31F0E943724B2
:0E37C8000E943B24E9F700C00000CF91089555
:1037D600CF93DF930E94E3208DE995E80E940B1EAC
:1037E600CE010E940B1E63EB75E80E94A7210E9482
:1037F600EC1D0E94A62231F00E943F24D1F30E94C4
:103806002122F7CF0E9437240E943B24E9F700C00B
:0E38160000000E948E18DF91CF910C94792053
:1038240020E220930509FC0190E082E09617D1F094
:103834002091050925FD0DC02091050922FD09C02F
:103844002091050923FD05C020910509237023302B
:1038540079F72091080921939F5F691739F38093C1
:0C3864000409E4CF87E080930409089574
:10387000E0E0F8E083E896E00E946D208EE794E2B5
:103880008093C5629093C6628DE794E28093C36291
:103890009093C4628CE794E28093C1629093C26279
:1038A0001092C7621092C862E091D362F091D46224
:0A38B00087E392E680839183089578
:1038BA00990F0008550FAA0BE0E8FEEF1616170637
:1038CA00E807F907C0F012161306E407F50798F09F
:1038DA00621B730B840B950B39F40A2661F0232BB8
:1038EA00242B252B21F408950A2609F4A140A69534
:0838FA008FEF811D811D08956F
:10390200E0E0F2E00E9467238EE4848B158A10A621
:1039120010A211A212A213A214A215A216A217A2F9
:1039220011A617A610AA85E081AB12AA13AA14AA9F
:1039320015A616A612A613A614A615AA16AA17AAA3
:0639420010AE80E00895C4
:103948009091050993709330D1F0880F682B60939C
:1039580007098091050985FD0BC08091050982FD45
:1039680007C08091050983FD03C00E94992389F748
:103978000E941D20882329F083E08093040980E0B9
:06398800089581E008959E
:10398E00CF93DF93EC010E9417240E949E230E9486
:10399E002F2268830E94BF1620E030E040E251E4FF
:1039AE000E9443240E94231B6B830E94CF200E94FF
:1039BE00231B69830E9480238A83CE01DF91CF91DE
:0439CE000C940B1337
:1039D20057FD9058440F551F59F05F3F71F04795BE
:1039E200880F97FB991F61F09F3F79F087950895A3
:1039F200121613061406551FF2CF4695F1DF08C0C2
:103A0200161617061806991FF1CF869571056105DE
:043A12000894089577
:103A1600A1E21A2EAA1BBB1BFD010DC0AA1FBB1FCC
:103A2600EE1FFF1FA217B307E407F50720F0A21B3E
:103A3600B30BE40BF50B661F771F881F991F1A94AB
:103A460069F760957095809590959B01AC01BD01D5
:043A5600CF010895FF
:103A5A0081ED98E80E943E210E94D41F8FE493ECE6
:103A6A000197F1F700C000000E94520F8091DB62BB
:103A7A0081788093DB6285E28093D96281E08093CA
:103A8A00DA620E949D1B89EE98E80E943E2181E03D
:023A9A0008958D
:103A9C00CF93DF93EC0190E0E92FF0E0EE0FFF1FE6
:103AAC00EF5DFD498081811102C081810EC0A8812A
:103ABC00B9812C91821305C091811196A883B98389
:103ACC0001C09F5F9B3040F3892FDF91CF91089508
:103ADC00282FFC018E2F821B8617C0F481918093B6
:103AEC0008098091050985FD0BC08091050982FDAF
:103AFC0007C08091050983FD03C00E94992389F7B3
:103B0C008091050984FFE6CF80E0089581E0089557
:103B1C008BE994E80E941A2284EB94E80E940B1E15
:103B2C0067EC74E88CE792E60E94EC1D0E94A622DA
:103B3C0031F00E943F24D1F30E942122F7CF0E9442
:103B4C0037240E943B24E9F700C000000C948E1827
:103B5C00E0E4F1E0809141018111FACF8FEF93E025
:103B6C0084879587108611868287938781E080935E
:103B7C00470110924201809151018111FCCF81E0EB
:0E3B8C008093520189E48093500180E00895F7
:103B9A0089342DE0920738F4883027E0920728F418
:103BAA0088E097E002C088E49DE0BC016850774055
:103BBA0080E090E00E9457182BEB3FE040E85DE37D
:0E3BCA000E9447240E94231B84E6861B089558
:103BD800FC01DB018C9190E0248130E0D901119641
:103BE800438150E0A417B50789F0882379F0408114
:103BF8005181DA01A20FB31F8C9384818F5F848374
:0E3C08009F5FDB01A90FB11D8C91E6CF0895DF
:103C1600EF92FF920F931F93CF937C01C0E0870131
:103C26000C0F111DF8018081882351F00E947C221F
:103C36008823C1F3F80180810E94E31FCF5FEFCF95
:0C3C4600CF911F910F91FF90EF90089517
:103C5200A0E0B0E0EFE2FEE10C94861E6C01EB0105
:103C62008A017B01E40EF51ECE15DF0541F0899134
:103C7200B601082E000C990B0E94AB15F5CFC801B6
:0A3C8200CDB7DEB7E8E00C94B71EE2
:103C8C00E0E2F8E086E191E00E946D2081E894E2A8
:103C9C008093CD629093CE6280E894E28093CB6265
:103CAC009093CC628FE794E28093C9629093CA623E
:0A3CBC001092CF621092D0620895BA
:103CC600E0E0F6E0118212821382148216861386D1
:103CD600148681E0808780E481878FEF85838FEF6C
:103CE6009FE0848B958B128A138A83E0808380E021
:023CF60008952F
:103CF8002F923F924F925F926F927F928F929F92F4
:103D0800AF92BF92CF92DF92EF92FF920F931F93E1
:103D1800CF93DF93CDB7DEB7CA1BDB0BCDBFDEBFBA
:023D28000994FC
:103D2A000E9403100E94631E0E941D1A0E94811C99
:103D3A000E94AE1D0E9401200E940F200E94542062
:103D4A000E94381C0E94461E0E9487210C9447201C
:103D5A002A88398848885F846E847D848C849B8411
:103D6A00AA84B984C884DF80EE80FD800C811B811F
:103D7A00AA81B981CE0FD11DCDBFDEBFED01089555
:103D8A00A2E0B0E0EBECFEE10C948A1E8C014983C0
:103D9A005A830E9423240E94FE16F801208124FFE0
:0E3DAA0002C08FEF9FEF2296E4E00C94BB1E48
:103DB8000E94951E0E942B2083EF9EE10E94712392
:103DC80088E091E20E947B2381E191E20E947623C0
:0E3DD8008CEF98E80E943E210E94970EFDCFCE
:103DE6008091A80486FF0EC080E28093A5040E94FD
:103DF6008A2381600E948F230E948A238F7E0E94DD
:0C3E06008F23089580E28093A6040895A5
:103E12001F93CF93DF93EB01142F60E00E94A41C49
:103E2200882339F0612FCE010E946E1D93E090939A
:0A3E32000409DF91CF911F9108955C
:103E3C00FC01248130E0A9014F5F5F4F838190E04A
:103E4C004817590749F080819181DC01A20FB31FFB
:0A3E5C006C9384818F5F84830895C6
:103E6600CF93DF9300D0CDB7DEB78091D9628C7F38
:103E760081608093D96294EF99830E9405220F9006
:083E86000F90DF91CF91089528
:103E8E00A0E0B0E0EDE4FFE10C948C1E0E945721FF
:103E9E00E091D362F091D462808191810E94C51E1F
:063EAE00E2E00C94BD1ED1
:103EB400A0E0B0E0E0E6FFE10C948C1E0E945721E4
:103EC400E091D362F091D462808191810E94C51EF9
:063ED400E2E00C94BD1EAB
:103EDA00A0E0B0E0E3E7FFE10C948C1E0E945721BA
:103EEA00E091D362F091D462808191810E94C51ED3
:063EFA00E2E00C94BD1E85
:103F0000A0E0B0E0E6E8FFE10C948C1EAE01475F54
:103F10005F4F6F8178858D819E810E944B22E2E008
:043F20000C94BD1E22
:103F24008093080681E080930A060E940B2488236C
:103F3400E1F3809110069091110621E020930D0683
:023F44000895DE
:103F4600092E0394000C11F4882352F0BB0F40F4A1
:103F5600BF2B11F460FF04C06F5F7F4F8F4F9F4FE1
:023F66000895BC
:103F680082E00E94921F9F938F9386EE95E89F931D
:103F78008F930E945A1F0F900F900F900F900895E3
:103F8800DB018F939F930E949B20BF91AF91A29FCB
:103F9800800D911DA39F900DB29F900D112408953F
:103FA800CF93DF9300D0CDB7DEB780EE898386EB61
:0E3FB8000E9405220F900F90DF91CF91089587
:103FC600CF93C82F0E947C22882339F09091040851
:0E3FD600906490930408C0930208CF91089560
:103FE400A29FB001B39FC001A39F700D811D112436
:0E3FF400911DB29F700D811D1124911D089525
:1040020043E068ED80E590E00E94132440E068ED13
:0C40120081E590E00E94132480E00895F6
:10401E00E0E0FBE08FEF9FEF0E947F2181E1848340
:0C402E0081E0858316821186808308954E
:10403A00809105098C7141F490910509937081E092
:0C404A00933019F080E0089581E00895A3
:104056000E949721E0E0F9E084E0808381E082839A
:0C4066009DEF95839FE09683838308956F
:10407200FC01AF014F5F5F4F2081222311F0FA0153
:0C408200F8CF9F01281B390BC9010895DD
:10408E0040E068ED80E191E00E941324E0E1F1E070
:0A409E0012821382789480E00895E6
:1040A800E0E1FBE080EA9FE00E947F21148281E04A
:0A40B8008583168211868083089527
:1040C200CF93C82F0E947C228823E1F3C093020879
:0840D20080E090E0CF91089519
:1040DA0080879187158280EC868383E087831386A5
:0840EA00148616861586089560
:1040F2008BE791E80E94C3180E9437240E943B2458
:08410200E9F700C00000089578
:10410A000E9429226627707F69877A878B879C8716
:06411A00A50194010895C7
:104120000E943A23C701B6010E9429224B015C017B
:064130009B01AC010895A3
:104136000E94F21FA59F900DB49F900DA49F800D25
:06414600911D11240895F3
:10414C00EC010E9483240E948224CE010E948424CC
:06415C00CE010E946F2459
:10416200D601ED91FC911197CF0101968D939C930D
:04417200208108950B
:1041760009811A81F6014085518541505109481B34
:04418600590B089534
:10418A002F70E1E0F0E0EC0FFD1FE20FF11D20813E
:04419A00FC01089587
:10419E000E94C90D0E9457180E9433245AE30E94B0
:0441AE004724089505
:1041B200FC019381A081B181A90FB11D8C919F5FF8
:0441C2009383089546
:1041C600EC018FE295E80E940B1E84E495E80E94BC
:0441D6000B1E08951F
:1041DA00292D3A2D4B2D582DC701B6010E943523A2
:0241EA00089536
:1041EC00652D70E0A701CE010B960E940000892B73
:0241FC00089524
:1041FE00FA014081518162817381CE0101967C0169
:02420E00089511
:10421000E9E8F2E60E948F21E9E8F2E60E948523B0
:024220000895FF
:10422200E5E8F2E60E948F21E5E8F2E60E948523A6
:024232000895ED
:1042340081E892E60E94C71C0E94F72187E492E677
:024244000895DB
:10424600109285621092866210928762109288623E
:024256000895C9
:104258000E94571820E030E048EC52E40E944324C2
:024268000895B7
:10426A009C01215631092A31310510F48F7599279D
:02427A000895A5
:10427C00E091D362F091D462608171810E94EE1959
:02428C00089593
:10428E005EE30E942922A70196010E944724089509
:10429E0090958095709561957F4F8F4F9F4F0895A4
:1042AE00AE014B5F5F4FFA0161917191AF010895BD
:1042BE00D6018D919C91119701968D939C930895A3
:1042CE00652D70E0970140E050E00E945E22089557
:1042DE00AE01455F5F4FBE016F5F7F4FC401089512
:1042EE00ED91FC911197CF0102968D939C930895B9
:1042FE00848795871286138686E0818310860895BB
:10430E00E0EBF0E0148285E88083128280E008956D
:10431E0080819181A281B3810196A11DB11D089565
:10432E00E0E0F4E08AE0818388E0838B828B08955D
:10433E000E948E1D0E94792080E195E80C943E210A
:10434E008CE792E60E94EC1DBE018CE792E6089582
:10435E00B7FF0C949B200E949B20821B930B089509
:10436E009C01215431092A31310508F480620895E7
:0E437E0020E030E040E05FE70E944724089511
:0E438C009B01AC01C701B6010E9428220895D2
:0E439A000E943523C501B4010E942822089517
:0E43A8006D817E818F8198850E944724089543
:0E43B600F601808191810196808391830895A4
:0E43C400C081D181CE0102968083918308953D
:0E43D2008091D7628F5F8093D762C0E208951A
:0E43E00081E892E60E94C71C81E892E60895EB
:0E43EE0061E872E687E492E60E947914089571
:0E43FC0090E0A0E0B0E0AC01BD01FCE008954F
:0E440A008A8342E0BE016F5F0E94E4230895A2
:0E441800A50194010E940B1D69017A0108950F
:0E442600FC0160837183428313821482089527
:0E4434000E940B1E86E192E80E940B1E089566
:0E4442008CE792E60E94D9200E945D24089526
:0E4450005058BB27AA270E94DD110C94A31F11
:0E445E000E94231B6894B1110C94452208950E
:0E446C0000240A94161617061806090608956D
:0E447A0000240A94121613061406050608956F
:0E448800E894BB2766277727CB0197F90895A4
:0E4496009A01AB016FEF7FE70E94AD1708950A
:0C44A4000E9433245CE00E94472408952D
:0C44B0000E94DB21D7010E9477210895B3
:0C44BC00CE010B960E94CA13892B0895B4
:0C44C800F601828193818217930708950A
:0C44D400E0E4F1E08081816080830895C5
:0C44E000E0E4F1E080818E7F808308958D
:0C44EC0080910408881F8827881F08950D
:0C44F8008091040885FB882780F9089556
:0C45040080912408881F8827881F0895D4
:0C4510008091240885FB882780F908951D
:0C451C00880F991FAA1FBB1F2A95089545
:0C45280055954795379527956A9508959D
:0C4534000E945A24682F87E792E6089541
:0C45400087E792E60E94F3238823089589
:0C454C008CE792E60E94F3238823089578
:0C45580097F99F6780E870E060E008952C
:0C456400EE0FFF1F0590F491E02D09946C
:0A4570000E9444230E94E9230895ED
:0A457A0029813A814B815C8108958C
:0A4584002D813E814F815885089576
:0A458E0029853A854B855C85089568
:0A4598002D853E854F855889089552
:0A45A200A50194010E94472408952A
:0A45AC00C701B6010E943A230895EA
:0A45B6009B01AC010E943F23089511
:0A45C000C301B2010E9447240895D0
:0A45CA00C501B4010E9429220895E2
:0A45D400C501B4010E9428220895D9
:0A45DE0069877A878B879C87089510
:0A45E8000E9429224B015C01089596
:0A45F2000E9429226B017C0108954C
:0A45FC0009851A852B853C8508957A
:0A460600C114D104E104F104089589
:0A461000E980FA800B811C810895F7
:0A461A006D857E858F8598890895CF
:0A4624000E9447240E9430230895ED
:0A462E000E9447244B015C0108952F
:0A4638000E9447246B017C010895E5
:0A4642000E943F230E9429220895E0
:0A464C0069857A858B859C850895A9
:0A4656006D877E878F87988B08958B
:0A46600069837A838B839C8308959D
:0A466A000E9428229B01AC01089574
:0A4674000E9447249B01AC01089549
:0A467E0069817A818B819C81089587
:0A46880020E632E442EA5DE0089506
:0A46920077956795B795F7950895A1
:0A469C000E94DB210E946F210895A7
:0A46A6000E94B1200E946F210895C8
:0A46B00041145104610471040895DF
:0A46BA008081918189839A8308951D
:0A46C4006B01FB0122813381089590
:0A46CE00108A118A128A138A0895D7
:0A46D80090E00E940F2460E00895B6
:0A46E2008093B7629093B8620895C8
:0A46EC008093B9629093BA620895BA
:0A46F6008093BF629093C0620895A4
:0A47000082E00E94921F0C94CD1D70
:0A470A0080839183A283B383089596
:0A4714008091D1629091D262089565
:0A471E008093D1629093D262089557
:0A47280080819181A281B381089580
:0A473200809105098370833008951B
:0A473C000E949E100E942C21089597
:0A474600440F551F661F771F0895EA
:0A475000880F991FAA1FBB1F0895D0
:0A475A00F594E794D794C7940895EE
:0A4764000E94AF214B015C01089593
:0A476E000E94AF21DC01CB01089589
:0A477800B594A794979487940895D0
:0A478200A7019601C701B6010895D2
:0A478C009B01AC010E94E92308958F
:0A4796009B01AC010E94C41F0895AE
:0A47A00075946794579447940895A8
:0A47AA00959587957795679508951A
:0A47B400C80ED91EEA1EFB1E089570
:0A47BE00CC0CDD1CEE1CFF1C08955E
:0A47C8007F4F86E70E94091F089545
:0A47D20060E070E080E89FE30895C6
:0A47DC00B595A79597958795089568
:0A47E600FC0183819481891B089572
:0A47F00087E792E60E94D9200895A1
:0A47FA000E945D1C08F481E00895A0
:0A4804000E945D1C08F48FEF089578
:08480E000E9433245FE30895CA
:0848160080910D0681700895E8
:08481E00462F68ED0C941324F1
:08482600FC0164BF408308950A
:08482E000E94331F0C942214B8
:0848360022950E94C52008959F
:08483E0090E0982F88270895EF
:08484600AE014F5F5F4F0895C2
:08484E000E94EE232A95089553
:084856000E94EE233A9508953B
:08485E00660F771F881F089503
:0848660020E030E040E8089575
:08486E002FE788E391E00895B3
:0848760021508040904008959C
:08487E000E948822882308959E
:084886000E940A110C94A31F0B
:08488E000E9475110C94A31F98
:064896000E943A23089580
:06489C000E946F21089547
:0648A2000E94DB210895D5
:0648A80080910008089554
:0648AE008093020808954A
:0648B40080912008089528
:0648BA008093220808951E
:0648C0000E94C5200895CE
:0648C6000E94EE2308959C
:0648CC009FEF80EC08954F
:0448D2000C94000042
:0448D6000C94F41535
:0448DA009F77089527
:0448DE000E9498009C
:0248E200089537
:0248E400089535
:0248E600089533
:0248E800089531
:0248EA0008952F
:0248EC0008952D
:0248EE0008952B
:0248F000089529
:0248F200089527
:0248F400089525
:0248F600089523
:0248F800089521
:0248FA0008951F
:0248FC0008951D
:0248FE0008951B
:02490000089518
:02490200089516
:02490400089514
:02490600089512
:02490800089510
:10490A0068076C094C836A9074A07AC00080688832
:06491A0000846C820081A4
:104920000300000000000000000000006120000003
:0849300000000000DCCFD135CE
:084938000000000000C0153F63
:084940000000803F0000C03FB1
:07494800286E756C6C29005C
:06494F00286E696C2900CE
:02495500D56229
:02000004008278
:090000000000000000D00800001F
:00000001FF
