:100000000C9469000C94E8280C94E8280C94E828D7
:100010000C94E8280C94461F0C9401230C94E828B7
:100020000C949E200C94E8280C94E8280C94E82862
:100030000C94E8280C94E8280C9433210C94632148
:100040000C94E8280C94E8280C94E8280C94E828F0
:100050000C94E8280C94E8280C94E8280C94E828E0
:100060000C94D51D0C94E8280C94D5220C94A9224C
:100070000C94E8280C94F51F0C94E8280C94E828BC
:100080000C94E8280C94E8280C94D0200C94E828D0
:10009000C50FE50FE80FF00F0E103B105910691057
:1000A0006C108010881094106000622180622162C0
:1000B0004700520462476252806252627700522ABD
:1000C000627762D38062D362D500524F62D562DC20
:1000D0008000809101108F7C806080688093011087
:1000E00011241FBECFEFCDBFDFE7DEBFE8EAF0E0AF
:1000F00040E017C0B591A59135912591059107FD77
:100100000CC095918591EF01F92FE82F05900D9284
:10011000A217B307D9F7FE0104C01D92A217B307B7
:10012000E1F7E13DF40731F70E945A260C94EC27E1
:04013000F894FFCF71
:1001340052783A200048574555493A20007379735C
:10014400206765742068776575690D0A000D0A5487
:10015400783A20000A496E697469616C697A696E3B
:100164006720524E327878332E2E2E0A4669726DED
:10017400776172653A20006D616320736176650D65
:100184000A006D6163207365742072783220332015
:10019400383639353235303030006D61632073655F
:1001A4007420636820646379636C65203020373978
:1001B40039006D6163207365742063682064727212
:1001C400616E6765203120302036006D61632073D5
:1001D400657420636820646379636C65203120371B
:1001E4003939006D6163207365742063682064632A
:1001F40079636C65203220373939006D616320736F
:100204006574206368206672657120332038363740
:10021400313030303030006D616320736574206399
:100224006820647272616E67652033203020350067
:100234006D61632073657420636820646379636C03
:1002440065203320373939006D616320736574206C
:100254006368207374617475732033206F6E006D4E
:10026400616320736574206368206672657120344D
:1002740020383637333030303030006D61632073CE
:10028400657420636820647272616E67652034202F
:10029400302035006D6163207365742063682064C9
:1002A4006379636C65203420373939006D616320CC
:1002B40073657420636820737461747573203420CB
:1002C4006F6E006D616320736574206368206672CD
:1002D4006571203520383637353030303030006D98
:1002E40061632073657420636820647272616E6751
:1002F40065203520302035006D61632073657420DE
:10030400636820646379636C65203520373939006C
:100314006D61632073657420636820737461747500
:10032400732035206F6E006D6163207365742063E4
:1003340068206672657120362038363737303030A1
:100344003030006D616320736574206368206472CB
:1003540072616E6765203620302035006D61632040
:1003640073657420636820646379636C6520362048
:10037400373939006D6163207365742063682073B5
:1003840074617475732036206F6E006D6163207321
:1003940065742063682066726571203720383637AB
:1003A400393030303030006D616320736574206300
:1003B4006820647272616E676520372030203500D2
:1003C4006D61632073657420636820646379636C72
:1003D40065203720373939006D61632073657420D7
:1003E4006368207374617475732037206F6E006DB9
:1003F400616320736574206368207374617475731A
:10040400202564206F6E0D0A006D6163207365748E
:1004140020636820737461747573202564206F668B
:10042400660D0A004D6F64756C65206E6F742073E1
:100434007065636966696564000A0A436F6E66697C
:10044400677572696E6720524E3278783320466F32
:100454007220414250206A6F696E0A002D2D2D2DA5
:100464002D2D2D2D2D2D2D2D2D2D2D2D2D2D2D2DB8
:100474002D2D2D2D2D2D2D2D2D2D2D2D2D2D2D2DA8
:100484002D2D2D2D2D2D2D2D2D2D2D2D2D2D2D2D98
:100494002D2D2D2D2D2D2D2D2D2D2D2D2D2D2D2D88
:1004A4002D2D2D0A006D61632073657420646576BB
:1004B400657569203730423344353745443030352B
:1004C400414130420D0A006D6163207365742064FC
:1004D4006576616464722032363043323242360DBE
:1004E4000A006D61632073657420617070736B65BD
:1004F4007920353031433331323945333643304353
:100504003536354444443331313238354338463551
:1005140033340D0A006D616320736574206E776B4C
:10052400736B657920364330373042313236353299
:100534003946383536443436323745354234323527
:1005440033353033350D0A006D61632073657420D3
:100554006172206F6E0D0A006D61632073657420F3
:10056400727864656C61793120353030300D0A0061
:100574006D616320736574207278322031322039C2
:1005840032333330303030300D0A006D6163207304
:10059400657420616472206F6E0D0A006D616320C2
:1005A40073657420647220340D0A000A000A0A4339
:1005B4006F6E6669677572696E6720524E3278781D
:1005C4003320466F72204F544141206A6F696E0A8E
:1005D400006D61632070617573650D0A006D616360
:1005E40020726573756D650D0A006D616320736516
:1005F4007420646576657569203030303441333059
:100604004230304638363137450D0A006D6163207B
:1006140073657420646576616464722030303030B0
:10062400303030300D0A006D6163207365742061D1
:100634007070736B6579203030303030303030304A
:1006440030303030303030303030303030303030A6
:10065400303030303030300D0A006D616320736506
:1006640074206E776B736B657920303030303030A6
:100674003030303030303030303030303030303076
:10068400303030303030303030300D0A006D61633E
:1006940020736574206170706B6579204234363044
:1006A4003434374643394538394336443546453979
:1006B4004345443038383634373933350D0A006D04
:1006C40061632073657420617070657569203030D2
:1006D40030303030303030303030303030300D0A5F
:1006E400006D61632073657420727832203820397C
:1006F40032333330303030300D0A000A0A4A6F6921
:100704006E696E672054544E2077697468204F5484
:1007140041410A0054783A206D6163206A6F696E22
:10072400206F7461610A006D6163206A6F696E20D5
:100734006F7461610D0A000A0A4A6F696E696E6717
:100744002054544E2077697468204142500A005462
:10075400783A206D6163206A6F696E206162700A65
:10076400006D6163206A6F696E206162700D0A001A
:100774000A507265737320627574746F6E20746F9F
:10078400207472616E736D69742064617461000A0F
:100794000A5472616E736D697474696E6720446182
:1007A40074610A002D2D2D2D2D2D2D2D2D2D2D2D4A
:1007B4002D2D2D2D2D2D2D2D2D2D2D2D2D2D2D2D65
:1007C4002D2D2D2D2D2D2D2D2D2D2D2D2D2D2D2D55
:1007D4002D2D2D2D2D2D2D2D0A000A54783A206D06
:1007E400616320747820636E6620313020006D616F
:1007F4006320747820636E6620313020000A5478B8
:100804003A206D616320747820756E636E662031C2
:100814003120006D616320747820756E636E6620EC
:10082400313120006D6163206765742073746174D5
:1008340075730D0A0073797320736C6565702031CC
:06084400383030303000B6
:10084A0025640A000A41667465722031303030200E
:10085A004D6F6973747572652052656164696E675C
:10086A0073002D2D2D2D2D2D2D2D2D2D2D2D2D2D95
:10087A002D2D2D2D2D2D2D2D2D2D2D2D2D2D2D2D9E
:10088A002D2D2D2D2D2D2D2D2D2D2D2D2D2D2D2D8E
:10089A002D2D2D2D2D2D2D2D2D2D2D2D2D2D2D2D7E
:1008AA002D2D2D2D2D2D2D2D2D00546865204D41DA
:1008BA00582072656164696E6720776173202564C8
:1008CA000A00546865204D494E2072656164696E5C
:1008DA0067207761732025640A0A00546865204DF1
:1008EA004158206D61707320746F2025640A00548A
:1008FA006865204D494E206D61707320746F202504
:10090A00640A000A0A43757272656E742053656E32
:10091A00736F7220446174610A002D2D2D2D2D2DC7
:10092A002D2D2D2D2D2D2D2D2D2D2D2D2D2D2D2DED
:10093A002D2D2D2D2D2D2D2D2D2D2D2D2D2D2D2DDD
:10094A002D2D2D2D2D2D2D2D2D2D2D2D2D2D2D2DCD
:10095A002D2D2D2D2D2D2D2D2D2D2D2D2D2D2D2DBD
:10096A002D0A0052656C61746976652048756D6957
:10097A00646974793A2025752525200D0A004D6F82
:10098A006973747572653A2025752525200D0A004C
:10099A0050726573737572653A20257520685061C7
:1009AA000D0A0054656D70657261747572653A203E
:1009BA0025692043200D0A000A4A534F4E20466FEC
:1009CA00726D61740D005061796C6F61643A207BBD
:1009DA002074656D703A2025692C2068756D6964EC
:1009EA006974793A2025752C206D6F697374757254
:1009FA00653A2025752C2070726573737572653A95
:100A0A00202575207D0D0A0A005061796C6F61649A
:100A1A0020737472696E673A2025730A6E756D5475
:100A2A00783A2025640A0030313233343536373883
:100A3A0039414243444546000A5765617468657204
:100A4A0020436C69636B204E4F5420696E69746948
:100A5A00616C697A65642070726F7065726C792155
:100A6A00000A496E7465726163746976652054651B
:100A7A00726D696E616C2069732061637469766551
:100A8A003A20636F6D6D616E6473207375636820BD
:100A9A006173202773797320666163746F72795268
:100AAA0045534554272077696C6C0062652073654D
:100ABA006E7420746F2074686520524E32787833D1
:100ACA0020616E6420726573706F6E736573207730
:100ADA00696C6C206265206170706561722068655E
:100AEA0072652E000A5768656E2072656164792CFA
:100AFA0020707265737320627574746F6E20746FE0
:100B0A00206A6F696E2054544E0A00544F444F3A7B
:100B1A0020205772697465206C6F7720706F776533
:0B0B2A00722074657374732E2E2E0071
:100B35000A496E697469616C697A696E6720424D0C
:100B4500453238302E2E2E00424D45323830206940
:0B0B55006E697469616C697A65640068
:100B600057656C636F6D6520746F207468652041F4
:0A0B70006772692D496F542E0A00C8
:100B7A00A2E2B0E0E3ECF5E00C94CB2529833A83BA
:100B8A004B835C8329013A01E89477F841145104B4
:100B9A006104710409F458C669877A878B879C8730
:100BAA007B018C0161157105A0E88A07AFE39A07FA
:100BBA0009F44AC62D873E874F87588B4B015C0143
:100BCA006B017C01E894F7F8B1E0CB16D104B0E8E8
:100BDA00EB06BFE7FB0644F4E1E04E165104E0E8F9
:100BEA006E06EFE77E064CF02D853E854F855889C7
:100BFA00C501B4010E94442832C609851A852B858D
:100C0A003C8537FF4DC04114510410E861061BE4CE
:100C1A0071060CF04AC04114510420E862062FE321
:100C2A0072060CF470C0D301C20107E1B595A7950D
:100C3A00979587950A95D1F78F579109A109B10917
:100C4A0027E130E0281B390BD301C201022E04C070
:100C5A00B595A795979587950A94D2F7AC01BD01EA
:100C6A0004C0440F551F661F771F2A95D2F74416F2
:100C7A0055066606770609F046C081709927AA27A5
:100C8A00BB2742E050E060E070E08A019B01081B4C
:100C9A00190B2A0B3B0B0D831E832F83388737C012
:100CAA001D821E821F82188608C022E030E040E0C2
:100CBA0050E02D833E834F8358874114510430E816
:100CCA0063063FE7730619F5C114D10440E8E40648
:100CDA004FE3F40609F4B8C55CF0E980FA800B81A9
:100CEA001C8117FDB6C56D857E858F859889B7C528
:100CFA00E980FA800B811C8117FFABC56D857E8563
:100D0A008F8598898AC01D821E821F821886411487
:100D1A00510400E860060FE3700669F4E980FA807E
:100D2A000B811C8117FF99C5A501940160E070E051
:100D3A0080E89FE365C009811A812B813C810115F6
:100D4A001105210540E4340729F4A5019401C501E0
:100D5A00B401C2C089819A81AB81BC810097A10587
:100D6A00BF4359F409851A852B853C8537FD05C093
:100D7A00C501B4010E94AB1072C5C501B4010E943D
:100D8A00EA28C114D104E104F10449F0950184016F
:100D9A003F730115110520483F4309F040C00981FE
:100DAA001A812B813C8137FF08C09B01AC0160E0AE
:100DBA0070E080E89FE30E94CE2829853A854B851A
:100DCA005C8557FF4CC530E8E31A3FE3F30A0D810F
:100DDA001E812F813885C02AD12AE22AF32AC1141A
:100DEA00D104E104F10479F421E230E020930060B7
:100DFA00309301609B01AC010E9443289B01AC0126
:100E0A000E94CE282CC52D813E814F8158852130E4
:100E1A0031054105510509F022C5905820C50985BB
:100E2A001A852B853C8537FF21C02D813E814F8154
:100E3A005885232B242B252B59F481E290E08093AB
:100E4A00006090930160A5019401C501B401D4CF5B
:100E5A000D811E812F81388501301105210531054B
:100E6A0071F420E030E040E85FEB0DC000E010E0F4
:100E7A0020E83FE30D831E832F83388708C020E0D4
:100E8A0030E040E85FE32D833E834F83588731E0AB
:100E9A004316510461043DE473060CF497C048EF0D
:100EAA00C4164FEFD4064FE7E4064FE3F406BCF44A
:100EBA00E980FA800B811C8117FF4BC32AEC32EFC1
:100ECA0049E451E76D817E818F8198850E94D228FD
:100EDA002AEC32EF49E451E70E94D228C0C408E064
:100EEA00C016D10400E8E0060FE3F00654F0E980EA
:100EFA00FA800B811C811E141F0410061106F4F2DD
:100F0A0028C320E030E040E85FE30E9443286B01F9
:100F1A007C0120E03AEA48EB5FE30E94D2284B01C9
:100F2A005C0120E735EA4CEE56E3C701B6010E94A0
:100F3A00D22869837A838B839C8320E030E040E85F
:100F4A005EE3C701B6010E94D2289B01AC016BEA9D
:100F5A007AEA8AEA9EE30E944328A70196010E9440
:100F6A00D2289B01AC0160E070E080E09FE30E9420
:100F7A0043282B013C01A7019601C701B6010E9433
:100F8A00D2289B01AC01C301B2010E94D2282BE3F3
:100F9A003AEA48EB5FE30E94D2289B01AC016981DF
:100FAA007A818B819C810E9443286B017C019B0181
:100FBA00AC01C501B4010E9444286627707F698785
:100FCA007A878B879C87A501940120C2C114D1041A
:100FDA0000E8E006F1046CF420E030E040E85BE46D
:100FEA000E94D2286B017C0148EE5FEF6FEF7FEF22
:100FFA0003C040E050E0BA01D701C60117E1B59538
:10100A00A795979587951A95D1F78F579109A109B1
:10101A00B1098C019D01040F151F261F371F0D8B67
:10102A001E8B2F8B388FE894E7F8FF24460157016F
:10103A006894A7F81FE3B12A22E7C21624ECD20665
:10104A002CE1E206F104B4F037EDC31633EBD30614
:10105A003DE5E306F1049CF08D899E89AF89B88D40
:10106A000196A11DB11D8D8B9E8BAF8BB88F90E819
:10107A00A91AB10819861A861B861C8608C0E12C93
:10108A00F12C8701E394E986FA860B871C87098588
:10109A001A85000F111F000F111F09A31AA3F801C7
:1010AA00EE59FD49E080F18002811381E98AFA8ACA
:1010BA000B8B1C8BA8019701C501B4010E94432820
:1010CA00698F7A8F8B8F9C8FA8019701C501B40114
:1010DA000E9444289B01AC0160E070E080E89FE335
:1010EA000E94CE286D8F7E8F8F8F98A39B01AC01B3
:1010FA00698D7A8D8B8D9C8D0E94D22869837A8323
:10110A008B839C8349805A806B807C80442400EFC7
:10111A00502275016401F594E794D794C794CC24BE
:10112A0010EFD122E894F5F86894F5F8D701C601D2
:10113A00A05CBF4FC984DA84EB84FC84F5E1CC0C53
:10114A00DD1CEE1CFF1CFA95D1F7C80ED91EEA1E4B
:10115A00FB1EA7019601C301B2010E94D2289B017E
:10116A00AC01698D7A8D8B8D9C8D0E94432869878D
:10117A007A878B879C8729893A894B895C89C70139
:10118A00B6010E9443289B01AC01C501B4010E942B
:10119A004328A30192010E94D2289B01AC016985D0
:1011AA007A858B859C850E9443282D8D3E8D4F8D97
:1011BA0058A10E94D22869877A878B879C872981C0
:1011CA003A814B815C81CA01B9010E94D2286B0124
:1011DA007C0122E431EF43E55EE30E94D22825E553
:1011EA0032E34CE65EE30E944428A70196010E947E
:1011FA00D22825E033EA4BE85EE30E944428A7019F
:10120A0096010E94D2282BEA3AEA4AEA5EE30E9451
:10121A004428A70196010E94D22827EB3DE64BED10
:10122A005EE30E944428A70196010E94D2282AE977
:10123A0039E949E15FE30E9444284B015C01A701B7
:10124A009601C701B6010E94D2289B01AC01C501D3
:10125A00B4010E94D2286B017C01A3019201698129
:10126A007A818B819C810E94442829853A854B8505
:10127A005C850E94D228A70196010E9444286B012E
:10128A007C01A3019201C301B2010E94D228698B99
:10129A007A8B8B8B9C8B20E030E040E450E40E94F8
:1012AA004428A70196010E9444284B015C01882426
:1012BA0020EF9222A5019401C301B2010E94D22813
:1012CA002B013C0120E030E040E450E4C501B401C8
:1012DA000E94432829893A894B895C890E944328BC
:1012EA009B01AC01C701B6010E94432829813A81BA
:1012FA004B815C810E94D2286B017C01A50194017B
:10130A0069857A858B859C850E94D2289B01AC01D0
:10131A00C701B6010E9444284B015C019B01AC0144
:10132A00C301B2010E9444286B017C01CC2430EF36
:10133A00D32220E030E446E75FE3C701B6010E940A
:10134A00D22869837A838B839C83A3019201C70184
:10135A00B6010E9443289B01AC01C501B4010E9459
:10136A0043282FE438E346E75FE30E94D2284B0183
:10137A005C0126EC33E246EF58EBC701B6010E9446
:10138A00D2289B01AC01C501B4010E944428E9A1FD
:10139A00FAA1EE5AFD4920813181428153810E948E
:1013AA0044286B017C016D897E898F89988D0E9402
:1013BA00931E4B015C0109A11AA1065A1D49D801C5
:1013CA004D905D906D907C90A701960169817A811C
:1013DA008B819C810E944428A30192010E94442887
:1013EA00A50194010E9444286627707F69877A873D
:1013FA008B879C87A50194010E944328A30192012F
:10140A000E94432829813A814B815C810E944328AA
:10141A009B01AC01C701B6010E9443284B015C0144
:10142A00CD84DE84EF84F888CC24B0EFDB22A701D8
:10143A0096016D857E858F8598890E944328298526
:10144A003A854B855C850E94D2282B013C012D856B
:10145A003E854F855889C501B4010E94D2289B0157
:10146A00AC01C301B2010E94442869837A838B8349
:10147A009C83A701960169857A858B859C850E9444
:10148A00D228962EA72EB82E892E6987798B182FE7
:10149A00092F262F372F482F592F69817A818B815F
:1014AA009C810E9444286B017C016D877E878F870F
:1014BA00988B81E0C816D104E10483E4F8060CF0A5
:1014CA00FDCC2D853E854F8558892115310541056D
:1014DA005344E9F42CE33AEA48E353E369817A8115
:1014EA008B819C810E9444282B013C01292D3A2D95
:1014FA004B2D582DC701B6010E9443289B01AC0110
:10150A00C301B2010E94C128181694F5D7CCD7019D
:10151A00C601BF770197A641B344DCF42D853E8509
:10152A004F855889211531054641534C09F5292D16
:10153A003A2D4B2D582DC701B6010E9443289B0115
:10154A00AC0169817A818B819C810E94BC28181622
:10155A007CF020E632E442EA5DE06D817E818F8193
:10156A0098850E94D22820E632E442EA5DE0B4CCB3
:10157A00D701C601BF7781309105A105EFE3BE0708
:10158A000CF46AC057E1B595A795979587955A9532
:10159A00D1F78E5740E050E060E870E08A019B0185
:1015AA0004C035952795179507958A95D2F7C00EE9
:1015BA00D11EE21EF31E26013701E89477F867E18F
:1015CA0075946794579447946A95D1F71FE7411A1F
:1015DA005108610871088FEF9FEFAFE7B0E0042C64
:1015EA0004C0B595A795979587950A94D2F78095E3
:1015FA009095A095B0959C01AD012C213D214E21DD
:10160A005F21E894E7F8FF246894E7F887E190E01F
:10161A00841995092601370104C075946794579473
:10162A0047948A95D2F7ED84FE840F85188917FFAF
:10163A0008C07094609450944094411C511C611CE1
:10164A00711C692D7A2D8B2D982D0E94432869874C
:10165A00798B182F092F03C0412C512C3201298173
:10166A003A814B815C8169857989812F902F0E940B
:10167A0044284B015C01882420E8922220E032E7CA
:10168A0041E35FE3C501B4010E94D2286D877E87DA
:10169A008F87988B29853989412F502FC501B4012D
:1016AA000E9443289B01AC0169817A818B819C81CC
:1016BA000E94432828E132E741E35FE30E94D228EF
:1016CA006B017C012CE83EEB4FEB55E3C501B401FD
:1016DA000E94D2289B01AC01C701B6010E9444288E
:1016EA004B015C019B01AC016D857E858F859889D4
:1016FA000E9444286B017C012D853E854F855889BF
:10170A000E9443289B01AC01C501B4010E944328F1
:10171A0069837A838B839C83A7019601C701B601EB
:10172A000E94D2284B015C012CE43BEB41E353E3DA
:10173A000E94D2282EE03AEE4DED55E30E9443284E
:10174A00A50194010E94D22825E533EB4AE858E323
:10175A000E944428A50194010E94D22821E63BE078
:10176A0046E35BE30E944328A50194010E94D22824
:10177A002BEA3AEA4AE25EE30E944428A501940170
:10178A000E94D2289B01AC01C701B6010E944328DE
:10179A004B015C019B01AC01C701B6010E94D22832
:1017AA006D877E878F87988B20E030E040E050E499
:1017BA00C501B4010E9443289B01AC016D857E8559
:1017CA008F8598890E94CE284B015C0129813A8134
:1017DA004B815C81C701B6010E94D22829813A81D6
:1017EA004B815C810E9444289B01AC01C501B40174
:1017FA000E944328A70196010E9443289B01AC013D
:10180A0060E070E080E89FE30E9443289301820130
:10181A0047E1000F111F221F331F4A95D1F7060F08
:10182A00171F281F391F0115110540E82407310524
:10183A0024F4A2010E94DC1A02C0C901B8012D8158
:10184A003E814F81588548CB60E070E080E89FE395
:10185A0006C060E070E0CB0102C0C501B401A296E7
:06186A00E0E10C94E4250E
:10187000AEE0B0E0EEE3FCE00C94CC254C016B0153
:1018800019821A828FEF9FEF8B839C831D821E82A9
:101890004F83588729873A87A12CB12CD6016D90A8
:1018A0007C90F301EA0DFB1D808181110FC0D601F0
:1018B000ED93FC938081853209F0D3C13F01BFEFE6
:1018C0006B1A7B0AF6016082718219C0853279F346
:1018D000B401082E000C990B0E94BC1C4FEFA41AF7
:1018E000B40ADCCF8C32ACF08D32F9F489819A8164
:1018F000816089839A833196D601ED93FC93D6015A
:10190000ED91FC9180818B3269F789819A818460A5
:10191000F0CF803221F489819A818860EACF8332C6
:1019200051F489819A818061E4CF803321F48981E7
:101930009A818260DECFB701C6010E944E228D835C
:101940009E8397FF0BC029813A81B1E02B27298321
:101950003A839195819591098D839E8389819A819E
:1019600080FF03C08D7F89839A83D601ED91FC911E
:10197000119780818E3249F43196ED93FC93B70133
:10198000C6010E944E228B839C83C6010E94E724DD
:10199000582ED601ED91FC918081082E000C990BF8
:1019A0000E943428893609F443C084F4833609F44C
:1019B00002C134F4853209F427C18136E1F030C127
:1019C0008436B1F188360CF4D9C02AC1803709F4C5
:1019D0009AC03CF48E3609F4BCC08F3609F461C05D
:1019E0001FC1853709F440C0883709F476C08337B2
:1019F00009F016C1F3C0652D70E0A701CE010B966A
:101A00000E940000892B09F426C1D601ED91FC91BA
:101A10001197CF0101968D939C932081AE01455F74
:101A20005F4FBE016F5F7F4FC4010E94000010C175
:101A3000652D70E0970141E050E0CE010B960E94C9
:101A40004919892B09F407C1F6018081918101961A
:101A500080839183AE01455F5F4FBE016F5F7F4F13
:101A6000C4010E948D17F4C0652D70E0970140E01D
:101A700050E0CE010B960E944919892B09F4EBC066
:101A8000D6018D919C91119701968D939C93AE01F7
:101A9000455F5F4FBE016F5F7F4FC4010E944D1DC8
:101AA000D7C0652D70E0970140E050E0CE010B9665
:101AB0000E944919892B09F4CEC0F60180819181D9
:101AC000019680839183AE01455F5F4FBE016F5FDA
:101AD0007F4FC4010E94351BBBC0652D70E097018C
:101AE00040E050E0CE010B960E944919892B09F481
:101AF000B2C0D601ED91FC911197CF0101968D9363
:101B00009C9320811CC0970140E050E060EF70E0A2
:101B1000CE010B960E944919892B09F49CC0F6014D
:101B2000808191810196808391838B859C85892B0F
:101B300029F420E030E041E752E684C028E7AE0116
:101B4000455F5F4FBE016F5F7F4FC4010E94BC12B3
:101B50007FC0A501400F511F652D70E09701CE0198
:101B60000B960E940000892B09F475C0D6018D9157
:101B70009C91119701968D939C9373C0652D70E095
:101B8000A701CE010B960E940000892B09F463C0C7
:101B9000D601ED91FC911197CF0101968D939C9305
:101BA0002081AE01455F5F4FBE016F5F7F4FC40173
:101BB0000E9400004DC0B0E85B124DC0F60180816C
:101BC0009181019680839183D701ED91FC911197CA
:101BD000CF0102968D939C93808120C0B0E85B1268
:101BE0003AC0F60180819181019680839183D7016B
:101BF000ED91FC911197CF0102968D939C934081BA
:101C0000518120E030E01EC0B0E85B1224C0F60134
:101C1000208131812F5F3F4F208331838B870DC01F
:101C200085E28B87D6016D927C9219821A821D8281
:101C30001E828FEF9FEF8B839C8321E030E0AE010B
:101C4000455F5F4FBE016F5F7F4FC4010E94582305
:101C50008A0D9B1D07C0F6018081918101968083CA
:0C1C60009183C5012E96EFE00C94E52561
:101C6C004F925F926F927F928F929F92AF92BF92A0
:101C7C00CF92DF92EF92FF92C0908D62D0908E62E5
:101C8C00E0908F62F0909062F594E794D794C794AB
:101C9C008AEFD81AE108F108C701B6019595879526
:101CAC007795679595958795779567959B01AC0189
:101CBC000E943F274B015C01E0E0F2E6A285B38570
:101CCC009B01AC01012E1DE0559547953795279545
:101CDC001A95D1F7102D0E942C282B013C016894E9
:101CEC0012F875946794579447941694D1F7A0857D
:101CFC00B185A70196010E942C28DC01CB01B5957A
:101D0C00A79597958795840D951DA61DB71D072E34
:101D1C0072E1B595A795979587957A95D1F7702D22
:101D2C009C01AD0130584F4F5F4FA681B7810E9487
:101D3C00E1272B013C01032E3FE0759467945794E7
:101D4C0047943A95D1F7302D411451046104710434
:101D5C0009F4CEC0A5019401012E1BE055954795C1
:101D6C00379527951A95D1F7102DA089B1890E9426
:101D7C002C284B015C01A685B785A70196010E9412
:101D8C002C28DC01CB01880F991FAA1FBB1F880EC2
:101D9C00991EAA1EBB1ED501C401B595A795979592
:101DAC008795B595A7959795879584849584092CE7
:101DBC00000CAA08BB08540199248824880E991E8B
:101DCC00AA1EBB1E072E7CE0B594A794979487940B
:101DDC007A95D1F7702D8091916290919262A09139
:101DEC009362B0919462A5019401280F391F4A1F88
:101DFC005B1FABECB3EF0E942F28805B9C439923B5
:101E0C005CF0660F771F881F991FA30192010E9437
:101E1C00A42469017A010AC0A30192010E94A4249E
:101E2C0069017A01CC0CDD1CEE1CFF1CC701B6014C
:101E3C00689412F896958795779567951694D1F7CF
:101E4C009B01AC010E943F279B01AC01012E1DE0C0
:101E5C0056954795379527951A95D1F7102DE0E0B3
:101E6C00F2E6A689B7890E942C284B015C01072E4B
:101E7C007CE0B594A794979487947A95D1F7702DBC
:101E8C00A7019601569547953795279556954795F1
:101E9C0037952795A489B5890E942C28DC01CB01A4
:101EAC00072E7DE0B595A795979587957A95D1F7EF
:101EBC00702DB501A401480F591F6A1F7B1F828921
:101ECC009389092E000CAA0BBB0B840F951FA61F20
:101EDC00B71F689413F8B595A795979587951694A1
:101EEC00D1F7BC01CD016C0D7D1D8E1D9F1D03C056
:101EFC0060E070E0CB01FF90EF90DF90CF90BF904F
:101F0C00AF909F908F907F906F905F904F900895BF
:101F1C001F93CF93DF938091D1629091D26280FF17
:101F2C0021C08091D862843059F08B3079F08130A7
:101F3C0081F480E28093A50482E08093D86209C08A
:101F4C0083E08093D8620E94732803C083E080935F
:101F5C00D8628091D1629091D2628E7F8093D1624F
:101F6C009093D262E091D8628E2F90E08C309105E4
:101F7C0008F0E7C0FC01E85BFF4F0C949D2880E261
:101F8C008093A5040E947D1A0E94C624811104C06E
:101F9C0082E49AE80E940A2880E28093A6048BE6E9
:101FAC009AE80E940A2885EB9AE80E940A288EEE8D
:101FBC009AE80E940A2881E08093D862C2C00E94ED
:101FCC006720BFC00E94E2280E94012883E0809312
:101FDC00D862B7C08091D7628F5F8093D762C0E21E
:101FEC00C093A60481E892E60E943D2461E872E663
:101FFC0087E492E60E946D1687E492E60E94151E15
:10200C000E946D2884E08093D862C093A50499C087
:10201C008091856290918662A0918762B09188626E
:10202C00843B9105A105B105E9F48091D76291E05B
:10203C00803F08F490E020EF929F801911248111C9
:10204C0004C083E08093D86203C085E08093D8629B
:10205C000E94732810928562109286621092876299
:10206C00109288620E9467206CC08091D7628F5F4B
:10207C008093D762C5EAD4E010E2188381E892E637
:10208C000E943D2461E872E687E492E60E946D1698
:10209C0087E492E60E94531E0E946D2884E0809390
:1020AC00D86218834EC0109285621092866210928C
:1020BC008762109288620E942F270E946D288BE005
:1020CC008093D8623EC00E9467203BC00E94C62409
:1020DC0081E892E60E943D2481E892E60E94FF1777
:1020EC0061E872E687E492E60E946D168BE08093BD
:1020FC00D86227C085E19BE80E940A288BE0809378
:10210C00D8621FC081E892E60E943D2481E892E6E5
:10211C000E94FF178BE08093D86213C08091856278
:10212C0090918662A0918762B09188620297A10516
:10213C00B10529F40E94732886E08093D8620E942E
:0A214C006720DF91CF911F910895E5
:102156004F925F926F927F928F929F92AF92BF92B1
:10216600CF92DF92EF92FF920F931F936B017C0148
:10217600DC01CB01B701A6014427552760787F779C
:102186004115510560487F4759F4A7019601C701DB
:10219600B6010E94D228A70196010E9444281AC0BF
:1021A600181619061A061B06D4F0892B8A2B8B2BB8
:1021B60009F4CCC081E290E08093006090930160C6
:1021C600A7019601C701B6010E9443289B01AC01F5
:1021D6000E94CE28562F472F382F292FBBC067E1E4
:1021E600F594E794D794C7946A95D1F7C114D104AE
:1021F600E104F104E1F4C12CD12C7601A7FD0AC05B
:10220600880F991FAA1FBB1F2FEFC21AD20AE20A14
:10221600F20AF4CF21E0C21AD108E108F108F094DD
:10222600E094D094C094C11CD11CE11CF11C2FE792
:10223600C21AD108E108F108AF77BB27A068C0FE33
:1022460004C0880F991FAA1FBB1FF594E794D79463
:10225600C794880F991FAA1FBB1FE9E1F0E040E071
:1022660050E060E071E0812C912C540100E010E018
:10227600980128013901440E551E661E771E8415E5
:102286009505A605B70574F093018201040F151F85
:10229600261F371F84199509A609B709840E951EAE
:1022A600A61EB71E880F991FAA1FBB1F7695679596
:1022B600579547953197E9F6892B8A2B8B2BA1F1F8
:1022C60020E632E442EA5DE060E070E080E89FE309
:1022D6000E94432820E030E040E85FE30E94C128E6
:1022E60087FD22C020E632E442EA5DE060E070E06D
:1022F60080E89FE30E94442820E030E040E85FE366
:102306000E94C128181634F482E0880E911CA11C84
:10231600B11C0AC0D501C40181709927AA27BB2721
:10232600880E991EAA1EBB1ED501C401B595A79598
:1023360097958795B15C37E1CC0CDD1CEE1CFF1C34
:102346003A95D1F7C80ED91EEA1EFB1E5C2D4D2DFF
:102356003E2D2F2D652F742F832F922F1F910F91B6
:10236600FF90EF90DF90CF90BF90AF909F908F90AF
:0A2376007F906F905F904F900895E4
:102380004F925F926F927F928F929F92AF92BF9285
:10239000CF92DF92EF92FF9280908D6290908E624A
:1023A000A0908F62B09090622CE2921A21E0A20A73
:1023B000B108C0909562D0909662E0909762F090DC
:1023C00098620B2EBEE0CC0CDD1CEE1CFF1CBA95F7
:1023D000D1F7B02DE0E0F2E6848D958D092E000C4A
:1023E000AA0BBB0B072E74E1880F991FAA1FBB1FF6
:1023F0007A95D1F7702DC81AD90AEA0AFB0AA68D78
:10240000B78DA50194010E942C28C61AD70AE80AA4
:10241000F90A30E4D30EE11CF11C0B2EBFE0F59459
:10242000E794D794C794BA95D1F7B02DA38DB0E0B7
:10243000A50194010E94E1272B013C01032E3BE002
:1024400075946794579447943A95D1F7302D40E8A6
:10245000540E611C711CA0A10A2E000CBB0BA5011F
:1024600094010E942C28052E5AE095958795779522
:1024700067955A95D1F7502DA30192010E943F27ED
:10248000DC01CB01072E7AE0B595A7959795879546
:102490007A95D1F7702D9C01AD01405E5F4FA18D03
:1024A000B28D0E942C28DC01CB01905EAF4FBF4F54
:1024B000BC01CD01052E5EE09595879577956795D2
:1024C0005A95D1F7502DA70196010E943F276B0125
:1024D0007C01052E5FE095958795779567955A95D0
:1024E000D1F7502D9B01AC010E943F279B01AC010D
:1024F000689416F855954795379527951694D1F712
:10250000A08DB0E00E94E127DC01CB01689413F8B4
:10251000B595A795979587951694D1F7A70196013C
:10252000281B390B4A0B5B0BDA01C9011AF480E056
:1025300090E0DC0181309105A10539E1B30724F079
:1025400080E090E0A0E0B9E1BC01CD01052E5CE0A7
:1025500095958795779567955A95D1F7502DFF906A
:10256000EF90DF90CF90BF90AF909F908F907F9033
:082570006F905F904F900895F9
:10257800AFE0B0E0E2ECF2E10C94C9251C016B017C
:1025880049835A832B83FB018281938184809580C0
:1025980000811181A680B78097FD02C00D7F02C01F
:1025A80081E090E0E981FA81408051806280738007
:1025B8009801207133272C833D83740104FF08C0E0
:1025C800411451046104710419F032E0E31AF1086E
:1025D800F801E870FF27EE83FF8303FF03C0F1E0F3
:1025E800EF1AF108F6010084F185E02D3197EE87A6
:1025F800FF87EA0DFB1D10829C012E193F092887D1
:102608003987C801827099278A879B87EB818E2F2B
:10261800EE0F990B9C01215431092C873D872E859B
:102628003F852230310530F48C819D81892B09F05A
:1026380042C05CC0411451046104710461F18E858B
:102648009F8501978E879F87C2018F7099278A304F
:10265800910514F4C09602C0895A9F4FEC85FD85F8
:102668007A9748F49C012062215631092A313105B4
:1026780010F40E941328EE85FF85EA0DFB1D808368
:10268800F1E0EF1AF10884E0769467945794479440
:102698008A95D1F7C4CF888599858E0D9F1D181608
:1026A80019066CF21E141F040CF0BECFEA85FB85D8
:1026B800EF2B29F6B9CFE981FA8180819181A28136
:1026C800B381892B8A2B8B2B89F0EE85FF85EA0D48
:1026D800FB1D31972B8120838E859F8502978E87DE
:1026E8009F87FC01EA0DFB1D80E38083EE81FF815B
:1026F800EF2B59F02E853F85215031092E873F87D2
:10270800F901EA0DFB1D80E28083F60140855185C1
:10271800415051092E853F85421B530BB9016A0D63
:102728007B1D9401C1010E942E209C01F101808132
:10273800918190FF06C0F6018281938182179307E9
:0C2748000CF4C9012F96E2E10C94E2258C
:102754008F929F92AF92BF92CF92DF92FF920F938C
:102764001F93CF93DF93CDB7DEB7A097CDBFDEBF66
:10277400882309F468C0813009F0A7C086E891E88D
:102784000E94CE1E8EE991E80E94CE1E86EB91E84F
:102794000E94CE1E8FEC91E80E94CE1E87EE91E837
:1027A4000E94CE1E8FEF91E80E94CE1E8BE192E82C
:1027B4000E94CE1E84E392E80E94CE1E8CE492E82E
:1027C4000E94CE1E83E692E80E94CE1E8FE792E816
:1027D4000E94CE1E88E992E80E94CE1E80EB92E809
:1027E4000E94CE1E87EC92E80E94CE1E83EE92E8F1
:1027F4000E94CE1E8CEF92E80E94CE1E84E193E8E4
:102804000E94CE1E8BE293E80E94CE1E87E493E8DA
:102814000E94CE1E80E693E80E94CE1E88E793E8CD
:102824000E94CE1E8FE893E80E94CE1E8BEA93E8A6
:102834000E94CE1E84EC93E80E94CE1E8CED93E899
:102844000E94CE1E46C00F2EF8EFFF2EF02D00E0A2
:1028540010E00F2EFDE0AF2EF4E8BF2EF02DCE01D8
:1028640001966C010F2EF3EF8F2EF3E89F2EF02DBF
:1028740097E09F1590F01F930F939F928F92DF9292
:10288400CF920E94FC26C6010E94CE1E0F900F908C
:102894000F900F900F900F9011C01F930F93BF9242
:1028A400AF92DF92CF920E94FC26C6010E94CE1EF8
:1028B4000F900F900F900F900F900F900F5F1F4F7E
:1028C400F39408341105A1F604C088E294E80E9448
:1028D4000A28A096CDBFDEBFDF91CF911F910F9143
:1028E400FF90DF90CF90BF90AF909F908F9008950E
:1028F4000F931F93CF93DF93CDB7DEB76897CDBF08
:10290400DEBF28E1AE014F5F5F4F68E886E70E94B3
:10291400051D00E012E68A8190E0982F882729811E
:10292400820F911DF801808391838C8190E0982F10
:1029340088272B81820F911D828393838E8190E05F
:10294400982F88272D81820F911D848395838885F4
:1029540090E0982F88272F81820F911D868397837B
:102964008A8590E0982F88272985820F911D80877A
:1029740091878C8590E0982F88272B85820F911D55
:10298400828793878E8590E0982F88272D85820FE4
:10299400911D84879587888990E0982F88272F85B3
:1029A400820F911D868797878A8990E0982F8827C0
:1029B4002989820F911D808B918B8C8990E0982FAF
:1029C40088272B89820F911D828B938B8E8990E0AF
:1029D400982F88272D89820F911D848B958B888D44
:1029E40090E0982F88272F89820F911D868B978BD3
:1029F40021E0AE014F5F5F4F61EA86E70E94051D4B
:102A04008981F801808F27E0AE014F5F5F4F61EE4F
:102A140086E70E94051D2A8130E0322F2227998102
:102A2400290F311DF801218F328F9B81938F9D8156
:102A34002C81F0E12F9F90011124492F4F70242BFA
:102A4400F801248F358F2E81F0E12F9F90011124FE
:102A540092959F70292BF801268F378F9F8190A321
:102A64006896CDBFDEBFDF91CF911F910F9108957E
:102A7400CF93DF9380E094E023E0FC012083C0E463
:102A8400D4E035E03883A0E6B4E032E13C9360EA78
:102A940074E030E2FB013083FC01148241E04C839A
:102AA40040E114964C931497FB013483FC01108A83
:102AB400118A128A138A148A158A168A178A188A1E
:102AC400198A1A8A1B8A1C8A1D8A1E8A1F8A509692
:102AD4001C92509751961C92519752961C92529761
:102AE40053961C92539754961C92549755961C9245
:102AF400559756961C92569757961C92FB01108A2E
:102B0400118A128A138A148A158A8BE0868B178A93
:102B1400E0EEF5E01182108215821782108611868C
:102B2400168222838EEE98E28093B5629093B66209
:102B34008FEE98E28093B3629093B46280EF98E250
:102B44008093B1629093B26281EF98E28093AF6216
:102B54009093B06282EF98E28093AD629093AE62FC
:102B640083EF98E28093AB629093AC6284EF98E237
:102B74008093A9629093AA6285EF98E28093A762FA
:102B84009093A86286EF98E28093A5629093A662E0
:102B940087EF98E28093A3629093A46288EF98E20F
:0E2BA4008093A1629093A262DF91CF91089579
:102BB2008F929F92AF92BF92CF92DF92EF92FF924B
:102BC2008091996290919A62A0919B62B0919C626D
:102BD200E0E0F2E64081518160E070E06C017D014D
:102BE200689413F8F594E794D794C7941694D1F7A0
:102BF200C41AD50AE60AF70A689412F8B595A79599
:102C0200979587951694D1F7440F551F661F771F26
:102C12004C015D01841A950AA60AB70AA50194011E
:102C2200A281B3810E942C284B015C01072E7BE01C
:102C3200B594A794979487947A95D1F7702DA701AC
:102C42009601C701B6010E943F279B01AC01012EEC
:102C52001CE055954795379527951A95D1F7102D74
:102C6200A481B5810E942C28DC01CB01072E7EE0D5
:102C7200B595A795979587957A95D1F7702D880D7B
:102C8200991DAA1DBB1D80938D6290938E62A093A5
:102C92008F62B09390626C017D01CC0CDD1CEE1C46
:102CA200FF1CCC0CDD1CEE1CFF1C8C0D9D1DAE1DF3
:102CB200BF1D80589F4FAF4FBF4F692F7A2F8B2F69
:102CC200992787FD9A95FF90EF90DF90CF90BF9064
:082CD200AF909F908F900895D0
:102CDA00CF93DF93CDB7DEB76197CDBFDEBF21E1DA
:102CEA00E1E3FAE8DE01119601900D922A95E1F7E7
:102CFA00FB01208122952F70E1E0F0E0EC0FFD1F2F
:102D0A00E20FF11D2081FC012083FB0120812F703D
:102D1A00E1E0F0E0EC0FFD1FE20FF11D2081FC0164
:102D2A002183FB01218122952F70E1E0F0E0EC0F75
:102D3A00FD1FE20FF11D2081FC012283FB0121818D
:102D4A002F70E1E0F0E0EC0FFD1FE20FF11D208192
:102D5A00FC012383FB01228122952F70E1E0F0E040
:102D6A00EC0FFD1FE20FF11D2081FC012483FB0102
:102D7A0022812F70E1E0F0E0EC0FFD1FE20FF11D60
:102D8A002081FC012583FB01238122952F70E1E03C
:102D9A00F0E0EC0FFD1FE20FF11D2081FC012683FC
:102DAA00FB0123812F70E1E0F0E0EC0FFD1FE20F41
:102DBA00F11D2081FC0127832DE020872AE021874D
:102DCA0012862091D7621F922F939F938F9383E14C
:102DDA009AE89F938F930E94FA250F900F900F9075
:102DEA000F900F900F906196CDBFDEBFDF91CF910C
:022DFA0008953A
:102DFC00CF93DF93CDB7DEB72897CDBFDEBF28E0EA
:102E0C00AE014F5F5F4F67EF86E70E94051D8F8114
:102E1C0090E0A0E0B0E0BA2FA92F982F8827288542
:102E2C00822B8093956290939662A0939762B09355
:102E3C0098628C8190E0A0E0B0E0AC01BD01032E63
:102E4C003CE0440F551F661F771F3A95D1F7302D84
:102E5C009D81892F90E0A0E0B0E0880F991FAA1FF8
:102E6C00BB1F880F991FAA1FBB1F880F991FAA1F72
:102E7C00BB1F880F991FAA1FBB1F842B952BA62B3A
:102E8C00B72B2E8122952F70822B80939962909371
:102E9C009A62A0939B62B0939C62898190E0A0E0BF
:102EAC00B0E0AC01BD01032E3CE0440F551F661F82
:102EBC00771F3A95D1F7302D9A81892F90E0A0E0B9
:102ECC00B0E0880F991FAA1FBB1F880F991FAA1F5C
:102EDC00BB1F880F991FAA1FBB1F880F991FAA1F02
:102EEC00BB1F842B952BA62BB72B2B8122952F70D8
:102EFC00822B8093916290939262A0939362B09391
:0E2F0C0094622896CDBFDEBFDF91CF9108956D
:102F1A00A2E0B0E0E3E9F7E10C94C9253C016B01BA
:102F2A00FB0122813381A480B580808191818983CC
:102F3A009A8386809780FA0120803180428053806C
:102F4A00B201A10157FE07C044275527BA01421909
:102F5A0053096409750937FD03C08D7F89839A83F4
:102F6A00950157FC05C0898182FD02C083FF02C01A
:102F7A0021503109CE0101967C010AE010E0C60118
:102F8A000E94181A57FC03C0298122FF0AC0019720
:102F9A00F401E80FF91F57FC02C02BE209C02DE229
:102FAA0007C023FF06C00197F401E80FF91F20E2CA
:102FBA00208309811A81F6014085518541505109C2
:102FCA00481B590BB401680F791F9501C3010E9470
:102FDA002E209C01F3018081918190FF06C0F601A9
:102FEA0082819381821793070CF4C9012296E2E148
:042FFA000C94E2252C
:102FFE00CF93DF93EC018DE099E80E94602484E288
:10300E0099E80E94602489811F928F938DE699E83A
:10301E009F938F930E9412268A811F928F9388E826
:10302E0099E89F938F930E9412262B8130E0C9015D
:10303E00880F991F220F331F220F331F220F331FAA
:10304E00820F931F9F938F938AE999E89F938F9393
:10305E000E9412268881282F082E000C330B3F93D6
:10306E008F938DEA99E89F938F930E94122682EC9C
:10307E0099E80E940A288CE698E80E940A282B817B
:10308E0030E0C901880F991F220F331F220F331F03
:10309E00220F331F820F931F9F938F938A811F924C
:1030AE008F9389811F928F938881282F082E000C71
:1030BE00330B3F938F9380ED99E89F938F930E94EC
:1030CE0012268DB79EB74A968DBF9EBFDF91CF91C8
:0230DE00089553
:1030E00010C00E94582858F00E94512840F029F43E
:1030F0005F3F29F00C94972851110C9460280C9490
:10310000E5280E94822468F39923B1F3552391F3B3
:10311000951B550BBB27AA2762177307840738F046
:103120009F5F5F4F220F331F441FAA1FA9F335D0A3
:103130000E2E3AF0E0E832D091505040E695001C57
:10314000CAF72BD0FE2F29D0660F771F881FBB1F11
:10315000261737074807AB07B0E809F0BB0B802DEF
:10316000BF01FF2793585F4F3AF09E3F510578F01B
:103170000C9497280C9460285F3FE4F3983ED4F3B6
:10318000869577956795B795F7959F5FC9F7880FEF
:10319000911D9695879597F90895E1E0660F771F41
:1031A000881FBB1F621773078407BA0720F0621BD2
:0E31B000730B840BBA0BEE1F88F7E0950895A1
:1031BE000FC00E94512838F00E94582820F0952305
:1031CE0011F00C9497280C94E52811240C94602887
:1031DE000E94822470F3959FC1F3950F50E0551F06
:1031EE00629FF001729FBB27F00DB11D639FAA274E
:1031FE00F00DB11DAA1F649F6627B00DA11D661F9D
:10320E00829F2227B00DA11D621F739FB00DA11DBD
:10321E00621F839FA00D611D221F749F3327A00D77
:10322E00611D231F849F600D211D822F762F6A2F13
:10323E0011249F5750409AF0F1F088234AF0EE0F78
:10324E00FF1FBB1F661F771F881F91505040A9F7A5
:10325E009E3F510580F00C9497280C9460285F3F98
:10326E00E4F3983ED4F3869577956795B795F795E1
:10327E00E7959F5FC1F7FE2B880F911D9695879559
:04328E0097F908950F
:10329200CF93DF93DC01F90168387105F1F05CF43A
:1032A2006138710561F164387105A1F16038710509
:1032B20009F051C02FC0603C710509F441C0603F64
:1032C2007105F1F1603A710509F045C0C081D18103
:1032D200CE0102968083918325C0C081D181CE0127
:1032E200029680839183452B39F04881042E000C8D
:1032F200550B660B770B1CC0488150E029C0C0817A
:10330200D181CE01049680839183488159816A815B
:103312007B810EC0C081D181CE01029680839183D0
:10332200452BA1F048815981052E000C660B770BC5
:103332004D935D936D937C93139781E090E00DC064
:10334200C081D181CE0102968083918348815981C7
:1033520060E070E0EDCF80E090E0DF91CF910895E2
:1033620011C00E94512838F00E94582820F039F4E8
:103372009F3F19F426F40C94E5280EF4E095E7FB40
:103382000C949728E92F0E94822458F3BA176207F7
:1033920073078407950720F079F4A6F50C945F284B
:1033A2000EF4E0950B2EBA2FA02D0B01B90190015E
:1033B2000C01CA01A0011124FF27591B99F0593FA2
:1033C20050F4503E68F11A16F040A22F232F342FEA
:1033D2004427585FF3CF469537952795A795F04038
:1033E2005395C9F77EF41F16BA0B620B730B840B4D
:1033F200BAF09150A1F0FF0FBB1F661F771F881F05
:10340200C2F70EC0BA0F621F731F841F48F487955C
:1034120077956795B795F7959E3F08F0B0CF93954E
:0E342200880F08F09927EE0F9795879508956B
:10343000A0E0B0E0EEE1FAE10C94CB25DC0128013C
:103440001696AD90BC901797F701808191811296E6
:10345000ED91FC9113971896CD91DC9119972197D6
:10346000F7FF02C0E1E0F0E0CA0DDB1D1882690140
:10347000A1E0B0E08F01021B130B4C01F2E08F22A0
:103480009924052C000C66087708CE018A199B093F
:10349000CA15DB0519F1411551056105710589F062
:1034A000CB01BA01A30192010E94A424CA01A62F54
:1034B000B72F605D6A9341E0C41AD108A901BC012D
:1034C000E4CF98012C0D3D1D121613064CF31C146D
:1034D0001D0434F48114910419F702C080E090E0D7
:1034E000AB2B31F4F701208131812F7E2083318392
:0A34F000CDB7DEB7E0E10C94E4254F
:1034FA00CF9388E591E89F938F930E942A264FEFF6
:10350A0062E070E68CE792E60E943C284FEF61E0A9
:10351A0071E687E792E60E943C2882E0809366047F
:10352A002FE739EA93E0215030409040E1F700C09C
:10353A000000809365042FE738E381E02150304092
:10354A008040E1F700C0000084E0809345040F90BA
:10355A000F900E948528882339F00E94DC28682F62
:10356A0087E792E60E94C32687E792E60E94B72879
:10357A00882379F30E947F28882359F387E792E604
:10358A000E94F727C82F0E948827CA3011F78AE0BD
:10359A000E9488279FE728E331E09150204030407D
:0E35AA00E1F700C000000E94291CCF91089597
:1035B8000F931F93CF93DF93EA0140385105D4F05E
:1035C80020E030E040E05FE70E94D2289E012F57BC
:1035D8003109203831056CF120E030E040E05FE748
:1035E8000E94D228CE5FD109C038D1051CF1CFE79F
:1035F800D0E020C042385F4FECF420E030E040E8F3
:103608005CE00E94D2289E012A593F4F22384FEF92
:1036180034077CF420E030E040E85CE00E94D228E7
:10362800C453DF4FC2382FEFD20724F4C2E8DFEFCC
:1036380001C0E9019E0121583F4F8901330F220B38
:10364800330BA9019801E7E1220F331F441F551FCF
:10365800EA95D1F70E94D228DF91CF911F910F915F
:023668000895C3
:10366A00A2E0B0E0EBE3FBE10C94CD254C016B0149
:10367A00FB012281338164807580808191818983F5
:10368A009A83A680B78037FD03C08D7F89839A838A
:10369A00FA014081518162817381CE0101967C01D8
:1036AA0008E010E09301C6010E94181A298124FF3C
:1036BA0006C00197F501E80FF91F20E3208329814D
:1036CA0023FF06C00197F501E80FF91F20E22083C6
:1036DA0009811A81F6014085518541505109481BDB
:1036EA00590BB501680F791F9301C4010E942E205E
:1036FA009C01F4018081918190FF06C0F6018281CC
:10370A009381821793070CF4C9012296EEE00C9478
:02371A00E625A2
:10371C0040E068ED80E690E00E94CA2840E068ED49
:10372C0081E690E00E94CA2840E068ED85E690E0D2
:10373C000E94CA2840E068ED88E790E00E94CA2801
:10374C004CE068ED88E690E00E94CA2840E068ED05
:10375C0089E690E00E94CA2840E068ED80E790E09E
:10376C000E94CA2840E068ED8CE790E00E94CA28CD
:10377C0040E068ED82E690E00E94CA2840E068EDE7
:10378C0083E690E00E94CA2840E068ED84E690E071
:10379C000E94CA2840E068ED80E890E00E94CA28A8
:0C37AC00E0E6F0E0858181FFFDCF08958C
:1037B80081EB95E80E94602480E694E80E946024EA
:1037C80085ED95E80E94CE1E81EE95E80E94CE1EFA
:1037D8008EEE95E80E94CE1E80E196E80E94CE1EED
:1037E8008BE296E80E94CE1E8EE596E80E94CE1ED9
:1037F80081E996E80E94CE1E83EC96E80E94CE1ED0
:103808008CE495E80E94CE1E8CE595E80E94CE1EB9
:1038180085EE96E80E94CE1E8FE895E80E94CE1E9F
:1038280080E00E94AA138BE791E80E94CE1E8FEADF
:1038380095E80E9460242FE788E391E021508040BA
:0A3848009040E1F700C00000089571
:10385200CF9389E391E80E94602461E471E88CE7E8
:1038620092E60E947C220AC00E948B28882331F0B3
:103872008CE792E60E94F7270E94DF288CE792E607
:103882000E94B7288111F0CFC0E01FC00E94852896
:10389200882339F00E94DC28682F87E792E60E948D
:1038A200C32687E792E60E94B728882379F30E940D
:1038B2007F28882359F387E792E60E94F727C1E021
:1038C2008A3009F0C0E00E948827CC23F9F22FE762
:1038D20088E391E0215080409040E1F700C0000071
:0438E200CF910895E5
:1038E6008F929F92AF92BF92CF92DF92EF92FF920A
:1038F6000E94360E4B015C010E94CB2724E036E580
:103906004AE150E40E94442823E333E948E853E4BB
:103916000E9444289B01AC0164E076E58AE190E4CC
:103926000E94CE289B01AC0160E070E080E89FE336
:103936000E94432828E539E348EA50EC0E94BD0579
:103946006B017C01C501B4010E94911E20E030E0AC
:1039560048EC52E40E94CE28A70196010E94D22884
:10396600FF90EF90DF90CF90BF90AF909F908F9099
:023976000895B2
:103978000F931F93CF93DF93DB012D913C91119708
:1039880030FF25C016964D915C91179714962D918E
:103998003C9115974217530778F41296ED91FC91D4
:1039A8001397808312962D913C9113972F5F3F4F69
:1039B80012962D933C93139716962D913C91179739
:1039C8002F5F3F4F16962D933C93179715C01C9663
:1039D800ED91FC911D97309719F48FEF9FEF0CC074
:1039E8008B01EC010995892BC1F7F8018681978134
:1039F800019686839783CE01DF91CF911F910F9116
:023A080008951F
:103A0A00EF92FF920F931F93CF93DF930F92CDB74D
:103A1A00DEB769838A01E22E60E00E94F423F82E61
:103A2A00882369F161E0CE0101960E948223F82E73
:103A3A00811104C083E08093040921C0E0E0F9E029
:103A4A0087818160878381E08483858185FD0AC0BF
:103A5A00858182FD07C0858183FD04C085818370CD
:103A6A00833099F70E946C27882329F083E080939A
:103A7A000409F12C04C06E2DC8010E942D238F2D3C
:103A8A000F90DF91CF911F910F91FF90EF900895C2
:103A9A00A2E0B0E0E3E5FDE10C94CD255C016B0109
:103AAA00FB01228133818480958080819181898381
:103ABA009A836680778037FD03C08D7F89839A83D6
:103ACA00FA014081518162817381CE0101967C01A4
:103ADA000AE010E09401C6010E94181A09811A81AD
:103AEA00F6014085518541505109481B590BB301D4
:103AFA00680F791F9401C5010E942E209C01F501CF
:103B0A008081918190FF06C0F6018281938182179C
:0E3B1A0093070CF4C9012296EEE00C94E62508
:103B2800CF93DF9384E391E80E946024C0E00E9471
:103B38008528882339F00E94DC28682F87E792E6D9
:103B48000E94C32687E792E60E94B7288823C1F01F
:103B58000E947F28882389F087E792E60E94F7274A
:103B6800D82F0E948827DA3041F4CF5FC13029F47A
:103B780084E391E80E946024DACFC230C1F602C023
:103B8800C230A9F68AE00E9488272FE78AE196E0EA
:103B9800215080409040E1F700C00000DF91CF91B4
:023BA80008957E
:103BAA001F920F920FB60F9211242F933F934F93A8
:103BBA005F936F937F938F939F93AF93BF93EF938B
:103BCA00FF937A9B05C0E091B162F091B2620995C8
:103BDA007D9B05C0E091AF62F091B06209957C9B34
:103BEA0005C0E091AD62F091AE620995799B05C07E
:103BFA00E091A362F091A46209958FEF8FB9FF91CA
:103C0A00EF91BF91AF919F918F917F916F915F914A
:103C1A004F913F912F910F900FBE0F901F901895C3
:103C2A00CF93DF93EC0183E997E80E94602488EA46
:103C3A0097E80E9460248EED97E80E946024CE01E6
:103C4A000E94602462EF77E88CE792E60E947C2269
:103C5A00BE018CE792E60E947C220AC00E948B2851
:103C6A00882331F08CE792E60E94F7270E94DF282A
:103C7A008CE792E60E94B7288111F0CF2FE78AE1FC
:103C8A0096E0215080409040E1F700C000000E9479
:0C3C9A00941D0E949627DF91CF910895A1
:103CA600CF93DF93EC0183E997E80E94602488EACA
:103CB60097E80E94602481E098E80E946024CE0183
:103CC6000E94602467E178E88CE792E60E947C22F5
:103CD600BE018CE792E60E947C220AC00E948B28D5
:103CE600882331F08CE792E60E94F7270E94DF28AE
:103CF6008CE792E60E94B7288111F0CF2FE788E380
:103D060091E0215080409040E1F700C000000E9401
:0C3D1600941D0E949627DF91CF91089524
:103D2200E89409C097FB3EF4909580957095619553
:103D32007F4F8F4F9F4F9923A9F0F92F96E9BB2709
:103D42009395F695879577956795B795F111F8CF85
:103D5200FAF4BB0F11F460FF1BC06F5F7F4F8F4FF0
:103D62009F4F16C0882311F096E911C0772321F0E6
:103D72009EE8872F762F05C0662371F096E8862F7E
:103D820070E060E02AF09A95660F771F881FDAF7D5
:0A3D9200880F9695879597F908951C
:103D9C00FF920F931F93CF93DF938C0181E591E8F2
:103DAC000E946024C8010E946024B8018CE792E64E
:103DBC000E947C22F12C11C08CE792E60E94B7285D
:103DCC00882371F00E948B28882351F08CE792E6AF
:103DDC000E94F7270E94DF28F394E801CF0DD11D34
:103DEC0088818111E9CF2FE788E391E02150804051
:103DFC009040E1F700C000000E94811FDF91CF913D
:083E0C001F910F91FF90089532
:103E1400A2E8B0E0E0E1FFE10C94CF255C014A01A7
:103E2400CF57DF4F68837983C158D040C12CD12C40
:103E3400CF57DF4FE881F981C158D0408081882372
:103E4400E9F07401860120E830E0AE014F5F5F4F76
:103E5400BE016F577F4FC5010E94380C8C0D9D1D0C
:103E64008C159D054CF48FE490E080930060909352
:103E740001608FEF9FEF03C06C01DACFC601CE570C
:083E8400DF4FECE00C94E8258F
:103E8C001F920F920FB60F9211242F933F934F93C3
:103E9C005F936F937F938F939F93AF93BF93EF93A6
:103EAC00FF938091430180FF07C0E091BD62F091C8
:103EBC00BE62309709F009958091430181FF07C0DC
:103ECC00E091BB62F091BC62309709F0099583E0F8
:103EDC0080934301FF91EF91BF91AF919F918F918F
:103EEC007F916F915F914F913F912F910F900FBEEA
:063EFC000F901F901895C5
:103F0200CF93DF9384E391E80E946024C0E00E9493
:103F12008528882339F00E94DC28682F87E792E6FB
:103F22000E94C32687E792E60E94B728882389F079
:103F32000E947F28882351F087E792E60E94F727A4
:103F4200D82F0E948827DA3009F4CF5FC130F9F602
:103F520002C0C130E1F68AE00E9488272FE788E399
:103F620091E0215080409040E1F700C00000DF91D5
:043F7200CF9108954E
:103F7600A0E1B0E0E1ECFFE10C94D525FB01BA012C
:103F8600AE014F5F5F4F7A0140E1D7011D924A951E
:103F9600E9F742E051E049835A838B839C83F7FF1C
:103FA60009C08FE490E080930060909301608FEFEA
:103FB6009FEF14C0A9018C013197ED83FE83C701E1
:103FC6000E9442264F8158852D813E814217530714
:103FD60008F49A01F801E20FF31F10826096E6E0FA
:043FE6000C94EE2524
:103FEA001F920F920FB60F9211242F933F934F9364
:103FFA005F936F937F938F939F93AF93BF93EF9347
:10400A00FF93599B05C0E091B562F091B66209959C
:10401A00589B05C0E091B362F091B46209955A9B2E
:10402A0005C0E091A562F091A66209958FEF8BB960
:10403A00FF91EF91BF91AF919F918F917F916F9176
:10404A005F914F913F912F910F900FBE0F901F904C
:02405A001895B7
:10405C00A0E0B0E0E4E3F0E20C94CF256C015B014E
:10406C007A01E901480181E08822992400FD03C00E
:10407C004217530750F0A701B501C6010E946025F5
:10408C00EC16FD0610F0C70117C08E010E191F09A2
:10409C000115110541F0B60180E290E00E94BC1CB4
:1040AC0001501109F5CF8114910429F4A701B50130
:1040BC00C6010E946025CE01CDB7DEB7ECE00C94B2
:0240CC00E825E5
:1040CE000E947928882339F00E94D628682F8CE721
:1040DE0092E60E94C3260E948528882339F00E940A
:1040EE00DC28682F87E792E60E94C32687E792E6D0
:1040FE000E94B728882351F00E947F28882331F030
:10410E0087E792E60E94F7270E94D9288CE792E66D
:10411E000E94B728882351F00E948B28882331F003
:0E412E008CE792E60E94F7270E94DF28089592
:10413C001F920F920FB60F9211242F933F934F9310
:10414C005F936F937F938F939F93AF93BF93EF93F3
:10415C00FF93189B05C0E091A962F091AA620995A2
:10416C00199B05C0E091A762F091A86209958FEFA9
:10417C0083B9FF91EF91BF91AF919F918F917F91F7
:10418C006F915F914F913F912F910F900FBE0F90B8
:04419C001F901895C3
:1041A0001F920F920FB60F9211242F933F934F93AC
:1041B0005F936F937F938F939F93AF93BF93EF938F
:1041C000FF93BE9B05C0E091AB62F091AC62099594
:1041D000BD9B05C0E091A162F091A26209958FEFAD
:1041E00087BBFF91EF91BF91AF919F918F917F918D
:1041F0006F915F914F913F912F910F900FBE0F9054
:044200001F9018955E
:10420400CF93DF93CDB7DEB72697CDBFDEBF85EF63
:1042140089838091DB628A8342E0BE016F5F7F4FB6
:1042240086E70E94712682EF8B838091DA628C8309
:1042340042E0BE016D5F7F4F86E70E94712684EFE6
:104244008D838091D9628E8342E0BE016B5F7F4F84
:1042540086E70E9471262696CDBFDEBFDF91CF91FF
:024264000895BB
:104266001F920F920FB60F9211242F933F934F93E5
:104276005F936F937F938F939F93AF93BF93EF93C8
:10428600FF938091060B80FF0AC0E091B762F09120
:10429600B862309709F0099581E08093060BFF918B
:1042A600EF91BF91AF919F918F917F916F915F91A8
:1042B6004F913F912F910F900FBE0F901F90189521
:1042C6001F920F920FB60F9211242F933F934F9385
:1042D6005F936F937F938F939F93AF93BF93EF9368
:1042E600FF938091160B80FF0AC0E091BF62F091A8
:1042F600C062309709F0099581E08093160BFF9113
:10430600EF91BF91AF919F918F917F916F915F9147
:104316004F913F912F910F900FBE0F901F901895C0
:104326008FEF96E80E94602480E694E80E9460245D
:1043360088E197E80E9460246BE277E88CE792E6D2
:104346000E947C220AC00E948B28882331F08CE7C9
:1043560092E60E94F7270E94DF288CE792E60E94E9
:10436600B7288111F0CF2FE788E391E021508040F4
:0E4376009040E1F700C000000E94941D0895E1
:104384000E948A2488F09F5798F0B92F9927B75133
:10439400B0F0E1F0660F771F881F991F1AF0BA95E5
:1043A400C9F714C0B13091F00E945F28B1E00895BC
:1043B4000C945F28672F782F8827B85F39F0B93FAE
:1043C400CCF3869577956795B395D9F73EF4909598
:0E43D4008095709561957F4F8F4F9F4F089594
:1043E2000F931F93CF93DF938C010F5F1F4FFC013D
:1043F2008081FB0124853585232B11F0EB0109C057
:104402008FEF9FEF17C00995892BD1F7F8018191A2
:104412008F01EC85FD85BE018111F5CF8AE00995FA
:1044220021E030E0892B11F420E030E08827992741
:0E443200821B930BDF91CF911F910F91089584
:10444000E0E0F8E083E896E080879187158280ECD1
:10445000868383E08783138614861686158689EF04
:1044600098E28093C5629093C6628AEF98E2809347
:10447000C3629093C4628BEF98E28093C162909381
:10448000C2621092C7621092C862E091D362F0914A
:0C449000D46287E392E680839183089554
:10449C00DC01ED91FC91119780818A3221F080E052
:1044AC0090E03AE00EC03196ED93FC93DB01ED9178
:1044BC00FC911197CF0102968D939C9380819181F1
:1044CC000895ED91FC911197208120532A3068F4C6
:1044DC00389FA001399F500D1124CA01820F911DE4
:0C44EC003196ED93FC931197ECCF0895EE
:1044F800CF93DF93FC01EB0188819481492F50E031
:104508004F5F5F4F238130E042175307D9F088236C
:10451800C9F070E0A081B181A90FB11D8C9394817D
:104528009F5F94837F5FDE01A70FB11D8C91492F98
:1045380050E04F5F5F4F238130E04217530711F07F
:0A4548008111E8CFDF91CF910895B3
:104552001F920F920FB60F9211242F933F934F93F6
:104562005F936F937F938F939F93AF93BF93EF93D9
:10457200FF9382E080930D06E0919F62F091A0622A
:10458200309709F00995FF91EF91BF91AF919F91FB
:104592008F917F916F915F914F913F912F910F90EA
:0845A2000FBE0F901F90189549
:1045AA001F920F920FB60F9211242F933F934F939E
:1045BA005F936F937F938F939F93AF93BF93EF9381
:1045CA00FF9381E080930D06E0919D62F0919E62D7
:1045DA00309709F00995FF91EF91BF91AF919F91A3
:1045EA008F917F916F915F914F913F912F910F9092
:0845FA000FBE0F901F901895F1
:104602001F920F920FB60F9211242F933F934F9345
:104612005F936F937F938F939F93AF93BF93EF9328
:10462200FF93E091B962F091BA62309709F009956F
:1046320081E080935301FF91EF91BF91AF919F91E0
:104642008F917F916F915F914F913F912F910F9039
:084652000FBE0F901F90189598
:10465A0020E2209305096623D1F0A82FB92F90E014
:10466A00E0E0F9E022E0858185FD17C0858182FDC1
:10467A0007C0858183FD04C085818370833099F7E3
:10468A0080858D939F5F691711F02483ECCF87E0B3
:10469A008093040908952483E6CF80858D939F5FD4
:0646AA006913F9CFF4CF03
:1046B000A0E0B0E0EEE5F3E20C94D1257C01FB0133
:1046C000EA01C901A280B380C480D5800081118134
:1046D000209711F4CAE6D2E6009719F4CE010E94A1
:1046E000A427B7FC04C0A816B90608F4C5019601B2
:1046F000AC01BE01C7010E942E20CDB7DEB7EAE0B3
:044700000C94EA2506
:10470400662309F1DC016150262F30E02F5F3F4F13
:10471400280F391FE0E0F9E09D919087958195FD80
:104724000AC0958192FD07C0958193FD04C09581CF
:104734009370933099F7958194FD07C0A217B3073E
:0E47440059F781E0089581E0089580E008951E
:10475200E0E2F8E086E191E080879187158280ECC3
:10476200868383E0878313861486168615868CEFEC
:1047720098E28093CD629093CE628DEF98E280931F
:10478200CB629093CC628EEF98E28093C962909351
:0C479200CA621092CF621092D0620895AB
:10479E00E0E0F2E0108A118A128A138A8EE4848B8A
:1047AE00158A10A610A211A212A213A214A215A26B
:1047BE0016A217A211A617A610AA85E081AB12AAFF
:1047CE0013AA14AA15A616A612A613A614A615AAFF
:0A47DE0016AA17AA10AE80E0089595
:1047E8009091050993709330E1F0880F682B6093DE
:1047F8000709E0E0F9E0858185FD0AC0858182FD31
:1048080007C0858183FD04C085818370833099F753
:104818000E946C27882339F083E08093040980E0A4
:0A482800089580E0089581E00895EE
:10483200990F0008550FAA0BE0E8FEEF16161706AF
:10484200E807F907C0F012161306E407F50798F017
:10485200621B730B840B950B39F40A2661F0232B30
:10486200242B252B21F408950A2609F4A140A695AC
:084872008FEF811D811D0895E7
:10487A00CF93DF93EC010E94B2280E94CB270E94BB
:10488A004A2868830E94731C20E030E040E251E429
:10489A000E94CE280E94C2216B830E94D6270E94C2
:1048AA00C22169830E9491288A83CE010E94FF1740
:0648BA00DF91CF9108958B
:1048C000CF92DF92FF920F931F93CF93DF936C01F0
:1048D000F12C09C00E947F28882341F0F8018081D3
:1048E0000E948827F394E601CF0DD11D8E018881A7
:1048F0008111F0CFDF91CF911F910F91FF90DF9049
:04490000CF900895B7
:1049040057FD9058440F551F59F05F3F71F047957C
:10491400880F97FB991F61F09F3F79F08795089561
:10492400121613061406551FF2CF4695F1DF08C080
:10493400161617061806991FF1CF8695710561059D
:044944000894089536
:10494800A1E21A2EAA1BBB1BFD010DC0AA1FBB1F8B
:10495800EE1FFF1FA217B307E407F50720F0A21BFD
:10496800B30BE40BF50B661F771F881F991F1A946A
:1049780069F760957095809590959B01AC01BD0194
:04498800CF010895BE
:10498C0085E39BE80E940A280E9486268FE493EC1C
:10499C000197F1F700C000000E947A148091DB624D
:1049AC0081788093DB6285E28093D96281E0809389
:1049BC00DA620E9402218DE49BE80E940A2881E0C1
:0249CC0008954C
:1049CE00CF93DF93EC0190E0E92FF0E0EE0FFF1FA5
:1049DE00EF5DFD498081811102C081810EC0A881E9
:1049EE00B9812C91821305C091811196A883B98348
:1049FE0001C09F5F9B3040F3892FDF91CF910895C7
:104A0E008091A80486FF16C080E28093A504809151
:104A1E00D1629091D26281608093D1629093D26282
:104A2E008091D1629091D2628F7E8093D162909369
:0C4A3E00D262089580E28093A6040895DF
:104A4A0089342DE0920710F088E49DE0883027E051
:104A5A00920710F488E097E0BC016850774080E044
:104A6A0090E00E94911E2BEB3FE040E85DE30E943C
:0C4A7A00D2280E94C22184E6861B089509
:104A8600E0E4F1E081818111FDCFE0E4F1E08FEF18
:104A960093E084879587108611868287938781E0C5
:104AA6008783128281898111FDCFE0E4F1E081E004
:0A4AB600828B89E4808B80E0089574
:104AC000A0E0B0E0E6E6F5E20C94D3256C01EB0142
:104AD0008A017B01E40EF51ECE15DF0541F08991B8
:104AE000B601082E000C990B0E94BC1CF5CFC80122
:0A4AF000CDB7DEB7E8E00C94EC252A
:104AFA00CF93DF9300D0CDB7DEB78091D9628C7F98
:104B0A0081608093D96294EF99838A8342E0BE01DF
:104B1A006F5F7F4F86E70E9471260F900F90DF919B
:044B2A00CF9108958A
:104B2E00E0E0F6E01182128213821482168613865A
:104B3E00148681E0808780E481878FEF85838FEFF5
:104B4E009FE0848B958B128A138A83E0808380E0AA
:024B5E000895B8
:104B60000E943A150E9497250E948E1B0E94CF2317
:104B70000E9443250E945E270E94D7260E94EA26B3
:104B80000E9420220E94A9230E941C280E94B22772
:024B9000089586
:104B92002F923F924F925F926F927F928F929F924B
:104BA200AF92BF92CF92DF92EF92FF920F931F9339
:104BB200CF93DF93CDB7DEB7CA1BDB0BCDBFDEBF12
:024BC200099454
:104BC4002A88398848885F846E847D848C849B8499
:104BD400AA84B984C884DF80EE80FD800C811B81A7
:104BE400AA81B981CE0FD11DCDBFDEBFED010895DD
:104BF400A0E0B0E0E0E0F6E20C94D925AE014B5F12
:104C04005F4FFA0161917191AF01E091D362F0912C
:104C1400D462808191810E944226E2E00C94F225C4
:104C2400A0E0B0E0E8E1F6E20C94D925AE014B5FD8
:104C34005F4FFA0161917191AF01E091D362F091FC
:104C4400D462808191810E944226E2E00C94F22594
:104C5400A0E0B0E0E0E3F6E20C94D925AE014B5FAE
:104C64005F4FFA0161917191AF01E091D362F091CC
:104C7400D462808191810E944226E2E00C94F22564
:104C8400A2E0B0E0E8E4F6E20C94D7258C01498375
:104C94005A83AE014F5F5F4F0E940A1FF8012081C3
:104CA40024FF02C08FEF9FEF2296E4E00C94F025DE
:104CB4000E94B0250E947A2787E095E20E94A328EB
:104CC4008BE996E20E94AD288FEA96E20E94A8281A
:0E4CD40080E69BE80E940A280E948E0FFDCF0A
:104CE2001F93CF93DF93EB01142F60E00E94F42314
:104CF200882339F0612FCE010E94822393E09093A2
:0A4D02000409DF91CF911F9108957D
:104D0C00CF93DF9300D0CDB7DEB780EE898386EBEF
:104D1C008A8342E0BE016F5F7F4F86E70E94712657
:0A4D2C000F900F90DF91CF910895D2
:104D36008091896290918A62A0918B62B0918C6217
:104D46000196A11DB11D8093896290938A62A093FA
:084D56008B62B0938C6208959A
:104D5E008091856290918662A0918762B0918862FF
:104D6E000196A11DB11D8093856290938662A093DA
:084D7E008762B093886208957A
:104D8600FC014481242F30E02F5F3F4F838190E068
:104D96002817390741F0A081B181A40FB11D6C938A
:084DA60084818F5F848308956E
:104DAE00E0E0FBE08FEF9FEF8487958712861386F6
:104DBE0086E08183108681E1848381E0858316827B
:064DCE00118680830895A8
:104DD400E0E1FBE080EA9FE08487958712861386F2
:104DE40086E081831086148281E085831682118691
:044DF400808308951B
:104DF800A0E0B0E0E2E0F7E20C94D925AE01475F0D
:104E08005F4F6F8178858D819E810E946628E2E0E0
:044E18000C94F225DF
:104E1C00092E0394000C11F4882352F0BB0F40F4BC
:104E2C00BF2B11F460FF04C06F5F7F4F8F4F9F4FFC
:024E3C000895D7
:104E3E00E0E0F6E0808781E082870E94C628882322
:104E4E00E1F3E0E0F6E08089918921E0258708957D
:104E5E0082E00E941F279F938F938AE498E89F9386
:104E6E008F930E9412260F900F900F900F9008951F
:104E7E00DB018F939F930E94E127BF91AF91A29F79
:104E8E00800D911DA39F900DB29F900D112408953A
:104E9E00A29FB001B39FC001A39F700D811D11246D
:0E4EAE00911DB29F700D811D1124911D08955C
:104EBC0043E068ED80E590E00E94CA2840E068ED90
:0C4ECC0081E590E00E94CA2880E0089573
:104ED800809105098C7141F490910509937081E0E6
:0C4EE800933019F080E0089581E00895F7
:104EF4000E942428E0E0F9E084E0808381E082835A
:0C4F04009DEF95839FE0968383830895C2
:104F1000CF93C82F0E947F28882331F0E0E0F8E08B
:0C4F2000948190649483C283CF91089523
:104F2C008BE791E80E94CE1E2FE788E391E0215099
:0C4F3C0080409040E1F700C000000895A4
:104F4800FC01AF014F5F5F4F2081222311F0FA016E
:0C4F5800F8CF9F01281B390BC9010895F8
:104F640040E068ED80E191E00E94CA28E0E1F1E0D0
:0A4F740012821382789480E0089501
:104F7E00CF93C82F0E947F288823E1F3C0930208A5
:084F8E0080E090E0CF9108954E
:104F96000E94D9150E94911E20E030E048EC52E4B0
:064FA6000E94CE280895D0
:104FAC000E94C0110E94911E20E030E040E85AE3BC
:064FBC000E94D2280895B6
:104FC2000E944F27A59F900DB49F900DA49F800D26
:064FD200911D1124089559
:104FD800EC010E9400290E94FF28CE010E940129AD
:064FE800CE010E94EC283E
:104FEE00FC019381A081B181A90FB11D8C919F5FAE
:044FFE0093830895FC
:105002000E9493210E94962784E797E80E940A282B
:025012000895FF
:10501400E091D362F091D462608171810E94F121A8
:025024000895ED
:105026009C01215631092A31310510F48F759927D3
:025036000895DB
:10503800E0EBF0E0148285E88083128280E0089536
:10504800E0E0F4E08AE0818388E0838B828B089536
:10505800B7FF0C94E1270E94E127821B930B089568
:105068009C01215431092A31310508F480620895E0
:0E507800FC01608371834283138214820895C9
:0E5086005058BB27AA270E94B1190C940E2780
:0E5094000E94C2216894B1110C946028089506
:0E50A20000240A94161617061806090608952B
:0E50B00000240A94121613061406050608952D
:0E50BE00E894BB2766277727CB0197F9089562
:0E50CC009A01AB016FEF7FE70E94BB1F0895B2
:0C50DA00E0E4F1E08081816080830895B3
:0C50E600E0E4F1E080818E7F808308957B
:0C50F20080910408881F8827881F0895FB
:0C50FE008091040885FB882780F9089544
:0C510A0080912408881F8827881F0895C2
:0C5116008091240885FB882780F908950B
:0C51220082E00E941F270E9425250895AE
:0C512E0097F99F6780E870E060E008954A
:0C513A00EE0FFF1F0590F491E02D09948A
:0A5146008093B7629093B862089559
:0A5150008093B9629093BA6208954B
:0A515A008093BF629093C062089535
:0A5164000E947D250E94FE160895AA
:0A516E00FC0183819481891B0895E0
:0A5178000E94192408F481E0089554
:0A5182000E94192408F48FEF08952D
:08518C0080910D068170089569
:08519400FC0164BF4083089593
:08519C000E9470180C940E270C
:0851A4000E94DF180C940E2795
:0651AC0080910008089547
:0651B2008093020808953D
:0651B8008091200808951B
:0651BE0080932208089511
:0651C4000E94DC1B0895AF
:0651CA009FEF80EC089548
:0451D0000C9400003B
:0451D4009F77089524
:0451D8000E94980099
:0251DC00089534
:0251DE00089532
:0251E000089530
:0251E20008952E
:0251E40008952C
:0251E60008952A
:0251E800089528
:0251EA00089526
:0251EC00089524
:0251EE00089522
:0251F000089520
:0251F20008951E
:0251F40008951C
:0251F60008951A
:0251F800089518
:0251FA00089516
:0251FC00089514
:0251FE00089512
:0252000008950F
:0252020008950D
:1052040068076C094C836A9074A07AC0008068882F
:0652140000846C820081A1
:10521A00030000000000000000000000BF2700009B
:08522A0000000000DCCFD135CB
:085232000000000000C0153F60
:08523A000000803F0000C03FAE
:07524200286E756C6C290059
:06524900286E696C2900CB
:02524F00D56226
:02000004008278
:090000000000000000D00800001F
:00000001FF
