:100000000C9469000C94E7280C94E7280C94E728DA
:100010000C94E7280C94451F0C9400230C94E728BB
:100020000C949D200C94E7280C94E7280C94E72866
:100030000C94E7280C94E7280C9432210C9462214C
:100040000C94E7280C94E7280C94E7280C94E728F4
:100050000C94E7280C94E7280C94E7280C94E728E4
:100060000C94D41D0C94E7280C94D4220C94A82250
:100070000C94E7280C94F41F0C94E7280C94E728C0
:100080000C94E7280C94E7280C94CF200C94E728D4
:10009000C00FE00FE30FEB0F09103610541064107F
:1000A00067107B1083108F106000622180622162D4
:1000B00047005202624762528062526277005228C1
:1000C000627762D38062D362D500524D62D562DC22
:1000D0008000809101108F7C806080688093011087
:1000E00011241FBECFEFCDBFDFE7DEBFE8EAF0E0AF
:1000F00040E017C0B591A59135912591059107FD77
:100100000CC095918591EF01F92FE82F05900D9284
:10011000A217B307D9F7FE0104C01D92A217B307B7
:10012000E1F7E13DF40731F70E9459260C94EB27E3
:04013000F894FFCF71
:1001340052783A200048574555493A20007379735C
:10014400206765742068776575690D0A000D0A5487
:10015400783A20000A496E697469616C697A696E3B
:100164006720524E327878332E2E2E0A4669726DED
:10017400776172653A20006D616320736176650D65
:100184000A006D6163207365742072783220332015
:10019400383639353235303030006D61632073655F
:1001A4007420636820646379636C65203020373978
:1001B40039006D6163207365742063682064727212
:1001C400616E6765203120302036006D61632073D5
:1001D400657420636820646379636C65203120371B
:1001E4003939006D6163207365742063682064632A
:1001F40079636C65203220373939006D616320736F
:100204006574206368206672657120332038363740
:10021400313030303030006D616320736574206399
:100224006820647272616E67652033203020350067
:100234006D61632073657420636820646379636C03
:1002440065203320373939006D616320736574206C
:100254006368207374617475732033206F6E006D4E
:10026400616320736574206368206672657120344D
:1002740020383637333030303030006D61632073CE
:10028400657420636820647272616E67652034202F
:10029400302035006D6163207365742063682064C9
:1002A4006379636C65203420373939006D616320CC
:1002B40073657420636820737461747573203420CB
:1002C4006F6E006D616320736574206368206672CD
:1002D4006571203520383637353030303030006D98
:1002E40061632073657420636820647272616E6751
:1002F40065203520302035006D61632073657420DE
:10030400636820646379636C65203520373939006C
:100314006D61632073657420636820737461747500
:10032400732035206F6E006D6163207365742063E4
:1003340068206672657120362038363737303030A1
:100344003030006D616320736574206368206472CB
:1003540072616E6765203620302035006D61632040
:1003640073657420636820646379636C6520362048
:10037400373939006D6163207365742063682073B5
:1003840074617475732036206F6E006D6163207321
:1003940065742063682066726571203720383637AB
:1003A400393030303030006D616320736574206300
:1003B4006820647272616E676520372030203500D2
:1003C4006D61632073657420636820646379636C72
:1003D40065203720373939006D61632073657420D7
:1003E4006368207374617475732037206F6E006DB9
:1003F400616320736574206368207374617475731A
:10040400202564206F6E0D0A006D6163207365748E
:1004140020636820737461747573202564206F668B
:10042400660D0A004D6F64756C65206E6F742073E1
:100434007065636966696564000A0A436F6E66697C
:10044400677572696E6720524E3278783320466F32
:100454007220414250206A6F696E0A002D2D2D2DA5
:100464002D2D2D2D2D2D2D2D2D2D2D2D2D2D2D2DB8
:100474002D2D2D2D2D2D2D2D2D2D2D2D2D2D2D2DA8
:100484002D2D2D2D2D2D2D2D2D2D2D2D2D2D2D2D98
:100494002D2D2D2D2D2D2D2D2D2D2D2D2D2D2D2D88
:1004A4002D2D2D0A006D61632073657420646576BB
:1004B400657569203730423344353745443030352B
:1004C400414130420D0A006D6163207365742064FC
:1004D4006576616464722032363043323242360DBE
:1004E4000A006D61632073657420617070736B65BD
:1004F4007920353031433331323945333643304353
:100504003536354444443331313238354338463551
:1005140033340D0A006D616320736574206E776B4C
:10052400736B657920364330373042313236353299
:100534003946383536443436323745354234323527
:1005440033353033350D0A006D61632073657420D3
:100554006172206F6E0D0A006D61632073657420F3
:10056400727864656C61793120353030300D0A0061
:100574006D616320736574207278322031322039C2
:1005840032333330303030300D0A006D6163207304
:10059400657420616472206F6E0D0A006D616320C2
:1005A40073657420647220340D0A000A000A0A4339
:1005B4006F6E6669677572696E6720524E3278781D
:1005C4003320466F72204F544141206A6F696E0A8E
:1005D400006D61632070617573650D0A006D616360
:1005E40020726573756D650D0A006D616320736516
:1005F4007420646576657569203030303441333059
:100604004230304638363137450D0A006D6163207B
:1006140073657420646576616464722030303030B0
:10062400303030300D0A006D6163207365742061D1
:100634007070736B6579203030303030303030304A
:1006440030303030303030303030303030303030A6
:10065400303030303030300D0A006D616320736506
:1006640074206E776B736B657920303030303030A6
:100674003030303030303030303030303030303076
:10068400303030303030303030300D0A006D61633E
:1006940020736574206170706B6579204234363044
:1006A4003434374643394538394336443546453979
:1006B4004345443038383634373933350D0A006D04
:1006C40061632073657420617070657569203030D2
:1006D40030303030303030303030303030300D0A5F
:1006E400006D61632073657420647220330D0A0009
:1006F4000A0A4A6F696E696E672054544E207769FE
:100704007468204F5441410A0054783A206D616363
:10071400206A6F696E206F7461610A006D616320E5
:100724006A6F696E206F7461610D0A000A0A4A6F6C
:10073400696E696E672054544E207769746820414D
:1007440042500A0054783A206D6163206A6F696EE2
:10075400206162700A006D6163206A6F696E2061B6
:1007640062700D0A000A50726573732062757474A6
:100774006F6E20746F207472616E736D697420647F
:10078400617461000A0A5472616E736D69747469EC
:100794006E6720446174610A002D2D2D2D2D2D2DA1
:1007A4002D2D2D2D2D2D2D2D2D2D2D2D2D2D2D2D75
:1007B4002D2D2D2D2D2D2D2D2D2D2D2D2D2D2D2D65
:1007C4002D2D2D2D2D2D2D2D2D2D2D2D2D0A000AC8
:1007D40054783A206D616320747820636E6620310A
:1007E4003020006D616320747820636E66203130A0
:1007F40020000A54783A206D616320747820756E65
:10080400636E6620313120006D6163207478207539
:100814006E636E6620313120006D616320676574FC
:10082400207374617475730D0A0073797320736C8B
:0B083400656570203138303030300036
:10083F0025640A000A416674657220313030302019
:10084F004D6F6973747572652052656164696E6767
:10085F0073002D2D2D2D2D2D2D2D2D2D2D2D2D2DA0
:10086F002D2D2D2D2D2D2D2D2D2D2D2D2D2D2D2DA9
:10087F002D2D2D2D2D2D2D2D2D2D2D2D2D2D2D2D99
:10088F002D2D2D2D2D2D2D2D2D2D2D2D2D2D2D2D89
:10089F002D2D2D2D2D2D2D2D2D00546865204D41E5
:1008AF00582072656164696E6720776173202564D3
:1008BF000A00546865204D494E2072656164696E67
:1008CF0067207761732025640A0A00546865204DFC
:1008DF004158206D61707320746F2025640A005495
:1008EF006865204D494E206D61707320746F20250F
:1008FF00640A000A0A43757272656E742053656E3E
:10090F00736F7220446174610A002D2D2D2D2D2DD2
:10091F002D2D2D2D2D2D2D2D2D2D2D2D2D2D2D2DF8
:10092F002D2D2D2D2D2D2D2D2D2D2D2D2D2D2D2DE8
:10093F002D2D2D2D2D2D2D2D2D2D2D2D2D2D2D2DD8
:10094F002D2D2D2D2D2D2D2D2D2D2D2D2D2D2D2DC8
:10095F002D0A0052656C61746976652048756D6962
:10096F00646974793A2025752525200D0A004D6F8D
:10097F006973747572653A2025752525200D0A0057
:10098F0050726573737572653A20257520685061D2
:10099F000D0A0054656D70657261747572653A2049
:1009AF0025692043200D0A000A4A534F4E20466FF7
:1009BF00726D61740D005061796C6F61643A207BC8
:1009CF002074656D703A2025692C2068756D6964F7
:1009DF006974793A2025752C206D6F69737475725F
:1009EF00653A2025752C2070726573737572653AA0
:1009FF00202575207D0D0A0A005061796C6F6164A6
:100A0F0020737472696E673A2025730A6E756D5480
:100A1F00783A2025640A003031323334353637388E
:100A2F0039414243444546000A576561746865720F
:100A3F0020436C69636B204E4F5420696E69746953
:100A4F00616C697A65642070726F7065726C792160
:100A5F00000A496E74657261637469766520546526
:100A6F00726D696E616C206973206163746976655C
:100A7F003A20636F6D6D616E6473207375636820C8
:100A8F006173202773797320666163746F72795273
:100A9F0045534554272077696C6C00626520736558
:100AAF006E7420746F2074686520524E32787833DC
:100ABF0020616E6420726573706F6E73657320773B
:100ACF00696C6C2062652061707065617220686569
:100ADF0072652E000A5768656E2072656164792C05
:100AEF0020707265737320627574746F6E20746FEB
:100AFF00206A6F696E2054544E0A00544F444F3A87
:100B0F0020205772697465206C6F7720706F77653E
:0B0B1F00722074657374732E2E2E007C
:100B2A000A496E697469616C697A696E6720424D17
:100B3A00453238302E2E2E00424D4532383020694B
:0B0B4A006E697469616C697A65640073
:100B550057656C636F6D6520746F207468652041FF
:0A0B65006772692D496F542E0A00D3
:100B7000A2E2B0E0EEEBF5E00C94CA2529833A83BB
:100B80004B835C8329013A01E89477F841145104BE
:100B90006104710409F458C669877A878B879C873A
:100BA0007B018C0161157105A0E88A07AFE39A0704
:100BB00009F44AC62D873E874F87588B4B015C014D
:100BC0006B017C01E894F7F8B1E0CB16D104B0E8F2
:100BD000EB06BFE7FB0644F4E1E04E165104E0E803
:100BE0006E06EFE77E064CF02D853E854F855889D1
:100BF000C501B4010E94432832C609851A852B8598
:100C00003C8537FF4DC04114510410E861061BE4D8
:100C100071060CF04AC04114510420E862062FE32B
:100C200072060CF470C0D301C20107E1B595A79517
:100C3000979587950A95D1F78F579109A109B10921
:100C400027E130E0281B390BD301C201022E04C07A
:100C5000B595A795979587950A94D2F7AC01BD01F4
:100C600004C0440F551F661F771F2A95D2F74416FC
:100C700055066606770609F046C081709927AA27AF
:100C8000BB2742E050E060E070E08A019B01081B56
:100C9000190B2A0B3B0B0D831E832F83388737C01C
:100CA0001D821E821F82188608C022E030E040E0CC
:100CB00050E02D833E834F8358874114510430E820
:100CC00063063FE7730619F5C114D10440E8E40652
:100CD0004FE3F40609F4B8C55CF0E980FA800B81B3
:100CE0001C8117FDB6C56D857E858F859889B7C532
:100CF000E980FA800B811C8117FFABC56D857E856D
:100D00008F8598898AC01D821E821F821886411491
:100D1000510400E860060FE3700669F4E980FA8088
:100D20000B811C8117FF99C5A501940160E070E05B
:100D300080E89FE365C009811A812B813C81011500
:100D40001105210540E4340729F4A5019401C501EA
:100D5000B401C2C089819A81AB81BC810097A10591
:100D6000BF4359F409851A852B853C8537FD05C09D
:100D7000C501B4010E94A61072C5C501B4010E944C
:100D8000E928C114D104E104F10449F0950184017A
:100D90003F730115110520483F4309F040C0098108
:100DA0001A812B813C8137FF08C09B01AC0160E0B8
:100DB00070E080E89FE30E94CD2829853A854B8525
:100DC0005C8557FF4CC530E8E31A3FE3F30A0D8119
:100DD0001E812F813885C02AD12AE22AF32AC11424
:100DE000D104E104F10479F421E230E020930060C1
:100DF000309301609B01AC010E9442289B01AC0131
:100E00000E94CD282CC52D813E814F8158852130EF
:100E100031054105510509F022C5905820C50985C5
:100E20001A852B853C8537FF21C02D813E814F815E
:100E30005885232B242B252B59F481E290E08093B5
:100E4000006090930160A5019401C501B401D4CF65
:100E50000D811E812F813885013011052105310555
:100E600071F420E030E040E85FEB0DC000E010E0FE
:100E700020E83FE30D831E832F83388708C020E0DE
:100E800030E040E85FE32D833E834F83588731E0B5
:100E90004316510461043DE473060CF497C048EF17
:100EA000C4164FEFD4064FE7E4064FE3F406BCF454
:100EB000E980FA800B811C8117FF4BC32AEC32EFCB
:100EC00049E451E76D817E818F8198850E94D12808
:100ED0002AEC32EF49E451E70E94D128C0C408E06F
:100EE000C016D10400E8E0060FE3F00654F0E980F4
:100EF000FA800B811C811E141F0410061106F4F2E7
:100F000028C320E030E040E85FE30E9442286B0104
:100F10007C0120E03AEA48EB5FE30E94D1284B01D4
:100F20005C0120E735EA4CEE56E3C701B6010E94AA
:100F3000D12869837A838B839C8320E030E040E86A
:100F40005EE3C701B6010E94D1289B01AC016BEAA8
:100F50007AEA8AEA9EE30E944228A70196010E944B
:100F6000D1289B01AC0160E070E080E09FE30E942B
:100F700042282B013C01A7019601C701B6010E943E
:100F8000D1289B01AC01C301B2010E94D1282BE3FF
:100F90003AEA48EB5FE30E94D1289B01AC016981EA
:100FA0007A818B819C810E9442286B017C019B018C
:100FB000AC01C501B4010E9443286627707F698790
:100FC0007A878B879C87A501940120C2C114D10424
:100FD00000E8E006F1046CF420E030E040E85BE477
:100FE0000E94D1286B017C0148EE5FEF6FEF7FEF2D
:100FF00003C040E050E0BA01D701C60117E1B59542
:10100000A795979587951A95D1F78F579109A109BB
:10101000B1098C019D01040F151F261F371F0D8B71
:101020001E8B2F8B388FE894E7F8FF244601570179
:101030006894A7F81FE3B12A22E7C21624ECD2066F
:101040002CE1E206F104B4F037EDC31633EBD3061E
:101050003DE5E306F1049CF08D899E89AF89B88D4A
:101060000196A11DB11D8D8B9E8BAF8BB88F90E823
:10107000A91AB10819861A861B861C8608C0E12C9D
:10108000F12C8701E394E986FA860B871C87098592
:101090001A85000F111F000F111F09A31AA3F801D1
:1010A000EE59FD49E080F18002811381E98AFA8AD4
:1010B0000B8B1C8BA8019701C501B4010E9442282B
:1010C000698F7A8F8B8F9C8FA8019701C501B4011E
:1010D0000E9443289B01AC0160E070E080E89FE340
:1010E0000E94CD286D8F7E8F8F8F98A39B01AC01BE
:1010F000698D7A8D8B8D9C8D0E94D12869837A832E
:101100008B839C8349805A806B807C80442400EFD1
:10111000502275016401F594E794D794C794CC24C8
:1011200010EFD122E894F5F86894F5F8D701C601DC
:10113000A05CBF4FC984DA84EB84FC84F5E1CC0C5D
:10114000DD1CEE1CFF1CFA95D1F7C80ED91EEA1E55
:10115000FB1EA7019601C301B2010E94D1289B0189
:10116000AC01698D7A8D8B8D9C8D0E944228698798
:101170007A878B879C8729893A894B895C89C70143
:10118000B6010E9442289B01AC01C501B4010E9436
:101190004228A30192010E94D1289B01AC016985DC
:1011A0007A858B859C850E9442282D8D3E8D4F8DA2
:1011B00058A10E94D12869877A878B879C872981CB
:1011C0003A814B815C81CA01B9010E94D1286B012F
:1011D0007C0122E431EF43E55EE30E94D12825E55E
:1011E00032E34CE65EE30E944328A70196010E9489
:1011F000D12825E033EA4BE85EE30E944328A701AB
:1012000096010E94D1282BEA3AEA4AEA5EE30E945C
:101210004328A70196010E94D12827EB3DE64BED1C
:101220005EE30E944328A70196010E94D1282AE983
:1012300039E949E15FE30E9443284B015C01A701C2
:101240009601C701B6010E94D1289B01AC01C501DE
:10125000B4010E94D1286B017C01A3019201698134
:101260007A818B819C810E94432829853A854B8510
:101270005C850E94D128A70196010E9443286B013A
:101280007C01A3019201C301B2010E94D128698BA4
:101290007A8B8B8B9C8B20E030E040E450E40E9402
:1012A0004328A70196010E9443284B015C01882432
:1012B00020EF9222A5019401C301B2010E94D1281E
:1012C0002B013C0120E030E040E450E4C501B401D2
:1012D0000E94422829893A894B895C890E944228C8
:1012E0009B01AC01C701B6010E94422829813A81C5
:1012F0004B815C810E94D1286B017C01A501940186
:1013000069857A858B859C850E94D1289B01AC01DB
:10131000C701B6010E9443284B015C019B01AC014F
:10132000C301B2010E9443286B017C01CC2430EF41
:10133000D32220E030E446E75FE3C701B6010E9414
:10134000D12869837A838B839C83A3019201C7018F
:10135000B6010E9442289B01AC01C501B4010E9464
:1013600042282FE438E346E75FE30E94D1284B018F
:101370005C0126EC33E246EF58EBC701B6010E9450
:10138000D1289B01AC01C501B4010E944328E9A109
:10139000FAA1EE5AFD4920813181428153810E9498
:1013A00043286B017C016D897E898F89988D0E940D
:1013B000921E4B015C0109A11AA1065A1D49D801D0
:1013C0004D905D906D907C90A701960169817A8126
:1013D0008B819C810E944328A30192010E94432893
:1013E000A50194010E9443286627707F69877A8748
:1013F0008B879C87A50194010E944228A30192013A
:101400000E94422829813A814B815C810E944228B6
:101410009B01AC01C701B6010E9442284B015C014F
:10142000CD84DE84EF84F888CC24B0EFDB22A701E2
:1014300096016D857E858F8598890E944228298531
:101440003A854B855C850E94D1282B013C012D8576
:101450003E854F855889C501B4010E94D1289B0162
:10146000AC01C301B2010E94432869837A838B8354
:101470009C83A701960169857A858B859C850E944E
:10148000D128962EA72EB82E892E6987798B182FF2
:10149000092F262F372F482F592F69817A818B8169
:1014A0009C810E9443286B017C016D877E878F871A
:1014B000988B81E0C816D104E10483E4F8060CF0AF
:1014C000FDCC2D853E854F85588921153105410577
:1014D0005344E9F42CE33AEA48E353E369817A811F
:1014E0008B819C810E9443282B013C01292D3A2DA0
:1014F0004B2D582DC701B6010E9442289B01AC011B
:10150000C301B2010E94C028181694F5D7CCD701A8
:10151000C601BF770197A641B344DCF42D853E8513
:101520004F855889211531054641534C09F5292D20
:101530003A2D4B2D582DC701B6010E9442289B0120
:10154000AC0169817A818B819C810E94BB2818162D
:101550007CF020E632E442EA5DE06D817E818F819D
:1015600098850E94D12820E632E442EA5DE0B4CCBE
:10157000D701C601BF7781309105A105EFE3BE0712
:101580000CF46AC057E1B595A795979587955A953C
:10159000D1F78E5740E050E060E870E08A019B018F
:1015A00004C035952795179507958A95D2F7C00EF3
:1015B000D11EE21EF31E26013701E89477F867E199
:1015C00075946794579447946A95D1F71FE7411A29
:1015D0005108610871088FEF9FEFAFE7B0E0042C6E
:1015E00004C0B595A795979587950A94D2F78095ED
:1015F0009095A095B0959C01AD012C213D214E21E7
:101600005F21E894E7F8FF246894E7F887E190E029
:10161000841995092601370104C07594679457947D
:1016200047948A95D2F7ED84FE840F85188917FFB9
:1016300008C07094609450944094411C511C611CEB
:10164000711C692D7A2D8B2D982D0E944228698757
:10165000798B182F092F03C0412C512C320129817D
:101660003A814B815C8169857989812F902F0E9415
:1016700043284B015C01882420E8922220E032E7D5
:1016800041E35FE3C501B4010E94D1286D877E87E5
:101690008F87988B29853989412F502FC501B40137
:1016A0000E9442289B01AC0169817A818B819C81D7
:1016B0000E94422828E132E741E35FE30E94D128FB
:1016C0006B017C012CE83EEB4FEB55E3C501B40107
:1016D0000E94D1289B01AC01C701B6010E9443289A
:1016E0004B015C019B01AC016D857E858F859889DE
:1016F0000E9443286B017C012D853E854F855889CA
:101700000E9442289B01AC01C501B4010E944228FD
:1017100069837A838B839C83A7019601C701B601F5
:101720000E94D1284B015C012CE43BEB41E353E3E5
:101730000E94D1282EE03AEE4DED55E30E9442285A
:10174000A50194010E94D12825E533EB4AE858E32E
:101750000E944328A50194010E94D12821E63BE084
:1017600046E35BE30E944228A50194010E94D12830
:101770002BEA3AEA4AE25EE30E944328A50194017B
:101780000E94D1289B01AC01C701B6010E944228EA
:101790004B015C019B01AC01C701B6010E94D1283D
:1017A0006D877E878F87988B20E030E040E050E4A3
:1017B000C501B4010E9442289B01AC016D857E8564
:1017C0008F8598890E94CD284B015C0129813A813F
:1017D0004B815C81C701B6010E94D12829813A81E1
:1017E0004B815C810E9443289B01AC01C501B4017F
:1017F0000E944228A70196010E9442289B01AC0149
:1018000060E070E080E89FE30E944228930182013B
:1018100047E1000F111F221F331F4A95D1F7060F12
:10182000171F281F391F0115110540E8240731052E
:1018300024F4A2010E94D71A02C0C901B8012D8167
:101840003E814F81588548CB60E070E080E89FE39F
:1018500006C060E070E0CB0102C0C501B401A296F1
:06186000E0E10C94E32519
:10186600AEE0B0E0E9E3FCE00C94CB254C016B0163
:1018760019821A828FEF9FEF8B839C831D821E82B3
:101886004F83588729873A87A12CB12CD6016D90B2
:101896007C90F301EA0DFB1D808181110FC0D601FA
:1018A600ED93FC938081853209F0D3C13F01BFEFF0
:1018B6006B1A7B0AF6016082718219C0853279F350
:1018C600B401082E000C990B0E94BB1C4FEFA41A02
:1018D600B40ADCCF8C32ACF08D32F9F489819A816E
:1018E600816089839A833196D601ED93FC93D60164
:1018F600ED91FC9180818B3269F789819A818460B0
:10190600F0CF803221F489819A818860EACF8332D0
:1019160051F489819A818061E4CF803321F48981F1
:101926009A818260DECFB701C6010E944D228D8367
:101936009E8397FF0BC029813A81B1E02B2729832B
:101946003A839195819591098D839E8389819A81A8
:1019560080FF03C08D7F89839A83D601ED91FC9128
:10196600119780818E3249F43196ED93FC93B7013D
:10197600C6010E944D228B839C83C6010E94E624E9
:10198600582ED601ED91FC918081082E000C990B02
:101996000E943328893609F443C084F4833609F457
:1019A60002C134F4853209F427C18136E1F030C131
:1019B6008436B1F188360CF4D9C02AC1803709F4CF
:1019C6009AC03CF48E3609F4BCC08F3609F461C067
:1019D6001FC1853709F440C0883709F476C08337BC
:1019E60009F016C1F3C0652D70E0A701CE010B9674
:1019F6000E940000892B09F426C1D601ED91FC91C5
:101A06001197CF0101968D939C932081AE01455F7E
:101A16005F4FBE016F5F7F4FC4010E94000010C17F
:101A2600652D70E0970141E050E0CE010B960E94D3
:101A36004419892B09F407C1F60180819181019629
:101A460080839183AE01455F5F4FBE016F5F7F4F1D
:101A5600C4010E948817F4C0652D70E0970140E02C
:101A660050E0CE010B960E944419892B09F4EBC075
:101A7600D6018D919C91119701968D939C93AE0101
:101A8600455F5F4FBE016F5F7F4FC4010E944C1DD3
:101A9600D7C0652D70E0970140E050E0CE010B966F
:101AA6000E944419892B09F4CEC0F60180819181E8
:101AB600019680839183AE01455F5F4FBE016F5FE4
:101AC6007F4FC4010E94301BBBC0652D70E097019B
:101AD60040E050E0CE010B960E944419892B09F490
:101AE600B2C0D601ED91FC911197CF0101968D936D
:101AF6009C9320811CC0970140E050E060EF70E0AD
:101B0600CE010B960E944419892B09F49CC0F6015C
:101B1600808191810196808391838B859C85892B19
:101B260029F420E030E041E752E684C028E7AE0120
:101B3600455F5F4FBE016F5F7F4FC4010E94B712C2
:101B46007FC0A501400F511F652D70E09701CE01A2
:101B56000B960E940000892B09F475C0D6018D9161
:101B66009C91119701968D939C9373C0652D70E09F
:101B7600A701CE010B960E940000892B09F463C0D1
:101B8600D601ED91FC911197CF0101968D939C930F
:101B96002081AE01455F5F4FBE016F5F7F4FC4017D
:101BA6000E9400004DC0B0E85B124DC0F601808176
:101BB6009181019680839183D701ED91FC911197D4
:101BC600CF0102968D939C93808120C0B0E85B1272
:101BD6003AC0F60180819181019680839183D70175
:101BE600ED91FC911197CF0102968D939C934081C4
:101BF600518120E030E01EC0B0E85B1224C0F6013F
:101C0600208131812F5F3F4F208331838B870DC029
:101C160085E28B87D6016D927C9219821A821D828B
:101C26001E828FEF9FEF8B839C8321E030E0AE0115
:101C3600455F5F4FBE016F5F7F4FC4010E94572310
:101C46008A0D9B1D07C0F6018081918101968083D4
:0C1C56009183C5012E96EFE00C94E4256C
:101C62004F925F926F927F928F929F92AF92BF92AA
:101C7200CF92DF92EF92FF92C0908D62D0908E62EF
:101C8200E0908F62F0909062F594E794D794C794B5
:101C92008AEFD81AE108F108C701B6019595879530
:101CA2007795679595958795779567959B01AC0193
:101CB2000E943E274B015C01E0E0F2E6A285B3857B
:101CC2009B01AC01012E1DE055954795379527954F
:101CD2001A95D1F7102D0E942B282B013C016894F4
:101CE20012F875946794579447941694D1F7A08587
:101CF200B185A70196010E942B28DC01CB01B59585
:101D0200A79597958795840D951DA61DB71D072E3E
:101D120072E1B595A795979587957A95D1F7702D2C
:101D22009C01AD0130584F4F5F4FA681B7810E9491
:101D3200E0272B013C01032E3FE0759467945794F2
:101D420047943A95D1F7302D41145104610471043E
:101D520009F4CEC0A5019401012E1BE055954795CB
:101D6200379527951A95D1F7102DA089B1890E9430
:101D72002B284B015C01A685B785A70196010E941D
:101D82002B28DC01CB01880F991FAA1FBB1F880ECD
:101D9200991EAA1EBB1ED501C401B595A79597959C
:101DA2008795B595A7959795879584849584092CF1
:101DB200000CAA08BB08540199248824880E991E95
:101DC200AA1EBB1E072E7CE0B594A7949794879415
:101DD2007A95D1F7702D8091916290919262A09143
:101DE2009362B0919462A5019401280F391F4A1F92
:101DF2005B1FABECB3EF0E942E28805B9C439923C0
:101E02005CF0660F771F881F991FA30192010E9441
:101E1200A32469017A010AC0A30192010E94A324AA
:101E220069017A01CC0CDD1CEE1CFF1CC701B60156
:101E3200689412F896958795779567951694D1F7D9
:101E42009B01AC010E943E279B01AC01012E1DE0CB
:101E520056954795379527951A95D1F7102DE0E0BD
:101E6200F2E6A689B7890E942B284B015C01072E56
:101E72007CE0B594A794979487947A95D1F7702DC6
:101E8200A7019601569547953795279556954795FB
:101E920037952795A489B5890E942B28DC01CB01AF
:101EA200072E7DE0B595A795979587957A95D1F7F9
:101EB200702DB501A401480F591F6A1F7B1F82892B
:101EC2009389092E000CAA0BBB0B840F951FA61F2A
:101ED200B71F689413F8B595A795979587951694AB
:101EE200D1F7BC01CD016C0D7D1D8E1D9F1D03C060
:101EF20060E070E0CB01FF90EF90DF90CF90BF9059
:101F0200AF909F908F907F906F905F904F900895C9
:101F12001F93CF93DF938091D1629091D26280FF21
:101F220021C08091D862843059F08B3079F08130B1
:101F320081F480E28093A50482E08093D86209C094
:101F420083E08093D8620E94722803C083E080936A
:101F5200D8628091D1629091D2628E7F8093D16259
:101F62009093D262E091D8628E2F90E08C309105EE
:101F720008F0E7C0FC01E85BFF4F0C949C2880E26C
:101F82008093A5040E94781A0E94C524811104C07E
:101F920087E39AE80E94092880E28093A60480E6FB
:101FA2009AE80E9409288AEA9AE80E94092883EEA0
:101FB2009AE80E94092881E08093D862C2C00E94F8
:101FC2006620BFC00E94E1280E94002883E080931F
:101FD200D862B7C08091D7628F5F8093D762C0E228
:101FE200C093A60481E892E60E943C2461E872E66E
:101FF20087E492E60E94681687E492E60E94141E25
:102002000E946C2884E08093D862C093A50499C092
:102012008091856290918662A0918762B091886278
:10202200843B9105A105B105E9F48091D76291E065
:10203200803F08F490E020EF929F801911248111D3
:1020420004C083E08093D86203C085E08093D862A5
:102052000E947228109285621092866210928762A4
:10206200109288620E9466206CC08091D7628F5F56
:102072008093D762C5EAD4E010E2188381E892E641
:102082000E943C2461E872E687E492E60E946816A8
:1020920087E492E60E94521E0E946C2884E080939C
:1020A200D86218834EC01092856210928662109296
:1020B2008762109288620E942E270E946C288BE011
:1020C2008093D8623EC00E9466203BC00E94C52415
:1020D20081E892E60E943C2481E892E60E94FA1787
:1020E20061E872E687E492E60E9468168BE08093CC
:1020F200D86227C08AE09BE80E9409288BE080937F
:10210200D8621FC081E892E60E943C2481E892E6F0
:102112000E94FA178BE08093D86213C08091856287
:1021220090918662A0918762B09188620297A10520
:10213200B10529F40E94722886E08093D8620E9439
:0A2142006620DF91CF911F910895F0
:10214C004F925F926F927F928F929F92AF92BF92BB
:10215C00CF92DF92EF92FF920F931F936B017C0152
:10216C00DC01CB01B701A6014427552760787F77A6
:10217C004115510560487F4759F4A7019601C701E5
:10218C00B6010E94D128A70196010E9443281AC0CB
:10219C00181619061A061B06D4F0892B8A2B8B2BC2
:1021AC0009F4CCC081E290E08093006090930160D0
:1021BC00A7019601C701B6010E9442289B01AC0100
:1021CC000E94CD28562F472F382F292FBBC067E1EF
:1021DC00F594E794D794C7946A95D1F7C114D104B8
:1021EC00E104F104E1F4C12CD12C7601A7FD0AC065
:1021FC00880F991FAA1FBB1F2FEFC21AD20AE20A1F
:10220C00F20AF4CF21E0C21AD108E108F108F094E7
:10221C00E094D094C094C11CD11CE11CF11C2FE79C
:10222C00C21AD108E108F108AF77BB27A068C0FE3D
:10223C0004C0880F991FAA1FBB1FF594E794D7946D
:10224C00C794880F991FAA1FBB1FE9E1F0E040E07B
:10225C0050E060E071E0812C912C540100E010E022
:10226C00980128013901440E551E661E771E8415EF
:10227C009505A605B70574F093018201040F151F8F
:10228C00261F371F84199509A609B709840E951EB8
:10229C00A61EB71E880F991FAA1FBB1F76956795A0
:1022AC00579547953197E9F6892B8A2B8B2BA1F102
:1022BC0020E632E442EA5DE060E070E080E89FE313
:1022CC000E94422820E030E040E85FE30E94C028F2
:1022DC0087FD22C020E632E442EA5DE060E070E077
:1022EC0080E89FE30E94432820E030E040E85FE371
:1022FC000E94C028181634F482E0880E911CA11C90
:10230C00B11C0AC0D501C40181709927AA27BB272B
:10231C00880E991EAA1EBB1ED501C401B595A795A2
:10232C0097958795B15C37E1CC0CDD1CEE1CFF1C3E
:10233C003A95D1F7C80ED91EEA1EFB1E5C2D4D2D09
:10234C003E2D2F2D652F742F832F922F1F910F91C0
:10235C00FF90EF90DF90CF90BF90AF909F908F90B9
:0A236C007F906F905F904F900895EE
:102376004F925F926F927F928F929F92AF92BF928F
:10238600CF92DF92EF92FF9280908D6290908E6254
:10239600A0908F62B09090622CE2921A21E0A20A7D
:1023A600B108C0909562D0909662E0909762F090E6
:1023B60098620B2EBEE0CC0CDD1CEE1CFF1CBA9501
:1023C600D1F7B02DE0E0F2E6848D958D092E000C54
:1023D600AA0BBB0B072E74E1880F991FAA1FBB1F00
:1023E6007A95D1F7702DC81AD90AEA0AFB0AA68D82
:1023F600B78DA50194010E942B28C61AD70AE80AB0
:10240600F90A30E4D30EE11CF11C0B2EBFE0F59463
:10241600E794D794C794BA95D1F7B02DA38DB0E0C1
:10242600A50194010E94E0272B013C01032E3BE00D
:1024360075946794579447943A95D1F7302D40E8B0
:10244600540E611C711CA0A10A2E000CBB0BA50129
:1024560094010E942B28052E5AE09595879577952D
:1024660067955A95D1F7502DA30192010E943E27F8
:10247600DC01CB01072E7AE0B595A7959795879550
:102486007A95D1F7702D9C01AD01405E5F4FA18D0D
:10249600B28D0E942B28DC01CB01905EAF4FBF4F5F
:1024A600BC01CD01052E5EE09595879577956795DC
:1024B6005A95D1F7502DA70196010E943E276B0130
:1024C6007C01052E5FE095958795779567955A95DA
:1024D600D1F7502D9B01AC010E943E279B01AC0118
:1024E600689416F855954795379527951694D1F71C
:1024F600A08DB0E00E94E027DC01CB01689413F8C0
:10250600B595A795979587951694D1F7A701960146
:10251600281B390B4A0B5B0BDA01C9011AF480E060
:1025260090E0DC0181309105A10539E1B30724F083
:1025360080E090E0A0E0B9E1BC01CD01052E5CE0B1
:1025460095958795779567955A95D1F7502DFF9074
:10255600EF90DF90CF90BF90AF909F908F907F903D
:082566006F905F904F90089503
:10256E00AFE0B0E0EDEBF2E10C94C8251C016B017D
:10257E0049835A832B83FB018281938184809580CA
:10258E0000811181A680B78097FD02C00D7F02C029
:10259E0081E090E0E981FA81408051806280738011
:1025AE009801207133272C833D83740104FF08C0EA
:1025BE00411451046104710419F032E0E31AF10878
:1025CE00F801E870FF27EE83FF8303FF03C0F1E0FD
:1025DE00EF1AF108F6010084F185E02D3197EE87B0
:1025EE00FF87EA0DFB1D10829C012E193F092887DB
:1025FE003987C801827099278A879B87EB818E2F36
:10260E00EE0F990B9C01215431092C873D872E85A5
:10261E003F852230310530F48C819D81892B09F064
:10262E0042C05CC0411451046104710461F18E8595
:10263E009F8501978E879F87C2018F7099278A3059
:10264E00910514F4C09602C0895A9F4FEC85FD8502
:10265E007A9748F49C012062215631092A313105BE
:10266E0010F40E941228EE85FF85EA0DFB1D808373
:10267E00F1E0EF1AF10884E076946794579447944A
:10268E008A95D1F7C4CF888599858E0D9F1D181612
:10269E0019066CF21E141F040CF0BECFEA85FB85E2
:1026AE00EF2B29F6B9CFE981FA8180819181A28140
:1026BE00B381892B8A2B8B2B89F0EE85FF85EA0D52
:1026CE00FB1D31972B8120838E859F8502978E87E8
:1026DE009F87FC01EA0DFB1D80E38083EE81FF8165
:1026EE00EF2B59F02E853F85215031092E873F87DC
:1026FE00F901EA0DFB1D80E28083F60140855185CC
:10270E00415051092E853F85421B530BB9016A0D6D
:10271E007B1D9401C1010E942D209C01F10180813D
:10272E00918190FF06C0F6018281938182179307F3
:0C273E000CF4C9012F96E2E10C94E12597
:10274A008F929F92AF92BF92CF92DF92FF920F9396
:10275A001F93CF93DF93CDB7DEB7A097CDBFDEBF70
:10276A00882309F468C0813009F0A7C086E891E897
:10277A000E94CD1E8EE991E80E94CD1E86EB91E85B
:10278A000E94CD1E8FEC91E80E94CD1E87EE91E843
:10279A000E94CD1E8FEF91E80E94CD1E8BE192E838
:1027AA000E94CD1E84E392E80E94CD1E8CE492E83A
:1027BA000E94CD1E83E692E80E94CD1E8FE792E822
:1027CA000E94CD1E88E992E80E94CD1E80EB92E815
:1027DA000E94CD1E87EC92E80E94CD1E83EE92E8FD
:1027EA000E94CD1E8CEF92E80E94CD1E84E193E8F0
:1027FA000E94CD1E8BE293E80E94CD1E87E493E8E7
:10280A000E94CD1E80E693E80E94CD1E88E793E8D9
:10281A000E94CD1E8FE893E80E94CD1E8BEA93E8B2
:10282A000E94CD1E84EC93E80E94CD1E8CED93E8A5
:10283A000E94CD1E46C00F2EF8EFFF2EF02D00E0AD
:10284A0010E00F2EFDE0AF2EF4E8BF2EF02DCE01E2
:10285A0001966C010F2EF3EF8F2EF3E89F2EF02DC9
:10286A0097E09F1590F01F930F939F928F92DF929C
:10287A00CF920E94FB26C6010E94CD1E0F900F9098
:10288A000F900F900F900F9011C01F930F93BF924C
:10289A00AF92DF92CF920E94FB26C6010E94CD1E04
:1028AA000F900F900F900F900F900F900F5F1F4F88
:1028BA00F39408341105A1F604C088E294E80E9452
:1028CA000928A096CDBFDEBFDF91CF911F910F914E
:1028DA00FF90DF90CF90BF90AF909F908F90089518
:1028EA000F931F93CF93DF93CDB7DEB76897CDBF12
:1028FA00DEBF28E1AE014F5F5F4F68E886E70E94BE
:10290A00041D00E012E68A8190E0982F8827298129
:10291A00820F911DF801808391838C8190E0982F1A
:10292A0088272B81820F911D828393838E8190E069
:10293A00982F88272D81820F911D848395838885FE
:10294A0090E0982F88272F81820F911D8683978385
:10295A008A8590E0982F88272985820F911D808784
:10296A0091878C8590E0982F88272B85820F911D5F
:10297A00828793878E8590E0982F88272D85820FEE
:10298A00911D84879587888990E0982F88272F85BD
:10299A00820F911D868797878A8990E0982F8827CA
:1029AA002989820F911D808B918B8C8990E0982FB9
:1029BA0088272B89820F911D828B938B8E8990E0B9
:1029CA00982F88272D89820F911D848B958B888D4E
:1029DA0090E0982F88272F89820F911D868B978BDD
:1029EA0021E0AE014F5F5F4F61EA86E70E94041D56
:1029FA008981F801808F27E0AE014F5F5F4F61EE5A
:102A0A0086E70E94041D2A8130E0322F222799810D
:102A1A00290F311DF801218F328F9B81938F9D8160
:102A2A002C81F0E12F9F90011124492F4F70242B04
:102A3A00F801248F358F2E81F0E12F9F9001112408
:102A4A0092959F70292BF801268F378F9F8190A32B
:102A5A006896CDBFDEBFDF91CF911F910F91089588
:102A6A00CF93DF9380E094E023E0FC012083C0E46D
:102A7A00D4E035E03883A0E6B4E032E13C9360EA82
:102A8A0074E030E2FB013083FC01148241E04C83A4
:102A9A0040E114964C931497FB013483FC01108A8D
:102AAA00118A128A138A148A158A168A178A188A28
:102ABA00198A1A8A1B8A1C8A1D8A1E8A1F8A50969C
:102ACA001C92509751961C92519752961C9252976B
:102ADA0053961C92539754961C92549755961C924F
:102AEA00559756961C92569757961C92FB01108A38
:102AFA00118A128A138A148A158A8BE0868B178A9E
:102B0A00E0EEF5E011821082158217821086118696
:102B1A00168222838DEE98E28093B5629093B66214
:102B2A008EEE98E28093B3629093B4628FEE98E24D
:102B3A008093B1629093B26280EF98E28093AF6221
:102B4A009093B06281EF98E28093AD629093AE6207
:102B5A0082EF98E28093AB629093AC6283EF98E243
:102B6A008093A9629093AA6284EF98E28093A76205
:102B7A009093A86285EF98E28093A5629093A662EB
:102B8A0086EF98E28093A3629093A46287EF98E21B
:0E2B9A008093A1629093A262DF91CF91089583
:102BA8008F929F92AF92BF92CF92DF92EF92FF9255
:102BB8008091996290919A62A0919B62B0919C6277
:102BC800E0E0F2E64081518160E070E06C017D0157
:102BD800689413F8F594E794D794C7941694D1F7AA
:102BE800C41AD50AE60AF70A689412F8B595A795A3
:102BF800979587951694D1F7440F551F661F771F31
:102C08004C015D01841A950AA60AB70AA501940128
:102C1800A281B3810E942B284B015C01072E7BE027
:102C2800B594A794979487947A95D1F7702DA701B6
:102C38009601C701B6010E943E279B01AC01012EF7
:102C48001CE055954795379527951A95D1F7102D7E
:102C5800A481B5810E942B28DC01CB01072E7EE0E0
:102C6800B595A795979587957A95D1F7702D880D85
:102C7800991DAA1DBB1D80938D6290938E62A093AF
:102C88008F62B09390626C017D01CC0CDD1CEE1C50
:102C9800FF1CCC0CDD1CEE1CFF1C8C0D9D1DAE1DFD
:102CA800BF1D80589F4FAF4FBF4F692F7A2F8B2F73
:102CB800992787FD9A95FF90EF90DF90CF90BF906E
:082CC800AF909F908F900895DA
:102CD000CF93DF93CDB7DEB76197CDBFDEBF21E1E4
:102CE000E6E2FAE8DE01119601900D922A95E1F7ED
:102CF000FB01208122952F70E1E0F0E0EC0FFD1F39
:102D0000E20FF11D2081FC012083FB0120812F7047
:102D1000E1E0F0E0EC0FFD1FE20FF11D2081FC016E
:102D20002183FB01218122952F70E1E0F0E0EC0F7F
:102D3000FD1FE20FF11D2081FC012283FB01218197
:102D40002F70E1E0F0E0EC0FFD1FE20FF11D20819C
:102D5000FC012383FB01228122952F70E1E0F0E04A
:102D6000EC0FFD1FE20FF11D2081FC012483FB010C
:102D700022812F70E1E0F0E0EC0FFD1FE20FF11D6A
:102D80002081FC012583FB01238122952F70E1E046
:102D9000F0E0EC0FFD1FE20FF11D2081FC01268306
:102DA000FB0123812F70E1E0F0E0EC0FFD1FE20F4B
:102DB000F11D2081FC0127832DE020872AE0218757
:102DC00012862091D7621F922F939F938F9388E052
:102DD0009AE89F938F930E94F9250F900F900F9080
:102DE0000F900F900F906196CDBFDEBFDF91CF9116
:022DF000089544
:102DF200CF93DF93CDB7DEB72897CDBFDEBF28E0F4
:102E0200AE014F5F5F4F67EF86E70E94041D8F811F
:102E120090E0A0E0B0E0BA2FA92F982F882728854C
:102E2200822B8093956290939662A0939762B0935F
:102E320098628C8190E0A0E0B0E0AC01BD01032E6D
:102E42003CE0440F551F661F771F3A95D1F7302D8E
:102E52009D81892F90E0A0E0B0E0880F991FAA1F02
:102E6200BB1F880F991FAA1FBB1F880F991FAA1F7C
:102E7200BB1F880F991FAA1FBB1F842B952BA62B44
:102E8200B72B2E8122952F70822B8093996290937B
:102E92009A62A0939B62B0939C62898190E0A0E0C9
:102EA200B0E0AC01BD01032E3CE0440F551F661F8C
:102EB200771F3A95D1F7302D9A81892F90E0A0E0C3
:102EC200B0E0880F991FAA1FBB1F880F991FAA1F66
:102ED200BB1F880F991FAA1FBB1F880F991FAA1F0C
:102EE200BB1F842B952BA62BB72B2B8122952F70E2
:102EF200822B8093916290939262A0939362B0939B
:0E2F020094622896CDBFDEBFDF91CF91089577
:102F1000A2E0B0E0EEE8F7E10C94C8253C016B01BB
:102F2000FB0122813381A480B580808191818983D6
:102F30009A8386809780FA01208031804280538076
:102F4000B201A10157FE07C044275527BA01421913
:102F500053096409750937FD03C08D7F89839A83FE
:102F6000950157FC05C0898182FD02C083FF02C024
:102F700021503109CE0101967C010AE010E0C60122
:102F80000E94131A57FC03C0298122FF0AC001972F
:102F9000F401E80FF91F57FC02C02BE209C02DE233
:102FA00007C023FF06C00197F401E80FF91F20E2D4
:102FB000208309811A81F6014085518541505109CC
:102FC000481B590BB401680F791F9501C3010E947A
:102FD0002D209C01F3018081918190FF06C0F601B4
:102FE00082819381821793070CF4C9012296E2E152
:042FF0000C94E12537
:102FF400CF93DF93EC0182E099E80E945F2489E19A
:1030040099E80E945F2489811F928F9382E699E850
:103014009F938F930E9411268A811F928F938DE72D
:1030240099E89F938F930E9411262B8130E0C90168
:10303400880F991F220F331F220F331F220F331FB4
:10304400820F931F9F938F938FE899E89F938F9399
:103054000E9411268881282F082E000C330B3F93E1
:103064008F9382EA99E89F938F930E94112687EBAE
:1030740099E80E94092881E698E80E9409282B8192
:1030840030E0C901880F991F220F331F220F331F0D
:10309400220F331F820F931F9F938F938A811F9256
:1030A4008F9389811F928F938881282F082E000C7B
:1030B400330B3F938F9385EC99E89F938F930E94F2
:1030C40011268DB79EB74A968DBF9EBFDF91CF91D3
:0230D40008955D
:1030D60010C00E94572858F00E94502840F029F44A
:1030E6005F3F29F00C94962851110C945F280C949C
:1030F600E4280E94812468F39923B1F3552391F3C0
:10310600951B550BBB27AA2762177307840738F050
:103116009F5F5F4F220F331F441FAA1FA9F335D0AD
:103126000E2E3AF0E0E832D091505040E695001C61
:10313600CAF72BD0FE2F29D0660F771F881FBB1F1B
:10314600261737074807AB07B0E809F0BB0B802DF9
:10315600BF01FF2793585F4F3AF09E3F510578F025
:103166000C9496280C945F285F3FE4F3983ED4F3C2
:10317600869577956795B795F7959F5FC9F7880FF9
:10318600911D9695879597F90895E1E0660F771F4B
:10319600881FBB1F621773078407BA0720F0621BDC
:0E31A600730B840BBA0BEE1F88F7E0950895AB
:1031B4000FC00E94502838F00E94572820F0952311
:1031C40011F00C9496280C94E42811240C945F2894
:1031D4000E94812470F3959FC1F3950F50E0551F11
:1031E400629FF001729FBB27F00DB11D639FAA2758
:1031F400F00DB11DAA1F649F6627B00DA11D661FA7
:10320400829F2227B00DA11D621F739FB00DA11DC7
:10321400621F839FA00D611D221F749F3327A00D81
:10322400611D231F849F600D211D822F762F6A2F1D
:1032340011249F5750409AF0F1F088234AF0EE0F82
:10324400FF1FBB1F661F771F881F91505040A9F7AF
:103254009E3F510580F00C9496280C945F285F3FA4
:10326400E4F3983ED4F3869577956795B795F795EB
:10327400E7959F5FC1F7FE2B880F911D9695879563
:0432840097F9089519
:10328800CF93DF93DC01F90168387105F1F05CF444
:103298006138710561F164387105A1F16038710513
:1032A80009F051C02FC0603C710509F441C0603F6E
:1032B8007105F1F1603A710509F045C0C081D1810D
:1032C800CE0102968083918325C0C081D181CE0131
:1032D800029680839183452B39F04881042E000C97
:1032E800550B660B770B1CC0488150E029C0C08184
:1032F800D181CE01049680839183488159816A8166
:103308007B810EC0C081D181CE01029680839183DA
:10331800452BA1F048815981052E000C660B770BCF
:103328004D935D936D937C93139781E090E00DC06E
:10333800C081D181CE0102968083918348815981D1
:1033480060E070E0EDCF80E090E0DF91CF910895EC
:1033580011C00E94502838F00E94572820F039F4F4
:103368009F3F19F426F40C94E4280EF4E095E7FB4B
:103378000C949628E92F0E94812458F3BA17620703
:1033880073078407950720F079F4A6F50C945E2856
:103398000EF4E0950B2EBA2FA02D0B01B901900168
:1033A8000C01CA01A0011124FF27591B99F0593FAC
:1033B80050F4503E68F11A16F040A22F232F342FF4
:1033C8004427585FF3CF469537952795A795F04042
:1033D8005395C9F77EF41F16BA0B620B730B840B57
:1033E800BAF09150A1F0FF0FBB1F661F771F881F0F
:1033F800C2F70EC0BA0F621F731F841F48F4879567
:1034080077956795B795F7959E3F08F0B0CF939558
:0E341800880F08F09927EE0F97958795089575
:10342600A0E0B0E0E9E1FAE10C94CA25DC0128014C
:103436001696AD90BC901797F701808191811296F0
:10344600ED91FC9113971896CD91DC9119972197E0
:10345600F7FF02C0E1E0F0E0CA0DDB1D188269014A
:10346600A1E0B0E08F01021B130B4C01F2E08F22AA
:103476009924052C000C66087708CE018A199B0949
:10348600CA15DB0519F1411551056105710589F06C
:10349600CB01BA01A30192010E94A324CA01A62F5F
:1034A600B72F605D6A9341E0C41AD108A901BC0137
:1034B600E4CF98012C0D3D1D121613064CF31C1477
:1034C6001D0434F48114910419F702C080E090E0E1
:1034D600AB2B31F4F701208131812F7E208331839C
:0A34E600CDB7DEB7E0E10C94E3255A
:1034F000CF9388E591E89F938F930E9429264FEF01
:1035000062E070E68CE792E60E943B284FEF61E0B4
:1035100071E687E792E60E943B2882E0809366048A
:103520002FE739EA93E0215030409040E1F700C0A6
:103530000000809365042FE738E381E0215030409C
:103540008040E1F700C0000084E0809345040F90C4
:103550000F900E948428882339F00E94DB28682F6E
:1035600087E792E60E94C22687E792E60E94B62885
:10357000882379F30E947E28882359F387E792E60F
:103580000E94F627C82F0E948727CA3011F78AE0C9
:103590000E9487279FE728E331E091502040304088
:0E35A000E1F700C000000E94281CCF910895A2
:1035AE000F931F93CF93DF93EA0140385105D4F068
:1035BE0020E030E040E05FE70E94D1289E012F57C7
:1035CE003109203831056CF120E030E040E05FE752
:1035DE000E94D128CE5FD109C038D1051CF1CFE7AA
:1035EE00D0E020C042385F4FECF420E030E040E8FD
:1035FE005CE00E94D1289E012A593F4F22384FEF9E
:10360E0034077CF420E030E040E85CE00E94D128F2
:10361E00C453DF4FC2382FEFD20724F4C2E8DFEFD6
:10362E0001C0E9019E0121583F4F8901330F220B42
:10363E00330BA9019801E7E1220F331F441F551FD9
:10364E00EA95D1F70E94D128DF91CF911F910F916A
:02365E000895CD
:10366000A2E0B0E0E6E3FBE10C94CC254C016B0159
:10367000FB012281338164807580808191818983FF
:103680009A83A680B78037FD03C08D7F89839A8394
:10369000FA014081518162817381CE0101967C01E2
:1036A00008E010E09301C6010E94131A298124FF4B
:1036B00006C00197F501E80FF91F20E32083298157
:1036C00023FF06C00197F501E80FF91F20E22083D0
:1036D00009811A81F6014085518541505109481BE5
:1036E000590BB501680F791F9301C4010E942D2069
:1036F0009C01F4018081918190FF06C0F6018281D6
:103700009381821793070CF4C9012296EEE00C9482
:02371000E525AD
:1037120081EB95E80E945F2480E694E80E945F2492
:1037220085ED95E80E94CD1E81EE95E80E94CD1EA2
:103732008EEE95E80E94CD1E80E196E80E94CD1E95
:103742008BE296E80E94CD1E8EE596E80E94CD1E81
:1037520081E996E80E94CD1E83EC96E80E94CD1E78
:103762008CE495E80E94CD1E8CE595E80E94CD1E62
:1037720084E795E80E94CD1E8FE895E80E94CD1E51
:1037820080E00E94A51385EE96E80E94CD1E8BE78D
:1037920091E80E94CD1E8FEA95E80E945F242FE7F0
:1037A20088E391E0215080409040E1F700C00000A2
:0237B200089578
:1037B40040E068ED80E690E00E94C92840E068EDB2
:1037C40081E690E00E94C92840E068ED85E690E03B
:1037D4000E94C92840E068ED88E790E00E94C9286B
:1037E4004CE068ED88E690E00E94C92840E068ED6E
:1037F40089E690E00E94C92840E068ED80E790E007
:103804000E94C92840E068ED8CE790E00E94C92836
:1038140040E068ED82E690E00E94C92840E068ED4F
:1038240083E690E00E94C92840E068ED84E690E0D9
:103834000E94C92840E068ED80E890E00E94C92811
:0C384400E0E6F0E0858181FFFDCF0895F3
:10385000CF9389E391E80E945F2461E471E88CE7EB
:1038600092E60E947B220AC00E948A28882331F0B7
:103870008CE792E60E94F6270E94DE288CE792E60B
:103880000E94B6288111F0CFC0E01FC00E9484289A
:10389000882339F00E94DB28682F87E792E60E9490
:1038A000C22687E792E60E94B628882379F30E9411
:1038B0007E28882359F387E792E60E94F627C1E025
:1038C0008A3009F0C0E00E948727CC23F9F22FE765
:1038D00088E391E0215080409040E1F700C0000073
:0438E000CF910895E7
:1038E4008F929F92AF92BF92CF92DF92EF92FF920C
:1038F4000E94310E4B015C010E94CA2724E036E588
:103904004AE150E40E94432823E333E948E853E4BE
:103914000E9443289B01AC0164E076E58AE190E4CF
:103924000E94CD289B01AC0160E070E080E89FE339
:103934000E94422828E539E348EA50EC0E94B80581
:103944006B017C01C501B4010E94901E20E030E0AF
:1039540048EC52E40E94CD28A70196010E94D12888
:10396400FF90EF90DF90CF90BF90AF909F908F909B
:023974000895B4
:103976000F931F93CF93DF93DB012D913C9111970A
:1039860030FF25C016964D915C91179714962D9190
:103996003C9115974217530778F41296ED91FC91D6
:1039A6001397808312962D913C9113972F5F3F4F6B
:1039B60012962D933C93139716962D913C9117973B
:1039C6002F5F3F4F16962D933C93179715C01C9665
:1039D600ED91FC911D97309719F48FEF9FEF0CC076
:1039E6008B01EC010995892BC1F7F8018681978136
:1039F600019686839783CE01DF91CF911F910F9118
:023A0600089521
:103A0800EF92FF920F931F93CF93DF930F92CDB74F
:103A1800DEB769838A01E22E60E00E94F323F82E64
:103A2800882369F161E0CE0101960E948123F82E76
:103A3800811104C083E08093040921C0E0E0F9E02B
:103A480087818160878381E08483858185FD0AC0C1
:103A5800858182FD07C0858183FD04C085818370CF
:103A6800833099F70E946B27882329F083E080939D
:103A78000409F12C04C06E2DC8010E942C238F2D3F
:103A88000F90DF91CF911F910F91FF90EF900895C4
:103A9800A2E0B0E0E2E5FDE10C94CC255C016B010D
:103AA800FB01228133818480958080819181898383
:103AB8009A836680778037FD03C08D7F89839A83D8
:103AC800FA014081518162817381CE0101967C01A6
:103AD8000AE010E09401C6010E94131A09811A81B4
:103AE800F6014085518541505109481B590BB301D6
:103AF800680F791F9401C5010E942D209C01F501D2
:103B08008081918190FF06C0F6018281938182179E
:0E3B180093070CF4C9012296EEE00C94E5250B
:103B2600CF93DF9384E391E80E945F24C0E00E9474
:103B36008428882339F00E94DB28682F87E792E6DD
:103B46000E94C22687E792E60E94B6288823C1F023
:103B56000E947E28882389F087E792E60E94F6274E
:103B6600D82F0E948727DA3041F4CF5FC13029F47D
:103B760084E391E80E945F24DACFC230C1F602C026
:103B8600C230A9F68AE00E9487272FE78AE196E0ED
:103B9600215080409040E1F700C00000DF91CF91B6
:023BA600089580
:103BA8001F920F920FB60F9211242F933F934F93AA
:103BB8005F936F937F938F939F93AF93BF93EF938D
:103BC800FF937A9B05C0E091B162F091B2620995CA
:103BD8007D9B05C0E091AF62F091B06209957C9B36
:103BE80005C0E091AD62F091AE620995799B05C080
:103BF800E091A362F091A46209958FEF8FB9FF91CC
:103C0800EF91BF91AF919F918F917F916F915F914C
:103C18004F913F912F910F900FBE0F901F901895C5
:103C2800CF93DF93EC0188E897E80E945F248DE941
:103C380097E80E945F2483ED97E80E945F24CE01F5
:103C48000E945F2467EE77E88CE792E60E947B2269
:103C5800BE018CE792E60E947B220AC00E948A2855
:103C6800882331F08CE792E60E94F6270E94DE282E
:103C78008CE792E60E94B6288111F0CF2FE78AE1FF
:103C880096E0215080409040E1F700C000000E947B
:0C3C9800931D0E949527DF91CF910895A5
:103CA400CF93DF93EC0188E897E80E945F248DE9C5
:103CB40097E80E945F2486EF97E80E945F24CE0174
:103CC4000E945F246CE078E88CE792E60E947B22F5
:103CD400BE018CE792E60E947B220AC00E948A28D9
:103CE400882331F08CE792E60E94F6270E94DE28B2
:103CF4008CE792E60E94B6288111F0CF2FE788E383
:103D040091E0215080409040E1F700C000000E9403
:0C3D1400931D0E949527DF91CF91089528
:103D2000E89409C097FB3EF4909580957095619555
:103D30007F4F8F4F9F4F9923A9F0F92F96E9BB270B
:103D40009395F695879577956795B795F111F8CF87
:103D5000FAF4BB0F11F460FF1BC06F5F7F4F8F4FF2
:103D60009F4F16C0882311F096E911C0772321F0E8
:103D70009EE8872F762F05C0662371F096E8862F80
:103D800070E060E02AF09A95660F771F881FDAF7D7
:0A3D9000880F9695879597F908951E
:103D9A00FF920F931F93CF93DF938C0181E591E8F4
:103DAA000E945F24C8010E945F24B8018CE792E652
:103DBA000E947B22F12C11C08CE792E60E94B62861
:103DCA00882371F00E948A28882351F08CE792E6B2
:103DDA000E94F6270E94DE28F394E801CF0DD11D38
:103DEA0088818111E9CF2FE788E391E02150804053
:103DFA009040E1F700C000000E94801FDF91CF9140
:083E0A001F910F91FF90089534
:103E1200A2E8B0E0EFE0FFE10C94CE255C014A019C
:103E2200CF57DF4F68837983C158D040C12CD12C42
:103E3200CF57DF4FE881F981C158D0408081882374
:103E4200E9F07401860120E830E0AE014F5F5F4F78
:103E5200BE016F577F4FC5010E94330C8C0D9D1D13
:103E62008C159D054CF48FE490E080930060909354
:103E720001608FEF9FEF03C06C01DACFC601CE570E
:083E8200DF4FECE00C94E72592
:103E8A001F920F920FB60F9211242F933F934F93C5
:103E9A005F936F937F938F939F93AF93BF93EF93A8
:103EAA00FF938091430180FF07C0E091BD62F091CA
:103EBA00BE62309709F009958091430181FF07C0DE
:103ECA00E091BB62F091BC62309709F0099583E0FA
:103EDA0080934301FF91EF91BF91AF919F918F9191
:103EEA007F916F915F914F913F912F910F900FBEEC
:063EFA000F901F901895C7
:103F0000CF93DF9384E391E80E945F24C0E00E9496
:103F10008428882339F00E94DB28682F87E792E6FF
:103F20000E94C22687E792E60E94B628882389F07D
:103F30000E947E28882351F087E792E60E94F627A8
:103F4000D82F0E948727DA3009F4CF5FC130F9F605
:103F500002C0C130E1F68AE00E9487272FE788E39C
:103F600091E0215080409040E1F700C00000DF91D7
:043F7000CF91089550
:103F7400A0E1B0E0E0ECFFE10C94D425FB01BA0130
:103F8400AE014F5F5F4F7A0140E1D7011D924A9520
:103F9400E9F742E051E049835A838B839C83F7FF1E
:103FA40009C08FE490E080930060909301608FEFEC
:103FB4009FEF14C0A9018C013197ED83FE83C701E3
:103FC4000E9441264F8158852D813E814217530717
:103FD40008F49A01F801E20FF31F10826096E6E0FC
:043FE4000C94ED2527
:103FE8001F920F920FB60F9211242F933F934F9366
:103FF8005F936F937F938F939F93AF93BF93EF9349
:10400800FF93599B05C0E091B562F091B66209959E
:10401800589B05C0E091B362F091B46209955A9B30
:1040280005C0E091A562F091A66209958FEF8BB962
:10403800FF91EF91BF91AF919F918F917F916F9178
:104048005F914F913F912F910F900FBE0F901F904E
:024058001895B9
:10405A00A0E0B0E0E3E3F0E20C94CE256C015B0152
:10406A007A01E901480181E08822992400FD03C010
:10407A004217530750F0A701B501C6010E945F25F8
:10408A00EC16FD0610F0C70117C08E010E191F09A4
:10409A000115110541F0B60180E290E00E94BB1CB7
:1040AA0001501109F5CF8114910429F4A701B50132
:1040BA00C6010E945F25CE01CDB7DEB7ECE00C94B5
:0240CA00E725E8
:1040CC000E947828882339F00E94D528682F8CE725
:1040DC0092E60E94C2260E948428882339F00E940E
:1040EC00DB28682F87E792E60E94C22687E792E6D4
:1040FC000E94B628882351F00E947E28882331F034
:10410C0087E792E60E94F6270E94D8288CE792E671
:10411C000E94B628882351F00E948A28882331F007
:0E412C008CE792E60E94F6270E94DE28089596
:10413A001F920F920FB60F9211242F933F934F9312
:10414A005F936F937F938F939F93AF93BF93EF93F5
:10415A00FF93189B05C0E091A962F091AA620995A4
:10416A00199B05C0E091A762F091A86209958FEFAB
:10417A0083B9FF91EF91BF91AF919F918F917F91F9
:10418A006F915F914F913F912F910F900FBE0F90BA
:04419A001F901895C5
:10419E001F920F920FB60F9211242F933F934F93AE
:1041AE005F936F937F938F939F93AF93BF93EF9391
:1041BE00FF93BE9B05C0E091AB62F091AC62099596
:1041CE00BD9B05C0E091A162F091A26209958FEFAF
:1041DE0087BBFF91EF91BF91AF919F918F917F918F
:1041EE006F915F914F913F912F910F900FBE0F9056
:0441FE001F90189561
:10420200CF93DF93CDB7DEB72697CDBFDEBF85EF65
:1042120089838091DB628A8342E0BE016F5F7F4FB8
:1042220086E70E94702682EF8B838091DA628C830C
:1042320042E0BE016D5F7F4F86E70E94702684EFE9
:104242008D838091D9628E8342E0BE016B5F7F4F86
:1042520086E70E9470262696CDBFDEBFDF91CF9102
:024262000895BD
:104264001F920F920FB60F9211242F933F934F93E7
:104274005F936F937F938F939F93AF93BF93EF93CA
:10428400FF938091060B80FF0AC0E091B762F09122
:10429400B862309709F0099581E08093060BFF918D
:1042A400EF91BF91AF919F918F917F916F915F91AA
:1042B4004F913F912F910F900FBE0F901F90189523
:1042C4001F920F920FB60F9211242F933F934F9387
:1042D4005F936F937F938F939F93AF93BF93EF936A
:1042E400FF938091160B80FF0AC0E091BF62F091AA
:1042F400C062309709F0099581E08093160BFF9115
:10430400EF91BF91AF919F918F917F916F915F9149
:104314004F913F912F910F900FBE0F901F901895C2
:1043240084EF96E80E945F2480E694E80E945F246C
:104334008DE097E80E945F2460E277E88CE792E6DC
:104344000E947B220AC00E948A28882331F08CE7CD
:1043540092E60E94F6270E94DE288CE792E60E94ED
:10436400B6288111F0CF2FE788E391E021508040F7
:0E4374009040E1F700C000000E94931D0895E4
:104382000E94892488F09F5798F0B92F9927B75136
:10439200B0F0E1F0660F771F881F991F1AF0BA95E7
:1043A200C9F714C0B13091F00E945E28B1E00895BF
:1043B2000C945E28672F782F8827B85F39F0B93FB1
:1043C200CCF3869577956795B395D9F73EF490959A
:0E43D2008095709561957F4F8F4F9F4F089596
:1043E0000F931F93CF93DF938C010F5F1F4FFC013F
:1043F0008081FB0124853585232B11F0EB0109C059
:104400008FEF9FEF17C00995892BD1F7F8018191A4
:104410008F01EC85FD85BE018111F5CF8AE00995FC
:1044200021E030E0892B11F420E030E08827992743
:0E443000821B930BDF91CF911F910F91089586
:10443E00E0E0F8E083E896E080879187158280ECD3
:10444E00868383E08783138614861686158688EF07
:10445E0098E28093C5629093C66289EF98E280934A
:10446E00C3629093C4628AEF98E28093C162909384
:10447E00C2621092C7621092C862E091D362F0914C
:0C448E00D46287E392E680839183089556
:10449A00DC01ED91FC91119780818A3221F080E054
:1044AA0090E03AE00EC03196ED93FC93DB01ED917A
:1044BA00FC911197CF0102968D939C9380819181F3
:1044CA000895ED91FC911197208120532A3068F4C8
:1044DA00389FA001399F500D1124CA01820F911DE6
:0C44EA003196ED93FC931197ECCF0895F0
:1044F600CF93DF93FC01EB0188819481492F50E033
:104506004F5F5F4F238130E042175307D9F088236E
:10451600C9F070E0A081B181A90FB11D8C9394817F
:104526009F5F94837F5FDE01A70FB11D8C91492F9A
:1045360050E04F5F5F4F238130E04217530711F081
:0A4546008111E8CFDF91CF910895B5
:104550001F920F920FB60F9211242F933F934F93F8
:104560005F936F937F938F939F93AF93BF93EF93DB
:10457000FF9382E080930D06E0919F62F091A0622C
:10458000309709F00995FF91EF91BF91AF919F91FD
:104590008F917F916F915F914F913F912F910F90EC
:0845A0000FBE0F901F9018954B
:1045A8001F920F920FB60F9211242F933F934F93A0
:1045B8005F936F937F938F939F93AF93BF93EF9383
:1045C800FF9381E080930D06E0919D62F0919E62D9
:1045D800309709F00995FF91EF91BF91AF919F91A5
:1045E8008F917F916F915F914F913F912F910F9094
:0845F8000FBE0F901F901895F3
:104600001F920F920FB60F9211242F933F934F9347
:104610005F936F937F938F939F93AF93BF93EF932A
:10462000FF93E091B962F091BA62309709F0099571
:1046300081E080935301FF91EF91BF91AF919F91E2
:104640008F917F916F915F914F913F912F910F903B
:084650000FBE0F901F9018959A
:1046580020E2209305096623D1F0A82FB92F90E016
:10466800E0E0F9E022E0858185FD17C0858182FDC3
:1046780007C0858183FD04C085818370833099F7E5
:1046880080858D939F5F691711F02483ECCF87E0B5
:104698008093040908952483E6CF80858D939F5FD6
:0646A8006913F9CFF4CF05
:1046AE00A0E0B0E0EDE5F3E20C94D0257C01FB0137
:1046BE00EA01C901A280B380C480D5800081118136
:1046CE00209711F4CAE6D2E6009719F4CE010E94A3
:1046DE00A327B7FC04C0A816B90608F4C5019601B5
:1046EE00AC01BE01C7010E942D20CDB7DEB7EAE0B6
:0446FE000C94E9250A
:10470200662309F1DC016150262F30E02F5F3F4F15
:10471200280F391FE0E0F9E09D919087958195FD82
:104722000AC0958192FD07C0958193FD04C09581D1
:104732009370933099F7958194FD07C0A217B30740
:0E47420059F781E0089581E0089580E0089520
:10475000E0E2F8E086E191E080879187158280ECC5
:10476000868383E0878313861486168615868BEFEF
:1047700098E28093CD629093CE628CEF98E2809322
:10478000CB629093CC628DEF98E28093C962909354
:0C479000CA621092CF621092D0620895AD
:10479C00E0E0F2E0108A118A128A138A8EE4848B8C
:1047AC00158A10A610A211A212A213A214A215A26D
:1047BC0016A217A211A617A610AA85E081AB12AA01
:1047CC0013AA14AA15A616A612A613A614A615AA01
:0A47DC0016AA17AA10AE80E0089597
:1047E6009091050993709330E1F0880F682B6093E0
:1047F6000709E0E0F9E0858185FD0AC0858182FD33
:1048060007C0858183FD04C085818370833099F755
:104816000E946B27882339F083E08093040980E0A7
:0A482600089580E0089581E00895F0
:10483000990F0008550FAA0BE0E8FEEF16161706B1
:10484000E807F907C0F012161306E407F50798F019
:10485000621B730B840B950B39F40A2661F0232B32
:10486000242B252B21F408950A2609F4A140A695AE
:084870008FEF811D811D0895E9
:10487800CF93DF93EC010E94B1280E94CA270E94BF
:10488800492868830E94721C20E030E040E251E42D
:104898000E94CD280E94C1216B830E94D5270E94C7
:1048A800C12169830E9490288A83CE010E94FA1749
:0648B800DF91CF9108958D
:1048BE00CF92DF92FF920F931F93CF93DF936C01F2
:1048CE00F12C09C00E947E28882341F0F8018081D6
:1048DE000E948727F394E601CF0DD11D8E018881AA
:1048EE008111F0CFDF91CF911F910F91FF90DF904B
:0448FE00CF900895BA
:1049020057FD9058440F551F59F05F3F71F047957E
:10491200880F97FB991F61F09F3F79F08795089563
:10492200121613061406551FF2CF4695F1DF08C082
:10493200161617061806991FF1CF8695710561059F
:044942000894089538
:10494600A1E21A2EAA1BBB1BFD010DC0AA1FBB1F8D
:10495600EE1FFF1FA217B307E407F50720F0A21BFF
:10496600B30BE40BF50B661F771F881F991F1A946C
:1049760069F760957095809590959B01AC01BD0196
:04498600CF010895C0
:10498A008AE29BE80E9409280E9485268FE493EC1C
:10499A000197F1F700C000000E9475148091DB6254
:1049AA0081788093DB6285E28093D96281E080938B
:1049BA00DA620E94012182E49BE80E94092881E0D0
:0249CA0008954E
:1049CC00CF93DF93EC0190E0E92FF0E0EE0FFF1FA7
:1049DC00EF5DFD498081811102C081810EC0A881EB
:1049EC00B9812C91821305C091811196A883B9834A
:1049FC0001C09F5F9B3040F3892FDF91CF910895C9
:104A0C008091A80486FF16C080E28093A504809153
:104A1C00D1629091D26281608093D1629093D26284
:104A2C008091D1629091D2628F7E8093D16290936B
:0C4A3C00D262089580E28093A6040895E1
:104A480089342DE0920710F088E49DE0883027E053
:104A5800920710F488E097E0BC016850774080E046
:104A680090E00E94901E2BEB3FE040E85DE30E943F
:0C4A7800D1280E94C12184E6861B08950D
:104A8400E0E4F1E081818111FDCFE0E4F1E08FEF1A
:104A940093E084879587108611868287938781E0C7
:104AA4008783128281898111FDCFE0E4F1E081E006
:0A4AB400828B89E4808B80E0089576
:104ABE00A0E0B0E0E5E6F5E20C94D2256C01EB0146
:104ACE008A017B01E40EF51ECE15DF0541F08991BA
:104ADE00B601082E000C990B0E94BB1CF5CFC80125
:0A4AEE00CDB7DEB7E8E00C94EB252D
:104AF800CF93DF9300D0CDB7DEB78091D9628C7F9A
:104B080081608093D96294EF99838A8342E0BE01E1
:104B18006F5F7F4F86E70E9470260F900F90DF919E
:044B2800CF9108958C
:104B2C00E0E0F6E01182128213821482168613865C
:104B3C00148681E0808780E481878FEF85838FEFF7
:104B4C009FE0848B958B128A138A83E0808380E0AC
:024B5C000895BA
:104B5E000E9435150E9496250E94DA1B0E94CE23D4
:104B6E000E9442250E945D270E94D6260E94E926B9
:104B7E000E941F220E94A8230E941B280E94B12778
:024B8E00089588
:104B90002F923F924F925F926F927F928F929F924D
:104BA000AF92BF92CF92DF92EF92FF920F931F933B
:104BB000CF93DF93CDB7DEB7CA1BDB0BCDBFDEBF14
:024BC000099456
:104BC2002A88398848885F846E847D848C849B849B
:104BD200AA84B984C884DF80EE80FD800C811B81A9
:104BE200AA81B981CE0FD11DCDBFDEBFED010895DF
:104BF200A0E0B0E0EFEFF5E20C94D825AE014B5FF8
:104C02005F4FFA0161917191AF01E091D362F0912E
:104C1200D462808191810E944126E2E00C94F125C8
:104C2200A0E0B0E0E7E1F6E20C94D825AE014B5FDC
:104C32005F4FFA0161917191AF01E091D362F091FE
:104C4200D462808191810E944126E2E00C94F12598
:104C5200A0E0B0E0EFE2F6E20C94D825AE014B5FA3
:104C62005F4FFA0161917191AF01E091D362F091CE
:104C7200D462808191810E944126E2E00C94F12568
:104C8200A2E0B0E0E7E4F6E20C94D6258C01498379
:104C92005A83AE014F5F5F4F0E94091FF8012081C6
:104CA20024FF02C08FEF9FEF2296E4E00C94EF25E1
:104CB2000E94AF250E94792786E095E20E94A228F1
:104CC2008AE996E20E94AC288EEA96E20E94A72820
:0E4CD20085E59BE80E9409280E94890FFDCF0E
:104CE0001F93CF93DF93EB01142F60E00E94F32317
:104CF000882339F0612FCE010E94812393E09093A5
:0A4D00000409DF91CF911F9108957F
:104D0A00CF93DF9300D0CDB7DEB780EE898386EBF1
:104D1A008A8342E0BE016F5F7F4F86E70E9470265A
:0A4D2A000F900F90DF91CF910895D4
:104D34008091896290918A62A0918B62B0918C6219
:104D44000196A11DB11D8093896290938A62A093FC
:084D54008B62B0938C6208959C
:104D5C008091856290918662A0918762B091886201
:104D6C000196A11DB11D8093856290938662A093DC
:084D7C008762B093886208957C
:104D8400FC014481242F30E02F5F3F4F838190E06A
:104D94002817390741F0A081B181A40FB11D6C938C
:084DA40084818F5F8483089570
:104DAC00E0E0FBE08FEF9FEF8487958712861386F8
:104DBC0086E08183108681E1848381E0858316827D
:064DCC00118680830895AA
:104DD200E0E1FBE080EA9FE08487958712861386F4
:104DE20086E081831086148281E085831682118693
:044DF200808308951D
:104DF600A0E0B0E0E1E0F7E20C94D825AE01475F11
:104E06005F4F6F8178858D819E810E946528E2E0E3
:044E16000C94F125E2
:104E1A00092E0394000C11F4882352F0BB0F40F4BE
:104E2A00BF2B11F460FF04C06F5F7F4F8F4F9F4FFE
:024E3A000895D9
:104E3C00E0E0F6E0808781E082870E94C528882325
:104E4C00E1F3E0E0F6E08089918921E0258708957F
:104E5C0082E00E941E279F938F938FE398E89F9385
:104E6C008F930E9411260F900F900F900F90089522
:104E7C00DB018F939F930E94E027BF91AF91A29F7C
:104E8C00800D911DA39F900DB29F900D112408953C
:104E9C00A29FB001B39FC001A39F700D811D11246F
:0E4EAC00911DB29F700D811D1124911D08955E
:104EBA0043E068ED80E590E00E94C92840E068ED93
:0C4ECA0081E590E00E94C92880E0089576
:104ED600809105098C7141F490910509937081E0E8
:0C4EE600933019F080E0089581E00895F9
:104EF2000E942328E0E0F9E084E0808381E082835D
:0C4F02009DEF95839FE0968383830895C4
:104F0E00CF93C82F0E947E28882331F0E0E0F8E08E
:0C4F1E00948190649483C283CF91089525
:104F2A008BE791E80E94CD1E2FE788E391E021509C
:0C4F3A0080409040E1F700C000000895A6
:104F4600FC01AF014F5F5F4F2081222311F0FA0170
:0C4F5600F8CF9F01281B390BC9010895FA
:104F620040E068ED80E191E00E94C928E0E1F1E0D3
:0A4F720012821382789480E0089503
:104F7C00CF93C82F0E947E288823E1F3C0930208A8
:084F8C0080E090E0CF91089550
:104F94000E94D4150E94901E20E030E048EC52E4B8
:064FA4000E94CD280895D3
:104FAA000E94BB110E94901E20E030E040E85AE3C4
:064FBA000E94D1280895B9
:104FC0000E944E27A59F900DB49F900DA49F800D29
:064FD000911D112408955B
:104FD600EC010E94FF280E94FE28CE010E940029B3
:064FE600CE010E94EB2841
:104FEC00FC019381A081B181A90FB11D8C919F5FB0
:044FFC0093830895FE
:105000000E9492210E94952789E697E80E9409282C
:02501000089501
:10501200E091D362F091D462608171810E94F021AB
:025022000895EF
:105024009C01215631092A31310510F48F759927D5
:025034000895DD
:10503600E0EBF0E0148285E88083128280E0089538
:10504600E0E0F4E08AE0818388E0838B828B089538
:10505600B7FF0C94E0270E94E027821B930B08956C
:105066009C01215431092A31310508F480620895E2
:0E507600FC01608371834283138214820895CB
:0E5084005058BB27AA270E94AC190C940D2788
:0E5092000E94C1216894B1110C945F2808950A
:0E50A00000240A94161617061806090608952D
:0E50AE0000240A94121613061406050608952F
:0E50BC00E894BB2766277727CB0197F9089564
:0E50CA009A01AB016FEF7FE70E94BA1F0895B5
:0C50D800E0E4F1E08081816080830895B5
:0C50E400E0E4F1E080818E7F808308957D
:0C50F00080910408881F8827881F0895FD
:0C50FC008091040885FB882780F9089546
:0C51080080912408881F8827881F0895C4
:0C5114008091240885FB882780F908950D
:0C51200082E00E941E270E9424250895B2
:0C512C0097F99F6780E870E060E008954C
:0C513800EE0FFF1F0590F491E02D09948C
:0A5144008093B7629093B86208955B
:0A514E008093B9629093BA6208954D
:0A5158008093BF629093C062089537
:0A5162000E947C250E94F9160895B2
:0A516C00FC0183819481891B0895E2
:0A5176000E94182408F481E0089557
:0A5180000E94182408F48FEF089530
:08518A0080910D06817008956B
:08519200FC0164BF4083089595
:08519A000E946B180C940D2714
:0851A2000E94DA180C940D279D
:0651AA0080910008089549
:0651B0008093020808953F
:0651B6008091200808951D
:0651BC0080932208089513
:0651C2000E94891B089504
:0651C8009FEF80EC08954A
:0451CE000C9400003D
:0451D2009F77089526
:0451D6000E9498009B
:0251DA00089536
:0251DC00089534
:0251DE00089532
:0251E000089530
:0251E20008952E
:0251E40008952C
:0251E60008952A
:0251E800089528
:0251EA00089526
:0251EC00089524
:0251EE00089522
:0251F000089520
:0251F20008951E
:0251F40008951C
:0251F60008951A
:0251F800089518
:0251FA00089516
:0251FC00089514
:0251FE00089512
:0252000008950F
:1052020068076C094C836A9074A07AC00080688831
:0652120000846C820081A3
:10521800030000000000000000000000BE2700009E
:0852280000000000DCCFD135CD
:085230000000000000C0153F62
:085238000000803F0000C03FB0
:07524000286E756C6C29005B
:06524700286E696C2900CD
:02524D00D56228
:02000004008278
:090000000000000000D00800001F
:00000001FF
