:100000000C9469000C9449270C9449270C944927B7
:100010000C9449270C94A71D0C9462210C94492739
:100020000C94FF1E0C9449270C9449270C944927E3
:100030000C9449270C9449270C94941F0C94C41FCA
:100040000C9449270C9449270C9449270C94492770
:100050000C9449270C9449270C9449270C94492760
:100060000C94361C0C9449270C9436210C940A21CC
:100070000C9449270C94561E0C9449270C9449273C
:100080000C9449270C9449270C94311F0C94492750
:10009000930EB30EB60EBE0EDC0E090F270F370FF0
:1000A0003A0F4E0F560F620F60006221806221628C
:1000B00047004EC6624762528062526277004EEC41
:1000C000627762D38062D362D5004F1162D562DC61
:1000D0008000809101108F7C806080688093011087
:1000E00011241FBECFEFCDBFDFE7DEBFE8EAF0E0AF
:1000F00040E017C0B591A59135912591059107FD77
:100100000CC095918591EF01F92FE82F05900D9284
:10011000A217B307D9F7FE0104C01D92A217B307B7
:10012000E1F7E13DF40731F70E94BB240C944D2622
:04013000F894FFCF71
:1001340052783A200048574555493A20007379735C
:10014400206765742068776575690D0A000D0A5487
:10015400783A20000A496E697469616C697A696E3B
:100164006720524E327878332E2E2E0A4669726DED
:10017400776172653A20006D616320736176650D65
:100184000A006D6163207365742063682064727271
:10019400616E6765202564203020330D0A006D618F
:1001A400632073657420636820647272616E67658E
:1001B400202564203420340D0A006D6163207365AA
:1001C4007420636820737461747573202564206FD0
:1001D4006E0D0A006D61632073657420636820737B
:1001E4007461747573202564206F66660D0A000AB5
:1001F4000A436F6E6669677572696E6720524E3284
:1002040078783320466F7220414250206A6F696EBD
:100214000A002D2D2D2D2D2D2D2D2D2D2D2D2D2D5A
:100224002D2D2D2D2D2D2D2D2D2D2D2D2D2D2D2DFA
:100234002D2D2D2D2D2D2D2D2D2D2D2D2D2D2D2DEA
:100244002D2D2D2D2D2D2D2D2D2D2D2D2D2D2D2DDA
:100254002D2D2D2D2D2D2D2D2D0A006D6163207337
:10026400657420646576657569203730423344359A
:10027400374544303035414130420D0A006D6163E9
:10028400207365742064657661646472203236304C
:1002940043323242360D0A006D6163207365742067
:1002A400617070736B657920353031433331323985
:1002B40045333643304335363544444433313132A3
:1002C40038354338463533340D0A006D6163207385
:1002D4006574206E776B736B6579203643303730E5
:1002E400423132363532394638353644343632378F
:1002F40045354234323533353033350D0A006D61BE
:100304006320736574206172206F6E0D0A006D6145
:10031400632073657420727864656C61793120356B
:100324003030300D0A006D6163207365742072787B
:1003340032203132203932333330303030300D0A0C
:10034400006D61632073657420616472206F6E0DAB
:100354000A006D61632073657420647220340D0A91
:10036400000A000A0A436F6E6669677572696E67F0
:1003740020524E3278783320466F72204F544141D8
:10038400206A6F696E0A006D616320706175736520
:100394000D0A006D616320726573756D650D0A0049
:1003A4006D616320736574206465766575692030BA
:1003B4003030344133304230303233393136450D08
:1003C4000A006D61632073657420646576616464FA
:1003D400722030303030303030300D0A006D6163BF
:1003E4002073657420617070736B657920303030D0
:1003F40030303030303030303030303030303030F9
:10040400303030303030303030303030300D0A0061
:100414006D616320736574206E776B736B657920EF
:1004240030303030303030303030303030303030C8
:1004340030303030303030303030303030303030B8
:100444000D0A006D616320736574206170706B65C3
:1004540079204132363446353631343038444145DA
:1004640046443042444434413834313046414232C7
:1004740037330D0A006D61632073657420617070F9
:1004840065756920303030303030303030303030C5
:10049400303030300D0A000A0A4A6F696E696E679F
:1004A4002054544E2077697468204F5441410A0007
:1004B40054783A206D6163206A6F696E206F7461AD
:1004C400610A006D6163206A6F696E206F746161F7
:1004D4000D0A000A0A4A6F696E696E672054544E09
:1004E4002077697468204142500A0054783A206D9C
:1004F4006163206A6F696E206162700A006D6163D6
:10050400206A6F696E206162700D0A000A5072657C
:10051400737320627574746F6E20746F20747261CB
:100524006E736D69742064617461000A0A547261A7
:100534006E736D697474696E6720446174610A0036
:100544002D2D2D2D2D2D2D2D2D2D2D2D2D2D2D2DD7
:100554002D2D2D2D2D2D2D2D2D2D2D2D2D2D2D2DC7
:100564002D2D2D2D2D2D2D2D2D2D2D2D2D2D2D2DB7
:100574002D2D2D2D0A000A54783A206D61632074C4
:100584007820636E6620313020006D6163207478BA
:1005940020636E6620313020000A54783A206D6161
:1005A4006320747820756E636E6620313120006D8F
:1005B400616320747820756E636E6620313120008B
:1005C4006D616320676574207374617475730D0ABB
:1005D4000073797320736C65657020313830303066
:0205E4003000E5
:1005E60025640A000A416674657220313030302075
:1005F6004D6F6973747572652052656164696E67C3
:1006060073002D2D2D2D2D2D2D2D2D2D2D2D2D2DFB
:100616002D2D2D2D2D2D2D2D2D2D2D2D2D2D2D2D04
:100626002D2D2D2D2D2D2D2D2D2D2D2D2D2D2D2DF4
:100636002D2D2D2D2D2D2D2D2D2D2D2D2D2D2D2DE4
:100646002D2D2D2D2D2D2D2D2D00546865204D4140
:10065600582072656164696E67207761732025642E
:100666000A00546865204D494E2072656164696EC2
:1006760067207761732025640A0A00546865204D57
:100686004158206D61707320746F2025640A0054F0
:100696006865204D494E206D61707320746F20256A
:1006A600640A000A0A43757272656E742053656E99
:1006B600736F7220446174610A002D2D2D2D2D2D2E
:1006C6002D2D2D2D2D2D2D2D2D2D2D2D2D2D2D2D54
:1006D6002D2D2D2D2D2D2D2D2D2D2D2D2D2D2D2D44
:1006E6002D2D2D2D2D2D2D2D2D2D2D2D2D2D2D2D34
:1006F6002D2D2D2D2D2D2D2D2D2D2D2D2D2D2D2D24
:100706002D0A0052656C61746976652048756D69BD
:10071600646974793A2025752525200D0A004D6FE8
:100726006973747572653A2025752525200D0A00B2
:1007360050726573737572653A202575206850612D
:100746000D0A0054656D70657261747572653A20A4
:1007560025692043200D0A000A4A534F4E20466F52
:10076600726D61740D005061796C6F61643A207B23
:100776002074656D703A2025692C2068756D696452
:100786006974793A2025752C206D6F6973747572BA
:10079600653A2025752C2070726573737572653AFB
:1007A600202575207D0D0A0A005061796C6F616401
:1007B60020737472696E673A2025730A6E756D54DC
:1007C600783A2025640A00303132333435363738EA
:1007D60039414243444546000A576561746865726B
:1007E60020436C69636B204E4F5420696E697469AF
:1007F600616C697A65642070726F7065726C7921BC
:10080600000A496E74657261637469766520546581
:10081600726D696E616C20697320616374697665B7
:100826003A20636F6D6D616E647320737563682023
:100836006173202773797320666163746F727952CE
:1008460045534554272077696C6C006265207365B3
:100856006E7420746F2074686520524E3278783337
:1008660020616E6420726573706F6E736573207796
:10087600696C6C20626520617070656172206865C4
:1008860072652E000A5768656E2072656164792C60
:1008960020707265737320627574746F6E20746F46
:1008A600206A6F696E2054544E0A00544F444F3AE2
:1008B60020205772697465206C6F7720706F77659A
:0B08C600722074657374732E2E2E00D8
:1008D1000A496E697469616C697A696E6720424D73
:1008E100453238302E2E2E00424D453238302069A7
:0B08F1006E697469616C697A656400CF
:1008FC0057656C636F6D6520746F2074686520415B
:0A090C006772692D496F542E0A002E
:10091600A2E2B0E0E1E9F4E00C942C2429833A83C6
:100926004B835C8329013A01E89477F8411451041A
:100936006104710409F458C669877A878B879C8796
:100946007B018C0161157105A0E88A07AFE39A0760
:1009560009F44AC62D873E874F87588B4B015C01A9
:100966006B017C01E894F7F8B1E0CB16D104B0E84E
:10097600EB06BFE7FB0644F4E1E04E165104E0E85F
:100986006E06EFE77E064CF02D853E854F8558892D
:10099600C501B4010E94A52632C609851A852B8594
:1009A6003C8537FF4DC04114510410E861061BE435
:1009B60071060CF04AC04114510420E862062FE388
:1009C60072060CF470C0D301C20107E1B595A79574
:1009D600979587950A95D1F78F579109A109B1097E
:1009E60027E130E0281B390BD301C201022E04C0D7
:1009F600B595A795979587950A94D2F7AC01BD0151
:100A060004C0440F551F661F771F2A95D2F7441658
:100A160055066606770609F046C081709927AA270B
:100A2600BB2742E050E060E070E08A019B01081BB2
:100A3600190B2A0B3B0B0D831E832F83388737C078
:100A46001D821E821F82188608C022E030E040E028
:100A560050E02D833E834F8358874114510430E87C
:100A660063063FE7730619F5C114D10440E8E406AE
:100A76004FE3F40609F4B8C55CF0E980FA800B810F
:100A86001C8117FDB6C56D857E858F859889B7C58E
:100A9600E980FA800B811C8117FFABC56D857E85C9
:100AA6008F8598898AC01D821E821F8218864114EE
:100AB600510400E860060FE3700669F4E980FA80E5
:100AC6000B811C8117FF99C5A501940160E070E0B8
:100AD60080E89FE365C009811A812B813C8101155D
:100AE6001105210540E4340729F4A5019401C50147
:100AF600B401C2C089819A81AB81BC810097A105EE
:100B0600BF4359F409851A852B853C8537FD05C0F9
:100B1600C501B4010E94790F72C5C501B4010E94D6
:100B26004B27C114D104E104F10449F09501840175
:100B36003F730115110520483F4309F040C0098164
:100B46001A812B813C8137FF08C09B01AC0160E014
:100B560070E080E89FE30E942F2729853A854B8520
:100B66005C8557FF4CC530E8E31A3FE3F30A0D8175
:100B76001E812F813885C02AD12AE22AF32AC11480
:100B8600D104E104F10479F421E230E0209300601D
:100B9600309301609B01AC010E94A4269B01AC012D
:100BA6000E942F272CC52D813E814F8158852130EB
:100BB60031054105510509F022C5905820C5098522
:100BC6001A852B853C8537FF21C02D813E814F81BB
:100BD6005885232B242B252B59F481E290E0809312
:100BE600006090930160A5019401C501B401D4CFC2
:100BF6000D811E812F8138850130110521053105B2
:100C060071F420E030E040E85FEB0DC000E010E05A
:100C160020E83FE30D831E832F83388708C020E03A
:100C260030E040E85FE32D833E834F83588731E011
:100C36004316510461043DE473060CF497C048EF73
:100C4600C4164FEFD4064FE7E4064FE3F406BCF4B0
:100C5600E980FA800B811C8117FF4BC32AEC32EF27
:100C660049E451E76D817E818F8198850E94332703
:100C76002AEC32EF49E451E70E943327C0C408E06A
:100C8600C016D10400E8E0060FE3F00654F0E98050
:100C9600FA800B811C811E141F0410061106F4F243
:100CA60028C320E030E040E85FE30E94A4266B0101
:100CB6007C0120E03AEA48EB5FE30E9433274B01D0
:100CC6005C0120E735EA4CEE56E3C701B6010E9407
:100CD600332769837A838B839C8320E030E040E866
:100CE6005EE3C701B6010E9433279B01AC016BEAA4
:100CF6007AEA8AEA9EE30E94A426A70196010E9448
:100D060033279B01AC0160E070E080E09FE30E9426
:100D1600A4262B013C01A7019601C701B6010E943A
:100D260033279B01AC01C301B2010E9433272BE399
:100D36003AEA48EB5FE30E9433279B01AC016981E5
:100D46007A818B819C810E94A4266B017C019B0188
:100D5600AC01C501B4010E94A5266627707F69878C
:100D66007A878B879C87A501940120C2C114D10480
:100D760000E8E006F1046CF420E030E040E85BE4D3
:100D86000E9433276B017C0148EE5FEF6FEF7FEF28
:100D960003C040E050E0BA01D701C60117E1B5959E
:100DA600A795979587951A95D1F78F579109A10918
:100DB600B1098C019D01040F151F261F371F0D8BCE
:100DC6001E8B2F8B388FE894E7F8FF2446015701D6
:100DD6006894A7F81FE3B12A22E7C21624ECD206CC
:100DE6002CE1E206F104B4F037EDC31633EBD3067B
:100DF6003DE5E306F1049CF08D899E89AF89B88DA7
:100E06000196A11DB11D8D8B9E8BAF8BB88F90E87F
:100E1600A91AB10819861A861B861C8608C0E12CF9
:100E2600F12C8701E394E986FA860B871C870985EE
:100E36001A85000F111F000F111F09A31AA3F8012D
:100E4600EE59FD49E080F18002811381E98AFA8A30
:100E56000B8B1C8BA8019701C501B4010E94A42627
:100E6600698F7A8F8B8F9C8FA8019701C501B4017A
:100E76000E94A5269B01AC0160E070E080E89FE33C
:100E86000E942F276D8F7E8F8F8F98A39B01AC01B9
:100E9600698D7A8D8B8D9C8D0E94332769837A8329
:100EA6008B839C8349805A806B807C80442400EF2E
:100EB600502275016401F594E794D794C794CC2425
:100EC60010EFD122E894F5F86894F5F8D701C60139
:100ED600A05CBF4FC984DA84EB84FC84F5E1CC0CBA
:100EE600DD1CEE1CFF1CFA95D1F7C80ED91EEA1EB2
:100EF600FB1EA7019601C301B2010E9433279B0185
:100F0600AC01698D7A8D8B8D9C8D0E94A426698794
:100F16007A878B879C8729893A894B895C89C7019F
:100F2600B6010E94A4269B01AC01C501B4010E9432
:100F3600A426A30192010E9433279B01AC01698577
:100F46007A858B859C850E94A4262D8D3E8D4F8D9E
:100F560058A10E94332769877A878B879C872981C6
:100F66003A814B815C81CA01B9010E9433276B012A
:100F76007C0122E431EF43E55EE30E94332725E559
:100F860032E34CE65EE30E94A526A70196010E9485
:100F9600332725E033EA4BE85EE30E94A526A70146
:100FA60096010E9433272BEA3AEA4AEA5EE30E9458
:100FB600A526A70196010E94332727EB3DE64BEDB8
:100FC6005EE30E94A526A70196010E9433272AE91F
:100FD60039E949E15FE30E94A5264B015C01A701BF
:100FE6009601C701B6010E9433279B01AC01C501DA
:100FF600B4010E9433276B017C01A3019201698130
:101006007A818B819C810E94A52629853A854B850C
:101016005C850E943327A70196010E94A5266B01D5
:101026007C01A3019201C301B2010E943327698B9F
:101036007A8B8B8B9C8B20E030E040E450E40E945E
:10104600A526A70196010E94A5264B015C018824CE
:1010560020EF9222A5019401C301B2010E94332719
:101066002B013C0120E030E040E450E4C501B4012E
:101076000E94A42629893A894B895C890E94A42664
:101086009B01AC01C701B6010E94A42629813A81C1
:101096004B815C810E9433276B017C01A501940181
:1010A60069857A858B859C850E9433279B01AC01D7
:1010B600C701B6010E94A5264B015C019B01AC014C
:1010C600C301B2010E94A5266B017C01CC2430EF3E
:1010D600D32220E030E446E75FE3C701B6010E9471
:1010E600332769837A838B839C83A3019201C7018B
:1010F600B6010E94A4269B01AC01C501B4010E9461
:10110600A4262FE438E346E75FE30E9433274B012A
:101116005C0126EC33E246EF58EBC701B6010E94AC
:1011260033279B01AC01C501B4010E94A526E9A1A4
:10113600FAA1EE5AFD4920813181428153810E94F4
:10114600A5266B017C016D897E898F89988D0E9409
:10115600F41C4B015C0109A11AA1065A1D49D801CC
:101166004D905D906D907C90A701960169817A8182
:101176008B819C810E94A526A30192010E94A5262F
:10118600A50194010E94A5266627707F69877A8744
:101196008B879C87A50194010E94A426A301920136
:1011A6000E94A42629813A814B815C810E94A42653
:1011B6009B01AC01C701B6010E94A4264B015C014C
:1011C600CD84DE84EF84F888CC24B0EFDB22A7013F
:1011D60096016D857E858F8598890E94A42629852E
:1011E6003A854B855C850E9433272B013C012D8572
:1011F6003E854F855889C501B4010E9433279B015E
:10120600AC01C301B2010E94A52669837A838B8350
:101216009C83A701960169857A858B859C850E94AA
:101226003327962EA72EB82E892E6987798B182FED
:10123600092F262F372F482F592F69817A818B81C5
:101246009C810E94A5266B017C016D877E878F8716
:10125600988B81E0C816D104E10483E4F8060CF00B
:10126600FDCC2D853E854F855889211531054105D3
:101276005344E9F42CE33AEA48E353E369817A817B
:101286008B819C810E94A5262B013C01292D3A2D9C
:101296004B2D582DC701B6010E94A4269B01AC0117
:1012A600C301B2010E942227181694F5D7CCD701A4
:1012B600C601BF770197A641B344DCF42D853E8570
:1012C6004F855889211531054641534C09F5292D7D
:1012D6003A2D4B2D582DC701B6010E94A4269B011D
:1012E600AC0169817A818B819C810E941D27181629
:1012F6007CF020E632E442EA5DE06D817E818F81FA
:1013060098850E94332720E632E442EA5DE0B4CCB9
:10131600D701C601BF7781309105A105EFE3BE076E
:101326000CF46AC057E1B595A795979587955A9598
:10133600D1F78E5740E050E060E870E08A019B01EB
:1013460004C035952795179507958A95D2F7C00E4F
:10135600D11EE21EF31E26013701E89477F867E1F5
:1013660075946794579447946A95D1F71FE7411A85
:101376005108610871088FEF9FEFAFE7B0E0042CCA
:1013860004C0B595A795979587950A94D2F7809549
:101396009095A095B0959C01AD012C213D214E2143
:1013A6005F21E894E7F8FF246894E7F887E190E086
:1013B600841995092601370104C0759467945794DA
:1013C60047948A95D2F7ED84FE840F85188917FF16
:1013D60008C07094609450944094411C511C611C48
:1013E600711C692D7A2D8B2D982D0E94A426698754
:1013F600798B182F092F03C0412C512C32012981DA
:101406003A814B815C8169857989812F902F0E9471
:10141600A5264B015C01882420E8922220E032E7D1
:1014260041E35FE3C501B4010E9433276D877E87E0
:101436008F87988B29853989412F502FC501B40193
:101446000E94A4269B01AC0169817A818B819C81D3
:101456000E94A42628E132E741E35FE30E94332796
:101466006B017C012CE83EEB4FEB55E3C501B40163
:101476000E9433279B01AC01C701B6010E94A52635
:101486004B015C019B01AC016D857E858F8598893A
:101496000E94A5266B017C012D853E854F855889C6
:1014A6000E94A4269B01AC01C501B4010E94A4269A
:1014B60069837A838B839C83A7019601C701B60152
:1014C6000E9433274B015C012CE43BEB41E353E3E1
:1014D6000E9433272EE03AEE4DED55E30E94A426F6
:1014E600A50194010E94332725E533EB4AE858E32A
:1014F6000E94A526A50194010E94332721E63BE020
:1015060046E35BE30E94A426A50194010E943327CB
:101516002BEA3AEA4AE25EE30E94A526A501940177
:101526000E9433279B01AC01C701B6010E94A42685
:101536004B015C019B01AC01C701B6010E94332738
:101546006D877E878F87988B20E030E040E050E4FF
:10155600C501B4010E94A4269B01AC016D857E8560
:101566008F8598890E942F274B015C0129813A813A
:101576004B815C81C701B6010E94332729813A81DC
:101586004B815C810E94A5269B01AC01C501B4017B
:101596000E94A426A70196010E94A4269B01AC01E5
:1015A60060E070E080E89FE30E94A4269301820138
:1015B60047E1000F111F221F331F4A95D1F7060F6F
:1015C600171F281F391F0115110540E8240731058B
:1015D60024F4A2010E943A1902C0C901B8012D8162
:1015E6003E814F81588548CB60E070E080E89FE3FC
:1015F60006C060E070E0CB0102C0C501B401A2964E
:06160600E0E10C94452414
:10160C00AEE0B0E0ECE0FBE00C942D244C016B015F
:10161C0019821A828FEF9FEF8B839C831D821E820F
:10162C004F83588729873A87A12CB12CD6016D900E
:10163C007C90F301EA0DFB1D808181110FC0D60156
:10164C00ED93FC938081853209F0D3C13F01BFEF4C
:10165C006B1A7B0AF6016082718219C0853279F3AC
:10166C00B401082E000C990B0E941D1B4FEFA41AFD
:10167C00B40ADCCF8C32ACF08D32F9F489819A81CA
:10168C00816089839A833196D601ED93FC93D601C0
:10169C00ED91FC9180818B3269F789819A8184600C
:1016AC00F0CF803221F489819A818860EACF83322D
:1016BC0051F489819A818061E4CF803321F489814E
:1016CC009A818260DECFB701C6010E94AF208D8364
:1016DC009E8397FF0BC029813A81B1E02B27298388
:1016EC003A839195819591098D839E8389819A8105
:1016FC0080FF03C08D7F89839A83D601ED91FC9185
:10170C00119780818E3249F43196ED93FC93B70199
:10171C00C6010E94AF208B839C83C6010E94482384
:10172C00582ED601ED91FC918081082E000C990B5E
:10173C000E949526893609F443C084F4833609F453
:10174C0002C134F4853209F427C18136E1F030C18D
:10175C008436B1F188360CF4D9C02AC1803709F42B
:10176C009AC03CF48E3609F4BCC08F3609F461C0C3
:10177C001FC1853709F440C0883709F476C0833718
:10178C0009F016C1F3C0652D70E0A701CE010B96D0
:10179C000E940000892B09F426C1D601ED91FC9121
:1017AC001197CF0101968D939C932081AE01455FDB
:1017BC005F4FBE016F5F7F4FC4010E94000010C1DC
:1017CC00652D70E0970141E050E0CE010B960E9430
:1017DC004717892B09F407C1F60180819181019685
:1017EC0080839183AE01455F5F4FBE016F5F7F4F7A
:1017FC00C4010E948B15F4C0652D70E0970140E088
:10180C0050E0CE010B960E944717892B09F4EBC0D0
:10181C00D6018D919C91119701968D939C93AE015D
:10182C00455F5F4FBE016F5F7F4FC4010E94AE1BCF
:10183C00D7C0652D70E0970140E050E0CE010B96CB
:10184C000E944717892B09F4CEC0F6018081918143
:10185C00019680839183AE01455F5F4FBE016F5F40
:10186C007F4FC4010E949319BBC0652D70E0970196
:10187C0040E050E0CE010B960E944717892B09F4EB
:10188C00B2C0D601ED91FC911197CF0101968D93C9
:10189C009C9320811CC0970140E050E060EF70E009
:1018AC00CE010B960E944717892B09F49CC0F601B8
:1018BC00808191810196808391838B859C85892B76
:1018CC0029F420E030E041E752E684C028E7AE017D
:1018DC00455F5F4FBE016F5F7F4FC4010E948A114D
:1018EC007FC0A501400F511F652D70E09701CE01FF
:1018FC000B960E940000892B09F475C0D6018D91BE
:10190C009C91119701968D939C9373C0652D70E0FB
:10191C00A701CE010B960E940000892B09F463C02D
:10192C00D601ED91FC911197CF0101968D939C936B
:10193C002081AE01455F5F4FBE016F5F7F4FC401D9
:10194C000E9400004DC0B0E85B124DC0F6018081D2
:10195C009181019680839183D701ED91FC91119730
:10196C00CF0102968D939C93808120C0B0E85B12CE
:10197C003AC0F60180819181019680839183D701D1
:10198C00ED91FC911197CF0102968D939C93408120
:10199C00518120E030E01EC0B0E85B1224C0F6019B
:1019AC00208131812F5F3F4F208331838B870DC086
:1019BC0085E28B87D6016D927C9219821A821D82E8
:1019CC001E828FEF9FEF8B839C8321E030E0AE0172
:1019DC00455F5F4FBE016F5F7F4FC4010E94B9210D
:1019EC008A0D9B1D07C0F601808191810196808331
:0C19FC009183C5012E96EFE00C94462468
:101A08004F925F926F927F928F929F92AF92BF9206
:101A1800CF92DF92EF92FF92C0908D62D0908E624B
:101A2800E0908F62F0909062F594E794D794C79411
:101A38008AEFD81AE108F108C701B601959587958C
:101A48007795679595958795779567959B01AC01EF
:101A58000E94A0254B015C01E0E0F2E6A285B38577
:101A68009B01AC01012E1DE05595479537952795AB
:101A78001A95D1F7102D0E948D262B013C016894F0
:101A880012F875946794579447941694D1F7A085E3
:101A9800B185A70196010E948D26DC01CB01B59581
:101AA800A79597958795840D951DA61DB71D072E9B
:101AB80072E1B595A795979587957A95D1F7702D89
:101AC8009C01AD0130584F4F5F4FA681B7810E94EE
:101AD80042262B013C01032E3FE0759467945794EE
:101AE80047943A95D1F7302D41145104610471049B
:101AF80009F4CEC0A5019401012E1BE05595479528
:101B0800379527951A95D1F7102DA089B1890E948C
:101B18008D264B015C01A685B785A70196010E9419
:101B28008D26DC01CB01880F991FAA1FBB1F880EC9
:101B3800991EAA1EBB1ED501C401B595A7959795F8
:101B48008795B595A7959795879584849584092C4D
:101B5800000CAA08BB08540199248824880E991EF1
:101B6800AA1EBB1E072E7CE0B594A7949794879471
:101B78007A95D1F7702D8091916290919262A0919F
:101B88009362B0919462A5019401280F391F4A1FEE
:101B98005B1FABECB3EF0E949026805B9C439923BC
:101BA8005CF0660F771F881F991FA30192010E949E
:101BB800052369017A010AC0A30192010E94052345
:101BC80069017A01CC0CDD1CEE1CFF1CC701B601B3
:101BD800689412F896958795779567951694D1F736
:101BE8009B01AC010E94A0259B01AC01012E1DE0C8
:101BF80056954795379527951A95D1F7102DE0E01A
:101C0800F2E6A689B7890E948D264B015C01072E52
:101C18007CE0B594A794979487947A95D1F7702D22
:101C2800A701960156954795379527955695479557
:101C380037952795A489B5890E948D26DC01CB01AB
:101C4800072E7DE0B595A795979587957A95D1F755
:101C5800702DB501A401480F591F6A1F7B1F828987
:101C68009389092E000CAA0BBB0B840F951FA61F86
:101C7800B71F689413F8B595A79597958795169407
:101C8800D1F7BC01CD016C0D7D1D8E1D9F1D03C0BC
:101C980060E070E0CB01FF90EF90DF90CF90BF90B5
:101CA800AF909F908F907F906F905F904F90089526
:101CB8001F93CF93DF938091D1629091D26280FF7E
:101CC80021C08091D862843059F08B3079F081300E
:101CD80081F480E28093A50482E08093D86209C0F1
:101CE80083E08093D8620E94D42603C083E0809367
:101CF800D8628091D1629091D2628E7F8093D162B6
:101D08009093D262E091D8628E2F90E08C3091054A
:101D180008F0E7C0FC01E85BFF4F0C94FE2680E268
:101D28008093A5040E94DB180E942723811104C018
:101D38008EED97E80E946B2680E28093A60487E0E8
:101D480098E80E946B2681E598E80E946B268AE84D
:101D580098E80E946B2681E08093D862C2C00E94F6
:101D6800C81EBFC00E9443270E94622683E080935A
:101D7800D862B7C08091D7628F5F8093D762C0E284
:101D8800C093A60481E892E60E949E2261E872E66A
:101D980087E492E60E946B1487E492E60E94761C20
:101DA8000E94CE2684E08093D862C093A50499C08F
:101DB8008091856290918662A0918762B0918862D5
:101DC800843B9105A105B105E9F48091D76291E0C2
:101DD800803F08F490E020EF929F80191124811130
:101DE80004C083E08093D86203C085E08093D86202
:101DF8000E94D426109285621092866210928762A1
:101E0800109288620E94C81E6CC08091D7628F5F52
:101E18008093D762C5EAD4E010E2188381E892E69D
:101E28000E949E2261E872E687E492E60E946B14A3
:101E380087E492E60E94B41C0E94CE2684E0809338
:101E4800D86218834EC010928562109286621092F2
:101E58008762109288620E9490250E94CE268BE0AD
:101E68008093D8623EC00E94C81E3BC00E942723B0
:101E780081E892E60E949E2281E892E60E94FD1582
:101E880061E872E687E492E60E946B148BE0809327
:101E9800D86227C081EB98E80E946B268BE080937C
:101EA800D8621FC081E892E60E949E2281E892E6ED
:101EB8000E94FD158BE08093D86213C080918562E3
:101EC80090918662A0918762B09188620297A1057D
:101ED800B10529F40E94D42686E08093D8620E9436
:0A1EE800C81EDF91CF911F910895ED
:101EF2004F925F926F927F928F929F92AF92BF9218
:101F0200CF92DF92EF92FF920F931F936B017C01AE
:101F1200DC01CB01B701A6014427552760787F7702
:101F22004115510560487F4759F4A7019601C70141
:101F3200B6010E943327A70196010E94A5261AC066
:101F4200181619061A061B06D4F0892B8A2B8B2B1E
:101F520009F4CCC081E290E080930060909301602C
:101F6200A7019601C701B6010E94A4269B01AC01FC
:101F72000E942F27562F472F382F292FBBC067E1EA
:101F8200F594E794D794C7946A95D1F7C114D10414
:101F9200E104F104E1F4C12CD12C7601A7FD0AC0C1
:101FA200880F991FAA1FBB1F2FEFC21AD20AE20A7B
:101FB200F20AF4CF21E0C21AD108E108F108F09444
:101FC200E094D094C094C11CD11CE11CF11C2FE7F9
:101FD200C21AD108E108F108AF77BB27A068C0FE9A
:101FE20004C0880F991FAA1FBB1FF594E794D794CA
:101FF200C794880F991FAA1FBB1FE9E1F0E040E0D8
:1020020050E060E071E0812C912C540100E010E07E
:10201200980128013901440E551E661E771E84154B
:102022009505A605B70574F093018201040F151FEB
:10203200261F371F84199509A609B709840E951E14
:10204200A61EB71E880F991FAA1FBB1F76956795FC
:10205200579547953197E9F6892B8A2B8B2BA1F15E
:1020620020E632E442EA5DE060E070E080E89FE36F
:102072000E94A42620E030E040E85FE30E9422278D
:1020820087FD22C020E632E442EA5DE060E070E0D3
:1020920080E89FE30E94A52620E030E040E85FE36D
:1020A2000E942227181634F482E0880E911CA11C8B
:1020B200B11C0AC0D501C40181709927AA27BB2788
:1020C200880E991EAA1EBB1ED501C401B595A795FF
:1020D20097958795B15C37E1CC0CDD1CEE1CFF1C9B
:1020E2003A95D1F7C80ED91EEA1EFB1E5C2D4D2D66
:1020F2003E2D2F2D652F742F832F922F1F910F911D
:10210200FF90EF90DF90CF90BF90AF909F908F9015
:0A2112007F906F905F904F9008954A
:10211C004F925F926F927F928F929F92AF92BF92EB
:10212C00CF92DF92EF92FF9280908D6290908E62B0
:10213C00A0908F62B09090622CE2921A21E0A20AD9
:10214C00B108C0909562D0909662E0909762F09042
:10215C0098620B2EBEE0CC0CDD1CEE1CFF1CBA955D
:10216C00D1F7B02DE0E0F2E6848D958D092E000CB0
:10217C00AA0BBB0B072E74E1880F991FAA1FBB1F5C
:10218C007A95D1F7702DC81AD90AEA0AFB0AA68DDE
:10219C00B78DA50194010E948D26C61AD70AE80AAC
:1021AC00F90A30E4D30EE11CF11C0B2EBFE0F594C0
:1021BC00E794D794C794BA95D1F7B02DA38DB0E01E
:1021CC00A50194010E9442262B013C01032E3BE009
:1021DC0075946794579447943A95D1F7302D40E80D
:1021EC00540E611C711CA0A10A2E000CBB0BA50186
:1021FC0094010E948D26052E5AE09595879577952A
:10220C0067955A95D1F7502DA30192010E94A025F4
:10221C00DC01CB01072E7AE0B595A79597958795AC
:10222C007A95D1F7702D9C01AD01405E5F4FA18D69
:10223C00B28D0E948D26DC01CB01905EAF4FBF4F5B
:10224C00BC01CD01052E5EE0959587957795679538
:10225C005A95D1F7502DA70196010E94A0256B012C
:10226C007C01052E5FE095958795779567955A9536
:10227C00D1F7502D9B01AC010E94A0259B01AC0114
:10228C00689416F855954795379527951694D1F778
:10229C00A08DB0E00E944226DC01CB01689413F8BB
:1022AC00B595A795979587951694D1F7A7019601A3
:1022BC00281B390B4A0B5B0BDA01C9011AF480E0BD
:1022CC0090E0DC0181309105A10539E1B30724F0E0
:1022DC0080E090E0A0E0B9E1BC01CD01052E5CE00E
:1022EC0095958795779567955A95D1F7502DFF90D1
:1022FC00EF90DF90CF90BF90AF909F908F907F909A
:08230C006F905F904F9008955F
:10231400AFE0B0E0E0E9F1E10C942A241C016B0188
:1023240049835A832B83FB01828193818480958026
:1023340000811181A680B78097FD02C00D7F02C085
:1023440081E090E0E981FA8140805180628073806D
:102354009801207133272C833D83740104FF08C046
:10236400411451046104710419F032E0E31AF108D4
:10237400F801E870FF27EE83FF8303FF03C0F1E059
:10238400EF1AF108F6010084F185E02D3197EE870C
:10239400FF87EA0DFB1D10829C012E193F09288737
:1023A4003987C801827099278A879B87EB818E2F92
:1023B400EE0F990B9C01215431092C873D872E8502
:1023C4003F852230310530F48C819D81892B09F0C1
:1023D40042C05CC0411451046104710461F18E85F2
:1023E4009F8501978E879F87C2018F7099278A30B6
:1023F400910514F4C09602C0895A9F4FEC85FD855F
:102404007A9748F49C012062215631092A3131051A
:1024140010F40E947426EE85FF85EA0DFB1D80836F
:10242400F1E0EF1AF10884E07694679457944794A6
:102434008A95D1F7C4CF888599858E0D9F1D18166E
:1024440019066CF21E141F040CF0BECFEA85FB853E
:10245400EF2B29F6B9CFE981FA8180819181A2819C
:10246400B381892B8A2B8B2B89F0EE85FF85EA0DAE
:10247400FB1D31972B8120838E859F8502978E8744
:102484009F87FC01EA0DFB1D80E38083EE81FF81C1
:10249400EF2B59F02E853F85215031092E873F8738
:1024A400F901EA0DFB1D80E28083F6014085518528
:1024B400415051092E853F85421B530BB9016A0DCA
:1024C4007B1D9401C1010E948F1E9C01F10180813A
:1024D400918190FF06C0F601828193818217930750
:0C24E4000CF4C9012F96E2E10C94432493
:1024F0000F931F93CF93DF93CDB7DEB76897CDBF10
:10250000DEBF28E1AE014F5F5F4F68E886E70E94BB
:10251000661B00E012E68A8190E0982F88272981C7
:10252000820F911DF801808391838C8190E0982F18
:1025300088272B81820F911D828393838E8190E067
:10254000982F88272D81820F911D848395838885FC
:1025500090E0982F88272F81820F911D8683978383
:102560008A8590E0982F88272985820F911D808782
:1025700091878C8590E0982F88272B85820F911D5D
:10258000828793878E8590E0982F88272D85820FEC
:10259000911D84879587888990E0982F88272F85BB
:1025A000820F911D868797878A8990E0982F8827C8
:1025B0002989820F911D808B918B8C8990E0982FB7
:1025C00088272B89820F911D828B938B8E8990E0B7
:1025D000982F88272D89820F911D848B958B888D4C
:1025E00090E0982F88272F89820F911D868B978BDB
:1025F00021E0AE014F5F5F4F61EA86E70E94661BF4
:102600008981F801808F27E0AE014F5F5F4F61EE57
:1026100086E70E94661B2A8130E0322F22279981AB
:10262000290F311DF801218F328F9B81938F9D815E
:102630002C81F0E12F9F90011124492F4F70242B02
:10264000F801248F358F2E81F0E12F9F9001112406
:1026500092959F70292BF801268F378F9F8190A329
:102660006896CDBFDEBFDF91CF911F910F91089586
:10267000CF93DF9380E094E023E0FC012083C0E46B
:10268000D4E035E03883A0E6B4E032E13C9360EA80
:1026900074E030E2FB013083FC01148241E04C83A2
:1026A00040E114964C931497FB013483FC01108A8B
:1026B000118A128A138A148A158A168A178A188A26
:1026C000198A1A8A1B8A1C8A1D8A1E8A1F8A50969A
:1026D0001C92509751961C92519752961C92529769
:1026E00053961C92539754961C92549755961C924D
:1026F000559756961C92569757961C92FB01108A36
:10270000118A128A138A148A158A8BE0868B178A9B
:10271000E0EEF5E011821082158217821086118694
:10272000168222838FE497E28093B5629093B6621B
:1027300080E597E28093B3629093B46281E597E27B
:102740008093B1629093B26282E597E28093AF6228
:102750009093B06283E597E28093AD629093AE620E
:1027600084E597E28093AB629093AC6285E597E253
:102770008093A9629093AA6286E597E28093A7620C
:102780009093A86287E597E28093A5629093A662F2
:1027900088E597E28093A3629093A46289E597E22B
:0E27A0008093A1629093A262DF91CF91089581
:1027AE008F929F92AF92BF92CF92DF92EF92FF9253
:1027BE008091996290919A62A0919B62B0919C6275
:1027CE00E0E0F2E64081518160E070E06C017D0155
:1027DE00689413F8F594E794D794C7941694D1F7A8
:1027EE00C41AD50AE60AF70A689412F8B595A795A1
:1027FE00979587951694D1F7440F551F661F771F2F
:10280E004C015D01841A950AA60AB70AA501940126
:10281E00A281B3810E948D264B015C01072E7BE0C5
:10282E00B594A794979487947A95D1F7702DA701B4
:10283E009601C701B6010E94A0259B01AC01012E95
:10284E001CE055954795379527951A95D1F7102D7C
:10285E00A481B5810E948D26DC01CB01072E7EE07E
:10286E00B595A795979587957A95D1F7702D880D83
:10287E00991DAA1DBB1D80938D6290938E62A093AD
:10288E008F62B09390626C017D01CC0CDD1CEE1C4E
:10289E00FF1CCC0CDD1CEE1CFF1C8C0D9D1DAE1DFB
:1028AE00BF1D80589F4FAF4FBF4F692F7A2F8B2F71
:1028BE00992787FD9A95FF90EF90DF90CF90BF906C
:0828CE00AF909F908F900895D8
:1028D600CF93DF93CDB7DEB76197CDBFDEBF21E1E2
:1028E600EDECF7E8DE01119601900D922A95E1F7DD
:1028F600FB01208122952F70E1E0F0E0EC0FFD1F37
:10290600E20FF11D2081FC012083FB0120812F7045
:10291600E1E0F0E0EC0FFD1FE20FF11D2081FC016C
:102926002183FB01218122952F70E1E0F0E0EC0F7D
:10293600FD1FE20FF11D2081FC012283FB01218195
:102946002F70E1E0F0E0EC0FFD1FE20FF11D20819A
:10295600FC012383FB01228122952F70E1E0F0E048
:10296600EC0FFD1FE20FF11D2081FC012483FB010A
:1029760022812F70E1E0F0E0EC0FFD1FE20FF11D68
:102986002081FC012583FB01238122952F70E1E044
:10299600F0E0EC0FFD1FE20FF11D2081FC01268304
:1029A600FB0123812F70E1E0F0E0EC0FFD1FE20F49
:1029B600F11D2081FC0127832DE020872AE0218755
:1029C60012862091D7621F922F939F938F938FEA3F
:1029D60097E89F938F930E945B240F900F900F9020
:1029E6000F900F900F906196CDBFDEBFDF91CF9114
:0229F600089542
:1029F800CF93DF93CDB7DEB72897CDBFDEBF28E0F2
:102A0800AE014F5F5F4F67EF86E70E94661B8F81BD
:102A180090E0A0E0B0E0BA2FA92F982F882728854A
:102A2800822B8093956290939662A0939762B0935D
:102A380098628C8190E0A0E0B0E0AC01BD01032E6B
:102A48003CE0440F551F661F771F3A95D1F7302D8C
:102A58009D81892F90E0A0E0B0E0880F991FAA1F00
:102A6800BB1F880F991FAA1FBB1F880F991FAA1F7A
:102A7800BB1F880F991FAA1FBB1F842B952BA62B42
:102A8800B72B2E8122952F70822B80939962909379
:102A98009A62A0939B62B0939C62898190E0A0E0C7
:102AA800B0E0AC01BD01032E3CE0440F551F661F8A
:102AB800771F3A95D1F7302D9A81892F90E0A0E0C1
:102AC800B0E0880F991FAA1FBB1F880F991FAA1F64
:102AD800BB1F880F991FAA1FBB1F880F991FAA1F0A
:102AE800BB1F842B952BA62BB72B2B8122952F70E0
:102AF800822B8093916290939262A0939362B09399
:0E2B080094622896CDBFDEBFDF91CF91089575
:102B1600A2E0B0E0E1E9F5E10C942A243C016B0166
:102B2600FB0122813381A480B580808191818983D4
:102B36009A8386809780FA01208031804280538074
:102B4600B201A10157FE07C044275527BA01421911
:102B560053096409750937FD03C08D7F89839A83FC
:102B6600950157FC05C0898182FD02C083FF02C022
:102B760021503109CE0101967C010AE010E0C60120
:102B86000E94161857FC03C0298122FF0AC001972C
:102B9600F401E80FF91F57FC02C02BE209C02DE231
:102BA60007C023FF06C00197F401E80FF91F20E2D2
:102BB600208309811A81F6014085518541505109CA
:102BC600481B590BB401680F791F9501C3010E9478
:102BD6008F1E9C01F3018081918190FF06C0F60152
:102BE60082819381821793070CF4C9012296E2E150
:042BF6000C944324D4
:102BFA00CF93DF93EC0189EA96E80E94C12280EC28
:102C0A0096E80E94C12289811F928F9389E097E8F2
:102C1A009F938F930E9473248A811F928F9384E2D9
:102C2A0097E89F938F930E9473242B8130E0C90108
:102C3A00880F991F220F331F220F331F220F331FB2
:102C4A00820F931F9F938F9386E397E89F938F93A7
:102C5A000E9473248881282F082E000C330B3F937F
:102C6A008F9389E497E89F938F930E9473248EE54C
:102C7A0097E80E946B2688E096E80E946B262B81D3
:102C8A0030E0C901880F991F220F331F220F331F0B
:102C9A00220F331F820F931F9F938F938A811F9254
:102CAA008F9389811F928F938881282F082E000C79
:102CBA00330B3F938F938CE697E89F938F930E94F1
:102CCA0073248DB79EB74A968DBF9EBFDF91CF9171
:022CDA0008955B
:102CDC0010C00E94B92658F00E94B22640F029F488
:102CEC005F3F29F00C94F82651110C94C1260C94DA
:102CFC0046270E94E32268F39923B1F3552391F3FD
:102D0C00951B550BBB27AA2762177307840738F04E
:102D1C009F5F5F4F220F331F441FAA1FA9F335D0AB
:102D2C000E2E3AF0E0E832D091505040E695001C5F
:102D3C00CAF72BD0FE2F29D0660F771F881FBB1F19
:102D4C00261737074807AB07B0E809F0BB0B802DF7
:102D5C00BF01FF2793585F4F3AF09E3F510578F023
:102D6C000C94F8260C94C1265F3FE4F3983ED4F300
:102D7C00869577956795B795F7959F5FC9F7880FF7
:102D8C00911D9695879597F90895E1E0660F771F49
:102D9C00881FBB1F621773078407BA0720F0621BDA
:0E2DAC00730B840BBA0BEE1F88F7E0950895A9
:102DBA000FC00E94B22638F00E94B92620F095234F
:102DCA0011F00C94F8260C94462711240C94C12671
:102DDA000E94E32270F3959FC1F3950F50E0551FAF
:102DEA00629FF001729FBB27F00DB11D639FAA2756
:102DFA00F00DB11DAA1F649F6627B00DA11D661FA5
:102E0A00829F2227B00DA11D621F739FB00DA11DC5
:102E1A00621F839FA00D611D221F749F3327A00D7F
:102E2A00611D231F849F600D211D822F762F6A2F1B
:102E3A0011249F5750409AF0F1F088234AF0EE0F80
:102E4A00FF1FBB1F661F771F881F91505040A9F7AD
:102E5A009E3F510580F00C94F8260C94C1265F3FE2
:102E6A00E4F3983ED4F3869577956795B795F795E9
:102E7A00E7959F5FC1F7FE2B880F911D9695879561
:042E8A0097F9089517
:102E8E00CF93DF93DC01F90168387105F1F05CF442
:102E9E006138710561F164387105A1F16038710511
:102EAE0009F051C02FC0603C710509F441C0603F6C
:102EBE007105F1F1603A710509F045C0C081D1810B
:102ECE00CE0102968083918325C0C081D181CE012F
:102EDE00029680839183452B39F04881042E000C95
:102EEE00550B660B770B1CC0488150E029C0C08182
:102EFE00D181CE01049680839183488159816A8164
:102F0E007B810EC0C081D181CE01029680839183D8
:102F1E00452BA1F048815981052E000C660B770BCD
:102F2E004D935D936D937C93139781E090E00DC06C
:102F3E00C081D181CE0102968083918348815981CF
:102F4E0060E070E0EDCF80E090E0DF91CF910895EA
:102F5E0011C00E94B22638F00E94B92620F039F432
:102F6E009F3F19F426F40C9446270EF4E095E7FBE8
:102F7E000C94F826E92F0E94E32258F3BA17620741
:102F8E0073078407950720F079F4A6F50C94C026F4
:102F9E000EF4E0950B2EBA2FA02D0B01B901900166
:102FAE000C01CA01A0011124FF27591B99F0593FAA
:102FBE0050F4503E68F11A16F040A22F232F342FF2
:102FCE004427585FF3CF469537952795A795F04040
:102FDE005395C9F77EF41F16BA0B620B730B840B55
:102FEE00BAF09150A1F0FF0FBB1F661F771F881F0D
:102FFE00C2F70EC0BA0F621F731F841F48F4879565
:10300E0077956795B795F7959E3F08F0B0CF939556
:0E301E00880F08F09927EE0F97958795089573
:10302C00A0E0B0E0ECE1F8E10C942C24DC012801E8
:10303C001696AD90BC901797F701808191811296EE
:10304C00ED91FC9113971896CD91DC9119972197DE
:10305C00F7FF02C0E1E0F0E0CA0DDB1D1882690148
:10306C00A1E0B0E08F01021B130B4C01F2E08F22A8
:10307C009924052C000C66087708CE018A199B0947
:10308C00CA15DB0519F1411551056105710589F06A
:10309C00CB01BA01A30192010E940523CA01A62FFC
:1030AC00B72F605D6A9341E0C41AD108A901BC0135
:1030BC00E4CF98012C0D3D1D121613064CF31C1475
:1030CC001D0434F48114910419F702C080E090E0DF
:1030DC00AB2B31F4F701208131812F7E208331839A
:0A30EC00CDB7DEB7E0E10C944524F7
:1030F6008F929F92AF92BF92CF92DF92FF920F93E1
:103106001F93CF93DF93CDB7DEB7A097CDBFDEBFBA
:103116000F2EF8EFFF2EF02D00E010E00F2EF8ED49
:10312600AF2EF1E8BF2EF02DCE0101966C010F2EC9
:10313600FEEB8F2EF1E89F2EF02D97E09F1590F075
:103146001F930F939F928F92DF92CF920E945D25DD
:10315600C6010E942F1D0F900F900F900F900F9099
:103166000F9011C01F930F93BF92AF92DF92CF9231
:103176000E945D25C6010E942F1D0F900F900F9093
:103186000F900F900F900F5F1F4FF39408341105A7
:10319600A1F6A096CDBFDEBFDF91CF911F910F9113
:1031A600FF90DF90CF90BF90AF909F908F90089543
:1031B600CF9388E591E89F938F930E948B244FEFDE
:1031C60062E070E68CE792E60E949D264FEF61E092
:1031D60071E687E792E60E949D2682E08093660468
:1031E6002FE739EA93E0215030409040E1F700C0E4
:1031F6000000809365042FE738E381E021503040DA
:103206008040E1F700C0000084E0809345040F9001
:103216000F900E94E626882339F00E943D27682FEA
:1032260087E792E60E94242587E792E60E94182700
:10323600882379F30E94E026882359F387E792E6EC
:103246000E945826C82F0E94E925CA3011F78AE045
:103256000E94E9259FE728E331E091502040304065
:0E326600E1F700C000000E948A1ACF9108957F
:103274000F931F93CF93DF93EA0140385105D4F0A5
:1032840020E030E040E05FE70E9433279E012F57A3
:103294003109203831056CF120E030E040E05FE78F
:1032A4000E943327CE5FD109C038D1051CF1CFE786
:1032B400D0E020C042385F4FECF420E030E040E83A
:1032C4005CE00E9433279E012A593F4F22384FEF7A
:1032D40034077CF420E030E040E85CE00E943327CF
:1032E400C453DF4FC2382FEFD20724F4C2E8DFEF14
:1032F40001C0E9019E0121583F4F8901330F220B80
:10330400330BA9019801E7E1220F331F441F551F16
:10331400EA95D1F70E943327DF91CF911F910F9146
:0233240008950A
:10332600A2E0B0E0E9E9F9E10C942E244C016B012E
:10333600FB0122813381648075808081918189833C
:103346009A83A680B78037FD03C08D7F89839A83D1
:10335600FA014081518162817381CE0101967C011F
:1033660008E010E09301C6010E941618298124FF87
:1033760006C00197F501E80FF91F20E32083298194
:1033860023FF06C00197F501E80FF91F20E220830D
:1033960009811A81F6014085518541505109481B22
:1033A600590BB501680F791F9301C4010E948F1E46
:1033B6009C01F4018081918190FF06C0F601828113
:1033C6009381821793070CF4C9012296EEE00C94C0
:0233D60047248A
:1033D80087E693E80E94C12286E192E80E94C12212
:1033E8008BE893E80E942F1D87E993E80E942F1D20
:1033F80084EA93E80E942F1D86EC93E80E942F1D13
:1034080081EE93E80E942F1D84E194E80E942F1D0D
:1034180087E494E80E942F1D89E794E80E942F1DF5
:1034280082E093E80E942F1D82E193E80E942F1DFD
:103438008AE293E80E942F1D85E493E80E942F1DDD
:103448000E947B1886E593E80E942F1D8BE791E880
:103458000E942F1D85E693E80E94C1222FE788E38A
:1034680091E0215080409040E1F700C000000895AD
:1034780040E068ED80E690E00E942B2740E068ED90
:1034880081E690E00E942B2740E068ED85E690E019
:103498000E942B2740E068ED88E790E00E942B27E8
:1034A8004CE068ED88E690E00E942B2740E068ED4C
:1034B80089E690E00E942B2740E068ED80E790E0E5
:1034C8000E942B2740E068ED8CE790E00E942B27B4
:1034D80040E068ED82E690E00E942B2740E068ED2E
:1034E80083E690E00E942B2740E068ED84E690E0B8
:1034F8000E942B2740E068ED80E890E00E942B278F
:0C350800E0E6F0E0858181FFFDCF089532
:10351400CF9389E391E80E94C12261E471E88CE7CA
:1035240092E60E94DD200AC00E94EC26882331F036
:103534008CE792E60E9458260E9440278CE792E688
:103544000E9418278111F0CFC0E01FC00E94E62618
:10355400882339F00E943D27682F87E792E60E946E
:10356400242587E792E60E941827882379F30E948E
:10357400E026882359F387E792E60E945826C1E0A3
:103584008A3009F0C0E00E94E925CC23F9F22FE744
:1035940088E391E0215080409040E1F700C00000B2
:0435A400CF91089526
:1035A8008F929F92AF92BF92CF92DF92EF92FF924B
:1035B8000E94040D4B015C010E942C2624E036E594
:1035C8004AE150E40E94A52623E333E948E853E49E
:1035D8000E94A5269B01AC0164E076E58AE190E4AF
:1035E8000E942F279B01AC0160E070E080E89FE318
:1035F8000E94A42628E539E348EA50EC0E948B048F
:103608006B017C01C501B4010E94F21C20E030E08E
:1036180048EC52E40E942F27A70196010E94332705
:10362800FF90EF90DF90CF90BF90AF909F908F90DA
:023638000895F3
:10363A000F931F93CF93DF93DB012D913C91119749
:10364A0030FF25C016964D915C91179714962D91CF
:10365A003C9115974217530778F41296ED91FC9115
:10366A001397808312962D913C9113972F5F3F4FAA
:10367A0012962D933C93139716962D913C9117977A
:10368A002F5F3F4F16962D933C93179715C01C96A4
:10369A00ED91FC911D97309719F48FEF9FEF0CC0B5
:1036AA008B01EC010995892BC1F7F8018681978175
:1036BA00019686839783CE01DF91CF911F910F9157
:0236CA00089561
:1036CC00EF92FF920F931F93CF93DF930F92CDB78F
:1036DC00DEB769838A01E22E60E00E945522F82E43
:1036EC00882369F161E0CE0101960E94E321F82E56
:1036FC00811104C083E08093040921C0E0E0F9E06B
:10370C0087818160878381E08483858185FD0AC000
:10371C00858182FD07C0858183FD04C0858183700E
:10372C00833099F70E94CD25882329F083E080937C
:10373C000409F12C04C06E2DC8010E948E218F2D1E
:10374C000F90DF91CF911F910F91FF90EF90089503
:10375C00A2E0B0E0E4EBFBE10C942E245C016B01E5
:10376C00FB012281338184809580808191818983C2
:10377C009A836680778037FD03C08D7F89839A8317
:10378C00FA014081518162817381CE0101967C01E5
:10379C000AE010E09401C6010E94161809811A81F2
:1037AC00F6014085518541505109481B590BB30115
:1037BC00680F791F9401C5010E948F1E9C01F501B1
:1037CC008081918190FF06C0F601828193818217DE
:0E37DC0093070CF4C9012296EEE00C944724EA
:1037EA00CF93DF9384E391E80E94C122C0E00E9454
:1037FA00E626882339F00E943D27682F87E792E65C
:10380A000E94242587E792E60E9418278823C1F0A0
:10381A000E94E026882389F087E792E60E945826CC
:10382A00D82F0E94E925DA3041F4CF5FC13029F45C
:10383A0084E391E80E94C122DACFC230C1F602C005
:10384A00C230A9F68AE00E94E9252FE78AE196E0CC
:10385A00215080409040E1F700C00000DF91CF91F5
:02386A000895BF
:10386C001F920F920FB60F9211242F933F934F93E9
:10387C005F936F937F938F939F93AF93BF93EF93CC
:10388C00FF937A9B05C0E091B162F091B262099509
:10389C007D9B05C0E091AF62F091B06209957C9B75
:1038AC0005C0E091AD62F091AE620995799B05C0BF
:1038BC00E091A362F091A46209958FEF8FB9FF910B
:1038CC00EF91BF91AF919F918F917F916F915F918C
:1038DC004F913F912F910F900FBE0F901F90189505
:1038EC00CF93DF93EC018FE295E80E94C12284E430
:1038FC0095E80E94C1228AE795E80E94C122CE0178
:10390C000E94C1226EE875E88CE792E60E94DD20E9
:10391C00BE018CE792E60E94DD200AC00E94EC26D4
:10392C00882331F08CE792E60E9458260E944027AB
:10393C008CE792E60E9418278111F0CF2FE78AE1DD
:10394C0096E0215080409040E1F700C000000E94BA
:0C395C00F51B0E94F725DF91CF91089524
:10396800CF93DF93EC018FE295E80E94C12284E4B3
:1039780095E80E94C1228DE995E80E94C122CE01F6
:103988000E94C12263EB75E88CE792E60E94DD2075
:10399800BE018CE792E60E94DD200AC00E94EC2658
:1039A800882331F08CE792E60E9458260E9440272F
:1039B8008CE792E60E9418278111F0CF2FE788E361
:1039C80091E0215080409040E1F700C000000E9443
:0C39D800F51B0E94F725DF91CF910895A8
:1039E400E89409C097FB3EF4909580957095619595
:1039F4007F4F8F4F9F4F9923A9F0F92F96E9BB274B
:103A04009395F695879577956795B795F111F8CFC6
:103A1400FAF4BB0F11F460FF1BC06F5F7F4F8F4F31
:103A24009F4F16C0882311F096E911C0772321F027
:103A34009EE8872F762F05C0662371F096E8862FBF
:103A440070E060E02AF09A95660F771F881FDAF716
:0A3A5400880F9695879597F908955D
:103A5E00FF920F931F93CF93DF938C0181E591E833
:103A6E000E94C122C8010E94C122B8018CE792E6D1
:103A7E000E94DD20F12C11C08CE792E60E941827DF
:103A8E00882371F00E94EC26882351F08CE792E691
:103A9E000E9458260E944027F394E801CF0DD11DB5
:103AAE0088818111E9CF2FE788E391E02150804092
:103ABE009040E1F700C000000E94E21DDF91CF911F
:083ACE001F910F91FF90089574
:103AD600A2E8B0E0E1E7FDE10C9430245C014A0184
:103AE600CF57DF4F68837983C158D040C12CD12C82
:103AF600CF57DF4FE881F981C158D04080818823B4
:103B0600E9F07401860120E830E0AE014F5F5F4FB7
:103B1600BE016F577F4FC5010E94060B8C0D9D1D80
:103B26008C159D054CF48FE490E080930060909393
:103B360001608FEF9FEF03C06C01DACFC601CE574D
:083B4600DF4FECE00C94492470
:103B4E001F920F920FB60F9211242F933F934F9304
:103B5E005F936F937F938F939F93AF93BF93EF93E7
:103B6E00FF938091430180FF07C0E091BD62F09109
:103B7E00BE62309709F009958091430181FF07C01D
:103B8E00E091BB62F091BC62309709F0099583E039
:103B9E0080934301FF91EF91BF91AF919F918F91D0
:103BAE007F916F915F914F913F912F910F900FBE2B
:063BBE000F901F90189506
:103BC400CF93DF9384E391E80E94C122C0E00E9476
:103BD400E626882339F00E943D27682F87E792E67E
:103BE4000E94242587E792E60E941827882389F0FB
:103BF4000E94E026882351F087E792E60E94582627
:103C0400D82F0E94E925DA3009F4CF5FC130F9F6E4
:103C140002C0C130E1F68AE00E94E9252FE788E37B
:103C240091E0215080409040E1F700C00000DF9116
:043C3400CF9108958F
:103C3800A0E1B0E0E2E2FEE10C943624FB01BA0117
:103C4800AE014F5F5F4F7A0140E1D7011D924A955F
:103C5800E9F742E051E049835A838B839C83F7FF5D
:103C680009C08FE490E080930060909301608FEF2B
:103C78009FEF14C0A9018C013197ED83FE83C70122
:103C88000E94A3244F8158852D813E8142175307F6
:103C980008F49A01F801E20FF31F10826096E6E03B
:043CA8000C944F2405
:103CAC001F920F920FB60F9211242F933F934F93A5
:103CBC005F936F937F938F939F93AF93BF93EF9388
:103CCC00FF93599B05C0E091B562F091B6620995DE
:103CDC00589B05C0E091B362F091B46209955A9B70
:103CEC0005C0E091A562F091A66209958FEF8BB9A2
:103CFC00FF91EF91BF91AF919F918F917F916F91B8
:103D0C005F914F913F912F910F900FBE0F901F908D
:023D1C001895F8
:103D1E00A0E0B0E0E5E9FEE10C9430246C015B011B
:103D2E007A01E901480181E08822992400FD03C04F
:103D3E004217530750F0A701B501C6010E94C123D7
:103D4E00EC16FD0610F0C70117C08E010E191F09E3
:103D5E000115110541F0B60180E290E00E941D1B95
:103D6E0001501109F5CF8114910429F4A701B50171
:103D7E00C6010E94C123CE01CDB7DEB7ECE00C9494
:023D8E004924C6
:103D90000E94DA26882339F00E943727682F8CE7A3
:103DA00092E60E9424250E94E626882339F00E948C
:103DB0003D27682F87E792E60E94242587E792E651
:103DC0000E941827882351F00E94E026882331F0B2
:103DD00087E792E60E9458260E943A278CE792E6EF
:103DE0000E941827882351F00E94EC26882331F086
:0E3DF0008CE792E60E9458260E944027089514
:103DFE001F920F920FB60F9211242F933F934F9352
:103E0E005F936F937F938F939F93AF93BF93EF9334
:103E1E00FF93189B05C0E091A962F091AA620995E3
:103E2E00199B05C0E091A762F091A86209958FEFEA
:103E3E0083B9FF91EF91BF91AF919F918F917F9138
:103E4E006F915F914F913F912F910F900FBE0F90F9
:043E5E001F90189504
:103E62001F920F920FB60F9211242F933F934F93ED
:103E72005F936F937F938F939F93AF93BF93EF93D0
:103E8200FF93BE9B05C0E091AB62F091AC620995D5
:103E9200BD9B05C0E091A162F091A26209958FEFEE
:103EA20087BBFF91EF91BF91AF919F918F917F91CE
:103EB2006F915F914F913F912F910F900FBE0F9095
:043EC2001F901895A0
:103EC600CF93DF93CDB7DEB72697CDBFDEBF85EFA5
:103ED60089838091DB628A8342E0BE016F5F7F4FF8
:103EE60086E70E94D22482EF8B838091DA628C83EC
:103EF60042E0BE016D5F7F4F86E70E94D22484EFC9
:103F06008D838091D9628E8342E0BE016B5F7F4FC5
:103F160086E70E94D2242696CDBFDEBFDF91CF91E1
:023F26000895FC
:103F28001F920F920FB60F9211242F933F934F9326
:103F38005F936F937F938F939F93AF93BF93EF9309
:103F4800FF938091060B80FF0AC0E091B762F09161
:103F5800B862309709F0099581E08093060BFF91CC
:103F6800EF91BF91AF919F918F917F916F915F91E9
:103F78004F913F912F910F900FBE0F901F90189562
:103F88001F920F920FB60F9211242F933F934F93C6
:103F98005F936F937F938F939F93AF93BF93EF93A9
:103FA800FF938091160B80FF0AC0E091BF62F091E9
:103FB800C062309709F0099581E08093160BFF9154
:103FC800EF91BF91AF919F918F917F916F915F9189
:103FD8004F913F912F910F900FBE0F901F90189502
:103FE8008BE994E80E94C12286E192E80E94C122EE
:103FF80084EB94E80E94C12267EC74E88CE792E6AF
:104008000E94DD200AC00E94EC26882331F08CE74C
:1040180092E60E9458260E9440278CE792E60E946A
:1040280018278111F0CF2FE788E391E021508040D5
:0E4038009040E1F700C000000E94F51B0895C3
:104046000E94EB2288F09F5798F0B92F9927B75115
:10405600B0F0E1F0660F771F881F991F1AF0BA9526
:10406600C9F714C0B13091F00E94C026B1E008959E
:104076000C94C026672F782F8827B85F39F0B93F90
:10408600CCF3869577956795B395D9F73EF49095D9
:0E4096008095709561957F4F8F4F9F4F0895D5
:1040A4000F931F93CF93DF938C010F5F1F4FFC017E
:1040B4008081FB0124853585232B11F0EB0109C098
:1040C4008FEF9FEF17C00995892BD1F7F8018191E4
:1040D4008F01EC85FD85BE018111F5CF8AE009953C
:1040E40021E030E0892B11F420E030E08827992783
:0E40F400821B930BDF91CF911F910F910895C6
:10410200E0E0F8E083E896E080879187158280EC12
:10411200868383E0878313861486168615868AE54E
:1041220097E28093C5629093C6628BE597E2809393
:10413200C3629093C4628CE597E28093C1629093CC
:10414200C2621092C7621092C862E091D362F0918B
:0C415200D46287E392E680839183089595
:10415E00DC01ED91FC91119780818A3221F080E093
:10416E0090E03AE00EC03196ED93FC93DB01ED91B9
:10417E00FC911197CF0102968D939C938081918132
:10418E000895ED91FC911197208120532A3068F407
:10419E00389FA001399F500D1124CA01820F911D25
:0C41AE003196ED93FC931197ECCF08952F
:1041BA00CF93DF93FC01EB0188819481492F50E072
:1041CA004F5F5F4F238130E042175307D9F08823AE
:1041DA00C9F070E0A081B181A90FB11D8C939481BF
:1041EA009F5F94837F5FDE01A70FB11D8C91492FDA
:1041FA0050E04F5F5F4F238130E04217530711F0C1
:0A420A008111E8CFDF91CF910895F4
:104214001F920F920FB60F9211242F933F934F9337
:104224005F936F937F938F939F93AF93BF93EF931A
:10423400FF9382E080930D06E0919F62F091A0626B
:10424400309709F00995FF91EF91BF91AF919F913C
:104254008F917F916F915F914F913F912F910F902B
:084264000FBE0F901F9018958A
:10426C001F920F920FB60F9211242F933F934F93DF
:10427C005F936F937F938F939F93AF93BF93EF93C2
:10428C00FF9381E080930D06E0919D62F0919E6218
:10429C00309709F00995FF91EF91BF91AF919F91E4
:1042AC008F917F916F915F914F913F912F910F90D3
:0842BC000FBE0F901F90189532
:1042C4001F920F920FB60F9211242F933F934F9387
:1042D4005F936F937F938F939F93AF93BF93EF936A
:1042E400FF93E091B962F091BA62309709F00995B1
:1042F40081E080935301FF91EF91BF91AF919F9122
:104304008F917F916F915F914F913F912F910F907A
:084314000FBE0F901F901895D9
:10431C0020E2209305096623D1F0A82FB92F90E055
:10432C00E0E0F9E022E0858185FD17C0858182FD02
:10433C0007C0858183FD04C085818370833099F724
:10434C0080858D939F5F691711F02483ECCF87E0F4
:10435C008093040908952483E6CF80858D939F5F15
:06436C006913F9CFF4CF44
:10437200A0E0B0E0EFEBF1E20C9432247C01FB010F
:10438200EA01C901A280B380C480D5800081118175
:10439200209711F4CAE6D2E6009719F4CE010E94E2
:1043A2000526B7FC04C0A816B90608F4C501960193
:1043B200AC01BE01C7010E948F1ECDB7DEB7EAE095
:0443C2000C944B24E8
:1043C600662309F1DC016150262F30E02F5F3F4F55
:1043D600280F391FE0E0F9E09D919087958195FDC2
:1043E6000AC0958192FD07C0958193FD04C0958111
:1043F6009370933099F7958194FD07C0A217B30780
:0E44060059F781E0089581E0089580E008955F
:10441400E0E2F8E086E191E080879187158280EC04
:10442400868383E0878313861486168615868DE536
:1044340097E28093CD629093CE628EE597E280936B
:10444400CB629093CC628FE597E28093C96290939C
:0C445400CA621092CF621092D0620895EC
:10446000E0E0F2E0108A118A128A138A8EE4848BCB
:10447000158A10A610A211A212A213A214A215A2AC
:1044800016A217A211A617A610AA85E081AB12AA40
:1044900013AA14AA15A616A612A613A614A615AA40
:0A44A00016AA17AA10AE80E00895D6
:1044AA009091050993709330E1F0880F682B60931F
:1044BA000709E0E0F9E0858185FD0AC0858182FD72
:1044CA0007C0858183FD04C085818370833099F795
:1044DA000E94CD25882339F083E08093040980E087
:0A44EA00089580E0089581E0089530
:1044F400990F0008550FAA0BE0E8FEEF16161706F1
:10450400E807F907C0F012161306E407F50798F058
:10451400621B730B840B950B39F40A2661F0232B71
:10452400242B252B21F408950A2609F4A140A695ED
:084534008FEF811D811D089528
:10453C00CF93DF93EC010E9413270E942C260E943C
:10454C00AB2668830E94D41A20E030E040E251E4AC
:10455C000E942F270E9423206B830E9437260E94E3
:10456C00232069830E94F2268A83CE010E94FD15C6
:06457C00DF91CF910895CC
:10458200CF92DF92FF920F931F93CF93DF936C0131
:10459200F12C09C00E94E026882341F0F8018081B5
:1045A2000E94E925F394E601CF0DD11D8E01888189
:1045B2008111F0CFDF91CF911F910F91FF90DF908A
:0445C200CF900895F9
:1045C60057FD9058440F551F59F05F3F71F04795BE
:1045D600880F97FB991F61F09F3F79F087950895A3
:1045E600121613061406551FF2CF4695F1DF08C0C2
:1045F600161617061806991FF1CF869571056105DF
:044606000894089577
:10460A00A1E21A2EAA1BBB1BFD010DC0AA1FBB1FCC
:10461A00EE1FFF1FA217B307E407F50720F0A21B3E
:10462A00B30BE40BF50B661F771F881F991F1A94AB
:10463A0069F760957095809590959B01AC01BD01D5
:04464A00CF010895FF
:10464E0081ED98E80E946B260E94E7248FE493EC9C
:10465E000197F1F700C000000E9478128091DB6292
:10466E0081788093DB6285E28093D96281E08093CA
:10467E00DA620E94631F89EE98E80E946B2681E041
:02468E0008958D
:10469000CF93DF93EC0190E0E92FF0E0EE0FFF1FE6
:1046A000EF5DFD498081811102C081810EC0A8812A
:1046B000B9812C91821305C091811196A883B98389
:1046C00001C09F5F9B3040F3892FDF91CF91089508
:1046D0008091A80486FF16C080E28093A504809193
:1046E000D1629091D26281608093D1629093D262C4
:1046F0008091D1629091D2628F7E8093D1629093AB
:0C470000D262089580E28093A604089520
:10470C0089342DE0920710F088E49DE0883027E092
:10471C00920710F488E097E0BC016850774080E085
:10472C0090E00E94F21C2BEB3FE040E85DE30E941E
:0C473C0033270E94232084E6861B08958A
:10474800E0E4F1E081818111FDCFE0E4F1E08FEF59
:1047580093E084879587108611868287938781E006
:104768008783128281898111FDCFE0E4F1E081E045
:0A477800828B89E4808B80E00895B5
:10478200A0E0B0E0E7ECF3E20C9434246C01EB011E
:104792008A017B01E40EF51ECE15DF0541F08991F9
:1047A200B601082E000C990B0E941D1BF5CFC80103
:0A47B200CDB7DEB7E8E00C944D240B
:1047BC00CF93DF9300D0CDB7DEB78091D9628C7FD9
:1047CC0081608093D96294EF99838A8342E0BE0121
:1047DC006F5F7F4F86E70E94D2240F900F90DF917E
:0447EC00CF910895CC
:1047F000E0E0F6E01182128213821482168613869C
:10480000148681E0808780E481878FEF85838FEF36
:104810009FE0848B958B128A138A83E0808380E0EB
:024820000895F9
:104822000E9438130E94F8230E943C1A0E943022F0
:104832000E94A4230E94BF250E9438250E944B2576
:104842000E9481200E940A220E947D260E94132635
:024852000895C7
:104854002F923F924F925F926F927F928F929F928C
:10486400AF92BF92CF92DF92EF92FF920F931F937A
:10487400CF93DF93CDB7DEB7CA1BDB0BCDBFDEBF53
:02488400099495
:104886002A88398848885F846E847D848C849B84DA
:10489600AA84B984C884DF80EE80FD800C811B81E8
:1048A600AA81B981CE0FD11DCDBFDEBFED0108951E
:1048B600A0E0B0E0E1E6F4E20C943A24AE014B5FEE
:1048C6005F4FFA0161917191AF01E091D362F0916E
:1048D600D462808191810E94A324E2E00C94532447
:1048E600A0E0B0E0E9E7F4E20C943A24AE014B5FB5
:1048F6005F4FFA0161917191AF01E091D362F0913E
:10490600D462808191810E94A324E2E00C94532416
:10491600A0E0B0E0E1E9F4E20C943A24AE014B5F8A
:104926005F4FFA0161917191AF01E091D362F0910D
:10493600D462808191810E94A324E2E00C945324E6
:10494600A2E0B0E0E9EAF4E20C9438248C01498351
:104956005A83AE014F5F5F4F0E946B1DF8012081A5
:1049660024FF02C08FEF9FEF2296E4E00C945124BF
:104976000E9411240E94DB2588E693E20E94042708
:104986008CEF94E20E940E2780E195E20E940927AF
:0E4996008CEF98E80E946B260E945C0EFDCF0D
:1049A4001F93CF93DF93EB01142F60E00E945522F5
:1049B400882339F0612FCE010E94E32193E0909384
:0A49C4000409DF91CF911F910895BF
:1049CE00CF93DF9300D0CDB7DEB780EE898386EB31
:1049DE008A8342E0BE016F5F7F4F86E70E94D2243A
:0A49EE000F900F90DF91CF91089514
:1049F8008091896290918A62A0918B62B0918C6259
:104A08000196A11DB11D8093896290938A62A0933B
:084A18008B62B0938C620895DB
:104A20008091856290918662A0918762B091886240
:104A30000196A11DB11D8093856290938662A0931B
:084A40008762B09388620895BB
:104A4800FC014481242F30E02F5F3F4F838190E0A9
:104A58002817390741F0A081B181A40FB11D6C93CB
:084A680084818F5F84830895AF
:104A7000E0E0FBE08FEF9FEF848795871286138637
:104A800086E08183108681E1848381E085831682BC
:064A9000118680830895E9
:104A9600E0E1FBE080EA9FE0848795871286138633
:104AA60086E081831086148281E0858316821186D2
:044AB600808308955C
:104ABA00A0E0B0E0E3E6F5E20C943A24AE01475FE9
:104ACA005F4F6F8178858D819E810E94C726E2E0C3
:044ADA000C945324C1
:104ADE00092E0394000C11F4882352F0BB0F40F4FE
:104AEE00BF2B11F460FF04C06F5F7F4F8F4F9F4F3E
:024AFE00089519
:104B0000E0E0F6E0808781E082870E942727882303
:104B1000E1F3E0E0F6E08089918921E025870895BE
:104B200082E00E9480259F938F9386EE95E89F9365
:104B30008F930E9473240F900F900F900F90089501
:104B4000DB018F939F930E944226BF91AF91A29F5A
:104B5000800D911DA39F900DB29F900D112408957B
:104B6000A29FB001B39FC001A39F700D811D1124AE
:0E4B7000911DB29F700D811D1124911D08959D
:104B7E0043E068ED80E590E00E942B2740E068ED71
:0C4B8E0081E590E00E942B2780E0089554
:104B9A00809105098C7141F490910509937081E027
:0C4BAA00933019F080E0089581E0089538
:104BB6000E948526E0E0F9E084E0808381E082833C
:0C4BC6009DEF95839FE096838383089504
:104BD200CF93C82F0E94E026882331F0E0E0F8E06E
:0C4BE200948190649483C283CF91089565
:104BEE008BE791E80E942F1D2FE788E391E021507B
:0C4BFE0080409040E1F700C000000895E6
:104C0A00FC01AF014F5F5F4F2081222311F0FA01AF
:0C4C1A00F8CF9F01281B390BC901089539
:104C260040E068ED80E191E00E942B27E0E1F1E0B1
:0A4C360012821382789480E0089542
:104C4000CF93C82F0E94E0268823E1F3C093020887
:084C500080E090E0CF9108958F
:104C58000E94D7130E94F21C20E030E048EC52E496
:064C68000E942F270895B1
:104C6E000E948E100E94F21C20E030E040E85AE3D1
:064C7E000E943327089597
:104C84000E94B025A59F900DB49F900DA49F800D08
:064C9400911D112408959A
:104C9A00EC010E9461270E946027CE010E946227D0
:064CAA00CE010E944D271F
:104CB000FC019381A081B181A90FB11D8C919F5FEF
:044CC000938308953D
:104CC4000E94F41F0E94F72580E195E80E946B265C
:024CD400089541
:104CD600E091D362F091D462608171810E9452208A
:024CE60008952F
:104CE8009C01215631092A31310510F48F75992715
:024CF80008951D
:104CFA00E0EBF0E0148285E88083128280E0089578
:104D0A00E0E0F4E08AE0818388E0838B828B089577
:104D1A00B7FF0C9442260E944226821B930B0895E9
:104D2A009C01215431092A31310508F48062089521
:0E4D3A00FC016083718342831382148208950A
:0E4D48005058BB27AA270E94AF170C946F2566
:0E4D56000E9423206894B1110C94C126089588
:0E4D640000240A94161617061806090608956C
:0E4D720000240A94121613061406050608956E
:0E4D8000E894BB2766277727CB0197F90895A3
:0E4D8E009A01AB016FEF7FE70E941C1E089593
:0C4D9C00E0E4F1E08081816080830895F4
:0C4DA800E0E4F1E080818E7F80830895BC
:0C4DB40080910408881F8827881F08953C
:0C4DC0008091040885FB882780F9089585
:0C4DCC0080912408881F8827881F089504
:0C4DD8008091240885FB882780F908954D
:0C4DE40082E00E9480250E948623089532
:0C4DF00097F99F6780E870E060E008958C
:0C4DFC00EE0FFF1F0590F491E02D0994CC
:0A4E08008093B7629093B86208959A
:0A4E12008093B9629093BA6208958C
:0A4E1C008093BF629093C062089576
:0A4E26000E94DE230E94FC14089590
:0A4E3000FC0183819481891B089521
:0A4E3A000E947A2208F481E0089536
:0A4E44000E947A2208F48FEF08950F
:084E4E0080910D0681700895AA
:084E5600FC0164BF40830895D4
:084E5E000E946E160C946F25F2
:084E66000E94DD160C946F257B
:064E6E0080910008089588
:064E74008093020808957E
:064E7A008091200808955C
:064E800080932208089552
:064E86000E94EC190895E2
:064E8C009FEF80EC089589
:044E92000C9400007C
:044E96009F77089565
:044E9A000E949800DA
:024E9E00089575
:024EA000089573
:024EA200089571
:024EA40008956F
:024EA60008956D
:024EA80008956B
:024EAA00089569
:024EAC00089567
:024EAE00089565
:024EB000089563
:024EB200089561
:024EB40008955F
:024EB60008955D
:024EB80008955B
:024EBA00089559
:024EBC00089557
:024EBE00089555
:024EC000089553
:024EC200089551
:024EC40008954F
:104EC60068076C094C836A9074A07AC00080688871
:064ED60000846C820081E3
:104EDC00030000000000000000000000202600007D
:084EEC0000000000DCCFD1350D
:084EF4000000000000C0153FA2
:084EFC000000803F0000C03FF0
:074F0400286E756C6C29009A
:064F0B00286E696C29000C
:024F1100D56267
:02000004008278
:090000000000000000D00800001F
:00000001FF
