:100000000C946F000C948A260C948A260C948A26F1
:100010000C948A260C94D41C0C94CD200C948A2623
:100020000C94991E0C948A260C948A260C948A2689
:100030000C948A260C948A260C942E1F0C945E1F16
:100040000C948A260C948A260C948A260C948A2670
:100050000C948A260C948A260C948A260C948A2660
:100060000C949F1B0C948A260C94A1200C94752050
:100070000C948A260C94491D0C948A260C948A268A
:100080000C948A260C948A260C94CB1E0C948A26F7
:10009000610E810E840E8C0EAE0EEC0E0E0F1E0F36
:1000A000240F380F400F4C0F6000622180622162E4
:1000B00047004D48624762568062566275004D6E39
:1000C0006275627B80627B6281004D8D628162DB42
:1000D0008062DB62DD004D9362DD62E3800080912F
:1000E00001108F7C806080688093011011241FBEF6
:1000F000CFEFCDBFDFE7DEBFE8EAF0E040E017C0BA
:10010000B591A59135912591059107FD0CC095916B
:100110008591EF01F92FE82F05900D92A217B307F3
:10012000D9F7FE0104C01D92A217B307E1F7ED3D18
:10013000F40731F70E9415240C949525F894FFCF0D
:1001400052783A200048574555493A200073797350
:10015000206765742068776575690D0A000D0A547B
:10016000783A20000A496E697469616C697A696E2F
:100170006720524E327878332E2E2E0A4669726DE1
:10018000776172653A20006D616320736176650D59
:100190000A000A0A436F6E6669677572696E6720A6
:1001A000524E3278783320466F7220414250206A96
:1001B0006F696E0A002D2D2D2D2D2D2D2D2D2D2D00
:1001C0002D2D2D2D2D2D2D2D2D2D2D2D2D2D2D2D5F
:1001D0002D2D2D2D2D2D2D2D2D2D2D2D2D2D2D2D4F
:1001E0002D2D2D2D2D2D2D2D2D2D2D2D2D2D2D2D3F
:1001F0002D2D2D2D2D2D2D2D2D2D2D2D0A006D610B
:1002000063207365742064657665756920373042B4
:10021000334435374544303035413137300D0A00ED
:100220006D61632073657420646576616464722017
:1002300032363043334437360D0A006D6163207324
:10024000657420617070736B657920353636424273
:1002500038413942424343434346364239413934B7
:1002600030424537393043323041440D0A006D6128
:100270006320736574206E776B736B6579204133EF
:1002800033354238423132314235313934383736FC
:1002900037363932464631423334313546340D0A29
:1002A000006D616320736574206172206F6E0D0AAA
:1002B000006D61632073657420727864656C617988
:1002C0003120353030300D0A006D61632073657464
:1002D00020616472206F6E0D0A000A000A0A436FE3
:1002E0006E6669677572696E6720524E3278783330
:1002F00020466F72204F544141206A6F696E0A0098
:100300006D6163207365742064657665756920305E
:100310003030344133304230304638363137450D95
:100320000A006D616320736574206465766164649E
:10033000722030303030303030300D0A006D616363
:100340002073657420617070736B65792030303074
:10035000303030303030303030303030303030309D
:10036000303030303030303030303030300D0A0006
:100370006D616320736574206E776B736B65792094
:10038000303030303030303030303030303030306D
:10039000303030303030303030303030303030305D
:1003A0000D0A006D616320736574206170706B6568
:1003B0007920344539373446443341443137323774
:1003C000433537423432344138434437343231359F
:1003D00037460D0A006D616320736574206170708B
:1003E000657569203030303030303030303030306A
:1003F000303030300D0A000A0A4A6F696E696E6744
:100400002054544E2077697468204F5441410A00AB
:100410006D61632070617573650D0A0072616469B6
:100420006F20736574207366207366390D0A006D42
:10043000616320726573756D650D0A0054783A200A
:100440006D6163206A6F696E206F7461610A006D6F
:100450006163206A6F696E206F7461610D0A000A22
:100460000A4A6F696E696E672054544E207769742A
:1004700068204142500A0054783A206D6163206A36
:100480006F696E206162700A00726164696F207327
:100490006574207366207366370D0A006D616320F2
:1004A0006A6F696E206162700D0A000A507265738E
:1004B0007320627574746F6E20746F207472616E35
:1004C000736D69742064617461000A0A5472616E0C
:1004D000736D697474696E6720446174610A002DDC
:1004E0002D2D2D2D2D2D2D2D2D2D2D2D2D2D2D2D3C
:1004F0002D2D2D2D2D2D2D2D2D2D2D2D2D2D2D2D2C
:100500002D2D2D2D2D2D2D2D2D2D2D2D2D2D2D2D1B
:100510002D2D2D0A000A54783A206D6163207478DD
:1005200020636E6620313020006D61632074782076
:10053000636E6620313020000A54783A206D616382
:1005400020747820756E636E6620313120006D61F5
:100550006320747820756E636E66203131200073DD
:10056000797320736C65657020313830303030001D
:1005700025640A000A4166746572203130303020EB
:100580004D6F6973747572652052656164696E6739
:1005900073002D2D2D2D2D2D2D2D2D2D2D2D2D2D72
:1005A0002D2D2D2D2D2D2D2D2D2D2D2D2D2D2D2D7B
:1005B0002D2D2D2D2D2D2D2D2D2D2D2D2D2D2D2D6B
:1005C0002D2D2D2D2D2D2D2D2D2D2D2D2D2D2D2D5B
:1005D0002D2D2D2D2D2D2D2D2D00546865204D41B7
:1005E000582072656164696E6720776173202564A5
:1005F0000A00546865204D494E2072656164696E39
:1006000067207761732025640A0A00546865204DCD
:100610004158206D61707320746F2025640A005466
:100620006865204D494E206D61707320746F2025E0
:10063000640A000A0A43757272656E742053656E0F
:10064000736F7220446174610A002D2D2D2D2D2DA4
:100650002D2D2D2D2D2D2D2D2D2D2D2D2D2D2D2DCA
:100660002D2D2D2D2D2D2D2D2D2D2D2D2D2D2D2DBA
:100670002D2D2D2D2D2D2D2D2D2D2D2D2D2D2D2DAA
:100680002D2D2D2D2D2D2D2D2D2D2D2D2D2D2D2D9A
:100690002D0A0052656C61746976652048756D6934
:1006A000646974793A2025752525200D0A004D6F5F
:1006B0006973747572653A2025752525200D0A0029
:1006C00050726573737572653A20257520685061A4
:1006D0000D0A0054656D70657261747572653A201B
:1006E00025692043200D0A004261747465727920E7
:1006F0004C6576656C3A2025752525200D0A0A0083
:100700000A4A534F4E20466F726D61740D0050615E
:10071000796C6F61643A207B2074656D703A202596
:10072000692C20626174746572793A2025752C20D9
:1007300068756D69646974793A2025752C206D6F30
:100740006973747572653A2025752C207072657313
:10075000737572653A2025752C206E756D54783A44
:100760002025750D0A0A7D00303132333435363795
:100770003839414243444546000A5765617468650B
:100780007220436C69636B204E4F5420696E69740C
:1007900069616C697A65642070726F7065726C79DA
:1007A00021000A496E74657261637469766520542C
:1007B00065726D696E616C2069732061637469761E
:1007C000653A20636F6D6D616E6473207375636845
:1007D000206173202773797320666163746F727967
:1007E0005245534554272077696C6C00626520732D
:1007F000656E7420746F2074686520524E3278786C
:100800003320616E6420726573706F6E7365732040
:1008100077696C6C20626520617070656172206818
:100820006572652E000A5768656E2072656164798D
:100830002C20707265737320627574746F6E2074EF
:100840006F206A6F696E2054544E0A00544F444F13
:100850003A20205772697465206C6F7720706F772B
:0C08600065722074657374732E2E2E00D8
:10086C000A496E697469616C697A696E6720424DD8
:10087C00453238302E2E2E00424D4532383020690C
:0B088C006E697469616C697A65640034
:1008970057656C636F6D6520746F207468652041C0
:0A08A7006772692D496F542E0A0094
:1008B200A2E2B0E0EFE5F4E00C949E2329833A83B0
:1008C2004B835C8329013A01E89477F8411451047F
:1008D2006104710409F458C669877A878B879C87FB
:1008E2007B018C0161157105A0E88A07AFE39A07C5
:1008F20009F44AC62D873E874F87588B4B015C010E
:100902006B017C01E894F7F8B1E0CB16D104B0E8B2
:10091200EB06BFE7FB0644F4E1E04E165104E0E8C3
:100922006E06EFE77E064CF02D853E854F85588991
:10093200C501B4010E94ED2532C609851A852B85B1
:100942003C8537FF4DC04114510410E861061BE499
:1009520071060CF04AC04114510420E862062FE3EC
:1009620072060CF470C0D301C20107E1B595A795D8
:10097200979587950A95D1F78F579109A109B109E2
:1009820027E130E0281B390BD301C201022E04C03B
:10099200B595A795979587950A94D2F7AC01BD01B5
:1009A20004C0440F551F661F771F2A95D2F74416BD
:1009B20055066606770609F046C081709927AA2770
:1009C200BB2742E050E060E070E08A019B01081B17
:1009D200190B2A0B3B0B0D831E832F83388737C0DD
:1009E2001D821E821F82188608C022E030E040E08D
:1009F20050E02D833E834F8358874114510430E8E1
:100A020063063FE7730619F5C114D10440E8E40612
:100A12004FE3F40609F4B8C55CF0E980FA800B8173
:100A22001C8117FDB6C56D857E858F859889B7C5F2
:100A3200E980FA800B811C8117FFABC56D857E852D
:100A42008F8598898AC01D821E821F821886411452
:100A5200510400E860060FE3700669F4E980FA8049
:100A62000B811C8117FF99C5A501940160E070E01C
:100A720080E89FE365C009811A812B813C810115C1
:100A82001105210540E4340729F4A5019401C501AB
:100A9200B401C2C089819A81AB81BC810097A10552
:100AA200BF4359F409851A852B853C8537FD05C05E
:100AB200C501B4010E94630F72C5C501B4010E9451
:100AC2008C26C114D104E104F10449F0950184019A
:100AD2003F730115110520483F4309F040C00981C9
:100AE2001A812B813C8137FF08C09B01AC0160E079
:100AF20070E080E89FE30E94702629853A854B8545
:100B02005C8557FF4CC530E8E31A3FE3F30A0D81D9
:100B12001E812F813885C02AD12AE22AF32AC114E4
:100B2200D104E104F10479F421E230E02093006081
:100B3200309301609B01AC010E94EC259B01AC014A
:100B42000E9470262CC52D813E814F81588521300F
:100B520031054105510509F022C5905820C5098586
:100B62001A852B853C8537FF21C02D813E814F811F
:100B72005885232B242B252B59F481E290E0809376
:100B8200006090930160A5019401C501B401D4CF26
:100B92000D811E812F813885013011052105310516
:100BA20071F420E030E040E85FEB0DC000E010E0BF
:100BB20020E83FE30D831E832F83388708C020E09F
:100BC20030E040E85FE32D833E834F83588731E076
:100BD2004316510461043DE473060CF497C048EFD8
:100BE200C4164FEFD4064FE7E4064FE3F406BCF415
:100BF200E980FA800B811C8117FF4BC32AEC32EF8C
:100C020049E451E76D817E818F8198850E94742627
:100C12002AEC32EF49E451E70E947426C0C408E08E
:100C2200C016D10400E8E0060FE3F00654F0E980B4
:100C3200FA800B811C811E141F0410061106F4F2A7
:100C420028C320E030E040E85FE30E94EC256B011E
:100C52007C0120E03AEA48EB5FE30E9474264B01F4
:100C62005C0120E735EA4CEE56E3C701B6010E946B
:100C7200742669837A838B839C8320E030E040E88A
:100C82005EE3C701B6010E9474269B01AC016BEAC8
:100C92007AEA8AEA9EE30E94EC25A70196010E9465
:100CA20074269B01AC0160E070E080E09FE30E944B
:100CB200EC252B013C01A7019601C701B6010E9458
:100CC20074269B01AC01C301B2010E9474262BE37E
:100CD2003AEA48EB5FE30E9474269B01AC0169810A
:100CE2007A818B819C810E94EC256B017C019B01A6
:100CF200AC01C501B4010E94ED256627707F6987AA
:100D02007A878B879C87A501940120C2C114D104E4
:100D120000E8E006F1046CF420E030E040E85BE437
:100D22000E9474266B017C0148EE5FEF6FEF7FEF4C
:100D320003C040E050E0BA01D701C60117E1B59502
:100D4200A795979587951A95D1F78F579109A1097C
:100D5200B1098C019D01040F151F261F371F0D8B32
:100D62001E8B2F8B388FE894E7F8FF24460157013A
:100D72006894A7F81FE3B12A22E7C21624ECD20630
:100D82002CE1E206F104B4F037EDC31633EBD306DF
:100D92003DE5E306F1049CF08D899E89AF89B88D0B
:100DA2000196A11DB11D8D8B9E8BAF8BB88F90E8E4
:100DB200A91AB10819861A861B861C8608C0E12C5E
:100DC200F12C8701E394E986FA860B871C87098553
:100DD2001A85000F111F000F111F09A31AA3F80192
:100DE200EA59FD49E080F18002811381E98AFA8A99
:100DF2000B8B1C8BA8019701C501B4010E94EC2545
:100E0200698F7A8F8B8F9C8FA8019701C501B401DE
:100E12000E94ED259B01AC0160E070E080E89FE359
:100E22000E9470266D8F7E8F8F8F98A39B01AC01DD
:100E3200698D7A8D8B8D9C8D0E94742669837A834D
:100E42008B839C8349805A806B807C80442400EF92
:100E5200502275016401F594E794D794C794CC2489
:100E620010EFD122E894F5F86894F5F8D701C6019D
:100E7200A05CBF4FC984DA84EB84FC84F5E1CC0C1E
:100E8200DD1CEE1CFF1CFA95D1F7C80ED91EEA1E16
:100E9200FB1EA7019601C301B2010E9474269B01A9
:100EA200AC01698D7A8D8B8D9C8D0E94EC256987B2
:100EB2007A878B879C8729893A894B895C89C70104
:100EC200B6010E94EC259B01AC01C501B4010E9450
:100ED200EC25A30192010E9474269B01AC01698555
:100EE2007A858B859C850E94EC252D8D3E8D4F8DBC
:100EF20058A10E94742669877A878B879C872981EB
:100F02003A814B815C81CA01B9010E9474266B014E
:100F12007C0122E431EF43E55EE30E94742625E57D
:100F220032E34CE65EE30E94ED25A70196010E94A2
:100F3200742625E033EA4BE85EE30E94ED25A70123
:100F420096010E9474262BEA3AEA4AEA5EE30E947C
:100F5200ED25A70196010E94742627EB3DE64BED95
:100F62005EE30E94ED25A70196010E9474262AE9FC
:100F720039E949E15FE30E94ED254B015C01A701DC
:100F82009601C701B6010E9474269B01AC01C501FE
:100F9200B4010E9474266B017C01A3019201698154
:100FA2007A818B819C810E94ED2529853A854B852A
:100FB2005C850E947426A70196010E94ED256B01B3
:100FC2007C01A3019201C301B2010E947426698BC4
:100FD2007A8B8B8B9C8B20E030E040E450E40E94C3
:100FE200ED25A70196010E94ED254B015C018824A5
:100FF20020EF9222A5019401C301B2010E9474263E
:101002002B013C0120E030E040E450E4C501B40192
:101012000E94EC2529893A894B895C890E94EC253A
:101022009B01AC01C701B6010E94EC2529813A81DE
:101032004B815C810E9474266B017C01A5019401A5
:1010420069857A858B859C850E9474269B01AC01FB
:10105200C701B6010E94ED254B015C019B01AC0169
:10106200C301B2010E94ED256B017C01CC2430EF5B
:10107200D32220E030E446E75FE3C701B6010E94D5
:10108200742669837A838B839C83A3019201C701AF
:10109200B6010E94EC259B01AC01C501B4010E947E
:1010A200EC252FE438E346E75FE30E9474264B0108
:1010B2005C0126EC33E246EF58EBC701B6010E9411
:1010C20074269B01AC01C501B4010E94ED25E9A182
:1010D200FAA1EA5AFD4920813181428153810E945D
:1010E200ED256B017C016D897E898F89988D0E9427
:1010F2005D1C4B015C0109A11AA1025A1D49D801CC
:101102004D905D906D907C90A701960169817A81E6
:101112008B819C810E94ED25A30192010E94ED2505
:10112200A50194010E94ED256627707F69877A8761
:101132008B879C87A50194010E94EC25A301920153
:101142000E94EC2529813A814B815C810E94EC2529
:101152009B01AC01C701B6010E94EC254B015C0169
:10116200CD84DE84EF84F888CC24B0EFDB22A701A3
:1011720096016D857E858F8598890E94EC2529854B
:101182003A854B855C850E9474262B013C012D8596
:101192003E854F855889C501B4010E9474269B0182
:1011A200AC01C301B2010E94ED2569837A838B836E
:1011B2009C83A701960169857A858B859C850E940F
:1011C2007426962EA72EB82E892E6987798B182F12
:1011D200092F262F372F482F592F69817A818B812A
:1011E2009C810E94ED256B017C016D877E878F8734
:1011F200988B81E0C816D104E10483E4F8060CF070
:10120200FDCC2D853E854F85588921153105410537
:101212005344E9F42CE33AEA48E353E369817A81DF
:101222008B819C810E94ED252B013C01292D3A2DB9
:101232004B2D582DC701B6010E94EC259B01AC0134
:10124200C301B2010E946326181694F5D7CCD701C8
:10125200C601BF770197A641B344DCF42D853E85D4
:101262004F855889211531054641534C09F5292DE1
:101272003A2D4B2D582DC701B6010E94EC259B013A
:10128200AC0169817A818B819C810E945E2618164D
:101292007CF020E632E442EA5DE06D817E818F815E
:1012A20098850E94742620E632E442EA5DE0B4CCDE
:1012B200D701C601BF7781309105A105EFE3BE07D3
:1012C2000CF46AC057E1B595A795979587955A95FD
:1012D200D1F78E5740E050E060E870E08A019B0150
:1012E20004C035952795179507958A95D2F7C00EB4
:1012F200D11EE21EF31E26013701E89477F867E15A
:1013020075946794579447946A95D1F71FE7411AE9
:101312005108610871088FEF9FEFAFE7B0E0042C2E
:1013220004C0B595A795979587950A94D2F78095AD
:101332009095A095B0959C01AD012C213D214E21A7
:101342005F21E894E7F8FF246894E7F887E190E0EA
:10135200841995092601370104C07594679457943E
:1013620047948A95D2F7ED84FE840F85188917FF7A
:1013720008C07094609450944094411C511C611CAC
:10138200711C692D7A2D8B2D982D0E94EC25698771
:10139200798B182F092F03C0412C512C320129813E
:1013A2003A814B815C8169857989812F902F0E94D6
:1013B200ED254B015C01882420E8922220E032E7EF
:1013C20041E35FE3C501B4010E9474266D877E8705
:1013D2008F87988B29853989412F502FC501B401F8
:1013E2000E94EC259B01AC0169817A818B819C81F1
:1013F2000E94EC2528E132E741E35FE30E94742674
:101402006B017C012CE83EEB4FEB55E3C501B401C7
:101412000E9474269B01AC01C701B6010E94ED2512
:101422004B015C019B01AC016D857E858F8598899E
:101432000E94ED256B017C012D853E854F855889E3
:101442000E94EC259B01AC01C501B4010E94EC2570
:1014520069837A838B839C83A7019601C701B601B6
:101462000E9474264B015C012CE43BEB41E353E305
:101472000E9474262EE03AEE4DED55E30E94EC25D3
:10148200A50194010E94742625E533EB4AE858E34E
:101492000E94ED25A50194010E94742621E63BE0FD
:1014A20046E35BE30E94EC25A50194010E947426A9
:1014B2002BEA3AEA4AE25EE30E94ED25A501940195
:1014C2000E9474269B01AC01C701B6010E94EC2563
:1014D2004B015C019B01AC01C701B6010E9474265D
:1014E2006D877E878F87988B20E030E040E050E464
:1014F200C501B4010E94EC259B01AC016D857E857E
:101502008F8598890E9470264B015C0129813A815E
:101512004B815C81C701B6010E94742629813A8100
:101522004B815C810E94ED259B01AC01C501B40198
:101532000E94EC25A70196010E94EC259B01AC01BB
:1015420060E070E080E89FE30E94EC259301820155
:1015520047E1000F111F221F331F4A95D1F7060FD3
:10156200171F281F391F0115110540E824073105EF
:1015720024F4A2010E94F31802C0C901B8012D810E
:101582003E814F81588548CB60E070E080E89FE360
:1015920006C060E070E0CB0102C0C501B401A296B2
:0615A200E0E10C94B72308
:1015A800AEE0B0E0EAEDFAE00C949F234C016B0149
:1015B80019821A828FEF9FEF8B839C831D821E8274
:1015C8004F83588729873A87A12CB12CD6016D9073
:1015D8007C90F301EA0DFB1D808181110FC0D601BB
:1015E800ED93FC938081853209F0D3C13F01BFEFB1
:1015F8006B1A7B0AF6016082718219C0853279F311
:10160800B401082E000C990B0E94861A4FEFA41AF9
:10161800B40ADCCF8C32ACF08D32F9F489819A812E
:10162800816089839A833196D601ED93FC93D60124
:10163800ED91FC9180818B3269F789819A81846070
:10164800F0CF803221F489819A818860EACF833291
:1016580051F489819A818061E4CF803321F48981B2
:101668009A818260DECFB701C6010E941A208D835D
:101678009E8397FF0BC029813A81B1E02B272983EC
:101688003A839195819591098D839E8389819A8169
:1016980080FF03C08D7F89839A83D601ED91FC91E9
:1016A800119780818E3249F43196ED93FC93B701FE
:1016B800C6010E941A208B839C83C6010E94BA220D
:1016C800582ED601ED91FC918081082E000C990BC3
:1016D8000E94DD25893609F443C084F4833609F471
:1016E80002C134F4853209F427C18136E1F030C1F2
:1016F8008436B1F188360CF4D9C02AC1803709F490
:101708009AC03CF48E3609F4BCC08F3609F461C027
:101718001FC1853709F440C0883709F476C083377C
:1017280009F016C1F3C0652D70E0A701CE010B9634
:101738000E940000892B09F426C1D601ED91FC9185
:101748001197CF0101968D939C932081AE01455F3F
:101758005F4FBE016F5F7F4FC4010E94000010C140
:10176800652D70E0970141E050E0CE010B960E9494
:101778006017892B09F407C1F601808191810196D0
:1017880080839183AE01455F5F4FBE016F5F7F4FDE
:10179800C4010E941516F4C0652D70E0970140E061
:1017A80050E0CE010B960E946017892B09F4EBC01C
:1017B800D6018D919C91119701968D939C93AE01C2
:1017C800455F5F4FBE016F5F7F4FC4010E94171BCB
:1017D800D7C0652D70E0970140E050E0CE010B9630
:1017E8000E946017892B09F4CEC0F601808191818F
:1017F800019680839183AE01455F5F4FBE016F5FA5
:101808007F4FC4010E944C19BBC0652D70E0970141
:1018180040E050E0CE010B960E946017892B09F436
:10182800B2C0D601ED91FC911197CF0101968D932D
:101838009C9320811CC0970140E050E060EF70E06D
:10184800CE010B960E946017892B09F49CC0F60103
:10185800808191810196808391838B859C85892BDA
:1018680029F420E030E04BE752E684C028E7AE01D7
:10187800455F5F4FBE016F5F7F4FC4010E947411C7
:101888007FC0A501400F511F652D70E09701CE0163
:101898000B960E940000892B09F475C0D6018D9122
:1018A8009C91119701968D939C9373C0652D70E060
:1018B800A701CE010B960E940000892B09F463C092
:1018C800D601ED91FC911197CF0101968D939C93D0
:1018D8002081AE01455F5F4FBE016F5F7F4FC4013E
:1018E8000E9400004DC0B0E85B124DC0F601808137
:1018F8009181019680839183D701ED91FC91119795
:10190800CF0102968D939C93808120C0B0E85B1232
:101918003AC0F60180819181019680839183D70135
:10192800ED91FC911197CF0102968D939C93408184
:10193800518120E030E01EC0B0E85B1224C0F601FF
:10194800208131812F5F3F4F208331838B870DC0EA
:1019580085E28B87D6016D927C9219821A821D824C
:101968001E828FEF9FEF8B839C8321E030E0AE01D6
:10197800455F5F4FBE016F5F7F4FC4010E944E21DC
:101988008A0D9B1D07C0F601808191810196808395
:0C1998009183C5012E96EFE00C94B8235B
:1019A4004F925F926F927F928F929F92AF92BF926B
:1019B400CF92DF92EF92FF92C0909362D0909462A4
:1019C400E0909562F0909662F594E794D794C7946A
:1019D4008AEFD81AE108F108C701B60195958795F1
:1019E4007795679595958795779567959B01AC0154
:1019F4000E94E8244B015C01E0E0F2E6A285B38595
:101A04009B01AC01012E1DE055954795379527950F
:101A14001A95D1F7102D0E94D5252B013C0168940D
:101A240012F875946794579447941694D1F7A08547
:101A3400B185A70196010E94D525DC01CB01B5959E
:101A4400A79597958795840D951DA61DB71D072EFF
:101A540072E1B595A795979587957A95D1F7702DED
:101A64009C01AD0130584F4F5F4FA681B7810E9452
:101A74008A252B013C01032E3FE07594679457940B
:101A840047943A95D1F7302D4114510461047104FF
:101A940009F4CEC0A5019401012E1BE0559547958C
:101AA400379527951A95D1F7102DA089B1890E94F1
:101AB400D5254B015C01A685B785A70196010E9437
:101AC400D525DC01CB01880F991FAA1FBB1F880EE7
:101AD400991EAA1EBB1ED501C401B595A79597955D
:101AE4008795B595A7959795879584849584092CB2
:101AF400000CAA08BB08540199248824880E991E56
:101B0400AA1EBB1E072E7CE0B594A79497948794D5
:101B14007A95D1F7702D8091976290919862A091F7
:101B24009962B0919A62A5019401280F391F4A1F46
:101B34005B1FABECB3EF0E94D825805B9C439923D9
:101B44005CF0660F771F881F991FA30192010E9402
:101B5400772269017A010AC0A30192010E947722C7
:101B640069017A01CC0CDD1CEE1CFF1CC701B60117
:101B7400689412F896958795779567951694D1F79A
:101B84009B01AC010E94E8249B01AC01012E1DE0E5
:101B940056954795379527951A95D1F7102DE0E07E
:101BA400F2E6A689B7890E94D5254B015C01072E70
:101BB4007CE0B594A794979487947A95D1F7702D87
:101BC400A7019601569547953795279556954795BC
:101BD40037952795A489B5890E94D525DC01CB01C9
:101BE400072E7DE0B595A795979587957A95D1F7BA
:101BF400702DB501A401480F591F6A1F7B1F8289EC
:101C04009389092E000CAA0BBB0B840F951FA61FEA
:101C1400B71F689413F8B595A7959795879516946B
:101C2400D1F7BC01CD016C0D7D1D8E1D9F1D03C020
:101C340060E070E0CB01FF90EF90DF90CF90BF9019
:101C4400AF909F908F907F906F905F904F9008958A
:101C54001F93CF93DF938091D9629091DA6280FFD2
:101C640021C08091DF62843059F08B3079F081306B
:101C740081F480E28093A50482E08093DF6209C04E
:101C840083E08093DF620E94152603C083E0809383
:101C9400DF628091D9629091DA628E7F8093D962FB
:101CA4009093DA62E091DF628E2F90E08C309105A0
:101CB40008F003C1FC01E85BFF4F0C943F2680E26F
:101CC4008093A5040E9494180E949922811104C053
:101CD40089E797E80E94B32580E28093A60482EA0C
:101CE40097E80E94B3258CEE97E80E94B32585E21D
:101CF40098E80E94B32581E08093DF62DEC00E94F1
:101D04002C1EDBC00E9484260E94AA2583E08093B7
:101D1400DF62D3C08091D7629091D862019680939C
:101D2400D7629093D862C0E2C093A60485E792E696
:101D34000E94242165E772E687E492E60E9422135A
:101D440087E492E60E94DF1B0E940F2684E08093C2
:101D5400DF62C093A504B1C080918B6290918C62C4
:101D6400A0918D62B0918E62843B9105A105B1056D
:101D740071F54091D7625091D8629A01ADECBCECF8
:101D84000E94F824969587959695879596958795BC
:101D94009C01220F331F880F991F880F991F880FEA
:101DA400991F820F931F4817590721F483E08093EA
:101DB400DF6203C085E08093DF620E9415261092E3
:101DC4008B6210928C6210928D6210928E620E94CD
:101DD4002C1E73C08091D7629091D8620196809333
:101DE400D7629093D862C5EAD4E010E2188385E7FD
:101DF40092E60E94242165E772E687E492E60E9457
:101E0400221387E492E60E941D1C0E940F2684E0A0
:101E14008093DF62188351C010928B6210928C629F
:101E240010928D6210928E620E94D8240E940F2616
:101E34008BE08093DF6241C00E9494188BE0809312
:101E4400DF623BC00E94992285E792E60E9424212A
:101E540085E792E60E94951565E772E687E492E6C7
:101E64000E9422138BE08093DF6227C08CE498E801
:101E74000E94B3258BE08093DF621FC085E792E662
:101E84000E94242185E792E60E9495158BE08093B9
:101E9400DF6213C080918B6290918C62A0918D62FD
:101EA400B0918E620297A105B10529F40E9415260E
:101EB40086E08093DF620E942C1EDF91CF911F91F8
:021EC40008957F
:101EC6004F925F926F927F928F929F92AF92BF9244
:101ED600CF92DF92EF92FF920F931F936B017C01DB
:101EE600DC01CB01B701A6014427552760787F772F
:101EF6004115510560487F4759F4A7019601C7016E
:101F0600B6010E947426A70196010E94ED251AC00B
:101F1600181619061A061B06D4F0892B8A2B8B2B4A
:101F260009F4CCC081E290E0809300609093016058
:101F3600A7019601C701B6010E94EC259B01AC01E1
:101F46000E947026562F472F382F292FBBC067E1D6
:101F5600F594E794D794C7946A95D1F7C114D10440
:101F6600E104F104E1F4C12CD12C7601A7FD0AC0ED
:101F7600880F991FAA1FBB1F2FEFC21AD20AE20AA7
:101F8600F20AF4CF21E0C21AD108E108F108F09470
:101F9600E094D094C094C11CD11CE11CF11C2FE725
:101FA600C21AD108E108F108AF77BB27A068C0FEC6
:101FB60004C0880F991FAA1FBB1FF594E794D794F6
:101FC600C794880F991FAA1FBB1FE9E1F0E040E004
:101FD60050E060E071E0812C912C540100E010E0AB
:101FE600980128013901440E551E661E771E841578
:101FF6009505A605B70574F093018201040F151F18
:10200600261F371F84199509A609B709840E951E40
:10201600A61EB71E880F991FAA1FBB1F7695679528
:10202600579547953197E9F6892B8A2B8B2BA1F18A
:1020360020E632E442EA5DE060E070E080E89FE39B
:102046000E94EC2520E030E040E85FE30E94632632
:1020560087FD22C020E632E442EA5DE060E070E0FF
:1020660080E89FE30E94ED2520E030E040E85FE352
:102076000E946326181634F482E0880E911CA11C77
:10208600B11C0AC0D501C40181709927AA27BB27B4
:10209600880E991EAA1EBB1ED501C401B595A7952B
:1020A60097958795B15C37E1CC0CDD1CEE1CFF1CC7
:1020B6003A95D1F7C80ED91EEA1EFB1E5C2D4D2D92
:1020C6003E2D2F2D652F742F832F922F1F910F9149
:1020D600FF90EF90DF90CF90BF90AF909F908F9042
:0A20E6007F906F905F904F90089577
:1020F0004F925F926F927F928F929F92AF92BF9218
:10210000CF92DF92EF92FF928090936290909462D0
:10211000A0909562B09096622CE2921A21E0A20AF9
:10212000B108C0909B62D0909C62E0909D62F0905C
:102130009E620B2EBEE0CC0CDD1CEE1CFF1CBA9583
:10214000D1F7B02DE0E0F2E6848D958D092E000CDC
:10215000AA0BBB0B072E74E1880F991FAA1FBB1F88
:102160007A95D1F7702DC81AD90AEA0AFB0AA68D0A
:10217000B78DA50194010E94D525C61AD70AE80A91
:10218000F90A30E4D30EE11CF11C0B2EBFE0F594EC
:10219000E794D794C794BA95D1F7B02DA38DB0E04A
:1021A000A50194010E948A252B013C01032E3BE0EE
:1021B00075946794579447943A95D1F7302D40E839
:1021C000540E611C711CA0A10A2E000CBB0BA501B2
:1021D00094010E94D525052E5AE09595879577950F
:1021E00067955A95D1F7502DA30192010E94E824DA
:1021F000DC01CB01072E7AE0B595A79597958795D9
:102200007A95D1F7702D9C01AD01405E5F4FA18D95
:10221000B28D0E94D525DC01CB01905EAF4FBF4F40
:10222000BC01CD01052E5EE0959587957795679564
:102230005A95D1F7502DA70196010E94E8246B0111
:102240007C01052E5FE095958795779567955A9562
:10225000D1F7502D9B01AC010E94E8249B01AC01F9
:10226000689416F855954795379527951694D1F7A4
:10227000A08DB0E00E948A25DC01CB01689413F8A0
:10228000B595A795979587951694D1F7A7019601CF
:10229000281B390B4A0B5B0BDA01C9011AF480E0E9
:1022A00090E0DC0181309105A10539E1B30724F00C
:1022B00080E090E0A0E0B9E1BC01CD01052E5CE03A
:1022C00095958795779567955A95D1F7502DFF90FD
:1022D000EF90DF90CF90BF90AF909F908F907F90C6
:0822E0006F905F904F9008958C
:1022E800AFE0B0E0EAE7F1E10C949C231C016B013C
:1022F80049835A832B83FB01828193818480958053
:1023080000811181A680B78097FD02C00D7F02C0B1
:1023180081E090E0E981FA81408051806280738099
:102328009801207133272C833D83740104FF08C072
:10233800411451046104710419F032E0E31AF10800
:10234800F801E870FF27EE83FF8303FF03C0F1E085
:10235800EF1AF108F6010084F185E02D3197EE8738
:10236800FF87EA0DFB1D10829C012E193F09288763
:102378003987C801827099278A879B87EB818E2FBE
:10238800EE0F990B9C01215431092C873D872E852E
:102398003F852230310530F48C819D81892B09F0ED
:1023A80042C05CC0411451046104710461F18E851E
:1023B8009F8501978E879F87C2018F7099278A30E2
:1023C800910514F4C09602C0895A9F4FEC85FD858B
:1023D8007A9748F49C012062215631092A31310547
:1023E80010F40E94BC25EE85FF85EA0DFB1D808355
:1023F800F1E0EF1AF10884E07694679457944794D3
:102408008A95D1F7C4CF888599858E0D9F1D18169A
:1024180019066CF21E141F040CF0BECFEA85FB856A
:10242800EF2B29F6B9CFE981FA8180819181A281C8
:10243800B381892B8A2B8B2B89F0EE85FF85EA0DDA
:10244800FB1D31972B8120838E859F8502978E8770
:102458009F87FC01EA0DFB1D80E38083EE81FF81ED
:10246800EF2B59F02E853F85215031092E873F8764
:10247800F901EA0DFB1D80E28083F6014085518554
:10248800415051092E853F85421B530BB9016A0DF6
:102498007B1D9401C1010E94BB1D9C01F10180813B
:1024A800918190FF06C0F60182819381821793077C
:0C24B8000CF4C9012F96E2E10C94B5234E
:1024C4000F931F93CF93DF93CDB7DEB76897CDBF3C
:1024D400DEBF28E1AE014F5F5F4F68E886E70E94E8
:1024E400CF1A00E012E68A8190E0982F882729818C
:1024F400820F911DF801808391838C8190E0982F45
:1025040088272B81820F911D828393838E8190E093
:10251400982F88272D81820F911D84839583888528
:1025240090E0982F88272F81820F911D86839783AF
:102534008A8590E0982F88272985820F911D8087AE
:1025440091878C8590E0982F88272B85820F911D89
:10255400828793878E8590E0982F88272D85820F18
:10256400911D84879587888990E0982F88272F85E7
:10257400820F911D868797878A8990E0982F8827F4
:102584002989820F911D808B918B8C8990E0982FE3
:1025940088272B89820F911D828B938B8E8990E0E3
:1025A400982F88272D89820F911D848B958B888D78
:1025B40090E0982F88272F89820F911D868B978B07
:1025C40021E0AE014F5F5F4F61EA86E70E94CF1AB8
:1025D4008981F801808F27E0AE014F5F5F4F61EE84
:1025E40086E70E94CF1A2A8130E0322F2227998170
:1025F400290F311DF801218F328F9B81938F9D818B
:102604002C81F0E12F9F90011124492F4F70242B2E
:10261400F801248F358F2E81F0E12F9F9001112432
:1026240092959F70292BF801268F378F9F8190A355
:102634006896CDBFDEBFDF91CF911F910F910895B2
:10264400CF93DF93CDB7DEB76197CDBFDEBF21E176
:10265400E8E6F7E8DE01119601900D922A95E1F77C
:10266400FB01208122952F70E1E0F0E0EC0FFD1FCB
:10267400E20FF11D2081FC012083FB0120812F70DA
:10268400E1E0F0E0EC0FFD1FE20FF11D2081FC0101
:102694002183FB01218122952F70E1E0F0E0EC0F12
:1026A400FD1FE20FF11D2081FC012283FB0121812A
:1026B4002F70E1E0F0E0EC0FFD1FE20FF11D20812F
:1026C400FC012383FB01228122952F70E1E0F0E0DD
:1026D400EC0FFD1FE20FF11D2081FC012483FB019F
:1026E40022812F70E1E0F0E0EC0FFD1FE20FF11DFD
:1026F4002081FC012583FB01238122952F70E1E0D9
:10270400F0E0EC0FFD1FE20FF11D2081FC01268398
:10271400FB0123812F70E1E0F0E0EC0FFD1FE20FDD
:10272400F11D2081FC012783FB01248122952F7058
:10273400E1E0F0E0EC0FFD1FE20FF11D2081FC0150
:102744002087FB0124812F70E1E0F0E0EC0FFD1FF6
:10275400E20FF11D2081FC012187FB0125812295D7
:102764002F70E1E0F0E0EC0FFD1FE20FF11D20817E
:10277400FC012287FB0125812F70E1E0F0E0EC0FE2
:10278400FD1FE20FF11D2081FC0123872DE024872A
:102794002AE0258716866196CDBFDEBFDF91CF91F3
:0227A400089596
:1027A600CF93DF9380E094E023E0FC012083C0E434
:1027B600D4E035E03883A0E6B4E032E13C9360EA49
:1027C60074E030E2FB013083FC01148241E04C836B
:1027D60040E114964C931497FB013483FC01108A54
:1027E600118A128A138A148A158A168A178A188AEF
:1027F600198A1A8A1B8A1C8A1D8A1E8A1F8A509663
:102806001C92509751961C92519752961C92529731
:1028160053961C92539754961C92549755961C9215
:10282600559756961C92569757961C92FB01108AFE
:10283600118A128A138A148A158A8BE0868B178A64
:10284600E0EEF5E01182108215821782108611865D
:102856001682228380E996E28093BB629093BC62E3
:1028660081E996E28093B9629093BA6282E996E230
:102876008093B7629093B86283E996E28093B562DB
:102886009093B66284E996E28093B3629093B462C1
:1028960085E996E28093B1629093B26286E996E208
:1028A6008093AF629093B06287E996E28093AD62BF
:1028B6009093AE6288E996E28093AB629093AC62A5
:1028C60089E996E28093A9629093AA628AE996E2E0
:0E28D6008093A7629093A862DF91CF9108953E
:1028E4008F929F92AF92BF92CF92DF92EF92FF921C
:1028F40080919F629091A062A091A162B091A26226
:10290400E0E0F2E64081518160E070E06C017D011D
:10291400689413F8F594E794D794C7941694D1F770
:10292400C41AD50AE60AF70A689412F8B595A79569
:10293400979587951694D1F7440F551F661F771FF7
:102944004C015D01841A950AA60AB70AA5019401EF
:10295400A281B3810E94D5254B015C01072E7BE047
:10296400B594A794979487947A95D1F7702DA7017D
:102974009601C701B6010E94E8249B01AC01012E17
:102984001CE055954795379527951A95D1F7102D45
:10299400A481B5810E94D525DC01CB01072E7EE000
:1029A400B595A795979587957A95D1F7702D880D4C
:1029B400991DAA1DBB1D8093936290939462A0936A
:1029C4009562B09396626C017D01CC0CDD1CEE1C0B
:1029D400FF1CCC0CDD1CEE1CFF1C8C0D9D1DAE1DC4
:1029E400BF1D80589F4FAF4FBF4F692F7A2F8B2F3A
:1029F400992787FD9A95FF90EF90DF90CF90BF9035
:082A0400AF909F908F900895A0
:102A0C00CF93DF93CDB7DEB72897CDBFDEBF28E0DD
:102A1C00AE014F5F5F4F67EF86E70E94CF1A8F8141
:102A2C0090E0A0E0B0E0BA2FA92F982F8827288536
:102A3C00822B80939B6290939C62A0939D62B09337
:102A4C009E628C8190E0A0E0B0E0AC01BD01032E51
:102A5C003CE0440F551F661F771F3A95D1F7302D78
:102A6C009D81892F90E0A0E0B0E0880F991FAA1FEC
:102A7C00BB1F880F991FAA1FBB1F880F991FAA1F66
:102A8C00BB1F880F991FAA1FBB1F842B952BA62B2E
:102A9C00B72B2E8122952F70822B80939F6290935F
:102AAC00A062A093A162B093A262898190E0A0E0A1
:102ABC00B0E0AC01BD01032E3CE0440F551F661F76
:102ACC00771F3A95D1F7302D9A81892F90E0A0E0AD
:102ADC00B0E0880F991FAA1FBB1F880F991FAA1F50
:102AEC00BB1F880F991FAA1FBB1F880F991FAA1FF6
:102AFC00BB1F842B952BA62BB72B2B8122952F70CC
:102B0C00822B8093976290939862A0939962B09372
:0E2B1C009A622896CDBFDEBFDF91CF9108955B
:102B2A00CF93DF93EC0183E396E80E9433228AE491
:102B3A0096E80E94332289811F928F9383E996E84F
:102B4A009F938F930E94CD238A811F928F938EEA3F
:102B5A0096E89F938F930E94CD232B8130E0C90181
:102B6A00880F991F220F331F220F331F220F331F83
:102B7A00820F931F9F938F9380EC96E89F938F9376
:102B8A000E94CD238881282F082E000C330B3F93F7
:102B9A008F9383ED96E89F938F930E94CD238C8128
:102BAA001F928F9388EE96E89F938F930E94CD236E
:102BBA0080E097E80E94B32582E995E80E94B32550
:102BCA008D811F928F932B8130E0C901880F991F45
:102BDA00220F331F220F331F220F331F820F931F1F
:102BEA009F938F938A811F928F9389811F928F93CC
:102BFA008C811F928F938881282F082E000C330B0B
:102C0A003F938F938EE097E89F938F930E94CD23F3
:102C1A008DB79EB782968DBF9EBFDF91CF910895E3
:102C2A00A2E0B0E0EBE1F6E10C949C233C016B01DD
:102C3A00FB0122813381A480B580808191818983BF
:102C4A009A8386809780FA0120803180428053805F
:102C5A00B201A10157FE07C044275527BA014219FC
:102C6A0053096409750937FD03C08D7F89839A83E7
:102C7A00950157FC05C0898182FD02C083FF02C00D
:102C8A0021503109CE0101967C010AE010E0C6010B
:102C9A000E942F1857FC03C0298122FF0AC00197FE
:102CAA00F401E80FF91F57FC02C02BE209C02DE21C
:102CBA0007C023FF06C00197F401E80FF91F20E2BD
:102CCA00208309811A81F6014085518541505109B5
:102CDA00481B590BB401680F791F9501C3010E9463
:102CEA00BB1D9C01F3018081918190FF06C0F60112
:102CFA0082819381821793070CF4C9012296E2E13B
:042D0A000C94B5234D
:102D0E0010C00E94012658F00E94FA2540F029F4C6
:102D1E005F3F29F00C94392651110C9409260C941E
:102D2E0087260E94552268F39923B1F3552391F318
:102D3E00951B550BBB27AA2762177307840738F01C
:102D4E009F5F5F4F220F331F441FAA1FA9F335D079
:102D5E000E2E3AF0E0E832D091505040E695001C2D
:102D6E00CAF72BD0FE2F29D0660F771F881FBB1FE7
:102D7E00261737074807AB07B0E809F0BB0B802DC5
:102D8E00BF01FF2793585F4F3AF09E3F510578F0F1
:102D9E000C9439260C9409265F3FE4F3983ED4F345
:102DAE00869577956795B795F7959F5FC9F7880FC5
:102DBE00911D9695879597F90895E1E0660F771F17
:102DCE00881FBB1F621773078407BA0720F0621BA8
:0E2DDE00730B840BBA0BEE1F88F7E095089577
:102DEC000FC00E94FA2538F00E94012620F095238E
:102DFC0011F00C9439260C94872611240C94092676
:102E0C000E94552270F3959FC1F3950F50E0551F0A
:102E1C00629FF001729FBB27F00DB11D639FAA2723
:102E2C00F00DB11DAA1F649F6627B00DA11D661F72
:102E3C00829F2227B00DA11D621F739FB00DA11D93
:102E4C00621F839FA00D611D221F749F3327A00D4D
:102E5C00611D231F849F600D211D822F762F6A2FE9
:102E6C0011249F5750409AF0F1F088234AF0EE0F4E
:102E7C00FF1FBB1F661F771F881F91505040A9F77B
:102E8C009E3F510580F00C9439260C9409265F3F27
:102E9C00E4F3983ED4F3869577956795B795F795B7
:102EAC00E7959F5FC1F7FE2B880F911D969587952F
:042EBC0097F90895E5
:102EC000CF93DF93DC01F90168387105F1F05CF410
:102ED0006138710561F164387105A1F160387105DF
:102EE00009F051C02FC0603C710509F441C0603F3A
:102EF0007105F1F1603A710509F045C0C081D181D9
:102F0000CE0102968083918325C0C081D181CE01FC
:102F1000029680839183452B39F04881042E000C62
:102F2000550B660B770B1CC0488150E029C0C0814F
:102F3000D181CE01049680839183488159816A8131
:102F40007B810EC0C081D181CE01029680839183A6
:102F5000452BA1F048815981052E000C660B770B9B
:102F60004D935D936D937C93139781E090E00DC03A
:102F7000C081D181CE01029680839183488159819D
:102F800060E070E0EDCF80E090E0DF91CF910895B8
:102F900011C00E94FA2538F00E94012620F039F471
:102FA0009F3F19F426F40C9487260EF4E095E7FB76
:102FB0000C943926E92F0E94552258F3BA1762075C
:102FC00073078407950720F079F4A6F50C9408267A
:102FD0000EF4E0950B2EBA2FA02D0B01B901900134
:102FE0000C01CA01A0011124FF27591B99F0593F78
:102FF00050F4503E68F11A16F040A22F232F342FC0
:103000004427585FF3CF469537952795A795F0400D
:103010005395C9F77EF41F16BA0B620B730B840B22
:10302000BAF09150A1F0FF0FBB1F661F771F881FDA
:10303000C2F70EC0BA0F621F731F841F48F4879532
:1030400077956795B795F7959E3F08F0B0CF939524
:0E305000880F08F09927EE0F97958795089541
:10305E00A0E0B0E0E5E3F8E10C949E23DC0128014A
:10306E001696AD90BC901797F701808191811296BC
:10307E00ED91FC9113971896CD91DC9119972197AC
:10308E00F7FF02C0E1E0F0E0CA0DDB1D1882690116
:10309E00A1E0B0E08F01021B130B4C01F2E08F2276
:1030AE009924052C000C66087708CE018A199B0915
:1030BE00CA15DB0519F1411551056105710589F038
:1030CE00CB01BA01A30192010E947722CA01A62F59
:1030DE00B72F605D6A9341E0C41AD108A901BC0103
:1030EE00E4CF98012C0D3D1D121613064CF31C1443
:1030FE001D0434F48114910419F702C080E090E0AD
:10310E00AB2B31F4F701208131812F7E2083318367
:0A311E00CDB7DEB7E0E10C94B72353
:10312800CF9384E691E89F938F930E94E5234FEF16
:1031380062E070E686E892E60E94E5254FEF61E0DE
:1031480071E681E892E60E94E52582E080936604B4
:103158002FE739EA93E0215030409040E1F700C072
:103168000000809365042FE738E381E02150304068
:103178008040E1F700C0000084E0809345040F9090
:103188000F900E942726882339F00E947E26682FF8
:1031980081E892E60E947E2481E892E60E94592600
:1031A800882379F30E942126882359F381E892E63F
:1031B8000E94A025C82F0E943125CA3011F78AE045
:1031C8000E9431259FE728E331E0915020403040AC
:0E31D800E1F700C000000E94F319CF910895A6
:1031E6000F931F93CF93DF93EA0140385105D4F034
:1031F60020E030E040E05FE70E9474269E012F57F2
:103206003109203831056CF120E030E040E05FE71D
:103216000E947426CE5FD109C038D1051CF1CFE7D4
:10322600D0E020C042385F4FECF420E030E040E8C8
:103236005CE00E9474269E012A593F4F22384FEFC8
:1032460034077CF420E030E040E85CE00E9474261D
:10325600C453DF4FC2382FEFD20724F4C2E8DFEFA2
:1032660001C0E9019E0121583F4F8901330F220B0E
:10327600330BA9019801E7E1220F331F441F551FA5
:10328600EA95D1F70E947426DF91CF911F910F9195
:02329600089599
:10329800A2E0B0E0E2E5F9E10C94A0234C016B0157
:1032A800FB012281338164807580808191818983CB
:1032B8009A83A680B78037FD03C08D7F89839A8360
:1032C800FA014081518162817381CE0101967C01AE
:1032D80008E010E09301C6010E942F18298124FFFD
:1032E80006C00197F501E80FF91F20E32083298123
:1032F80023FF06C00197F501E80FF91F20E220839C
:1033080009811A81F6014085518541505109481BB0
:10331800590BB501680F791F9301C4010E94BB1DA9
:103328009C01F4018081918190FF06C0F6018281A1
:103338009381821793070CF4C9012296EEE00C944E
:02334800B923A7
:10334A0040E068ED80E690E00E946C2640E068ED7F
:10335A0081E690E00E946C2640E068ED85E690E008
:10336A000E946C2640E068ED88E790E00E946C2697
:10337A004CE068ED88E690E00E946C2640E068ED3B
:10338A0089E690E00E946C2640E068ED80E790E0D4
:10339A000E946C2640E068ED8CE790E00E946C2663
:1033AA0040E068ED82E690E00E946C2640E068ED1D
:1033BA0083E690E00E946C2640E068ED84E690E0A7
:1033CA000E946C2640E068ED80E890E00E946C263E
:0C33DA00E0E6F0E0858181FFFDCF089562
:1033E600CF9385E491E80E9433226DE471E886E884
:1033F60092E60E9448200AC00E942D26882331F0BA
:1034060086E892E60E94A0250E94812686E892E63A
:103416000E9459268111F0CFC0E01FC00E942726C6
:10342600882339F00E947E26682F81E892E60E9462
:103436007E2481E892E60E945926882379F30E9429
:103446002126882359F381E892E60E94A025C1E04F
:103456008A3009F0C0E00E943125CC23F9F22FE72B
:1034660088E391E0215080409040E1F700C00000E1
:04347600CF91089555
:10347A008F929F92AF92BF92CF92DF92EF92FF927A
:10348A000E94D20C4B015C010E94742524E036E5AF
:10349A004AE150E40E94ED2523E333E948E853E486
:1034AA000E94ED259B01AC0164E076E58AE190E497
:1034BA000E9470269B01AC0160E070E080E89FE307
:1034CA000E94EC2528E539E348EA50EC0E945904A9
:1034DA006B017C01C501B4010E945B1C20E030E055
:1034EA0048EC52E40E947026A70196010E947426B5
:1034FA00FF90EF90DF90CF90BF90AF909F908F900A
:02350A00089522
:10350C000F931F93CF93DF93DB012D913C91119778
:10351C0030FF25C016964D915C91179714962D91FE
:10352C003C9115974217530778F41296ED91FC9144
:10353C001397808312962D913C9113972F5F3F4FD9
:10354C0012962D933C93139716962D913C911797A9
:10355C002F5F3F4F16962D933C93179715C01C96D3
:10356C00ED91FC911D97309719F48FEF9FEF0CC0E4
:10357C008B01EC010995892BC1F7F80186819781A4
:10358C00019686839783CE01DF91CF911F910F9186
:02359C00089590
:10359E00EF92FF920F931F93CF93DF930F92CDB7BE
:1035AE00DEB769838A01E22E60E00E94EA21F82EDE
:1035BE00882369F161E0CE0101960E947821F82EF0
:1035CE00811104C083E08093040921C0E0E0F9E09A
:1035DE0087818160878381E08483858185FD0AC030
:1035EE00858182FD07C0858183FD04C0858183703E
:1035FE00833099F70E941525882329F083E0809364
:10360E000409F12C04C06E2DC8010E94F9208F2DE3
:10361E000F90DF91CF911F910F91FF90EF90089532
:10362E00A2E0B0E0EDE1FBE10C94A0235C016B01A4
:10363E00FB012281338184809580808191818983F1
:10364E009A836680778037FD03C08D7F89839A8346
:10365E00FA014081518162817381CE0101967C0114
:10366E000AE010E09401C6010E942F1809811A8108
:10367E00F6014085518541505109481B590BB30144
:10368E00680F791F9401C5010E94BB1D9C01F501B5
:10369E008081918190FF06C0F6018281938182170D
:0E36AE0093070CF4C9012296EEE00C94B923A8
:1036BC00CF93DF9380E491E80E943322C0E00E9414
:1036CC002726882339F00E947E26682F81E892E60F
:1036DC000E947E2481E892E60E9459268823C1F03C
:1036EC000E942126882389F081E892E60E94A02579
:1036FC00D82F0E943125DA3041F4CF5FC13029F444
:10370C0080E491E80E943322DACFC230C1F602C0C5
:10371C00C230A9F68AE00E9431252FE78AE196E0B3
:10372C00215080409040E1F700C00000DF91CF9124
:02373C000895EE
:10373E001F920F920FB60F9211242F933F934F9318
:10374E005F936F937F938F939F93AF93BF93EF93FB
:10375E00FF937A9B05C0E091B762F091B86209952C
:10376E007D9B05C0E091B562F091B66209957C9B98
:10377E0005C0E091B362F091B4620995799B05C0E2
:10378E00E091A962F091AA6209958FEF8FB9FF912E
:10379E00EF91BF91AF919F918F917F916F915F91BB
:1037AE004F913F912F910F900FBE0F901F90189534
:1037BE00CF93DF93EC018AEC94E80E9433228FEDD5
:1037CE0094E80E94332285E195E80E943322CE01CF
:1037DE000E94332269E275E886E892E60E9448204C
:1037EE00BE0186E892E60E9448200AC00E942D265D
:1037FE00882331F086E892E60E94A0250E94812659
:10380E0086E892E60E9459268111F0CF2FE788E3D1
:10381E0091E0215080409040E1F700C000000E94EE
:0C382E005E1B0E943F25DF91CF910895A2
:10383A00CF93DF93EC018AEC94E80E9433228FED58
:10384A0094E80E94332288E395E80E943322CE014D
:10385A000E9433226EE475E886E892E60E944820C8
:10386A00BE0186E892E60E9448200AC00E942D26E0
:10387A00882331F086E892E60E94A0250E948126DC
:10388A0086E892E60E9459268111F0CF2FE788E355
:10389A0091E0215080409040E1F700C000000E9472
:0C38AA005E1B0E943F25DF91CF91089526
:1038B600E89409C097FB3EF49095809570956195C4
:1038C6007F4F8F4F9F4F9923A9F0F92F96E9BB277A
:1038D6009395F695879577956795B795F111F8CFF6
:1038E600FAF4BB0F11F460FF1BC06F5F7F4F8F4F61
:1038F6009F4F16C0882311F096E911C0772321F057
:103906009EE8872F762F05C0662371F096E8862FEE
:1039160070E060E02AF09A95660F771F881FDAF745
:0A392600880F9695879597F908958C
:10393000A2E8B0E0EEE9FCE10C94A2235C014A01AC
:10394000CF57DF4F68837983C158D040C12CD12C29
:10395000CF57DF4FE881F981C158D040808188235B
:10396000E9F07401860120E830E0AE014F5F5F4F5F
:10397000BE016F577F4FC5010E94D40A8C0D9D1D5B
:103980008C159D054CF48FE490E08093006090933B
:1039900001608FEF9FEF03C06C01DACFC601CE57F5
:0839A000DF4FECE00C94BB23A7
:1039A8001F920F920FB60F9211242F933F934F93AC
:1039B8005F936F937F938F939F93AF93BF93EF938F
:1039C800FF938091430180FF07C0E091C362F091AB
:1039D800C462309709F009958091430181FF07C0BF
:1039E800E091C162F091C262309709F0099583E0D5
:1039F80080934301FF91EF91BF91AF919F918F9178
:103A08007F916F915F914F913F912F910F900FBED2
:063A18000F901F901895AD
:103A1E00CF93DF9380E491E80E943322C0E00E94AE
:103A2E002726882339F00E947E26682F81E892E6A9
:103A3E000E947E2481E892E60E945926882389F00E
:103A4E000E942126882351F081E892E60E94A0254B
:103A5E00D82F0E943125DA3009F4CF5FC130F9F644
:103A6E0002C0C130E1F68AE00E9431252FE78AE1DB
:103A7E0096E0215080409040E1F700C00000DF91B9
:043A8E00CF91089537
:103A92001F920F920FB60F9211242F933F934F93C1
:103AA2005F936F937F938F939F93AF93BF93EF93A4
:103AB200FF93599B05C0E091BB62F091BC620995EE
:103AC200589B05C0E091B962F091BA6209955A9B80
:103AD20005C0E091AB62F091AC6209958FEF8BB9B2
:103AE200FF91EF91BF91AF919F918F917F916F91D4
:103AF2005F914F913F912F910F900FBE0F901F90AA
:023B0200189514
:103B0400FF920F931F93CF93DF938C018DE591E880
:103B14000E943322C8010E943322B80186E892E64B
:103B24000E944820F12C11C086E892E60E94592692
:103B3400882371F00E942D26882351F086E892E6AE
:103B44000E94A0250E948126F394E801CF0DD11D87
:103B540088818111E9CF8FE097E20197F1F700C0E6
:103B640000000E940F1DDF91CF911F910F91FF90D4
:023B74000895B2
:103B7600A0E0B0E0E1ECFDE10C94A2236C015B0156
:103B86007A01E901480181E08822992400FD03C0F9
:103B96004217530750F0A701B501C6010E9433230F
:103BA600EC16FD0610F0C70117C08E010E191F098D
:103BB6000115110541F0B60180E290E00E94861AD7
:103BC60001501109F5CF8114910429F4A701B5011B
:103BD600C6010E943323CE01CDB7DEB7ECE00C94CC
:023BE600BB23FF
:103BE8008FE594E80E94332285EB91E80E94332206
:103BF80087E794E80E94332280E194E80E94821DBE
:103C080089E894E80E94821D8FE294E80E94821D50
:103C18006CE974E886E892E60E9448200AC00E948F
:103C28002D26882331F086E892E60E94A0250E947E
:103C3800812686E892E60E9459268111F0CF8FE00E
:103C480097E20197F1F700C000000E945E1B0895FB
:103C58000E941B26882339F00E947826682F86E860
:103C680092E60E947E240E942726882339F00E942B
:103C78007E26682F81E892E60E947E2481E892E6FB
:103C88000E945926882351F00E942126882331F06A
:103C980081E892E60E94A0250E947B2686E892E6AB
:103CA8000E945926882351F00E942D26882331F03E
:0E3CB80086E892E60E94A0250E9481260895CB
:103CC60082E991E80E94332285EB91E80E94332233
:103CD6008EEF91E80E94821D80E292E80E94821D8A
:103CE6008BE392E80E94821D8EE692E80E94821D76
:103CF60081EA92E80E94821D81EB92E80E94821D71
:103D060089EC92E80E94821D87E891E80E94821D54
:103D16008AED92E80E9433222FE788E391E0215052
:0C3D260080409040E1F700C000000895CC
:103D32001F920F920FB60F9211242F933F934F931E
:103D42005F936F937F938F939F93AF93BF93EF9301
:103D5200FF93189B05C0E091AF62F091B0620995A4
:103D6200199B05C0E091AD62F091AE6209958FEFAB
:103D720083B9FF91EF91BF91AF919F918F917F9105
:103D82006F915F914F913F912F910F900FBE0F90C6
:043D92001F901895D1
:103D96001F920F920FB60F9211242F933F934F93BA
:103DA6005F936F937F938F939F93AF93BF93EF939D
:103DB600FF93BE9B05C0E091B162F091B262099596
:103DC600BD9B05C0E091A762F091A86209958FEFAF
:103DD60087BBFF91EF91BF91AF919F918F917F919B
:103DE6006F915F914F913F912F910F900FBE0F9062
:043DF6001F9018956D
:103DFA00CF93DF93CDB7DEB72697CDBFDEBF85EF72
:103E0A0089838091E2628A8342E0BE016F5F7F4FBD
:103E1A0086E70E942C2482EF8B838091E1628C8357
:103E2A0042E0BE016D5F7F4F86E70E942C2484EF3B
:103E3A008D838091E0628E8342E0BE016B5F7F4F8B
:103E4A0086E70E942C242696CDBFDEBFDF91CF9154
:023E5A000895C9
:103E5C001F920F920FB60F9211242F933F934F93F3
:103E6C005F936F937F938F939F93AF93BF93EF93D6
:103E7C00FF938091060B80FF0AC0E091BD62F09128
:103E8C00BE62309709F0099581E08093060BFF9193
:103E9C00EF91BF91AF919F918F917F916F915F91B6
:103EAC004F913F912F910F900FBE0F901F9018952F
:103EBC001F920F920FB60F9211242F933F934F9393
:103ECC005F936F937F938F939F93AF93BF93EF9376
:103EDC00FF938091160B80FF0AC0E091C562F091B0
:103EEC00C662309709F0099581E08093160BFF911B
:103EFC00EF91BF91AF919F918F917F916F915F9156
:103F0C004F913F912F910F900FBE0F901F901895CE
:103F1C000E945D2288F09F5798F0B92F9927B751CE
:103F2C00B0F0E1F0660F771F881F991F1AF0BA9551
:103F3C00C9F714C0B13091F00E940826B1E0089581
:103F4C000C940826672F782F8827B85F39F0B93F73
:103F5C00CCF3869577956795B395D9F73EF4909504
:0E3F6C008095709561957F4F8F4F9F4F089500
:103F7A000F931F93CF93DF938C010F5F1F4FFC01A9
:103F8A008081FB0124853585232B11F0EB0109C0C3
:103F9A008FEF9FEF17C00995892BD1F7F80181910F
:103FAA008F01EC85FD85BE018111F5CF8AE0099567
:103FBA0021E030E0892B11F420E030E088279927AE
:0E3FCA00821B930BDF91CF911F910F910895F1
:103FD800E0E0F8E083E896E080879187158280EC3E
:103FE800868383E0878313861486168615868BE975
:103FF80096E28093CB629093CC628CE996E28093B0
:10400800C9629093CA628DE996E28093C7629093E1
:10401800C8621092CD621092CE62E091DB62F0919C
:0C402800DC6287E392E6808391830895B8
:10403400DC01ED91FC91119780818A3221F080E0BE
:1040440090E03AE00EC03196ED93FC93DB01ED91E4
:10405400FC911197CF0102968D939C93808191815D
:104064000895ED91FC911197208120532A3068F432
:10407400389FA001399F500D1124CA01820F911D50
:0C4084003196ED93FC931197ECCF08955A
:10409000CF93DF93FC01EB0188819481492F50E09D
:1040A0004F5F5F4F238130E042175307D9F08823D9
:1040B000C9F070E0A081B181A90FB11D8C939481EA
:1040C0009F5F94837F5FDE01A70FB11D8C91492F05
:1040D00050E04F5F5F4F238130E04217530711F0EC
:0A40E0008111E8CFDF91CF91089520
:1040EA001F920F920FB60F9211242F933F934F9363
:1040FA005F936F937F938F939F93AF93BF93EF9346
:10410A00FF9382E080930D06E091A562F091A6628A
:10411A00309709F00995FF91EF91BF91AF919F9167
:10412A008F917F916F915F914F913F912F910F9056
:08413A000FBE0F901F901895B5
:104142001F920F920FB60F9211242F933F934F930A
:104152005F936F937F938F939F93AF93BF93EF93ED
:10416200FF9381E080930D06E091A362F091A46237
:10417200309709F00995FF91EF91BF91AF919F910F
:104182008F917F916F915F914F913F912F910F90FE
:084192000FBE0F901F9018955D
:10419A001F920F920FB60F9211242F933F934F93B2
:1041AA005F936F937F938F939F93AF93BF93EF9395
:1041BA00FF93E091BF62F091C062309709F00995D0
:1041CA0081E080935301FF91EF91BF91AF919F914D
:1041DA008F917F916F915F914F913F912F910F90A6
:0841EA000FBE0F901F90189505
:1041F20020E2209305096623D1F0A82FB92F90E081
:10420200E0E0F9E022E0858185FD17C0858182FD2D
:1042120007C0858183FD04C085818370833099F74F
:1042220080858D939F5F691711F02483ECCF87E01F
:104232008093040908952483E6CF80858D939F5F40
:064242006913F9CFF4CF6F
:10424800CF93DF93EC010E9454260E9474250E94AC
:10425800F32568830E943D1A20E030E040E251E4F3
:104268000E9470260E948E1F6B830E947F250E94E9
:104278008E1F69830E9433268A8384E68C8380910B
:10428800D7629091D8628D83CE010E949515DF91F7
:04429800CF91089525
:10429C00A0E0B0E0E4E5F1E20C94A4237C01FB0186
:1042AC00EA01C901A280B380C480D580008111814C
:1042BC00209711F4CEE6D2E6009719F4CE010E94B5
:1042CC004D25B7FC04C0A816B90608F4C501960123
:1042DC00AC01BE01C7010E94BB1DCDB7DEB7EAE041
:0442EC000C94BD234E
:1042F000662309F1DC016150262F30E02F5F3F4F2C
:10430000280F391FE0E0F9E09D919087958195FD98
:104310000AC0958192FD07C0958193FD04C09581E7
:104320009370933099F7958194FD07C0A217B30756
:0E43300059F781E0089581E0089580E0089536
:10433E00E0E2F8E086E191E080879187158280ECDB
:10434E00868383E0878313861486168615868EE908
:10435E0096E28093D3629093D4628FE996E2809333
:10436E00D1629093D26280EA96E28093CF6290936C
:0C437E00D0621092D5621092D6620895B1
:10438A00E0E0F2E0108A118A128A138A8EE4848BA2
:10439A00158A10A610A211A212A213A214A215A283
:1043AA0016A217A211A617A610AA85E081AB12AA17
:1043BA0013AA14AA15A616A612A613A614A615AA17
:0A43CA0016AA17AA10AE80E00895AD
:1043D4009091050993709330E1F0880F682B6093F6
:1043E4000709E0E0F9E0858185FD0AC0858182FD49
:1043F40007C0858183FD04C085818370833099F76C
:104404000E941525882339F083E08093040980E015
:0A441400089580E0089581E0089506
:10441E00990F0008550FAA0BE0E8FEEF16161706C7
:10442E00E807F907C0F012161306E407F50798F02F
:10443E00621B730B840B950B39F40A2661F0232B48
:10444E00242B252B21F408950A2609F4A140A695C4
:08445E008FEF811D811D0895FF
:10446600CF92DF92FF920F931F93CF93DF936C014E
:10447600F12C09C00E942126882341F0F801808191
:104486000E943125F394E601CF0DD11D8E0188815E
:104496008111F0CFDF91CF911F910F91FF90DF90A7
:0444A600CF90089516
:1044AA0057FD9058440F551F59F05F3F71F04795DB
:1044BA00880F97FB991F61F09F3F79F087950895C0
:1044CA00121613061406551FF2CF4695F1DF08C0DF
:1044DA00161617061806991FF1CF869571056105FC
:0444EA000894089595
:1044EE00A1E21A2EAA1BBB1BFD010DC0AA1FBB1FEA
:1044FE00EE1FFF1FA217B307E407F50720F0A21B5C
:10450E00B30BE40BF50B661F771F881F991F1A94C8
:10451E0069F760957095809590959B01AC01BD01F2
:04452E00CF0108951C
:104532008CE698E80E94B3250E9441248FE493EC14
:104542000197F1F700C000000E9462128091E262BE
:1045520081788093E26285E28093E06281E08093D9
:10456200E1620E94FD1E84E898E80E94B32581E082
:024572000895AA
:10457400CF93DF93EC0190E0E92FF0E0EE0FFF1F03
:10458400EF5DFD498081811102C081810EC0A88147
:10459400B9812C91821305C091811196A883B983A6
:1045A40001C09F5F9B3040F3892FDF91CF91089525
:1045B4008091A80486FF16C080E28093A5048091B0
:1045C400D9629091DA6281608093D9629093DA62C1
:1045D4008091D9629091DA628F7E8093D9629093B0
:0C45E400DA62089580E28093A604089536
:1045F00089342DE0920710F088E49DE0883027E0B0
:10460000920710F488E097E0BC016850774080E0A2
:1046100090E00E945B1C2BEB3FE040E85DE30E94D2
:0C46200074260E948E1F84E6861B0895FD
:10462C00E0E4F1E081818111FDCFE0E4F1E08FEF76
:10463C0093E084879587108611868287938781E023
:10464C008783128281898111FDCFE0E4F1E081E062
:0A465C00828B89E4808B80E00895D2
:10466600A0E0B0E0E9E3F3E20C94A6236C01EB01D1
:104676008A017B01E40EF51ECE15DF0541F0899116
:10468600B601082E000C990B0E94861AF5CFC801B8
:0A469600CDB7DEB7E8E00C94BF23B7
:1046A000CF93DF9300D0CDB7DEB78091E0628C7FEF
:1046B00081608093E06294EF99838A8342E0BE0137
:1046C0006F5F7F4F86E70E942C240F900F90DF9141
:0446D000CF910895E9
:1046D400E0E0F6E0118212821382148216861386B9
:1046E400148681E0808780E481878FEF85838FEF54
:1046F4009FE0848B958B128A138A83E0808380E009
:02470400089516
:104706000E94D3130E946A230E94A5190E94C52104
:104716000E9416230E9407250E9492240E94A52427
:104726000E94EC1F0E949F210E94C5250E945B25C6
:024736000895E4
:104738002F923F924F925F926F927F928F929F92A9
:10474800AF92BF92CF92DF92EF92FF920F931F9397
:10475800CF93DF93CDB7DEB7CA1BDB0BCDBFDEBF70
:024768000994B2
:10476A002A88398848885F846E847D848C849B84F7
:10477A00AA84B984C884DF80EE80FD800C811B8105
:10478A00AA81B981CE0FD11DCDBFDEBFED0108953B
:10479A00A0E0B0E0E3EDF3E20C94AC23AE014B5F92
:1047AA005F4FFA0161917191AF01E091DB62F09183
:1047BA00DC62808191810E94FD23E2E00C94C52392
:1047CA00A0E0B0E0EBEEF3E20C94AC23AE014B5F59
:1047DA005F4FFA0161917191AF01E091DB62F09153
:1047EA00DC62808191810E94FD23E2E00C94C52362
:1047FA00A2E0B0E0E3E0F4E20C94AA238C0149833E
:10480A005A83AE014F5F5F4F0E94981CF8012081C6
:10481A0024FF02C08FEF9FEF2296E4E00C94C3239B
:10482A000E9483230E94232586E594E20E944F2654
:10483A008AED92E20E9445268AE694E20E944A267E
:0E484A0087E998E80E94B3250E942A0EFDCF50
:104858001F93CF93DF93EB01142F60E00E94EA21AE
:10486800882339F0612FCE010E94782193E090933C
:0A4878000409DF91CF911F9108950C
:10488200CF93DF9300D0CDB7DEB780EE898386EB7E
:104892008A8342E0BE016F5F7F4F86E70E942C242D
:0A48A2000F900F90DF91CF91089561
:1048AC0080918F6290919062A0919162B09192628E
:1048BC000196A11DB11D80938F6290939062A0937D
:0848CC009162B093926208951D
:1048D40080918B6290918C62A0918D62B0918E6276
:1048E4000196A11DB11D80938B6290938C62A0935D
:0848F4008D62B0938E620895FD
:1048FC00FC014481242F30E02F5F3F4F838190E0F7
:10490C002817390741F0A081B181A40FB11D6C9318
:08491C0084818F5F84830895FC
:10492400E0E0FBE08FEF9FEF848795871286138684
:1049340086E08183108681E1848381E08583168209
:0649440011868083089536
:10494A00E0E1FBE080EA9FE0848795871286138680
:10495A0086E081831086148281E08583168211861F
:04496A0080830895A9
:10496E00092E0394000C11F4882352F0BB0F40F46F
:10497E00BF2B11F460FF04C06F5F7F4F8F4F9F4FAF
:02498E0008958A
:10499000E0E0F6E0808781E082870E946826882335
:1049A000E1F3E0E0F6E08089918921E02587089530
:1049B00082E00E94C8249F938F9380E795E89F939D
:1049C0008F930E94CD230F900F900F900F9008951A
:1049D000DB018F939F930E948A25BF91AF91A29F85
:1049E000800D911DA39F900DB29F900D11240895ED
:1049F000A29FB001B39FC001A39F700D811D112420
:0E4A0000911DB29F700D811D1124911D08950E
:104A0E0043E068ED80E590E00E946C2640E068EDA2
:0C4A1E0081E590E00E946C2680E0089585
:104A2A00809105098C7141F490910509937081E098
:0C4A3A00933019F080E0089581E00895A9
:104A46000E94CD25E0E0F9E084E0808381E0828366
:0C4A56009DEF95839FE096838383089575
:104A6200CF93C82F0E942126882331F0E0E0F8E09E
:0C4A7200948190649483C283CF910895D6
:104A7E0087E891E80E94821D2FE788E391E021509C
:0C4A8E0080409040E1F700C00000089557
:104A9A00FC01AF014F5F5F4F2081222311F0FA0121
:0C4AAA00F8CF9F01281B390BC9010895AB
:104AB60040E068ED80E191E00E946C26E0E1F1E0E3
:0A4AC60012821382789480E00895B4
:104AD000CF93C82F0E9421268823E1F3C0930208B8
:084AE00080E090E0CF91089501
:104AE8000E9472140E945B1C20E030E048EC52E403
:064AF8000E9470260895E3
:104AFE000E9478100E945B1C20E030E040E85AE3F0
:064B0E000E9474260895C8
:104B14000E94F824A59F900DB49F900DA49F800D32
:064B2400911D112408950B
:104B2A00EC010E94A2260E94A126CE010E94A32681
:064B3A00CE010E948E2650
:104B4000FC019381A081B181A90FB11D8C919F5F60
:044B500093830895AE
:104B54000E94F41D0E943F258BEA94E80E94B3252D
:024B64000895B2
:104B6600E091DB62F091DC62608171810E94BD1F81
:024B76000895A0
:104B78009C01215631092A31310510F48F75992786
:024B880008958E
:104B8A00E0EBF0E0148285E88083128280E00895E9
:104B9A00E0E0F4E08AE0818388E0838B828B0895E9
:104BAA00B7FF0C948A250E948A25821B930B0895CD
:104BBA009C01215431092A31310508F48062089593
:0E4BCA00FC016083718342831382148208957C
:0E4BD8005058BB27AA270E94C8170C94B72478
:0E4BE6000E948E1F6894B1110C940926089548
:0E4BF40000240A9416161706180609060895DE
:0E4C020000240A9412161306140605060895DF
:0E4C1000E894BB2766277727CB0197F9089514
:0C4C1E00E0E4F1E0808181608083089573
:0C4C2A00E0E4F1E080818E7F808308953B
:0C4C360080910408881F8827881F0895BB
:0C4C42008091040885FB882780F9089504
:0C4C4E0080912408881F8827881F089583
:0C4C5A008091240885FB882780F90895CC
:0C4C660082E00E94C8240E94F8220895F9
:0C4C720097F99F6780E870E060E008950B
:0C4C7E00EE0FFF1F0590F491E02D09944B
:0A4C8A008093BD629093BE6208950E
:0A4C94008093BF629093C062089500
:0A4C9E008093C5629093C6620895EA
:0A4CA8000E9450230E940615089593
:0A4CB200FC0183819481891B0895A1
:0A4CBC000E940F2208F481E0089521
:0A4CC6000E940F2208F48FEF0895FA
:084CD00080910D06817008952A
:084CD800FC0164BF4083089554
:084CE0000E9487160C94B72412
:084CE8000E94F6160C94B7249B
:064CF00080910008089508
:064CF600809302080895FE
:064CFC00809120080895DC
:064D0200809322080895D1
:064D08000E94631E0895E5
:064D0E009FEF80EC089508
:044D14000C940000FB
:044D18009F770895E4
:044D1C000E949E0053
:024D20000895F4
:024D22000895F2
:024D24000895F0
:024D26000895EE
:024D28000895EC
:024D2A000895EA
:024D2C000895E8
:024D2E000895E6
:024D30000895E4
:024D32000895E2
:024D34000895E0
:024D36000895DE
:024D38000895DC
:024D3A000895DA
:024D3C000895D8
:024D3E000895D6
:024D40000895D4
:024D42000895D2
:024D44000895D0
:024D46000895CE
:104D480068076C094C836A9074A07AC000806888F0
:064D580000846C82008162
:104D5E0003000000000000000000000068250000B5
:084D6E0000000000DCCFD1358C
:084D76000000000000C0153F21
:084D7E000000803F0000C03F6F
:074D8600286E756C6C29001A
:064D8D00286E696C29008C
:024D9300DD62DF
:02000004008278
:090000000000000000D00800001F
:00000001FF
