:100000000C9469000C9407260C9407260C94072680
:100010000C9407260C949D1C0C9425200C94072608
:100020000C94F11D0C9407260C9407260C940726BB
:100030000C9407260C9407260C94861E0C94B61E6E
:100040000C9407260C9407260C9407260C9407267C
:100050000C9407260C9407260C9407260C9407266C
:100060000C942C1B0C9407260C94F91F0C94CD1F98
:100070000C9407260C94121D0C9407260C9407264A
:100080000C9407260C9407260C94231E0C94072628
:10009000470E670E6A0E720E900EC10EDF0EEF0E47
:1000A000F20E060F0E0F1A0F6000622180622162AD
:1000B00047004C4262476256806256627B004C6841
:1000C000627B62D78062D762D9004C8D62D962E0D0
:1000D0008000809101108F7C806080688093011087
:1000E00011241FBECFEFCDBFDFE7DEBFE8EAF0E0AF
:1000F00040E017C0B591A59135912591059107FD77
:100100000CC095918591EF01F92FE82F05900D9284
:10011000A217B307D9F7FE0104C01D92A217B307B7
:10012000E1F7E13DF40731F70E9492230C94122588
:04013000F894FFCF71
:1001340052783A200048574555493A20007379735C
:10014400206765742068776575690D0A000D0A5487
:10015400783A20000A496E697469616C697A696E3B
:100164006720524E327878332E2E2E0A4669726DED
:10017400776172653A20006D616320736176650D65
:100184000A000A0A436F6E6669677572696E6720B2
:10019400524E3278783320466F7220414250206AA2
:1001A4006F696E0A002D2D2D2D2D2D2D2D2D2D2D0C
:1001B4002D2D2D2D2D2D2D2D2D2D2D2D2D2D2D2D6B
:1001C4002D2D2D2D2D2D2D2D2D2D2D2D2D2D2D2D5B
:1001D4002D2D2D2D2D2D2D2D2D2D2D2D2D2D2D2D4B
:1001E4002D2D2D2D2D2D2D2D2D2D2D2D0A006D6117
:1001F400632073657420647220330D0A006D61639B
:1002040020736574206465766575692037304233E0
:100214004435374544303035413642370D0A006D98
:10022400616320736574206465766164647220324E
:10023400363043383836430D0A006D6163207365E8
:100244007420617070736B6579203846433041398E
:100254003035303643304138364545344532383808
:10026400413237423234423634370D0A006D61630D
:1002740020736574206E776B736B657920444146F7
:10028400453839313231323231363145303636390A
:10029400393133364530434533334630430D0A0054
:1002A4006D61632073657420727864656C61793163
:1002B40020353030300D0A006D6163207365742081
:1002C400616472206F6E0D0A000A000A0A436F6EA1
:1002D4006669677572696E6720524E32787833208A
:1002E400466F72204F544141206A6F696E0A006D57
:1002F40061632070617573650D0A006D616320721E
:100304006573756D650D0A006D61632073657420F6
:10031400647220300D0A006D61632073657420647B
:100324006576657569203030303441333042303081
:100334004638363137450D0A006D616320736574A4
:10034400206465766164647220303030303030303F
:10035400300D0A006D6163207365742061707073E1
:100364006B657920303030303030303030303030E0
:100374003030303030303030303030303030303079
:10038400303030300D0A006D616320736574206E67
:10039400776B736B657920303030303030303030EB
:1003A4003030303030303030303030303030303049
:1003B400303030303030300D0A006D6163207365A9
:1003C40074206170706B657920353032394237386A
:1003D4003842303235374632413234313942413392
:1003E4003944413339333341370D0A006D61632099
:1003F40073657420617070657569203030303030F9
:1004040030303030303030303030300D0A006D61F3
:100414006320736574206172206F6E0D0A000A0AEE
:100424004A6F696E696E672054544E207769746808
:10043400204F5441410A0054783A206D6163206A88
:100444006F696E206F7461610A006D6163206A6F69
:10045400696E206F7461610D0A000A0A4A6F696E41
:10046400696E672054544E20776974682041425065
:100474000A0054783A206D6163206A6F696E2061C6
:1004840062700A006D6163206A6F696E2061627038
:100494000D0A000A507265737320627574746F6E6E
:1004A40020746F207472616E736D6974206461745A
:1004B40061000A0A5472616E736D697474696E67BF
:1004C40020446174610A002D2D2D2D2D2D2D2D2DEF
:1004D4002D2D2D2D2D2D2D2D2D2D2D2D2D2D2D2D48
:1004E4002D2D2D2D2D2D2D2D2D2D2D2D2D2D2D2D38
:1004F4002D2D2D2D2D2D2D2D2D2D2D0A000A547829
:100504003A206D616320747820636E662031302058
:10051400006D616320747820636E662031302000A2
:100524000A54783A206D616320747820756E636E86
:100534006620313120006D616320747820756E630C
:100544006E6620313120006D61632067657420730D
:1005540074617475730D0A0073797320736C656527
:09056400702031383030303000D5
:10056D0025640A000A4166746572203130303020EE
:10057D004D6F6973747572652052656164696E673C
:10058D0073002D2D2D2D2D2D2D2D2D2D2D2D2D2D75
:10059D002D2D2D2D2D2D2D2D2D2D2D2D2D2D2D2D7E
:1005AD002D2D2D2D2D2D2D2D2D2D2D2D2D2D2D2D6E
:1005BD002D2D2D2D2D2D2D2D2D2D2D2D2D2D2D2D5E
:1005CD002D2D2D2D2D2D2D2D2D00546865204D41BA
:1005DD00582072656164696E6720776173202564A8
:1005ED000A00546865204D494E2072656164696E3C
:1005FD0067207761732025640A0A00546865204DD1
:10060D004158206D61707320746F2025640A005469
:10061D006865204D494E206D61707320746F2025E3
:10062D00640A000A0A43757272656E742053656E12
:10063D00736F7220446174610A002D2D2D2D2D2DA7
:10064D002D2D2D2D2D2D2D2D2D2D2D2D2D2D2D2DCD
:10065D002D2D2D2D2D2D2D2D2D2D2D2D2D2D2D2DBD
:10066D002D2D2D2D2D2D2D2D2D2D2D2D2D2D2D2DAD
:10067D002D2D2D2D2D2D2D2D2D2D2D2D2D2D2D2D9D
:10068D002D0A0052656C61746976652048756D6937
:10069D00646974793A2025752525200D0A004D6F62
:1006AD006973747572653A2025752525200D0A002C
:1006BD0050726573737572653A20257520685061A7
:1006CD000D0A0054656D70657261747572653A201E
:1006DD0025692043200D0A000A4A534F4E20466FCC
:1006ED00726D61740D005061796C6F61643A207B9D
:1006FD002074656D703A2025692C2068756D6964CC
:10070D006974793A2025752C206D6F697374757233
:10071D00653A2025752C2070726573737572653A74
:10072D002025750D0A0A7D003031323334353637C8
:10073D003839414243444546000A5765617468653E
:10074D007220436C69636B204E4F5420696E69743F
:10075D0069616C697A65642070726F7065726C790D
:10076D0021000A496E74657261637469766520545F
:10077D0065726D696E616C20697320616374697651
:10078D00653A20636F6D6D616E6473207375636878
:10079D00206173202773797320666163746F72799A
:1007AD005245534554272077696C6C006265207360
:1007BD00656E7420746F2074686520524E3278789F
:1007CD003320616E6420726573706F6E7365732074
:1007DD0077696C6C2062652061707065617220684C
:1007ED006572652E000A5768656E207265616479C1
:1007FD002C20707265737320627574746F6E207423
:10080D006F206A6F696E2054544E0A00544F444F46
:10081D003A20205772697465206C6F7720706F775E
:0C082D0065722074657374732E2E2E000B
:100839000A496E697469616C697A696E6720424D0B
:10084900453238302E2E2E00424D4532383020693F
:0B0859006E697469616C697A65640067
:1008640057656C636F6D6520746F207468652041F3
:0A0874006772692D496F542E0A00C7
:10087E00A2E2B0E0E5E4F4E00C941B2329833A8372
:10088E004B835C8329013A01E89477F841145104B3
:10089E006104710409F458C669877A878B879C872F
:1008AE007B018C0161157105A0E88A07AFE39A07F9
:1008BE0009F44AC62D873E874F87588B4B015C0142
:1008CE006B017C01E894F7F8B1E0CB16D104B0E8E7
:1008DE00EB06BFE7FB0644F4E1E04E165104E0E8F8
:1008EE006E06EFE77E064CF02D853E854F855889C6
:1008FE00C501B4010E946A2532C609851A852B8569
:10090E003C8537FF4DC04114510410E861061BE4CD
:10091E0071060CF04AC04114510420E862062FE320
:10092E0072060CF470C0D301C20107E1B595A7950C
:10093E00979587950A95D1F78F579109A109B10916
:10094E0027E130E0281B390BD301C201022E04C06F
:10095E00B595A795979587950A94D2F7AC01BD01E9
:10096E0004C0440F551F661F771F2A95D2F74416F1
:10097E0055066606770609F046C081709927AA27A4
:10098E00BB2742E050E060E070E08A019B01081B4B
:10099E00190B2A0B3B0B0D831E832F83388737C011
:1009AE001D821E821F82188608C022E030E040E0C1
:1009BE0050E02D833E834F8358874114510430E815
:1009CE0063063FE7730619F5C114D10440E8E40647
:1009DE004FE3F40609F4B8C55CF0E980FA800B81A8
:1009EE001C8117FDB6C56D857E858F859889B7C527
:1009FE00E980FA800B811C8117FFABC56D857E8562
:100A0E008F8598898AC01D821E821F821886411486
:100A1E00510400E860060FE3700669F4E980FA807D
:100A2E000B811C8117FF99C5A501940160E070E050
:100A3E0080E89FE365C009811A812B813C810115F5
:100A4E001105210540E4340729F4A5019401C501DF
:100A5E00B401C2C089819A81AB81BC810097A10586
:100A6E00BF4359F409851A852B853C8537FD05C092
:100A7E00C501B4010E94310F72C5C501B4010E94B7
:100A8E000926C114D104E104F10449F09501840151
:100A9E003F730115110520483F4309F040C00981FD
:100AAE001A812B813C8137FF08C09B01AC0160E0AD
:100ABE0070E080E89FE30E94ED2529853A854B85FD
:100ACE005C8557FF4CC530E8E31A3FE3F30A0D810E
:100ADE001E812F813885C02AD12AE22AF32AC11419
:100AEE00D104E104F10479F421E230E020930060B6
:100AFE00309301609B01AC010E9469259B01AC0102
:100B0E000E94ED252CC52D813E814F8158852130C7
:100B1E0031054105510509F022C5905820C50985BA
:100B2E001A852B853C8537FF21C02D813E814F8153
:100B3E005885232B242B252B59F481E290E08093AA
:100B4E00006090930160A5019401C501B401D4CF5A
:100B5E000D811E812F81388501301105210531054A
:100B6E0071F420E030E040E85FEB0DC000E010E0F3
:100B7E0020E83FE30D831E832F83388708C020E0D3
:100B8E0030E040E85FE32D833E834F83588731E0AA
:100B9E004316510461043DE473060CF497C048EF0C
:100BAE00C4164FEFD4064FE7E4064FE3F406BCF449
:100BBE00E980FA800B811C8117FF4BC32AEC32EFC0
:100BCE0049E451E76D817E818F8198850E94F125E0
:100BDE002AEC32EF49E451E70E94F125C0C408E047
:100BEE00C016D10400E8E0060FE3F00654F0E980E9
:100BFE00FA800B811C811E141F0410061106F4F2DC
:100C0E0028C320E030E040E85FE30E9469256B01D5
:100C1E007C0120E03AEA48EB5FE30E94F1254B01AC
:100C2E005C0120E735EA4CEE56E3C701B6010E949F
:100C3E00F12569837A838B839C8320E030E040E842
:100C4E005EE3C701B6010E94F1259B01AC016BEA80
:100C5E007AEA8AEA9EE30E946925A70196010E941C
:100C6E00F1259B01AC0160E070E080E09FE30E9403
:100C7E0069252B013C01A7019601C701B6010E940F
:100C8E00F1259B01AC01C301B2010E94F1252BE3BA
:100C9E003AEA48EB5FE30E94F1259B01AC016981C2
:100CAE007A818B819C810E9469256B017C019B015D
:100CBE00AC01C501B4010E946A256627707F698761
:100CCE007A878B879C87A501940120C2C114D10419
:100CDE0000E8E006F1046CF420E030E040E85BE46C
:100CEE000E94F1256B017C0148EE5FEF6FEF7FEF05
:100CFE0003C040E050E0BA01D701C60117E1B59537
:100D0E00A795979587951A95D1F78F579109A109B0
:100D1E00B1098C019D01040F151F261F371F0D8B66
:100D2E001E8B2F8B388FE894E7F8FF24460157016E
:100D3E006894A7F81FE3B12A22E7C21624ECD20664
:100D4E002CE1E206F104B4F037EDC31633EBD30613
:100D5E003DE5E306F1049CF08D899E89AF89B88D3F
:100D6E000196A11DB11D8D8B9E8BAF8BB88F90E818
:100D7E00A91AB10819861A861B861C8608C0E12C92
:100D8E00F12C8701E394E986FA860B871C87098587
:100D9E001A85000F111F000F111F09A31AA3F801C6
:100DAE00EA59FD49E080F18002811381E98AFA8ACD
:100DBE000B8B1C8BA8019701C501B4010E946925FC
:100DCE00698F7A8F8B8F9C8FA8019701C501B40113
:100DDE000E946A259B01AC0160E070E080E89FE311
:100DEE000E94ED256D8F7E8F8F8F98A39B01AC0196
:100DFE00698D7A8D8B8D9C8D0E94F12569837A8306
:100E0E008B839C8349805A806B807C80442400EFC6
:100E1E00502275016401F594E794D794C794CC24BD
:100E2E0010EFD122E894F5F86894F5F8D701C601D1
:100E3E00A05CBF4FC984DA84EB84FC84F5E1CC0C52
:100E4E00DD1CEE1CFF1CFA95D1F7C80ED91EEA1E4A
:100E5E00FB1EA7019601C301B2010E94F1259B0161
:100E6E00AC01698D7A8D8B8D9C8D0E946925698769
:100E7E007A878B879C8729893A894B895C89C70138
:100E8E00B6010E9469259B01AC01C501B4010E9407
:100E9E006925A30192010E94F1259B01AC01698590
:100EAE007A858B859C850E9469252D8D3E8D4F8D73
:100EBE0058A10E94F12569877A878B879C872981A3
:100ECE003A814B815C81CA01B9010E94F1256B0107
:100EDE007C0122E431EF43E55EE30E94F12525E536
:100EEE0032E34CE65EE30E946A25A70196010E945A
:100EFE00F12525E033EA4BE85EE30E946A25A7015F
:100F0E0096010E94F1252BEA3AEA4AEA5EE30E9434
:100F1E006A25A70196010E94F12527EB3DE64BEDD0
:100F2E005EE30E946A25A70196010E94F1252AE937
:100F3E0039E949E15FE30E946A254B015C01A70193
:100F4E009601C701B6010E94F1259B01AC01C501B6
:100F5E00B4010E94F1256B017C01A301920169810C
:100F6E007A818B819C810E946A2529853A854B85E1
:100F7E005C850E94F125A70196010E946A256B01EE
:100F8E007C01A3019201C301B2010E94F125698B7C
:100F9E007A8B8B8B9C8B20E030E040E450E40E94F7
:100FAE006A25A70196010E946A254B015C018824DF
:100FBE0020EF9222A5019401C301B2010E94F125F6
:100FCE002B013C0120E030E040E450E4C501B401C7
:100FDE000E94692529893A894B895C890E94692575
:100FEE009B01AC01C701B6010E94692529813A8196
:100FFE004B815C810E94F1256B017C01A50194015E
:10100E0069857A858B859C850E94F1259B01AC01B3
:10101E00C701B6010E946A254B015C019B01AC0120
:10102E00C301B2010E946A256B017C01CC2430EF12
:10103E00D32220E030E446E75FE3C701B6010E9409
:10104E00F12569837A838B839C83A3019201C70167
:10105E00B6010E9469259B01AC01C501B4010E9435
:10106E0069252FE438E346E75FE30E94F1254B0143
:10107E005C0126EC33E246EF58EBC701B6010E9445
:10108E00F1259B01AC01C501B4010E946A25E9A1BD
:10109E00FAA1EA5AFD4920813181428153810E9491
:1010AE006A256B017C016D897E898F89988D0E94DE
:1010BE00EA1B4B015C0109A11AA1025A1D49D80174
:1010CE004D905D906D907C90A701960169817A811B
:1010DE008B819C810E946A25A30192010E946A2540
:1010EE00A50194010E946A256627707F69877A8719
:1010FE008B879C87A50194010E946925A30192010B
:10110E000E94692529813A814B815C810E94692563
:10111E009B01AC01C701B6010E9469254B015C0120
:10112E00CD84DE84EF84F888CC24B0EFDB22A701D7
:10113E0096016D857E858F8598890E946925298502
:10114E003A854B855C850E94F1252B013C012D854E
:10115E003E854F855889C501B4010E94F1259B013A
:10116E00AC01C301B2010E946A2569837A838B8325
:10117E009C83A701960169857A858B859C850E9443
:10118E00F125962EA72EB82E892E6987798B182FCA
:10119E00092F262F372F482F592F69817A818B815E
:1011AE009C810E946A256B017C016D877E878F87EB
:1011BE00988B81E0C816D104E10483E4F8060CF0A4
:1011CE00FDCC2D853E854F8558892115310541056C
:1011DE005344E9F42CE33AEA48E353E369817A8114
:1011EE008B819C810E946A252B013C01292D3A2D71
:1011FE004B2D582DC701B6010E9469259B01AC01EC
:10120E00C301B2010E94E025181694F5D7CCD70180
:10121E00C601BF770197A641B344DCF42D853E8508
:10122E004F855889211531054641534C09F5292D15
:10123E003A2D4B2D582DC701B6010E9469259B01F1
:10124E00AC0169817A818B819C810E94DB25181605
:10125E007CF020E632E442EA5DE06D817E818F8192
:10126E0098850E94F12520E632E442EA5DE0B4CC96
:10127E00D701C601BF7781309105A105EFE3BE0707
:10128E000CF46AC057E1B595A795979587955A9531
:10129E00D1F78E5740E050E060E870E08A019B0184
:1012AE0004C035952795179507958A95D2F7C00EE8
:1012BE00D11EE21EF31E26013701E89477F867E18E
:1012CE0075946794579447946A95D1F71FE7411A1E
:1012DE005108610871088FEF9FEFAFE7B0E0042C63
:1012EE0004C0B595A795979587950A94D2F78095E2
:1012FE009095A095B0959C01AD012C213D214E21DC
:10130E005F21E894E7F8FF246894E7F887E190E01E
:10131E00841995092601370104C075946794579472
:10132E0047948A95D2F7ED84FE840F85188917FFAE
:10133E0008C07094609450944094411C511C611CE0
:10134E00711C692D7A2D8B2D982D0E946925698728
:10135E00798B182F092F03C0412C512C3201298172
:10136E003A814B815C8169857989812F902F0E940A
:10137E006A254B015C01882420E8922220E032E7A6
:10138E0041E35FE3C501B4010E94F1256D877E87BD
:10139E008F87988B29853989412F502FC501B4012C
:1013AE000E9469259B01AC0169817A818B819C81A8
:1013BE000E94692528E132E741E35FE30E94F125AF
:1013CE006B017C012CE83EEB4FEB55E3C501B401FC
:1013DE000E94F1259B01AC01C701B6010E946A254E
:1013EE004B015C019B01AC016D857E858F859889D3
:1013FE000E946A256B017C012D853E854F8558899B
:10140E000E9469259B01AC01C501B4010E946925AA
:10141E0069837A838B839C83A7019601C701B601EA
:10142E000E94F1254B015C012CE43BEB41E353E3BD
:10143E000E94F1252EE03AEE4DED55E30E9469250E
:10144E00A50194010E94F12525E533EB4AE858E306
:10145E000E946A25A50194010E94F12521E63BE038
:10146E0046E35BE30E946925A50194010E94F125E4
:10147E002BEA3AEA4AE25EE30E946A25A50194014C
:10148E000E94F1259B01AC01C701B6010E9469259E
:10149E004B015C019B01AC01C701B6010E94F12515
:1014AE006D877E878F87988B20E030E040E050E498
:1014BE00C501B4010E9469259B01AC016D857E8535
:1014CE008F8598890E94ED254B015C0129813A8117
:1014DE004B815C81C701B6010E94F12529813A81B9
:1014EE004B815C810E946A259B01AC01C501B40150
:1014FE000E946925A70196010E9469259B01AC01F6
:10150E0060E070E080E89FE30E946925930182010C
:10151E0047E1000F111F221F331F4A95D1F7060F07
:10152E00171F281F391F0115110540E82407310523
:10153E0024F4A2010E94801802C0C901B8012D81B5
:10154E003E814F81588548CB60E070E080E89FE394
:10155E0006C060E070E0CB0102C0C501B401A296E6
:06156E00E0E10C943423BF
:10157400AEE0B0E0E0ECFAE00C941C234C016B010B
:1015840019821A828FEF9FEF8B839C831D821E82A8
:101594004F83588729873A87A12CB12CD6016D90A7
:1015A4007C90F301EA0DFB1D808181110FC0D601EF
:1015B400ED93FC938081853209F0D3C13F01BFEFE5
:1015C4006B1A7B0AF6016082718219C0853279F345
:1015D400B401082E000C990B0E94131A4FEFA41AA1
:1015E400B40ADCCF8C32ACF08D32F9F489819A8163
:1015F400816089839A833196D601ED93FC93D60159
:10160400ED91FC9180818B3269F789819A818460A4
:10161400F0CF803221F489819A818860EACF8332C5
:1016240051F489819A818061E4CF803321F48981E6
:101634009A818260DECFB701C6010E94721F8D833A
:101644009E8397FF0BC029813A81B1E02B27298320
:101654003A839195819591098D839E8389819A819D
:1016640080FF03C08D7F89839A83D601ED91FC911D
:10167400119780818E3249F43196ED93FC93B70132
:10168400C6010E94721F8B839C83C6010E9437226D
:10169400582ED601ED91FC918081082E000C990BF7
:1016A4000E945A25893609F443C084F4833609F428
:1016B40002C134F4853209F427C18136E1F030C126
:1016C4008436B1F188360CF4D9C02AC1803709F4C4
:1016D4009AC03CF48E3609F4BCC08F3609F461C05C
:1016E4001FC1853709F440C0883709F476C08337B1
:1016F40009F016C1F3C0652D70E0A701CE010B9669
:101704000E940000892B09F426C1D601ED91FC91B9
:101714001197CF0101968D939C932081AE01455F73
:101724005F4FBE016F5F7F4FC4010E94000010C174
:10173400652D70E0970141E050E0CE010B960E94C8
:10174400ED16892B09F407C1F60180819181019678
:1017540080839183AE01455F5F4FBE016F5F7F4F12
:10176400C4010E943115F4C0652D70E0970140E07A
:1017740050E0CE010B960E94ED16892B09F4EBC0C4
:10178400D6018D919C91119701968D939C93AE01F6
:10179400455F5F4FBE016F5F7F4FC4010E94A41A73
:1017A400D7C0652D70E0970140E050E0CE010B9664
:1017B4000E94ED16892B09F4CEC0F6018081918137
:1017C400019680839183AE01455F5F4FBE016F5FD9
:1017D4007F4FC4010E94D918BBC0652D70E09701EA
:1017E40040E050E0CE010B960E94ED16892B09F4DF
:1017F400B2C0D601ED91FC911197CF0101968D9362
:101804009C9320811CC0970140E050E060EF70E0A1
:10181400CE010B960E94ED16892B09F49CC0F601AB
:10182400808191810196808391838B859C85892B0E
:1018340029F420E030E045E752E684C028E7AE0111
:10184400455F5F4FBE016F5F7F4FC4010E9442112D
:101854007FC0A501400F511F652D70E09701CE0197
:101864000B960E940000892B09F475C0D6018D9156
:101874009C91119701968D939C9373C0652D70E094
:10188400A701CE010B960E940000892B09F463C0C6
:10189400D601ED91FC911197CF0101968D939C9304
:1018A4002081AE01455F5F4FBE016F5F7F4FC40172
:1018B4000E9400004DC0B0E85B124DC0F60180816B
:1018C4009181019680839183D701ED91FC911197C9
:1018D400CF0102968D939C93808120C0B0E85B1267
:1018E4003AC0F60180819181019680839183D7016A
:1018F400ED91FC911197CF0102968D939C934081B9
:10190400518120E030E01EC0B0E85B1224C0F60133
:10191400208131812F5F3F4F208331838B870DC01E
:1019240085E28B87D6016D927C9219821A821D8280
:101934001E828FEF9FEF8B839C8321E030E0AE010A
:10194400455F5F4FBE016F5F7F4FC4010E94A820B7
:101954008A0D9B1D07C0F6018081918101968083C9
:0C1964009183C5012E96EFE00C94352312
:101970004F925F926F927F928F929F92AF92BF929F
:10198000CF92DF92EF92FF92C0909162D0909262DC
:10199000E0909362F0909462F594E794D794C794A2
:1019A0008AEFD81AE108F108C701B6019595879525
:1019B0007795679595958795779567959B01AC0188
:1019C0000E9465244B015C01E0E0F2E6A285B3854C
:1019D0009B01AC01012E1DE0559547953795279544
:1019E0001A95D1F7102D0E9452252B013C016894C5
:1019F00012F875946794579447941694D1F7A0857C
:101A0000B185A70196010E945225DC01CB01B59555
:101A1000A79597958795840D951DA61DB71D072E33
:101A200072E1B595A795979587957A95D1F7702D21
:101A30009C01AD0130584F4F5F4FA681B7810E9486
:101A400007252B013C01032E3FE0759467945794C2
:101A500047943A95D1F7302D411451046104710433
:101A600009F4CEC0A5019401012E1BE055954795C0
:101A7000379527951A95D1F7102DA089B1890E9425
:101A800052254B015C01A685B785A70196010E94EE
:101A90005225DC01CB01880F991FAA1FBB1F880E9E
:101AA000991EAA1EBB1ED501C401B595A795979591
:101AB0008795B595A7959795879584849584092CE6
:101AC000000CAA08BB08540199248824880E991E8A
:101AD000AA1EBB1E072E7CE0B594A794979487940A
:101AE0007A95D1F7702D8091956290919662A09130
:101AF0009762B0919862A5019401280F391F4A1F7F
:101B00005B1FABECB3EF0E945525805B9C43992390
:101B10005CF0660F771F881F991FA30192010E9436
:101B2000F42169017A010AC0A30192010E94F42103
:101B300069017A01CC0CDD1CEE1CFF1CC701B6014B
:101B4000689412F896958795779567951694D1F7CE
:101B50009B01AC010E9465249B01AC01012E1DE09C
:101B600056954795379527951A95D1F7102DE0E0B2
:101B7000F2E6A689B7890E9452254B015C01072E27
:101B80007CE0B594A794979487947A95D1F7702DBB
:101B9000A7019601569547953795279556954795F0
:101BA00037952795A489B5890E945225DC01CB0180
:101BB000072E7DE0B595A795979587957A95D1F7EE
:101BC000702DB501A401480F591F6A1F7B1F828920
:101BD0009389092E000CAA0BBB0B840F951FA61F1F
:101BE000B71F689413F8B595A795979587951694A0
:101BF000D1F7BC01CD016C0D7D1D8E1D9F1D03C055
:101C000060E070E0CB01FF90EF90DF90CF90BF904D
:101C1000AF909F908F907F906F905F904F900895BE
:101C20001F93CF93DF938091D5629091D66280FF0E
:101C300021C08091DC62843059F08B3079F08130A2
:101C400081F480E28093A50482E08093DC6209C085
:101C500083E08093DC620E94922503C083E080933E
:101C6000DC628091D5629091D6628E7F8093D5623E
:101C70009093D662E091DC628E2F90E08C309105DB
:101C800008F0EBC0FC01E85BFF4F0C94BC2580E240
:101C90008093A5040E9421180E941622811104C07D
:101CA00086E497E80E94302580E28093A6048FE6C0
:101CB00097E80E94302589EB97E80E94302582EF53
:101CC00097E80E94302581E08093DC62C6C00E94C4
:101CD000841DC3C00E9401260E94272583E08093B3
:101CE000DC62BBC08091DB628F5F8093DB62C0E20D
:101CF000C093A60485E892E60E948D2165E872E60D
:101D000087E492E60E94B21487E492E60E946C1B7C
:101D10000E948C2584E08093DC62C093A5049DC062
:101D20008091896290918A62A0918B62B0918C625D
:101D3000843B9105A105B10509F52091DB628DEC8D
:101D4000289F812D1124869586958695880F982F3A
:101D5000990F990F890F281304C083E08093DC62E8
:101D600003C085E08093DC620E9492251092896214
:101D700010928A6210928B6210928C620E94841D73
:101D80006CC08091DB628F5F8093DB62C5EAD4E038
:101D900010E2188385E892E60E948D2165E872E6DC
:101DA00087E492E60E94B21487E492E60E94AA1B9E
:101DB0000E948C2584E08093DC6218834EC01092D0
:101DC000896210928A6210928B6210928C620E94D9
:101DD00055240E948C258BE08093DC623EC00E94DB
:101DE000841D3BC00E94162285E892E60E948D2148
:101DF00085E892E60E94A31565E872E687E492E61C
:101E00000E94B2148BE08093DC6227C089E198E8DD
:101E10000E9430258BE08093DC621FC085E892E64B
:101E20000E948D2185E892E60E94A3158BE08093A5
:101E3000DC6213C08091896290918A62A0918B626A
:101E4000B0918C620297A105B10529F40E949225F8
:101E500086E08093DC620E94841DDF91CF911F9108
:021E60000895E3
:101E62004F925F926F927F928F929F92AF92BF92A8
:101E7200CF92DF92EF92FF920F931F936B017C013F
:101E8200DC01CB01B701A6014427552760787F7793
:101E92004115510560487F4759F4A7019601C701D2
:101EA200B6010E94F125A70196010E946A251AC077
:101EB200181619061A061B06D4F0892B8A2B8B2BAF
:101EC20009F4CCC081E290E08093006090930160BD
:101ED200A7019601C701B6010E9469259B01AC01C9
:101EE2000E94ED25562F472F382F292FBBC067E1BF
:101EF200F594E794D794C7946A95D1F7C114D104A5
:101F0200E104F104E1F4C12CD12C7601A7FD0AC051
:101F1200880F991FAA1FBB1F2FEFC21AD20AE20A0B
:101F2200F20AF4CF21E0C21AD108E108F108F094D4
:101F3200E094D094C094C11CD11CE11CF11C2FE789
:101F4200C21AD108E108F108AF77BB27A068C0FE2A
:101F520004C0880F991FAA1FBB1FF594E794D7945A
:101F6200C794880F991FAA1FBB1FE9E1F0E040E068
:101F720050E060E071E0812C912C540100E010E00F
:101F8200980128013901440E551E661E771E8415DC
:101F92009505A605B70574F093018201040F151F7C
:101FA200261F371F84199509A609B709840E951EA5
:101FB200A61EB71E880F991FAA1FBB1F769567958D
:101FC200579547953197E9F6892B8A2B8B2BA1F1EF
:101FD20020E632E442EA5DE060E070E080E89FE300
:101FE2000E94692520E030E040E85FE30E94E0259E
:101FF20087FD22C020E632E442EA5DE060E070E064
:1020020080E89FE30E946A2520E030E040E85FE339
:102012000E94E025181634F482E0880E911CA11C5F
:10202200B11C0AC0D501C40181709927AA27BB2718
:10203200880E991EAA1EBB1ED501C401B595A7958F
:1020420097958795B15C37E1CC0CDD1CEE1CFF1C2B
:102052003A95D1F7C80ED91EEA1EFB1E5C2D4D2DF6
:102062003E2D2F2D652F742F832F922F1F910F91AD
:10207200FF90EF90DF90CF90BF90AF909F908F90A6
:0A2082007F906F905F904F900895DB
:10208C004F925F926F927F928F929F92AF92BF927C
:10209C00CF92DF92EF92FF92809091629090926239
:1020AC00A0909362B09094622CE2921A21E0A20A62
:1020BC00B108C0909962D0909A62E0909B62F090C7
:1020CC009C620B2EBEE0CC0CDD1CEE1CFF1CBA95EA
:1020DC00D1F7B02DE0E0F2E6848D958D092E000C41
:1020EC00AA0BBB0B072E74E1880F991FAA1FBB1FED
:1020FC007A95D1F7702DC81AD90AEA0AFB0AA68D6F
:10210C00B78DA50194010E945225C61AD70AE80A78
:10211C00F90A30E4D30EE11CF11C0B2EBFE0F59450
:10212C00E794D794C794BA95D1F7B02DA38DB0E0AE
:10213C00A50194010E9407252B013C01032E3BE0D5
:10214C0075946794579447943A95D1F7302D40E89D
:10215C00540E611C711CA0A10A2E000CBB0BA50116
:10216C0094010E945225052E5AE0959587957795F6
:10217C0067955A95D1F7502DA30192010E946524C1
:10218C00DC01CB01072E7AE0B595A795979587953D
:10219C007A95D1F7702D9C01AD01405E5F4FA18DFA
:1021AC00B28D0E945225DC01CB01905EAF4FBF4F28
:1021BC00BC01CD01052E5EE09595879577956795C9
:1021CC005A95D1F7502DA70196010E9465246B01F9
:1021DC007C01052E5FE095958795779567955A95C7
:1021EC00D1F7502D9B01AC010E9465249B01AC01E1
:1021FC00689416F855954795379527951694D1F709
:10220C00A08DB0E00E940725DC01CB01689413F887
:10221C00B595A795979587951694D1F7A701960133
:10222C00281B390B4A0B5B0BDA01C9011AF480E04D
:10223C0090E0DC0181309105A10539E1B30724F070
:10224C0080E090E0A0E0B9E1BC01CD01052E5CE09E
:10225C0095958795779567955A95D1F7502DFF9061
:10226C00EF90DF90CF90BF90AF909F908F907F902A
:08227C006F905F904F900895F0
:10228400AFE0B0E0E8E4F1E10C9419231C016B0128
:1022940049835A832B83FB018281938184809580B7
:1022A40000811181A680B78097FD02C00D7F02C016
:1022B40081E090E0E981FA814080518062807380FE
:1022C4009801207133272C833D83740104FF08C0D7
:1022D400411451046104710419F032E0E31AF10865
:1022E400F801E870FF27EE83FF8303FF03C0F1E0EA
:1022F400EF1AF108F6010084F185E02D3197EE879D
:10230400FF87EA0DFB1D10829C012E193F092887C7
:102314003987C801827099278A879B87EB818E2F22
:10232400EE0F990B9C01215431092C873D872E8592
:102334003F852230310530F48C819D81892B09F051
:1023440042C05CC0411451046104710461F18E8582
:102354009F8501978E879F87C2018F7099278A3046
:10236400910514F4C09602C0895A9F4FEC85FD85EF
:102374007A9748F49C012062215631092A313105AB
:1023840010F40E943925EE85FF85EA0DFB1D80833C
:10239400F1E0EF1AF10884E0769467945794479437
:1023A4008A95D1F7C4CF888599858E0D9F1D1816FF
:1023B40019066CF21E141F040CF0BECFEA85FB85CF
:1023C400EF2B29F6B9CFE981FA8180819181A2812D
:1023D400B381892B8A2B8B2B89F0EE85FF85EA0D3F
:1023E400FB1D31972B8120838E859F8502978E87D5
:1023F4009F87FC01EA0DFB1D80E38083EE81FF8152
:10240400EF2B59F02E853F85215031092E873F87C8
:10241400F901EA0DFB1D80E28083F60140855185B8
:10242400415051092E853F85421B530BB9016A0D5A
:102434007B1D9401C1010E944B1D9C01F10180810F
:10244400918190FF06C0F6018281938182179307E0
:0C2454000CF4C9012F96E2E10C94322335
:102460000F931F93CF93DF93CDB7DEB76897CDBFA0
:10247000DEBF28E1AE014F5F5F4F68E886E70E944C
:102480005C1A00E012E68A8190E0982F8827298163
:10249000820F911DF801808391838C8190E0982FA9
:1024A00088272B81820F911D828393838E8190E0F8
:1024B000982F88272D81820F911D8483958388858D
:1024C00090E0982F88272F81820F911D8683978314
:1024D0008A8590E0982F88272985820F911D808713
:1024E00091878C8590E0982F88272B85820F911DEE
:1024F000828793878E8590E0982F88272D85820F7D
:10250000911D84879587888990E0982F88272F854B
:10251000820F911D868797878A8990E0982F882758
:102520002989820F911D808B918B8C8990E0982F47
:1025300088272B89820F911D828B938B8E8990E047
:10254000982F88272D89820F911D848B958B888DDC
:1025500090E0982F88272F89820F911D868B978B6B
:1025600021E0AE014F5F5F4F61EA86E70E945C1A8F
:102570008981F801808F27E0AE014F5F5F4F61EEE8
:1025800086E70E945C1A2A8130E0322F2227998147
:10259000290F311DF801218F328F9B81938F9D81EF
:1025A0002C81F0E12F9F90011124492F4F70242B93
:1025B000F801248F358F2E81F0E12F9F9001112497
:1025C00092959F70292BF801268F378F9F8190A3BA
:1025D0006896CDBFDEBFDF91CF911F910F91089517
:1025E000CF93DF9380E094E023E0FC012083C0E4FC
:1025F000D4E035E03883A0E6B4E032E13C9360EA11
:1026000074E030E2FB013083FC01148241E04C8332
:1026100040E114964C931497FB013483FC01108A1B
:10262000118A128A138A148A158A168A178A188AB6
:10263000198A1A8A1B8A1C8A1D8A1E8A1F8A50962A
:102640001C92509751961C92519752961C925297F9
:1026500053961C92539754961C92549755961C92DD
:10266000559756961C92569757961C92FB01108AC6
:10267000118A128A138A148A158A8BE0868B178A2C
:10268000E0EEF5E011821082158217821086118625
:10269000168222838DE096E28093B9629093BA62AB
:1026A0008EE096E28093B7629093B8628FE096E2F4
:1026B0008093B5629093B66280E196E28093B362B4
:1026C0009093B46281E196E28093B1629093B2629A
:1026D00082E196E28093AF629093B06283E196E2EA
:1026E0008093AD629093AE6284E196E28093AB6298
:1026F0009093AC6285E196E28093A9629093AA627E
:1027000086E196E28093A7629093A86287E196E2C1
:0E2710008093A5629093A662DF91CF91089509
:10271E008F929F92AF92BF92CF92DF92EF92FF92E3
:10272E0080919D6290919E62A0919F62B091A062F5
:10273E00E0E0F2E64081518160E070E06C017D01E5
:10274E00689413F8F594E794D794C7941694D1F738
:10275E00C41AD50AE60AF70A689412F8B595A79531
:10276E00979587951694D1F7440F551F661F771FBF
:10277E004C015D01841A950AA60AB70AA5019401B7
:10278E00A281B3810E9452254B015C01072E7BE092
:10279E00B594A794979487947A95D1F7702DA70145
:1027AE009601C701B6010E9465249B01AC01012E62
:1027BE001CE055954795379527951A95D1F7102D0D
:1027CE00A481B5810E945225DC01CB01072E7EE04B
:1027DE00B595A795979587957A95D1F7702D880D14
:1027EE00991DAA1DBB1D8093916290939262A09336
:1027FE009362B09394626C017D01CC0CDD1CEE1CD7
:10280E00FF1CCC0CDD1CEE1CFF1C8C0D9D1DAE1D8B
:10281E00BF1D80589F4FAF4FBF4F692F7A2F8B2F01
:10282E00992787FD9A95FF90EF90DF90CF90BF90FC
:08283E00AF909F908F90089568
:10284600CF93DF93CDB7DEB72897CDBFDEBF28E0A5
:10285600AE014F5F5F4F67EF86E70E945C1A8F817C
:1028660090E0A0E0B0E0BA2FA92F982F88272885FE
:10287600822B8093996290939A62A0939B62B09305
:102886009C628C8190E0A0E0B0E0AC01BD01032E1B
:102896003CE0440F551F661F771F3A95D1F7302D40
:1028A6009D81892F90E0A0E0B0E0880F991FAA1FB4
:1028B600BB1F880F991FAA1FBB1F880F991FAA1F2E
:1028C600BB1F880F991FAA1FBB1F842B952BA62BF6
:1028D600B72B2E8122952F70822B80939D62909329
:1028E6009E62A0939F62B093A062898190E0A0E06F
:1028F600B0E0AC01BD01032E3CE0440F551F661F3E
:10290600771F3A95D1F7302D9A81892F90E0A0E074
:10291600B0E0880F991FAA1FBB1F880F991FAA1F17
:10292600BB1F880F991FAA1FBB1F880F991FAA1FBD
:10293600BB1F842B952BA62BB72B2B8122952F7093
:10294600822B8093956290939662A0939762B09340
:0E29560098622896CDBFDEBFDF91CF91089525
:10296400CF93DF93CDB7DEB76197CDBFDEBF21E153
:10297400E5E3F7E8DE01119601900D922A95E1F75F
:10298400FB01208122952F70E1E0F0E0EC0FFD1FA8
:10299400E20FF11D2081FC012083FB0120812F70B7
:1029A400E1E0F0E0EC0FFD1FE20FF11D2081FC01DE
:1029B4002183FB01218122952F70E1E0F0E0EC0FEF
:1029C400FD1FE20FF11D2081FC012283FB01218107
:1029D4002F70E1E0F0E0EC0FFD1FE20FF11D20810C
:1029E400FC012383FB01228122952F70E1E0F0E0BA
:1029F400EC0FFD1FE20FF11D2081FC012483FB017C
:102A040022812F70E1E0F0E0EC0FFD1FE20FF11DD9
:102A14002081FC012583FB01238122952F70E1E0B5
:102A2400F0E0EC0FFD1FE20FF11D2081FC01268375
:102A3400FB0123812F70E1E0F0E0EC0FFD1FE20FBA
:102A4400F11D2081FC0127832DE020872AE02187C6
:0E2A540012866196CDBFDEBFDF91CF9108954F
:102A6200A2E0B0E0E7E3F5E10C9419233C016B012D
:102A7200FB0122813381A480B58080819181898389
:102A82009A8386809780FA01208031804280538029
:102A9200B201A10157FE07C044275527BA014219C6
:102AA20053096409750937FD03C08D7F89839A83B1
:102AB200950157FC05C0898182FD02C083FF02C0D7
:102AC20021503109CE0101967C010AE010E0C601D5
:102AD2000E94BC1757FC03C0298122FF0AC001973C
:102AE200F401E80FF91F57FC02C02BE209C02DE2E6
:102AF20007C023FF06C00197F401E80FF91F20E287
:102B0200208309811A81F60140855185415051097E
:102B1200481B590BB401680F791F9501C3010E942C
:102B22004B1D9C01F3018081918190FF06C0F6014B
:102B320082819381821793070CF4C9012296E2E104
:042B42000C9432239A
:102B4600CF93DF93EC0180E396E80E94B02187E4FF
:102B560096E80E94B02189811F928F9380E996E8BA
:102B66009F938F930E944A238A811F928F938BEAA9
:102B760096E89F938F930E944A232B8130E0C901E8
:102B8600880F991F220F331F220F331F220F331F67
:102B9600820F931F9F938F938DEB96E89F938F934E
:102BA6000E944A238881282F082E000C330B3F935E
:102BB6008F9380ED96E89F938F930E944A2385EE2C
:102BC60096E80E9430258FE895E80E9430252B81F3
:102BD60030E0C901880F991F220F331F220F331FC0
:102BE600220F331F820F931F9F938F938A811F9209
:102BF6008F9389811F928F938881282F082E000C2E
:102C0600330B3F938F9383EF96E89F938F930E94A6
:102C16004A238DB79EB74A968DBF9EBFDF91CF914F
:022C260008950F
:102C280010C00E947E2558F00E94772540F029F4B4
:102C38005F3F29F00C94B62551110C9486250C940D
:102C480004260E94D22168F39923B1F3552391F306
:102C5800951B550BBB27AA2762177307840738F003
:102C68009F5F5F4F220F331F441FAA1FA9F335D060
:102C78000E2E3AF0E0E832D091505040E695001C14
:102C8800CAF72BD0FE2F29D0660F771F881FBB1FCE
:102C9800261737074807AB07B0E809F0BB0B802DAC
:102CA800BF01FF2793585F4F3AF09E3F510578F0D8
:102CB8000C94B6250C9486255F3FE4F3983ED4F334
:102CC800869577956795B795F7959F5FC9F7880FAC
:102CD800911D9695879597F90895E1E0660F771FFE
:102CE800881FBB1F621773078407BA0720F0621B8F
:0E2CF800730B840BBA0BEE1F88F7E09508955E
:102D06000FC00E94772538F00E947E2520F095237B
:102D160011F00C94B6250C94042611240C948625E7
:102D26000E94D22170F3959FC1F3950F50E0551F75
:102D3600629FF001729FBB27F00DB11D639FAA270A
:102D4600F00DB11DAA1F649F6627B00DA11D661F59
:102D5600829F2227B00DA11D621F739FB00DA11D7A
:102D6600621F839FA00D611D221F749F3327A00D34
:102D7600611D231F849F600D211D822F762F6A2FD0
:102D860011249F5750409AF0F1F088234AF0EE0F35
:102D9600FF1FBB1F661F771F881F91505040A9F762
:102DA6009E3F510580F00C94B6250C9486255F3F16
:102DB600E4F3983ED4F3869577956795B795F7959E
:102DC600E7959F5FC1F7FE2B880F911D9695879516
:042DD60097F90895CC
:102DDA00CF93DF93DC01F90168387105F1F05CF4F7
:102DEA006138710561F164387105A1F160387105C6
:102DFA0009F051C02FC0603C710509F441C0603F21
:102E0A007105F1F1603A710509F045C0C081D181BF
:102E1A00CE0102968083918325C0C081D181CE01E3
:102E2A00029680839183452B39F04881042E000C49
:102E3A00550B660B770B1CC0488150E029C0C08136
:102E4A00D181CE01049680839183488159816A8118
:102E5A007B810EC0C081D181CE010296808391838D
:102E6A00452BA1F048815981052E000C660B770B82
:102E7A004D935D936D937C93139781E090E00DC021
:102E8A00C081D181CE010296808391834881598184
:102E9A0060E070E0EDCF80E090E0DF91CF9108959F
:102EAA0011C00E94772538F00E947E2520F039F45F
:102EBA009F3F19F426F40C9404260EF4E095E7FBE0
:102ECA000C94B625E92F0E94D22158F3BA1762074B
:102EDA0073078407950720F079F4A6F50C948525E5
:102EEA000EF4E0950B2EBA2FA02D0B01B90190011B
:102EFA000C01CA01A0011124FF27591B99F0593F5F
:102F0A0050F4503E68F11A16F040A22F232F342FA6
:102F1A004427585FF3CF469537952795A795F040F4
:102F2A005395C9F77EF41F16BA0B620B730B840B09
:102F3A00BAF09150A1F0FF0FBB1F661F771F881FC1
:102F4A00C2F70EC0BA0F621F731F841F48F4879519
:102F5A0077956795B795F7959E3F08F0B0CF93950B
:0E2F6A00880F08F09927EE0F97958795089528
:102F7800A0E0B0E0E2ECF7E10C941B23DC012801AF
:102F88001696AD90BC901797F701808191811296A3
:102F9800ED91FC9113971896CD91DC911997219793
:102FA800F7FF02C0E1E0F0E0CA0DDB1D18826901FD
:102FB800A1E0B0E08F01021B130B4C01F2E08F225D
:102FC8009924052C000C66087708CE018A199B09FC
:102FD800CA15DB0519F1411551056105710589F01F
:102FE800CB01BA01A30192010E94F421CA01A62FC4
:102FF800B72F605D6A9341E0C41AD108A901BC01EA
:10300800E4CF98012C0D3D1D121613064CF31C1429
:103018001D0434F48114910419F702C080E090E093
:10302800AB2B31F4F701208131812F7E208331834E
:0A303800CDB7DEB7E0E10C943423BD
:10304200CF9388E591E89F938F930E9462234FEF7D
:1030520062E070E680E892E60E9462254FEF61E04E
:1030620071E68BE792E60E94622582E08093660415
:103072002FE739EA93E0215030409040E1F700C059
:103082000000809365042FE738E381E0215030404F
:103092008040E1F700C0000084E0809345040F9077
:1030A2000F900E94A425882339F00E94FB25682FE7
:1030B2008BE792E60E94FB238BE792E60E94D625DD
:1030C200882379F30E949E25882359F38BE792E6A1
:1030D2000E941D25C82F0E94AE24CA3011F78AE033
:1030E2000E94AE249FE728E331E091502040304017
:0E30F200E1F700C000000E948019CF91089500
:103100000F931F93CF93DF93EA0140385105D4F01A
:1031100020E030E040E05FE70E94F1259E012F575C
:103120003109203831056CF120E030E040E05FE704
:103130000E94F125CE5FD109C038D1051CF1CFE73F
:10314000D0E020C042385F4FECF420E030E040E8AF
:103150005CE00E94F1259E012A593F4F22384FEF33
:1031600034077CF420E030E040E85CE00E94F12588
:10317000C453DF4FC2382FEFD20724F4C2E8DFEF89
:1031800001C0E9019E0121583F4F8901330F220BF5
:10319000330BA9019801E7E1220F331F441F551F8C
:1031A000EA95D1F70E94F125DF91CF911F910F9100
:0231B000089580
:1031B200A2E0B0E0EFEDF8E10C941D234C016B01AD
:1031C200FB012281338164807580808191818983B2
:1031D2009A83A680B78037FD03C08D7F89839A8347
:1031E200FA014081518162817381CE0101967C0195
:1031F20008E010E09301C6010E94BC17298124FF58
:1032020006C00197F501E80FF91F20E32083298109
:1032120023FF06C00197F501E80FF91F20E2208382
:1032220009811A81F6014085518541505109481B97
:10323200590BB501680F791F9301C4010E944B1D00
:103242009C01F4018081918190FF06C0F601828188
:103252009381821793070CF4C9012296EEE00C9435
:02326200362311
:1032640040E068ED80E690E00E94E92540E068EDEA
:1032740081E690E00E94E92540E068ED85E690E073
:103284000E94E92540E068ED88E790E00E94E92586
:103294004CE068ED88E690E00E94E92540E068EDA6
:1032A40089E690E00E94E92540E068ED80E790E03F
:1032B4000E94E92540E068ED8CE790E00E94E92552
:1032C40040E068ED82E690E00E94E92540E068ED88
:1032D40083E690E00E94E92540E068ED84E690E012
:1032E4000E94E92540E068ED80E890E00E94E9252D
:0C32F400E0E6F0E0858181FFFDCF089549
:10330000CF9389E391E80E94B02161E471E880E8FD
:1033100092E60E94A01F0AC00E94AA25882331F0CD
:1033200080E892E60E941D250E94FE2580E892E634
:103330000E94D6258111F0CFC0E01FC00E94A425B5
:10334000882339F00E94FB25682F8BE792E60E94C4
:10335000FB238BE792E60E94D625882379F30E940F
:103360009E25882359F38BE792E60E941D25C1E034
:103370008A3009F0C0E00E94AE24CC23F9F22FE796
:1033800088E391E0215080409040E1F700C00000C8
:04339000CF9108953C
:103394008F929F92AF92BF92CF92DF92EF92FF9261
:1033A4000E94B80C4B015C010E94F12424E036E534
:1033B4004AE150E40E946A2523E333E948E853E4F0
:1033C4000E946A259B01AC0164E076E58AE190E401
:1033D4000E94ED259B01AC0160E070E080E89FE372
:1033E4000E94692528E539E348EA50EC0E943F042D
:1033F4006B017C01C501B4010E94E81B20E030E0B0
:1034040048EC52E40E94ED25A70196010E94F125A3
:10341400FF90EF90DF90CF90BF90AF909F908F90F0
:02342400089509
:103426000F931F93CF93DF93DB012D913C9111975F
:1034360030FF25C016964D915C91179714962D91E5
:103446003C9115974217530778F41296ED91FC912B
:103456001397808312962D913C9113972F5F3F4FC0
:1034660012962D933C93139716962D913C91179790
:103476002F5F3F4F16962D933C93179715C01C96BA
:10348600ED91FC911D97309719F48FEF9FEF0CC0CB
:103496008B01EC010995892BC1F7F801868197818B
:1034A600019686839783CE01DF91CF911F910F916D
:0234B600089577
:1034B800EF92FF920F931F93CF93DF930F92CDB7A5
:1034C800DEB769838A01E22E60E00E944421F82E6B
:1034D800882369F161E0CE0101960E94D220F82E7E
:1034E800811104C083E08093040921C0E0E0F9E081
:1034F80087818160878381E08483858185FD0AC017
:10350800858182FD07C0858183FD04C08581837024
:10351800833099F70E949224882329F083E08093CE
:103528000409F12C04C06E2DC8010E947D208F2D46
:103538000F90DF91CF911F910F91FF90EF90089519
:10354800A2E0B0E0EAEAFAE10C941D235C016B0109
:10355800FB012281338184809580808191818983D8
:103568009A836680778037FD03C08D7F89839A832D
:10357800FA014081518162817381CE0101967C01FB
:103588000AE010E09401C6010E94BC1709811A8163
:10359800F6014085518541505109481B590BB3012B
:1035A800680F791F9401C5010E944B1D9C01F5010C
:1035B8008081918190FF06C0F601828193818217F4
:0E35C80093070CF4C9012296EEE00C94362312
:1035D600CF93DF9384E391E80E94B021C0E00E947C
:1035E600A425882339F00E94FB25682F8BE792E6F5
:1035F6000E94FB238BE792E60E94D6258823C1F022
:103606000E949E25882389F08BE792E60E941D255D
:10361600D82F0E94AE24DA3041F4CF5FC13029F4AE
:1036260084E391E80E94B021DACFC230C1F602C02D
:10363600C230A9F68AE00E94AE242FE78AE196E01E
:10364600215080409040E1F700C00000DF91CF910B
:023656000895D5
:103658001F920F920FB60F9211242F933F934F93FF
:103668005F936F937F938F939F93AF93BF93EF93E2
:10367800FF937A9B05C0E091B562F091B662099517
:103688007D9B05C0E091B362F091B46209957C9B83
:1036980005C0E091B162F091B2620995799B05C0CD
:1036A800E091A762F091A86209958FEF8FB9FF9119
:1036B800EF91BF91AF919F918F917F916F915F91A2
:1036C8004F913F912F910F900FBE0F901F9018951B
:1036D800CF93DF93EC0186EB94E80E94B0218BEC4A
:1036E80094E80E94B02181E095E80E94B021CE01C3
:1036F8000E94B02165E175E880E892E60E94A01F6B
:10370800BE0180E892E60E94A01F0AC00E94AA2576
:10371800882331F080E892E60E941D250E94FE254C
:1037280080E892E60E94D6258111F0CF2FE78AE142
:1037380096E0215080409040E1F700C000000E94D0
:0C374800EB1A0E94BC24DF91CF91089581
:10375400CF93DF93EC0186EB94E80E94B0218BECCD
:1037640094E80E94B02184E295E80E94B021CE0141
:103774000E94B0216AE375E880E892E60E94A01FE7
:10378400BE0180E892E60E94A01F0AC00E94AA25FA
:10379400882331F080E892E60E941D250E94FE25D0
:1037A40080E892E60E94D6258111F0CF2FE788E3C6
:1037B40091E0215080409040E1F700C000000E9459
:0C37C400EB1A0E94BC24DF91CF91089505
:1037D000E89409C097FB3EF49095809570956195AB
:1037E0007F4F8F4F9F4F9923A9F0F92F96E9BB2761
:1037F0009395F695879577956795B795F111F8CFDD
:10380000FAF4BB0F11F460FF1BC06F5F7F4F8F4F47
:103810009F4F16C0882311F096E911C0772321F03D
:103820009EE8872F762F05C0662371F096E8862FD5
:1038300070E060E02AF09A95660F771F881FDAF72C
:0A384000880F9695879597F9089573
:10384A00FF920F931F93CF93DF938C0181E591E849
:10385A000E94B021C8010E94B021B80180E892E616
:10386A000E94A01FF12C11C080E892E60E94D62582
:10387A00882371F00E94AA25882351F080E892E6F5
:10388A000E941D250E94FE25F394E801CF0DD11D4B
:10389A0088818111E9CF2FE788E391E021508040A8
:1038AA009040E1F700C000000E94D81CDF91CF9140
:0838BA001F910F91FF9008958A
:1038C200A2E8B0E0E7E6FCE10C941F235C014A01A8
:1038D200CF57DF4F68837983C158D040C12CD12C98
:1038E200CF57DF4FE881F981C158D04080818823CA
:1038F200E9F07401860120E830E0AE014F5F5F4FCE
:10390200BE016F577F4FC5010E94BA0A8C0D9D1DE3
:103912008C159D054CF48FE490E0809300609093A9
:1039220001608FEF9FEF03C06C01DACFC601CE5763
:08393200DF4FECE00C94382398
:10393A001F920F920FB60F9211242F933F934F931A
:10394A005F936F937F938F939F93AF93BF93EF93FD
:10395A00FF938091430180FF07C0E091C162F0911B
:10396A00C262309709F009958091430181FF07C02F
:10397A00E091BF62F091C062309709F0099583E047
:10398A0080934301FF91EF91BF91AF919F918F91E6
:10399A007F916F915F914F913F912F910F900FBE41
:0639AA000F901F9018951C
:1039B000CF93DF9384E391E80E94B021C0E00E949E
:1039C000A425882339F00E94FB25682F8BE792E617
:1039D0000E94FB238BE792E60E94D625882389F07C
:1039E0000E949E25882351F08BE792E60E941D25B8
:1039F000D82F0E94AE24DA3009F4CF5FC130F9F637
:103A000002C0C130E1F68AE00E94AE242FE788E3CD
:103A100091E0215080409040E1F700C00000DF912C
:043A2000CF910895A5
:103A24001F920F920FB60F9211242F933F934F932F
:103A34005F936F937F938F939F93AF93BF93EF9312
:103A4400FF93599B05C0E091B962F091BA62099560
:103A5400589B05C0E091B762F091B86209955A9BF2
:103A640005C0E091A962F091AA6209958FEF8BB924
:103A7400FF91EF91BF91AF919F918F917F916F9142
:103A84005F914F913F912F910F900FBE0F901F9018
:023A9400189583
:103A9600A0E0B0E0E1E5FDE10C941F236C015B01C1
:103AA6007A01E901480181E08822992400FD03C0DA
:103AB6004217530750F0A701B501C6010E94B02274
:103AC600EC16FD0610F0C70117C08E010E191F096E
:103AD6000115110541F0B60180E290E00E94131A2B
:103AE60001501109F5CF8114910429F4A701B501FC
:103AF600C6010E94B022CE01CDB7DEB7ECE00C9431
:023B0600382362
:103B08000E949825882339F00E94F525682F80E8BF
:103B180092E60E94FB230E94A425882339F00E9484
:103B2800FB25682F8BE792E60E94FB238BE792E642
:103B38000E94D625882351F00E949E25882331F0C3
:103B48008BE792E60E941D250E94F82580E892E600
:103B58000E94D625882351F00E94AA25882331F097
:0E3B680080E892E60E941D250E94FE25089529
:103B760086E891E80E94B02189EA91E80E94B02186
:103B860082EF91E80E94251C81E092E80E94251CA4
:103B960083E292E80E94251C8EE392E80E94251C8F
:103BA60081E792E80E94251C84EA92E80E94251C7F
:103BB6008CEB92E80E94251C8BE791E80E94251C5D
:103BC6008DEC92E80E94B0212FE788E391E0215026
:0C3BD60080409040E1F700C0000008951E
:103BE2001F920F920FB60F9211242F933F934F9370
:103BF2005F936F937F938F939F93AF93BF93EF9353
:103C0200FF93189B05C0E091AD62F091AE620995F9
:103C1200199B05C0E091AB62F091AC6209958FEF00
:103C220083B9FF91EF91BF91AF919F918F917F9156
:103C32006F915F914F913F912F910F900FBE0F9017
:043C42001F90189522
:103C46001F920F920FB60F9211242F933F934F930B
:103C56005F936F937F938F939F93AF93BF93EF93EE
:103C6600FF93BE9B05C0E091AF62F091B0620995EB
:103C7600BD9B05C0E091A562F091A66209958FEF04
:103C860087BBFF91EF91BF91AF919F918F917F91EC
:103C96006F915F914F913F912F910F900FBE0F90B3
:043CA6001F901895BE
:103CAA00CF93DF93CDB7DEB72697CDBFDEBF85EFC3
:103CBA0089838091DF628A8342E0BE016F5F7F4F12
:103CCA0086E70E94A92382EF8B838091DE628C8330
:103CDA0042E0BE016D5F7F4F86E70E94A92384EF11
:103CEA008D838091DD628E8342E0BE016B5F7F4FE0
:103CFA0086E70E94A9232696CDBFDEBFDF91CF912A
:023D0A0008951A
:103D0C001F920F920FB60F9211242F933F934F9344
:103D1C005F936F937F938F939F93AF93BF93EF9327
:103D2C00FF938091060B80FF0AC0E091BB62F0917B
:103D3C00BC62309709F0099581E08093060BFF91E6
:103D4C00EF91BF91AF919F918F917F916F915F9107
:103D5C004F913F912F910F900FBE0F901F90189580
:103D6C001F920F920FB60F9211242F933F934F93E4
:103D7C005F936F937F938F939F93AF93BF93EF93C7
:103D8C00FF938091160B80FF0AC0E091C362F09103
:103D9C00C462309709F0099581E08093160BFF916E
:103DAC00EF91BF91AF919F918F917F916F915F91A7
:103DBC004F913F912F910F900FBE0F901F90189520
:103DCC000E94DA2188F09F5798F0B92F9927B751A4
:103DDC00B0F0E1F0660F771F881F991F1AF0BA95A3
:103DEC00C9F714C0B13091F00E948525B1E0089557
:103DFC000C948525672F782F8827B85F39F0B93F49
:103E0C00CCF3869577956795B395D9F73EF4909555
:0E3E1C008095709561957F4F8F4F9F4F089551
:103E2A000F931F93CF93DF938C010F5F1F4FFC01FA
:103E3A008081FB0124853585232B11F0EB0109C014
:103E4A008FEF9FEF17C00995892BD1F7F801819160
:103E5A008F01EC85FD85BE018111F5CF8AE00995B8
:103E6A0021E030E0892B11F420E030E088279927FF
:0E3E7A00821B930BDF91CF911F910F91089542
:103E8800E0E0F8E083E896E080879187158280EC8F
:103E9800868383E08783138614861686158688E1D1
:103EA80096E28093C9629093CA6289E196E2809310
:103EB800C7629093C8628AE196E28093C562909344
:103EC800C6621092CB621092CC62E091D762F091F8
:0C3ED800D86287E392E68083918308950E
:103EE400DC01ED91FC91119780818A3221F080E010
:103EF40090E03AE00EC03196ED93FC93DB01ED9136
:103F0400FC911197CF0102968D939C9380819181AE
:103F14000895ED91FC911197208120532A3068F483
:103F2400389FA001399F500D1124CA01820F911DA1
:0C3F34003196ED93FC931197ECCF0895AB
:103F4000CF93DF93FC01EB0188819481492F50E0EE
:103F50004F5F5F4F238130E042175307D9F088232A
:103F6000C9F070E0A081B181A90FB11D8C9394813B
:103F70009F5F94837F5FDE01A70FB11D8C91492F56
:103F800050E04F5F5F4F238130E04217530711F03D
:0A3F90008111E8CFDF91CF91089571
:103F9A001F920F920FB60F9211242F933F934F93B4
:103FAA005F936F937F938F939F93AF93BF93EF9397
:103FBA00FF9382E080930D06E091A362F091A462E0
:103FCA00309709F00995FF91EF91BF91AF919F91B9
:103FDA008F917F916F915F914F913F912F910F90A8
:083FEA000FBE0F901F90189507
:103FF2001F920F920FB60F9211242F933F934F935C
:104002005F936F937F938F939F93AF93BF93EF933E
:10401200FF9381E080930D06E091A162F091A2628C
:10402200309709F00995FF91EF91BF91AF919F9160
:104032008F917F916F915F914F913F912F910F904F
:084042000FBE0F901F901895AE
:10404A001F920F920FB60F9211242F933F934F9303
:10405A005F936F937F938F939F93AF93BF93EF93E6
:10406A00FF93E091BD62F091BE62309709F0099525
:10407A0081E080935301FF91EF91BF91AF919F919E
:10408A008F917F916F915F914F913F912F910F90F7
:08409A000FBE0F901F90189556
:1040A2008EE594E80E94B02189EA91E80E94B0214D
:1040B20086E794E80E94B02168E874E880E892E616
:1040C2000E94A01F0AC00E94AA25882331F080E81E
:1040D20092E60E941D250E94FE2580E892E60E943B
:1040E200D6258111F0CF8FE097E20197F1F700C05A
:0840F20000000E94EB1A089582
:1040FA0020E2209305096623D1F0A82FB92F90E07A
:10410A00E0E0F9E022E0858185FD17C0858182FD26
:10411A0007C0858183FD04C085818370833099F748
:10412A0080858D939F5F691711F02483ECCF87E018
:10413A008093040908952483E6CF80858D939F5F39
:06414A006913F9CFF4CF68
:10415000A0E0B0E0EEEAF0E20C9421237C01FB0148
:10416000EA01C901A280B380C480D5800081118199
:10417000209711F4CEE6D2E6009719F4CE010E9402
:10418000CA24B7FC04C0A816B90608F4C5019601F4
:10419000AC01BE01C7010E944B1DCDB7DEB7EAE0FE
:0441A0000C943A231E
:1041A400662309F1DC016150262F30E02F5F3F4F79
:1041B400280F391FE0E0F9E09D919087958195FDE6
:1041C4000AC0958192FD07C0958193FD04C0958135
:1041D4009370933099F7958194FD07C0A217B307A4
:0E41E40059F781E0089581E0089580E0089584
:1041F200E0E2F8E086E191E080879187158280EC29
:10420200868383E0878313861486168615868BE160
:1042120096E28093D1629093D2628CE196E280938F
:10422200CF629093D0628DE196E28093CD629093BB
:0C423200CE621092D3621092D462089504
:10423E00E0E0F2E0108A118A128A138A8EE4848BEF
:10424E00158A10A610A211A212A213A214A215A2D0
:10425E0016A217A211A617A610AA85E081AB12AA64
:10426E0013AA14AA15A616A612A613A614A615AA64
:0A427E0016AA17AA10AE80E00895FA
:104288009091050993709330E1F0880F682B609343
:104298000709E0E0F9E0858185FD0AC0858182FD96
:1042A80007C0858183FD04C085818370833099F7B9
:1042B8000E949224882339F083E08093040980E0E7
:0A42C800089580E0089581E0089554
:1042D200990F0008550FAA0BE0E8FEEF1616170615
:1042E200E807F907C0F012161306E407F50798F07D
:1042F200621B730B840B950B39F40A2661F0232B96
:10430200242B252B21F408950A2609F4A140A69511
:084312008FEF811D811D08954C
:10431A00CF93DF93EC010E94D1250E94F1240E94E1
:10432A00702568830E94CA1920E030E040E251E417
:10433A000E94ED250E94E61E6B830E94FC240E94C7
:10434A00E61E69830E94B0258A83CE010E94A315C6
:06435A00DF91CF910895F0
:10436000CF92DF92FF920F931F93CF93DF936C0155
:10437000F12C09C00E949E25882341F0F80180811C
:104380000E94AE24F394E601CF0DD11D8E018881E9
:104390008111F0CFDF91CF911F910F91FF90DF90AE
:0443A000CF9008951D
:1043A40057FD9058440F551F59F05F3F71F04795E2
:1043B400880F97FB991F61F09F3F79F087950895C7
:1043C400121613061406551FF2CF4695F1DF08C0E6
:1043D400161617061806991FF1CF86957105610503
:0443E400089408959C
:1043E800A1E21A2EAA1BBB1BFD010DC0AA1FBB1FF1
:1043F800EE1FFF1FA217B307E407F50720F0A21B63
:10440800B30BE40BF50B661F771F881F991F1A94CF
:1044180069F760957095809590959B01AC01BD01F9
:04442800CF01089523
:10442C0089E398E80E9430250E94BE238FE493EC28
:10443C000197F1F700C000000E9430128091DF62FA
:10444C0081788093DF6285E28093DD6281E08093E6
:10445C00DE620E94551E81E598E80E94302581E0BD
:02446C000895B1
:10446E00CF93DF93EC0190E0E92FF0E0EE0FFF1F0A
:10447E00EF5DFD498081811102C081810EC0A8814E
:10448E00B9812C91821305C091811196A883B983AD
:10449E0001C09F5F9B3040F3892FDF91CF9108952C
:1044AE008091A80486FF16C080E28093A5048091B7
:1044BE00D5629091D66281608093D5629093D662D8
:1044CE008091D5629091D6628F7E8093D5629093C3
:0C44DE00D662089580E28093A604089541
:1044EA0089342DE0920710F088E49DE0883027E0B7
:1044FA00920710F488E097E0BC016850774080E0AA
:10450A0090E00E94E81B2BEB3FE040E85DE30E944D
:0C451A00F1250E94E61E84E6861B089531
:10452600E0E4F1E081818111FDCFE0E4F1E08FEF7D
:1045360093E084879587108611868287938781E02A
:104546008783128281898111FDCFE0E4F1E081E069
:0A455600828B89E4808B80E00895D9
:10456000A0E0B0E0E6EBF2E20C9423236C01EB0157
:104570008A017B01E40EF51ECE15DF0541F089911D
:10458000B601082E000C990B0E94131AF5CFC80132
:0A459000CDB7DEB7E8E00C943C2341
:10459A00CF93DF9300D0CDB7DEB78091DD628C7FF9
:1045AA0081608093DD6294EF99838A8342E0BE0141
:1045BA006F5F7F4F86E70E94A9230F900F90DF91CC
:0445CA00CF910895F0
:1045CE00E0E0F6E0118212821382148216861386C0
:1045DE00148681E0808780E481878FEF85838FEF5B
:1045EE009FE0848B958B128A138A83E0808380E010
:0245FE0008951E
:104600000E94F0120E94E7220E9432190E941F218C
:104610000E9493220E9484240E940F240E9422243C
:104620000E94441F0E94F9200E9442250E94D82423
:024630000895EB
:104632002F923F924F925F926F927F928F929F92B0
:10464200AF92BF92CF92DF92EF92FF920F931F939E
:10465200CF93DF93CDB7DEB7CA1BDB0BCDBFDEBF77
:024662000994B9
:104664002A88398848885F846E847D848C849B84FE
:10467400AA84B984C884DF80EE80FD800C811B810C
:10468400AA81B981CE0FD11DCDBFDEBFED01089542
:10469400A0E0B0E0E0E5F3E20C942923AE014B5F27
:1046A4005F4FFA0161917191AF01E091D762F0918E
:1046B400D862808191810E947A23E2E00C944223A3
:1046C400A0E0B0E0E8E6F3E20C942923AE014B5FEE
:1046D4005F4FFA0161917191AF01E091D762F0915E
:1046E400D862808191810E947A23E2E00C94422373
:1046F400A2E0B0E0E0E8F3E20C9427238C014983C4
:104704005A83AE014F5F5F4F0E94611CF801208104
:1047140024FF02C08FEF9FEF2296E4E00C94402325
:104724000E9400230E94A02487E592E20E94C225F1
:1047340083ED93E20E94CC2587EE93E20E94C72585
:0E47440084E698E80E9430250E94100EFDCFFA
:104752001F93CF93DF93EB01142F60E00E9444215B
:10476200882339F0612FCE010E94D22093E09093EA
:0A4772000409DF91CF911F91089513
:10477C00CF93DF9300D0CDB7DEB780EE898386EB85
:10478C008A8342E0BE016F5F7F4F86E70E94A923B8
:0A479C000F900F90DF91CF91089568
:1047A60080918D6290918E62A0918F62B09190629D
:1047B6000196A11DB11D80938D6290938E62A09388
:0847C6008F62B0939062089528
:1047CE008091896290918A62A0918B62B0918C6285
:1047DE000196A11DB11D8093896290938A62A09368
:0847EE008B62B0938C62089508
:1047F600FC014481242F30E02F5F3F4F838190E0FE
:104806002817390741F0A081B181A40FB11D6C931F
:0848160084818F5F8483089503
:10481E00E0E0FBE08FEF9FEF84879587128613868B
:10482E0086E08183108681E1848381E08583168210
:06483E001186808308953D
:10484400E0E1FBE080EA9FE0848795871286138687
:1048540086E081831086148281E085831682118626
:0448640080830895B0
:10486800092E0394000C11F4882352F0BB0F40F476
:10487800BF2B11F460FF04C06F5F7F4F8F4F9F4FB6
:02488800089591
:10488A00E0E0F6E0808781E082870E94E5258823C0
:10489A00E1F3E0E0F6E08089918921E02587089537
:1048AA0082E00E9445249F938F938DE695E89F931B
:1048BA008F930E944A230F900F900F900F900895A4
:1048CA00DB018F939F930E940725BF91AF91A29F0F
:1048DA00800D911DA39F900DB29F900D11240895F4
:1048EA00A29FB001B39FC001A39F700D811D112427
:0E48FA00911DB29F700D811D1124911D089516
:1049080043E068ED80E590E00E94E92540E068ED2D
:0C49180081E590E00E94E92580E0089510
:10492400809105098C7141F490910509937081E09F
:0C493400933019F080E0089581E00895B0
:104940000E944A25E0E0F9E084E0808381E08283F0
:0C4950009DEF95839FE09683838308957C
:10495C00CF93C82F0E949E25882331F0E0E0F8E029
:0C496C00948190649483C283CF910895DD
:104978008BE791E80E94251C2FE788E391E02150FE
:0C49880080409040E1F700C0000008955E
:10499400FC01AF014F5F5F4F2081222311F0FA0128
:0C49A400F8CF9F01281B390BC9010895B2
:1049B00040E068ED80E191E00E94E925E0E1F1E06E
:0A49C00012821382789480E00895BB
:1049CA00CF93C82F0E949E258823E1F3C093020843
:0849DA0080E090E0CF91089508
:1049E2000E948F130E94E81B20E030E048EC52E462
:0649F2000E94ED2508956E
:1049F8000E9446100E94E81B20E030E040E85AE39D
:064A08000E94F125089553
:104A0E000E947524A59F900DB49F900DA49F800DBC
:064A1E00911D1124089512
:104A2400EC010E941F260E941E26CE010E94202611
:064A3400CE010E940B26DA
:104A3A00FC019381A081B181A90FB11D8C919F5F67
:044A4A0093830895B5
:104A4E000E9451200E94BC2487E994E80E943025E0
:024A5E000895B9
:104A6000E091D762F091D862608171810E94151F38
:024A70000895A7
:104A72009C01215631092A31310510F48F7599278D
:024A8200089595
:104A8400E0EBF0E0148285E88083128280E00895F0
:104A9400E0E0F4E08AE0818388E0838B828B0895F0
:104AA400B7FF0C9407250E940725821B930B0895DA
:104AB4009C01215431092A31310508F4806208959A
:0E4AC400FC0160837183428313821482089583
:0E4AD2005058BB27AA270E9455170C94342475
:0E4AE0000E94E61E6894B1110C94862508957C
:0E4AEE0000240A9416161706180609060895E5
:0E4AFC0000240A9412161306140605060895E7
:0E4B0A00E894BB2766277727CB0197F908951B
:0C4B1800E0E4F1E080818160808308957A
:0C4B2400E0E4F1E080818E7F8083089542
:0C4B300080910408881F8827881F0895C2
:0C4B3C008091040885FB882780F908950B
:0C4B480080912408881F8827881F08958A
:0C4B54008091240885FB882780F90895D3
:0C4B600082E00E9445240E947522089506
:0C4B6C0097F99F6780E870E060E0089512
:0C4B7800EE0FFF1F0590F491E02D099452
:0A4B84008093BB629093BC62089519
:0A4B8E008093BD629093BE6208950B
:0A4B98008093C3629093C4620895F5
:0A4BA2000E94CD220E942314089502
:0A4BAC00FC0183819481891B0895A8
:0A4BB6000E94692108F481E00895CF
:0A4BC0000E94692108F48FEF0895A8
:084BCA0080910D068170089531
:084BD200FC0164BF408308955B
:084BDA000E9414160C9434240F
:084BE2000E9483160C94342498
:064BEA008091000808950F
:064BF00080930208089505
:064BF600809120080895E3
:064BFC00809322080895D9
:064C02000E94BB1D089595
:064C08009FEF80EC08950F
:044C0E000C94000002
:044C12009F770895EB
:044C16000E94980060
:024C1A000895FB
:024C1C000895F9
:024C1E000895F7
:024C20000895F5
:024C22000895F3
:024C24000895F1
:024C26000895EF
:024C28000895ED
:024C2A000895EB
:024C2C000895E9
:024C2E000895E7
:024C30000895E5
:024C32000895E3
:024C34000895E1
:024C36000895DF
:024C38000895DD
:024C3A000895DB
:024C3C000895D9
:024C3E000895D7
:024C40000895D5
:104C420068076C094C836A9074A07AC000806888F7
:064C520000846C82008169
:104C5800030000000000000000000000E524000040
:084C680000000000DCCFD13593
:084C70000000000000C0153F28
:084C78000000803F0000C03F76
:074C8000286E756C6C290021
:064C8700286E696C290093
:024C8D00D962EA
:02000004008278
:090000000000000000D00800001F
:00000001FF
