:100000000C946F000C9480260C9480260C9480260F
:100010000C9480260C94441D0C94C5200C948026CE
:100020000C94621E0C9480260C9480260C948026DE
:100030000C9480260C9480260C94F71E0C94271F99
:100040000C9480260C9480260C9480260C94802698
:100050000C9480260C9480260C9480260C94802688
:100060000C94D31B0C9480260C9499200C946D2036
:100070000C9480260C94B91D0C9480260C94802638
:100080000C9480260C9480260C94941E0C9480264C
:10009000570E770E7A0E820EA00ED10EEF0EFF0EC7
:1000A000050F190F210F2D0F600062218062216260
:1000B00047004D34624762568062566275004D5A61
:1000C0006275627B80627B6281004D79628162D958
:1000D0008062D962DB004D7F62DB62E2800080914A
:1000E00001108F7C806080688093011011241FBEF6
:1000F000CFEFCDBFDFE7DEBFE8EAF0E040E017C0BA
:10010000B591A59135912591059107FD0CC095916B
:100110008591EF01F92FE82F05900D92A217B307F3
:10012000D9F7FE0104C01D92A217B307E1F7ED3D18
:10013000F40731F70E940B240C948B25F894FFCF21
:1001400052783A200048574555493A200073797350
:10015000206765742068776575690D0A000D0A547B
:10016000783A20000A496E697469616C697A696E2F
:100170006720524E327878332E2E2E0A4669726DE1
:10018000776172653A20006D616320736176650D59
:100190000A000A0A436F6E6669677572696E6720A6
:1001A000524E3278783320466F7220414250206A96
:1001B0006F696E0A002D2D2D2D2D2D2D2D2D2D2D00
:1001C0002D2D2D2D2D2D2D2D2D2D2D2D2D2D2D2D5F
:1001D0002D2D2D2D2D2D2D2D2D2D2D2D2D2D2D2D4F
:1001E0002D2D2D2D2D2D2D2D2D2D2D2D2D2D2D2D3F
:1001F0002D2D2D2D2D2D2D2D2D2D2D2D0A006D610B
:1002000063207365742064657665756920373042B4
:10021000334435374544303035413437420D0A00D8
:100220006D61632073657420646576616464722017
:1002300032363043323744340D0A006D6163207327
:10024000657420617070736B657920373435323393
:1002500041334234383745354439424241453734D9
:1002600036443043353842374130430D0A006D6122
:100270006320736574206E776B736B6579203241F0
:1002800035313138453044303241333330464630F1
:1002900039463836383645413243463030380D0A13
:1002A000006D616320736574206172206F6E0D0AAA
:1002B000006D61632073657420727864656C617988
:1002C0003120353030300D0A006D61632073657464
:1002D00020616472206F6E0D0A000A000A0A436FE3
:1002E0006E6669677572696E6720524E3278783330
:1002F00020466F72204F544141206A6F696E0A0098
:100300006D61632070617573650D0A0072616469C7
:100310006F20736574207366207366370D0A006D55
:10032000616320726573756D650D0A006D616320F0
:1003300073657420646576657569203030303441AA
:1003400033304230303233393136450D0A006D6179
:100350006320736574206465766164647220303054
:100360003030303030300D0A006D616320736574B9
:1003700020617070736B65792030303030303030F0
:10038000303030303030303030303030303030306D
:100390003030303030303030300D0A006D61632045
:1003A000736574206E776B736B65792030303030F5
:1003B000303030303030303030303030303030303D
:1003C0003030303030303030303030300D0A006D69
:1003D000616320736574206170706B6579203933B7
:1003E000393938303145463032373644343331309C
:1003F00034424633343244463338354346350D0AA9
:10040000006D61632073657420617070657569208B
:1004100030303030303030303030303030303030DC
:100420000D0A000A0A4A6F696E696E672054544EBD
:100430002077697468204F5441410A0054783A206B
:100440006D6163206A6F696E206F7461610A006D6F
:100450006163206A6F696E206F7461610D0A000A22
:100460000A4A6F696E696E672054544E207769742A
:1004700068204142500A0054783A206D6163206A36
:100480006F696E206162700A006D6163206A6F6936
:100490006E206162700D0A000A50726573732062EB
:1004A0007574746F6E20746F207472616E736D69F1
:1004B000742064617461000A0A5472616E736D691C
:1004C0007474696E6720446174610A002D2D2D2DAE
:1004D0002D2D2D2D2D2D2D2D2D2D2D2D2D2D2D2D4C
:1004E0002D2D2D2D2D2D2D2D2D2D2D2D2D2D2D2D3C
:1004F0002D2D2D2D2D2D2D2D2D2D2D2D2D2D2D2D2C
:100500000A000A54783A206D616320747820636E83
:100510006620313020006D616320747820636E6640
:1005200020313020000A54783A206D6163207478BD
:1005300020756E636E6620313120006D616320741A
:100540007820756E636E66203131200073797320D8
:0D055000736C65657020313830303030003C
:10055D0025640A000A4166746572203130303020FE
:10056D004D6F6973747572652052656164696E674C
:10057D0073002D2D2D2D2D2D2D2D2D2D2D2D2D2D85
:10058D002D2D2D2D2D2D2D2D2D2D2D2D2D2D2D2D8E
:10059D002D2D2D2D2D2D2D2D2D2D2D2D2D2D2D2D7E
:1005AD002D2D2D2D2D2D2D2D2D2D2D2D2D2D2D2D6E
:1005BD002D2D2D2D2D2D2D2D2D00546865204D41CA
:1005CD00582072656164696E6720776173202564B8
:1005DD000A00546865204D494E2072656164696E4C
:1005ED0067207761732025640A0A00546865204DE1
:1005FD004158206D61707320746F2025640A00547A
:10060D006865204D494E206D61707320746F2025F3
:10061D00640A000A0A43757272656E742053656E22
:10062D00736F7220446174610A002D2D2D2D2D2DB7
:10063D002D2D2D2D2D2D2D2D2D2D2D2D2D2D2D2DDD
:10064D002D2D2D2D2D2D2D2D2D2D2D2D2D2D2D2DCD
:10065D002D2D2D2D2D2D2D2D2D2D2D2D2D2D2D2DBD
:10066D002D2D2D2D2D2D2D2D2D2D2D2D2D2D2D2DAD
:10067D002D0A0052656C61746976652048756D6947
:10068D00646974793A2025752525200D0A004D6F72
:10069D006973747572653A2025752525200D0A003C
:1006AD0050726573737572653A20257520685061B7
:1006BD000D0A0054656D70657261747572653A202E
:1006CD0025692043200D0A004261747465727920FA
:1006DD004C6576656C3A2025752525200D0A0A0096
:1006ED000A4A534F4E20466F726D61740D00506172
:1006FD00796C6F61643A207B2074656D703A2025AA
:10070D00692C20626174746572793A2025752C20EC
:10071D0068756D69646974793A2025752C206D6F43
:10072D006973747572653A2025752C207072657326
:10073D00737572653A2025752C206E756D54783A57
:10074D002025750D0A0A7D003031323334353637A8
:10075D003839414243444546000A5765617468651E
:10076D007220436C69636B204E4F5420696E69741F
:10077D0069616C697A65642070726F7065726C79ED
:10078D0021000A496E74657261637469766520543F
:10079D0065726D696E616C20697320616374697631
:1007AD00653A20636F6D6D616E6473207375636858
:1007BD00206173202773797320666163746F72797A
:1007CD005245534554272077696C6C006265207340
:1007DD00656E7420746F2074686520524E3278787F
:1007ED003320616E6420726573706F6E7365732054
:1007FD0077696C6C2062652061707065617220682C
:10080D006572652E000A5768656E207265616479A0
:10081D002C20707265737320627574746F6E207402
:10082D006F206A6F696E2054544E0A00544F444F26
:10083D003A20205772697465206C6F7720706F773E
:0C084D0065722074657374732E2E2E00EB
:100859000A496E697469616C697A696E6720424DEB
:10086900453238302E2E2E00424D4532383020691F
:0B0879006E697469616C697A65640047
:1008840057656C636F6D6520746F207468652041D3
:0A0894006772692D496F542E0A00A7
:10089E00A2E2B0E0E5E5F4E00C94942329833A83D8
:1008AE004B835C8329013A01E89477F84114510493
:1008BE006104710409F458C669877A878B879C870F
:1008CE007B018C0161157105A0E88A07AFE39A07D9
:1008DE0009F44AC62D873E874F87588B4B015C0122
:1008EE006B017C01E894F7F8B1E0CB16D104B0E8C7
:1008FE00EB06BFE7FB0644F4E1E04E165104E0E8D8
:10090E006E06EFE77E064CF02D853E854F855889A5
:10091E00C501B4010E94E32532C609851A852B85CF
:10092E003C8537FF4DC04114510410E861061BE4AD
:10093E0071060CF04AC04114510420E862062FE300
:10094E0072060CF470C0D301C20107E1B595A795EC
:10095E00979587950A95D1F78F579109A109B109F6
:10096E0027E130E0281B390BD301C201022E04C04F
:10097E00B595A795979587950A94D2F7AC01BD01C9
:10098E0004C0440F551F661F771F2A95D2F74416D1
:10099E0055066606770609F046C081709927AA2784
:1009AE00BB2742E050E060E070E08A019B01081B2B
:1009BE00190B2A0B3B0B0D831E832F83388737C0F1
:1009CE001D821E821F82188608C022E030E040E0A1
:1009DE0050E02D833E834F8358874114510430E8F5
:1009EE0063063FE7730619F5C114D10440E8E40627
:1009FE004FE3F40609F4B8C55CF0E980FA800B8188
:100A0E001C8117FDB6C56D857E858F859889B7C506
:100A1E00E980FA800B811C8117FFABC56D857E8541
:100A2E008F8598898AC01D821E821F821886411466
:100A3E00510400E860060FE3700669F4E980FA805D
:100A4E000B811C8117FF99C5A501940160E070E030
:100A5E0080E89FE365C009811A812B813C810115D5
:100A6E001105210540E4340729F4A5019401C501BF
:100A7E00B401C2C089819A81AB81BC810097A10566
:100A8E00BF4359F409851A852B853C8537FD05C072
:100A9E00C501B4010E94440F72C5C501B4010E9484
:100AAE008226C114D104E104F10449F095018401B8
:100ABE003F730115110520483F4309F040C00981DD
:100ACE001A812B813C8137FF08C09B01AC0160E08D
:100ADE0070E080E89FE30E94662629853A854B8563
:100AEE005C8557FF4CC530E8E31A3FE3F30A0D81EE
:100AFE001E812F813885C02AD12AE22AF32AC114F9
:100B0E00D104E104F10479F421E230E02093006095
:100B1E00309301609B01AC010E94E2259B01AC0168
:100B2E000E9466262CC52D813E814F81588521302D
:100B3E0031054105510509F022C5905820C509859A
:100B4E001A852B853C8537FF21C02D813E814F8133
:100B5E005885232B242B252B59F481E290E080938A
:100B6E00006090930160A5019401C501B401D4CF3A
:100B7E000D811E812F81388501301105210531052A
:100B8E0071F420E030E040E85FEB0DC000E010E0D3
:100B9E0020E83FE30D831E832F83388708C020E0B3
:100BAE0030E040E85FE32D833E834F83588731E08A
:100BBE004316510461043DE473060CF497C048EFEC
:100BCE00C4164FEFD4064FE7E4064FE3F406BCF429
:100BDE00E980FA800B811C8117FF4BC32AEC32EFA0
:100BEE0049E451E76D817E818F8198850E946A2646
:100BFE002AEC32EF49E451E70E946A26C0C408E0AD
:100C0E00C016D10400E8E0060FE3F00654F0E980C8
:100C1E00FA800B811C811E141F0410061106F4F2BB
:100C2E0028C320E030E040E85FE30E94E2256B013C
:100C3E007C0120E03AEA48EB5FE30E946A264B0112
:100C4E005C0120E735EA4CEE56E3C701B6010E947F
:100C5E006A2669837A838B839C8320E030E040E8A8
:100C6E005EE3C701B6010E946A269B01AC016BEAE6
:100C7E007AEA8AEA9EE30E94E225A70196010E9483
:100C8E006A269B01AC0160E070E080E09FE30E9469
:100C9E00E2252B013C01A7019601C701B6010E9476
:100CAE006A269B01AC01C301B2010E946A262BE3A6
:100CBE003AEA48EB5FE30E946A269B01AC01698128
:100CCE007A818B819C810E94E2256B017C019B01C4
:100CDE00AC01C501B4010E94E3256627707F6987C8
:100CEE007A878B879C87A501940120C2C114D104F9
:100CFE0000E8E006F1046CF420E030E040E85BE44C
:100D0E000E946A266B017C0148EE5FEF6FEF7FEF6A
:100D1E0003C040E050E0BA01D701C60117E1B59516
:100D2E00A795979587951A95D1F78F579109A10990
:100D3E00B1098C019D01040F151F261F371F0D8B46
:100D4E001E8B2F8B388FE894E7F8FF24460157014E
:100D5E006894A7F81FE3B12A22E7C21624ECD20644
:100D6E002CE1E206F104B4F037EDC31633EBD306F3
:100D7E003DE5E306F1049CF08D899E89AF89B88D1F
:100D8E000196A11DB11D8D8B9E8BAF8BB88F90E8F8
:100D9E00A91AB10819861A861B861C8608C0E12C72
:100DAE00F12C8701E394E986FA860B871C87098567
:100DBE001A85000F111F000F111F09A31AA3F801A6
:100DCE00EA59FD49E080F18002811381E98AFA8AAD
:100DDE000B8B1C8BA8019701C501B4010E94E22563
:100DEE00698F7A8F8B8F9C8FA8019701C501B401F3
:100DFE000E94E3259B01AC0160E070E080E89FE378
:100E0E000E9466266D8F7E8F8F8F98A39B01AC01FB
:100E1E00698D7A8D8B8D9C8D0E946A2669837A836B
:100E2E008B839C8349805A806B807C80442400EFA6
:100E3E00502275016401F594E794D794C794CC249D
:100E4E0010EFD122E894F5F86894F5F8D701C601B1
:100E5E00A05CBF4FC984DA84EB84FC84F5E1CC0C32
:100E6E00DD1CEE1CFF1CFA95D1F7C80ED91EEA1E2A
:100E7E00FB1EA7019601C301B2010E946A269B01C7
:100E8E00AC01698D7A8D8B8D9C8D0E94E2256987D0
:100E9E007A878B879C8729893A894B895C89C70118
:100EAE00B6010E94E2259B01AC01C501B4010E946E
:100EBE00E225A30192010E946A269B01AC0169857D
:100ECE007A858B859C850E94E2252D8D3E8D4F8DDA
:100EDE0058A10E946A2669877A878B879C87298109
:100EEE003A814B815C81CA01B9010E946A266B016D
:100EFE007C0122E431EF43E55EE30E946A2625E59C
:100F0E0032E34CE65EE30E94E325A70196010E94C0
:100F1E006A2625E033EA4BE85EE30E94E325A7014B
:100F2E0096010E946A262BEA3AEA4AEA5EE30E949A
:100F3E00E325A70196010E946A2627EB3DE64BEDBD
:100F4E005EE30E94E325A70196010E946A262AE924
:100F5E0039E949E15FE30E94E3254B015C01A701FA
:100F6E009601C701B6010E946A269B01AC01C5011C
:100F7E00B4010E946A266B017C01A3019201698172
:100F8E007A818B819C810E94E32529853A854B8548
:100F9E005C850E946A26A70196010E94E3256B01DB
:100FAE007C01A3019201C301B2010E946A26698BE2
:100FBE007A8B8B8B9C8B20E030E040E450E40E94D7
:100FCE00E325A70196010E94E3254B015C018824CD
:100FDE0020EF9222A5019401C301B2010E946A265C
:100FEE002B013C0120E030E040E450E4C501B401A7
:100FFE000E94E22529893A894B895C890E94E22563
:10100E009B01AC01C701B6010E94E22529813A81FC
:10101E004B815C810E946A266B017C01A5019401C3
:10102E0069857A858B859C850E946A269B01AC0119
:10103E00C701B6010E94E3254B015C019B01AC0187
:10104E00C301B2010E94E3256B017C01CC2430EF79
:10105E00D32220E030E446E75FE3C701B6010E94E9
:10106E006A2669837A838B839C83A3019201C701CD
:10107E00B6010E94E2259B01AC01C501B4010E949C
:10108E00E2252FE438E346E75FE30E946A264B0130
:10109E005C0126EC33E246EF58EBC701B6010E9425
:1010AE006A269B01AC01C501B4010E94E325E9A1AA
:1010BE00FAA1EA5AFD4920813181428153810E9471
:1010CE00E3256B017C016D897E898F89988D0E9445
:1010DE00911C4B015C0109A11AA1025A1D49D801AC
:1010EE004D905D906D907C90A701960169817A81FB
:1010FE008B819C810E94E325A30192010E94E3252E
:10110E00A50194010E94E3256627707F69877A877F
:10111E008B879C87A50194010E94E225A301920171
:10112E000E94E22529813A814B815C810E94E22551
:10113E009B01AC01C701B6010E94E2254B015C0187
:10114E00CD84DE84EF84F888CC24B0EFDB22A701B7
:10115E0096016D857E858F8598890E94E225298569
:10116E003A854B855C850E946A262B013C012D85B4
:10117E003E854F855889C501B4010E946A269B01A0
:10118E00AC01C301B2010E94E32569837A838B838C
:10119E009C83A701960169857A858B859C850E9423
:1011AE006A26962EA72EB82E892E6987798B182F30
:1011BE00092F262F372F482F592F69817A818B813E
:1011CE009C810E94E3256B017C016D877E878F8752
:1011DE00988B81E0C816D104E10483E4F8060CF084
:1011EE00FDCC2D853E854F8558892115310541054C
:1011FE005344E9F42CE33AEA48E353E369817A81F4
:10120E008B819C810E94E3252B013C01292D3A2DD7
:10121E004B2D582DC701B6010E94E2259B01AC0152
:10122E00C301B2010E945926181694F5D7CCD701E6
:10123E00C601BF770197A641B344DCF42D853E85E8
:10124E004F855889211531054641534C09F5292DF5
:10125E003A2D4B2D582DC701B6010E94E2259B0158
:10126E00AC0169817A818B819C810E94542618166B
:10127E007CF020E632E442EA5DE06D817E818F8172
:10128E0098850E946A2620E632E442EA5DE0B4CCFC
:10129E00D701C601BF7781309105A105EFE3BE07E7
:1012AE000CF46AC057E1B595A795979587955A9511
:1012BE00D1F78E5740E050E060E870E08A019B0164
:1012CE0004C035952795179507958A95D2F7C00EC8
:1012DE00D11EE21EF31E26013701E89477F867E16E
:1012EE0075946794579447946A95D1F71FE7411AFE
:1012FE005108610871088FEF9FEFAFE7B0E0042C43
:10130E0004C0B595A795979587950A94D2F78095C1
:10131E009095A095B0959C01AD012C213D214E21BB
:10132E005F21E894E7F8FF246894E7F887E190E0FE
:10133E00841995092601370104C075946794579452
:10134E0047948A95D2F7ED84FE840F85188917FF8E
:10135E0008C07094609450944094411C511C611CC0
:10136E00711C692D7A2D8B2D982D0E94E22569878F
:10137E00798B182F092F03C0412C512C3201298152
:10138E003A814B815C8169857989812F902F0E94EA
:10139E00E3254B015C01882420E8922220E032E70D
:1013AE0041E35FE3C501B4010E946A266D877E8723
:1013BE008F87988B29853989412F502FC501B4010C
:1013CE000E94E2259B01AC0169817A818B819C810F
:1013DE000E94E22528E132E741E35FE30E946A269C
:1013EE006B017C012CE83EEB4FEB55E3C501B401DC
:1013FE000E946A269B01AC01C701B6010E94E3253B
:10140E004B015C019B01AC016D857E858F859889B2
:10141E000E94E3256B017C012D853E854F85588901
:10142E000E94E2259B01AC01C501B4010E94E22598
:10143E0069837A838B839C83A7019601C701B601CA
:10144E000E946A264B015C012CE43BEB41E353E323
:10145E000E946A262EE03AEE4DED55E30E94E225FB
:10146E00A50194010E946A2625E533EB4AE858E36C
:10147E000E94E325A50194010E946A2621E63BE025
:10148E0046E35BE30E94E225A50194010E946A26D1
:10149E002BEA3AEA4AE25EE30E94E325A5019401B3
:1014AE000E946A269B01AC01C701B6010E94E2258B
:1014BE004B015C019B01AC01C701B6010E946A267B
:1014CE006D877E878F87988B20E030E040E050E478
:1014DE00C501B4010E94E2259B01AC016D857E859C
:1014EE008F8598890E9466264B015C0129813A817D
:1014FE004B815C81C701B6010E946A2629813A811F
:10150E004B815C810E94E3259B01AC01C501B401B6
:10151E000E94E225A70196010E94E2259B01AC01E3
:10152E0060E070E080E89FE30E94E2259301820173
:10153E0047E1000F111F221F331F4A95D1F7060FE7
:10154E00171F281F391F0115110540E82407310503
:10155E0024F4A2010E94D41802C0C901B8012D8141
:10156E003E814F81588548CB60E070E080E89FE374
:10157E0006C060E070E0CB0102C0C501B401A296C6
:06158E00E0E10C94AD2326
:10159400AEE0B0E0E0EDFAE00C9495234C016B0171
:1015A40019821A828FEF9FEF8B839C831D821E8288
:1015B4004F83588729873A87A12CB12CD6016D9087
:1015C4007C90F301EA0DFB1D808181110FC0D601CF
:1015D400ED93FC938081853209F0D3C13F01BFEFC5
:1015E4006B1A7B0AF6016082718219C0853279F325
:1015F400B401082E000C990B0E94BA1A4FEFA41ADA
:10160400B40ADCCF8C32ACF08D32F9F489819A8142
:10161400816089839A833196D601ED93FC93D60138
:10162400ED91FC9180818B3269F789819A81846084
:10163400F0CF803221F489819A818860EACF8332A5
:1016440051F489819A818061E4CF803321F48981C6
:101654009A818260DECFB701C6010E9412208D8379
:101664009E8397FF0BC029813A81B1E02B27298300
:101674003A839195819591098D839E8389819A817D
:1016840080FF03C08D7F89839A83D601ED91FC91FD
:10169400119780818E3249F43196ED93FC93B70112
:1016A400C6010E9412208B839C83C6010E94B02233
:1016B400582ED601ED91FC918081082E000C990BD7
:1016C4000E94D325893609F443C084F4833609F48F
:1016D40002C134F4853209F427C18136E1F030C106
:1016E4008436B1F188360CF4D9C02AC1803709F4A4
:1016F4009AC03CF48E3609F4BCC08F3609F461C03C
:101704001FC1853709F440C0883709F476C0833790
:1017140009F016C1F3C0652D70E0A701CE010B9648
:101724000E940000892B09F426C1D601ED91FC9199
:101734001197CF0101968D939C932081AE01455F53
:101744005F4FBE016F5F7F4FC4010E94000010C154
:10175400652D70E0970141E050E0CE010B960E94A8
:101764004117892B09F407C1F60180819181019603
:1017740080839183AE01455F5F4FBE016F5F7F4FF2
:10178400C4010E94F615F4C0652D70E0970140E095
:1017940050E0CE010B960E944117892B09F4EBC04F
:1017A400D6018D919C91119701968D939C93AE01D6
:1017B400455F5F4FBE016F5F7F4FC4010E944B1BAB
:1017C400D7C0652D70E0970140E050E0CE010B9644
:1017D4000E944117892B09F4CEC0F60180819181C2
:1017E400019680839183AE01455F5F4FBE016F5FB9
:1017F4007F4FC4010E942D19BBC0652D70E0970175
:1018040040E050E0CE010B960E944117892B09F469
:10181400B2C0D601ED91FC911197CF0101968D9341
:101824009C9320811CC0970140E050E060EF70E081
:10183400CE010B960E944117892B09F49CC0F60136
:10184400808191810196808391838B859C85892BEE
:1018540029F420E030E04BE752E684C028E7AE01EB
:10186400455F5F4FBE016F5F7F4FC4010E945511FA
:101874007FC0A501400F511F652D70E09701CE0177
:101884000B960E940000892B09F475C0D6018D9136
:101894009C91119701968D939C9373C0652D70E074
:1018A400A701CE010B960E940000892B09F463C0A6
:1018B400D601ED91FC911197CF0101968D939C93E4
:1018C4002081AE01455F5F4FBE016F5F7F4FC40152
:1018D4000E9400004DC0B0E85B124DC0F60180814B
:1018E4009181019680839183D701ED91FC911197A9
:1018F400CF0102968D939C93808120C0B0E85B1247
:101904003AC0F60180819181019680839183D70149
:10191400ED91FC911197CF0102968D939C93408198
:10192400518120E030E01EC0B0E85B1224C0F60113
:10193400208131812F5F3F4F208331838B870DC0FE
:1019440085E28B87D6016D927C9219821A821D8260
:101954001E828FEF9FEF8B839C8321E030E0AE01EA
:10196400455F5F4FBE016F5F7F4FC4010E941C2122
:101974008A0D9B1D07C0F6018081918101968083A9
:0C1984009183C5012E96EFE00C94AE2379
:101990004F925F926F927F928F929F92AF92BF927F
:1019A000CF92DF92EF92FF92C0909362D0909462B8
:1019B000E0909562F0909662F594E794D794C7947E
:1019C0008AEFD81AE108F108C701B6019595879505
:1019D0007795679595958795779567959B01AC0168
:1019E0000E94DE244B015C01E0E0F2E6A285B385B3
:1019F0009B01AC01012E1DE0559547953795279524
:101A00001A95D1F7102D0E94CB252B013C0168942B
:101A100012F875946794579447941694D1F7A0855B
:101A2000B185A70196010E94CB25DC01CB01B595BC
:101A3000A79597958795840D951DA61DB71D072E13
:101A400072E1B595A795979587957A95D1F7702D01
:101A50009C01AD0130584F4F5F4FA681B7810E9466
:101A600080252B013C01032E3FE075946794579429
:101A700047943A95D1F7302D411451046104710413
:101A800009F4CEC0A5019401012E1BE055954795A0
:101A9000379527951A95D1F7102DA089B1890E9405
:101AA000CB254B015C01A685B785A70196010E9455
:101AB000CB25DC01CB01880F991FAA1FBB1F880E05
:101AC000991EAA1EBB1ED501C401B595A795979571
:101AD0008795B595A7959795879584849584092CC6
:101AE000000CAA08BB08540199248824880E991E6A
:101AF000AA1EBB1E072E7CE0B594A79497948794EA
:101B00007A95D1F7702D8091976290919862A0910B
:101B10009962B0919A62A5019401280F391F4A1F5A
:101B20005B1FABECB3EF0E94CE25805B9C439923F7
:101B30005CF0660F771F881F991FA30192010E9416
:101B40006D2269017A010AC0A30192010E946D22EF
:101B500069017A01CC0CDD1CEE1CFF1CC701B6012B
:101B6000689412F896958795779567951694D1F7AE
:101B70009B01AC010E94DE249B01AC01012E1DE003
:101B800056954795379527951A95D1F7102DE0E092
:101B9000F2E6A689B7890E94CB254B015C01072E8E
:101BA0007CE0B594A794979487947A95D1F7702D9B
:101BB000A7019601569547953795279556954795D0
:101BC00037952795A489B5890E94CB25DC01CB01E7
:101BD000072E7DE0B595A795979587957A95D1F7CE
:101BE000702DB501A401480F591F6A1F7B1F828900
:101BF0009389092E000CAA0BBB0B840F951FA61FFF
:101C0000B71F689413F8B595A7959795879516947F
:101C1000D1F7BC01CD016C0D7D1D8E1D9F1D03C034
:101C200060E070E0CB01FF90EF90DF90CF90BF902D
:101C3000AF909F908F907F906F905F904F9008959E
:101C40001F93CF93DF938091D7629091D86280FFEA
:101C500021C08091DE62843059F08B3079F0813080
:101C600081F480E28093A50482E08093DE6209C063
:101C700083E08093DE620E940B2603C083E08093A2
:101C8000DE628091D7629091D8628E7F8093D76216
:101C90009093D862E091DE628E2F90E08C309105B7
:101CA00008F0EEC0FC01E85BFF4F0C94352680E2A3
:101CB0008093A5040E9475180E948F22811104C090
:101CC00086E697E80E94A92580E28093A6048FE823
:101CD00097E80E94A92589ED97E80E94A92582E14D
:101CE00098E80E94A92581E08093DE62C9C00E9425
:101CF0002B1EC6C00E947A260E94A02583E08093F6
:101D0000DE62BEC08091DD628F5F8093DD62C0E2E3
:101D1000C093A60485E792E60E94462165E772E635
:101D200087E492E60E94031387E492E60E94131C64
:101D30000E94052684E08093DE62C093A504A0C0C3
:101D400080918B6290918C62A0918D62B0918E6235
:101D5000843B9105A105B10509F52091DD628DEC6B
:101D6000289F812D1124869586958695880F982F1A
:101D7000990F990F890F281304C083E08093DE62C6
:101D800003C085E08093DE620E940B2610928B6276
:101D900010928C6210928D6210928E620E942B1EA5
:101DA0006FC08091DD628F5F8093DD62C5EAD4E011
:101DB00010E2188385E792E60E94462165E772E605
:101DC00087E492E60E94031387E492E60E94511C86
:101DD0000E94052684E08093DE62188351C0109231
:101DE0008B6210928C6210928D6210928E620E94B1
:101DF000CE240E9405268BE08093DE6241C00E94C3
:101E000075188BE08093DE623BC00E948F2285E7CD
:101E100092E60E94462185E792E60E94761565E7E4
:101E200072E687E492E60E9403138BE08093DE6201
:101E300027C089E398E80E94A9258BE08093DE62A1
:101E40001FC085E792E60E94462185E792E60E9440
:101E500076158BE08093DE6213C080918B62909147
:101E60008C62A0918D62B0918E620297A105B1053E
:101E700029F40E940B2686E08093DE620E942B1ECE
:081E8000DF91CF911F9108953D
:101E88004F925F926F927F928F929F92AF92BF9282
:101E9800CF92DF92EF92FF920F931F936B017C0119
:101EA800DC01CB01B701A6014427552760787F776D
:101EB8004115510560487F4759F4A7019601C701AC
:101EC800B6010E946A26A70196010E94E3251AC05E
:101ED800181619061A061B06D4F0892B8A2B8B2B89
:101EE80009F4CCC081E290E0809300609093016097
:101EF800A7019601C701B6010E94E2259B01AC012A
:101F08000E946626562F472F382F292FBBC067E11E
:101F1800F594E794D794C7946A95D1F7C114D1047E
:101F2800E104F104E1F4C12CD12C7601A7FD0AC02B
:101F3800880F991FAA1FBB1F2FEFC21AD20AE20AE5
:101F4800F20AF4CF21E0C21AD108E108F108F094AE
:101F5800E094D094C094C11CD11CE11CF11C2FE763
:101F6800C21AD108E108F108AF77BB27A068C0FE04
:101F780004C0880F991FAA1FBB1FF594E794D79434
:101F8800C794880F991FAA1FBB1FE9E1F0E040E042
:101F980050E060E071E0812C912C540100E010E0E9
:101FA800980128013901440E551E661E771E8415B6
:101FB8009505A605B70574F093018201040F151F56
:101FC800261F371F84199509A609B709840E951E7F
:101FD800A61EB71E880F991FAA1FBB1F7695679567
:101FE800579547953197E9F6892B8A2B8B2BA1F1C9
:101FF80020E632E442EA5DE060E070E080E89FE3DA
:102008000E94E22520E030E040E85FE30E94592684
:1020180087FD22C020E632E442EA5DE060E070E03D
:1020280080E89FE30E94E32520E030E040E85FE39A
:102038000E945926181634F482E0880E911CA11CBF
:10204800B11C0AC0D501C40181709927AA27BB27F2
:10205800880E991EAA1EBB1ED501C401B595A79569
:1020680097958795B15C37E1CC0CDD1CEE1CFF1C05
:102078003A95D1F7C80ED91EEA1EFB1E5C2D4D2DD0
:102088003E2D2F2D652F742F832F922F1F910F9187
:10209800FF90EF90DF90CF90BF90AF909F908F9080
:0A20A8007F906F905F904F900895B5
:1020B2004F925F926F927F928F929F92AF92BF9256
:1020C200CF92DF92EF92FF9280909362909094620F
:1020D200A0909562B09096622CE2921A21E0A20A38
:1020E200B108C0909B62D0909C62E0909D62F0909B
:1020F2009E620B2EBEE0CC0CDD1CEE1CFF1CBA95C2
:10210200D1F7B02DE0E0F2E6848D958D092E000C1A
:10211200AA0BBB0B072E74E1880F991FAA1FBB1FC6
:102122007A95D1F7702DC81AD90AEA0AFB0AA68D48
:10213200B78DA50194010E94CB25C61AD70AE80AD9
:10214200F90A30E4D30EE11CF11C0B2EBFE0F5942A
:10215200E794D794C794BA95D1F7B02DA38DB0E088
:10216200A50194010E9480252B013C01032E3BE036
:1021720075946794579447943A95D1F7302D40E877
:10218200540E611C711CA0A10A2E000CBB0BA501F0
:1021920094010E94CB25052E5AE095958795779557
:1021A20067955A95D1F7502DA30192010E94DE2422
:1021B200DC01CB01072E7AE0B595A7959795879517
:1021C2007A95D1F7702D9C01AD01405E5F4FA18DD4
:1021D200B28D0E94CB25DC01CB01905EAF4FBF4F89
:1021E200BC01CD01052E5EE09595879577956795A3
:1021F2005A95D1F7502DA70196010E94DE246B015A
:102202007C01052E5FE095958795779567955A95A0
:10221200D1F7502D9B01AC010E94DE249B01AC0141
:10222200689416F855954795379527951694D1F7E2
:10223200A08DB0E00E948025DC01CB01689413F8E8
:10224200B595A795979587951694D1F7A70196010D
:10225200281B390B4A0B5B0BDA01C9011AF480E027
:1022620090E0DC0181309105A10539E1B30724F04A
:1022720080E090E0A0E0B9E1BC01CD01052E5CE078
:1022820095958795779567955A95D1F7502DFF903B
:10229200EF90DF90CF90BF90AF909F908F907F9004
:0822A2006F905F904F900895CA
:1022AA00AFE0B0E0EBE5F1E10C9492231C016B0185
:1022BA0049835A832B83FB01828193818480958091
:1022CA0000811181A680B78097FD02C00D7F02C0F0
:1022DA0081E090E0E981FA814080518062807380D8
:1022EA009801207133272C833D83740104FF08C0B1
:1022FA00411451046104710419F032E0E31AF1083F
:10230A00F801E870FF27EE83FF8303FF03C0F1E0C3
:10231A00EF1AF108F6010084F185E02D3197EE8776
:10232A00FF87EA0DFB1D10829C012E193F092887A1
:10233A003987C801827099278A879B87EB818E2FFC
:10234A00EE0F990B9C01215431092C873D872E856C
:10235A003F852230310530F48C819D81892B09F02B
:10236A0042C05CC0411451046104710461F18E855C
:10237A009F8501978E879F87C2018F7099278A3020
:10238A00910514F4C09602C0895A9F4FEC85FD85C9
:10239A007A9748F49C012062215631092A31310585
:1023AA0010F40E94B225EE85FF85EA0DFB1D80839D
:1023BA00F1E0EF1AF10884E0769467945794479411
:1023CA008A95D1F7C4CF888599858E0D9F1D1816D9
:1023DA0019066CF21E141F040CF0BECFEA85FB85A9
:1023EA00EF2B29F6B9CFE981FA8180819181A28107
:1023FA00B381892B8A2B8B2B89F0EE85FF85EA0D19
:10240A00FB1D31972B8120838E859F8502978E87AE
:10241A009F87FC01EA0DFB1D80E38083EE81FF812B
:10242A00EF2B59F02E853F85215031092E873F87A2
:10243A00F901EA0DFB1D80E28083F6014085518592
:10244A00415051092E853F85421B530BB9016A0D34
:10245A007B1D9401C1010E94F21D9C01F101808142
:10246A00918190FF06C0F6018281938182179307BA
:0C247A000CF4C9012F96E2E10C94AB2396
:102486000F931F93CF93DF93CDB7DEB76897CDBF7A
:10249600DEBF28E1AE014F5F5F4F68E886E70E9426
:1024A600031B00E012E68A8190E0982F8827298195
:1024B600820F911DF801808391838C8190E0982F83
:1024C60088272B81820F911D828393838E8190E0D2
:1024D600982F88272D81820F911D84839583888567
:1024E60090E0982F88272F81820F911D86839783EE
:1024F6008A8590E0982F88272985820F911D8087ED
:1025060091878C8590E0982F88272B85820F911DC7
:10251600828793878E8590E0982F88272D85820F56
:10252600911D84879587888990E0982F88272F8525
:10253600820F911D868797878A8990E0982F882732
:102546002989820F911D808B918B8C8990E0982F21
:1025560088272B89820F911D828B938B8E8990E021
:10256600982F88272D89820F911D848B958B888DB6
:1025760090E0982F88272F89820F911D868B978B45
:1025860021E0AE014F5F5F4F61EA86E70E94031BC1
:102596008981F801808F27E0AE014F5F5F4F61EEC2
:1025A60086E70E94031B2A8130E0322F2227998179
:1025B600290F311DF801218F328F9B81938F9D81C9
:1025C6002C81F0E12F9F90011124492F4F70242B6D
:1025D600F801248F358F2E81F0E12F9F9001112471
:1025E60092959F70292BF801268F378F9F8190A394
:1025F6006896CDBFDEBFDF91CF911F910F910895F1
:10260600CF93DF93CDB7DEB76197CDBFDEBF21E1B4
:10261600E5E5F7E8DE01119601900D922A95E1F7BE
:10262600FB01208122952F70E1E0F0E0EC0FFD1F09
:10263600E20FF11D2081FC012083FB0120812F7018
:10264600E1E0F0E0EC0FFD1FE20FF11D2081FC013F
:102656002183FB01218122952F70E1E0F0E0EC0F50
:10266600FD1FE20FF11D2081FC012283FB01218168
:102676002F70E1E0F0E0EC0FFD1FE20FF11D20816D
:10268600FC012383FB01228122952F70E1E0F0E01B
:10269600EC0FFD1FE20FF11D2081FC012483FB01DD
:1026A60022812F70E1E0F0E0EC0FFD1FE20FF11D3B
:1026B6002081FC012583FB01238122952F70E1E017
:1026C600F0E0EC0FFD1FE20FF11D2081FC012683D7
:1026D600FB0123812F70E1E0F0E0EC0FFD1FE20F1C
:1026E600F11D2081FC012783FB01248122952F7097
:1026F600E1E0F0E0EC0FFD1FE20FF11D2081FC018F
:102706002087FB0124812F70E1E0F0E0EC0FFD1F34
:10271600E20FF11D2081FC012187FB012581229515
:102726002F70E1E0F0E0EC0FFD1FE20FF11D2081BC
:10273600FC012287FB0125812F70E1E0F0E0EC0F20
:10274600FD1FE20FF11D2081FC0123872DE0248768
:102756002AE0258716866196CDBFDEBFDF91CF9131
:022766000895D4
:10276800CF93DF9380E094E023E0FC012083C0E472
:10277800D4E035E03883A0E6B4E032E13C9360EA87
:1027880074E030E2FB013083FC01148241E04C83A9
:1027980040E114964C931497FB013483FC01108A92
:1027A800118A128A138A148A158A168A178A188A2D
:1027B800198A1A8A1B8A1C8A1D8A1E8A1F8A5096A1
:1027C8001C92509751961C92519752961C92529770
:1027D80053961C92539754961C92549755961C9254
:1027E800559756961C92569757961C92FB01108A3D
:1027F800118A128A138A148A158A8BE0868B178AA3
:10280800E0EEF5E01182108215821782108611869B
:102818001682228386E896E28093BB629093BC621C
:1028280087E896E28093B9629093BA6288E896E264
:102838008093B7629093B86289E896E28093B56214
:102848009093B6628AE896E28093B3629093B462FA
:102858008BE896E28093B1629093B2628CE896E23C
:102868008093AF629093B0628DE896E28093AD62F8
:102878009093AE628EE896E28093AB629093AC62DE
:102888008FE896E28093A9629093AA6280E996E223
:0E2898008093A7629093A862DF91CF9108957C
:1028A6008F929F92AF92BF92CF92DF92EF92FF925A
:1028B60080919F629091A062A091A162B091A26264
:1028C600E0E0F2E64081518160E070E06C017D015C
:1028D600689413F8F594E794D794C7941694D1F7AF
:1028E600C41AD50AE60AF70A689412F8B595A795A8
:1028F600979587951694D1F7440F551F661F771F36
:102906004C015D01841A950AA60AB70AA50194012D
:10291600A281B3810E94CB254B015C01072E7BE08F
:10292600B594A794979487947A95D1F7702DA701BB
:102936009601C701B6010E94DE249B01AC01012E5F
:102946001CE055954795379527951A95D1F7102D83
:10295600A481B5810E94CB25DC01CB01072E7EE048
:10296600B595A795979587957A95D1F7702D880D8A
:10297600991DAA1DBB1D8093936290939462A093A8
:102986009562B09396626C017D01CC0CDD1CEE1C49
:10299600FF1CCC0CDD1CEE1CFF1C8C0D9D1DAE1D02
:1029A600BF1D80589F4FAF4FBF4F692F7A2F8B2F78
:1029B600992787FD9A95FF90EF90DF90CF90BF9073
:0829C600AF909F908F900895DF
:1029CE00CF93DF93CDB7DEB72897CDBFDEBF28E01C
:1029DE00AE014F5F5F4F67EF86E70E94031B8F814B
:1029EE0090E0A0E0B0E0BA2FA92F982F8827288575
:1029FE00822B80939B6290939C62A0939D62B09376
:102A0E009E628C8190E0A0E0B0E0AC01BD01032E8F
:102A1E003CE0440F551F661F771F3A95D1F7302DB6
:102A2E009D81892F90E0A0E0B0E0880F991FAA1F2A
:102A3E00BB1F880F991FAA1FBB1F880F991FAA1FA4
:102A4E00BB1F880F991FAA1FBB1F842B952BA62B6C
:102A5E00B72B2E8122952F70822B80939F6290939D
:102A6E00A062A093A162B093A262898190E0A0E0DF
:102A7E00B0E0AC01BD01032E3CE0440F551F661FB4
:102A8E00771F3A95D1F7302D9A81892F90E0A0E0EB
:102A9E00B0E0880F991FAA1FBB1F880F991FAA1F8E
:102AAE00BB1F880F991FAA1FBB1F880F991FAA1F34
:102ABE00BB1F842B952BA62BB72B2B8122952F700A
:102ACE00822B8093976290939862A0939962B093B1
:0E2ADE009A622896CDBFDEBFDF91CF9108959A
:102AEC00CF93DF93EC0180E296E80E94292287E3E2
:102AFC0096E80E94292289811F928F9380E896E89C
:102B0C009F938F930E94C3238A811F928F938BE98B
:102B1C0096E89F938F930E94C3232B8130E0C901C9
:102B2C00880F991F220F331F220F331F220F331FC1
:102B3C00820F931F9F938F938DEA96E89F938F93A9
:102B4C000E94C3238881282F082E000C330B3F933F
:102B5C008F9380EC96E89F938F930E94C3238C8174
:102B6C001F928F9385ED96E89F938F930E94C323BA
:102B7C008DEE96E80E94A9258FE795E80E94A9257D
:102B8C008D811F928F932B8130E0C901880F991F83
:102B9C00220F331F220F331F220F331F820F931F5D
:102BAC009F938F938A811F928F9389811F928F930A
:102BBC008C811F928F938881282F082E000C330B49
:102BCC003F938F938BEF96E89F938F930E94C32331
:102BDC008DB79EB782968DBF9EBFDF91CF91089522
:102BEC00A2E0B0E0ECEFF5E10C9492233C016B0118
:102BFC00FB0122813381A480B580808191818983FE
:102C0C009A8386809780FA0120803180428053809D
:102C1C00B201A10157FE07C044275527BA0142193A
:102C2C0053096409750937FD03C08D7F89839A8325
:102C3C00950157FC05C0898182FD02C083FF02C04B
:102C4C0021503109CE0101967C010AE010E0C60149
:102C5C000E94101857FC03C0298122FF0AC001975B
:102C6C00F401E80FF91F57FC02C02BE209C02DE25A
:102C7C0007C023FF06C00197F401E80FF91F20E2FB
:102C8C00208309811A81F6014085518541505109F3
:102C9C00481B590BB401680F791F9501C3010E94A1
:102CAC00F21D9C01F3018081918190FF06C0F60119
:102CBC0082819381821793070CF4C9012296E2E179
:042CCC000C94AB2396
:102CD00010C00E94F72558F00E94F02540F029F41A
:102CE0005F3F29F00C942F2651110C94FF250C9472
:102CF0007D260E944B2268F39923B1F3552391F36B
:102D0000951B550BBB27AA2762177307840738F05A
:102D10009F5F5F4F220F331F441FAA1FA9F335D0B7
:102D20000E2E3AF0E0E832D091505040E695001C6B
:102D3000CAF72BD0FE2F29D0660F771F881FBB1F25
:102D4000261737074807AB07B0E809F0BB0B802D03
:102D5000BF01FF2793585F4F3AF09E3F510578F02F
:102D60000C942F260C94FF255F3FE4F3983ED4F398
:102D7000869577956795B795F7959F5FC9F7880F03
:102D8000911D9695879597F90895E1E0660F771F55
:102D9000881FBB1F621773078407BA0720F0621BE6
:0E2DA000730B840BBA0BEE1F88F7E0950895B5
:102DAE000FC00E94F02538F00E94F72520F09523E1
:102DBE0011F00C942F260C947D2611240C94FF25D3
:102DCE000E944B2270F3959FC1F3950F50E0551F53
:102DDE00629FF001729FBB27F00DB11D639FAA2762
:102DEE00F00DB11DAA1F649F6627B00DA11D661FB1
:102DFE00829F2227B00DA11D621F739FB00DA11DD2
:102E0E00621F839FA00D611D221F749F3327A00D8B
:102E1E00611D231F849F600D211D822F762F6A2F27
:102E2E0011249F5750409AF0F1F088234AF0EE0F8C
:102E3E00FF1FBB1F661F771F881F91505040A9F7B9
:102E4E009E3F510580F00C942F260C94FF255F3F7A
:102E5E00E4F3983ED4F3869577956795B795F795F5
:102E6E00E7959F5FC1F7FE2B880F911D969587956D
:042E7E0097F9089523
:102E8200CF93DF93DC01F90168387105F1F05CF44E
:102E92006138710561F164387105A1F1603871051D
:102EA20009F051C02FC0603C710509F441C0603F78
:102EB2007105F1F1603A710509F045C0C081D18117
:102EC200CE0102968083918325C0C081D181CE013B
:102ED200029680839183452B39F04881042E000CA1
:102EE200550B660B770B1CC0488150E029C0C0818E
:102EF200D181CE01049680839183488159816A8170
:102F02007B810EC0C081D181CE01029680839183E4
:102F1200452BA1F048815981052E000C660B770BD9
:102F22004D935D936D937C93139781E090E00DC078
:102F3200C081D181CE0102968083918348815981DB
:102F420060E070E0EDCF80E090E0DF91CF910895F6
:102F520011C00E94F02538F00E94F72520F039F4C4
:102F62009F3F19F426F40C947D260EF4E095E7FBBE
:102F72000C942F26E92F0E944B2258F3BA176207AE
:102F820073078407950720F079F4A6F50C94FE25C3
:102F92000EF4E0950B2EBA2FA02D0B01B901900172
:102FA2000C01CA01A0011124FF27591B99F0593FB6
:102FB20050F4503E68F11A16F040A22F232F342FFE
:102FC2004427585FF3CF469537952795A795F0404C
:102FD2005395C9F77EF41F16BA0B620B730B840B61
:102FE200BAF09150A1F0FF0FBB1F661F771F881F19
:102FF200C2F70EC0BA0F621F731F841F48F4879571
:1030020077956795B795F7959E3F08F0B0CF939562
:0E301200880F08F09927EE0F9795879508957F
:10302000A0E0B0E0E6E1F8E10C949423DC01280193
:103030001696AD90BC901797F701808191811296FA
:10304000ED91FC9113971896CD91DC9119972197EA
:10305000F7FF02C0E1E0F0E0CA0DDB1D1882690154
:10306000A1E0B0E08F01021B130B4C01F2E08F22B4
:103070009924052C000C66087708CE018A199B0953
:10308000CA15DB0519F1411551056105710589F076
:10309000CB01BA01A30192010E946D22CA01A62FA1
:1030A000B72F605D6A9341E0C41AD108A901BC0141
:1030B000E4CF98012C0D3D1D121613064CF31C1481
:1030C0001D0434F48114910419F702C080E090E0EB
:1030D000AB2B31F4F701208131812F7E20833183A6
:0A30E000CDB7DEB7E0E10C94AD239C
:1030EA00CF9384E691E89F938F930E94DB234FEF5F
:1030FA0062E070E686E892E60E94DB254FEF61E027
:10310A0071E681E892E60E94DB2582E080936604FC
:10311A002FE739EA93E0215030409040E1F700C0B0
:10312A000000809365042FE738E381E021503040A6
:10313A008040E1F700C0000084E0809345040F90CE
:10314A000F900E941D26882339F00E947426682F4A
:10315A0081E892E60E94742481E892E60E944F2652
:10316A00882379F30E941726882359F381E892E687
:10317A000E949625C82F0E942725CA3011F78AE097
:10318A000E9427259FE728E331E0915020403040F4
:0E319A00E1F700C000000E94271ACF910895AF
:1031A8000F931F93CF93DF93EA0140385105D4F072
:1031B80020E030E040E05FE70E946A269E012F573A
:1031C8003109203831056CF120E030E040E05FE75C
:1031D8000E946A26CE5FD109C038D1051CF1CFE71D
:1031E800D0E020C042385F4FECF420E030E040E807
:1031F8005CE00E946A269E012A593F4F22384FEF11
:1032080034077CF420E030E040E85CE00E946A2665
:10321800C453DF4FC2382FEFD20724F4C2E8DFEFE0
:1032280001C0E9019E0121583F4F8901330F220B4C
:10323800330BA9019801E7E1220F331F441F551FE3
:10324800EA95D1F70E946A26DF91CF911F910F91DD
:023258000895D7
:10325A00A2E0B0E0E3E3F9E10C9496234C016B01A0
:10326A00FB01228133816480758080819181898309
:10327A009A83A680B78037FD03C08D7F89839A839E
:10328A00FA014081518162817381CE0101967C01EC
:10329A0008E010E09301C6010E941018298124FF5A
:1032AA0006C00197F501E80FF91F20E32083298161
:1032BA0023FF06C00197F501E80FF91F20E22083DA
:1032CA0009811A81F6014085518541505109481BEF
:1032DA00590BB501680F791F9301C4010E94F21DB1
:1032EA009C01F4018081918190FF06C0F6018281E0
:1032FA009381821793070CF4C9012296EEE00C948D
:02330A00AF23EF
:10330C008CED92E80E94292285EB91E80E942922FB
:10331C0080E093E80E94CC1C2FE78AE196E02150D4
:10332C0080409040E1F700C000008CE093E80E94E0
:10333C00CC1C8FE193E80E94CC1C8CE293E80E9499
:10334C00CC1C8EE493E80E94CC1C89E693E80E9486
:10335C00CC1C8CE993E80E94CC1C8FEC93E80E9467
:10336C00CC1C81E094E80E94CC1C81EA92E80E947B
:10337C00CC1C81EB92E80E94CC1C89EC92E80E9458
:10338C00CC1C87E891E80E94CC1C8AED92E80E9444
:10339C0029222FE788E391E0215080409040E1F70B
:0633AC0000C000000895BE
:1033B20040E068ED80E690E00E94622640E068ED21
:1033C20081E690E00E94622640E068ED85E690E0AA
:1033D2000E94622640E068ED88E790E00E94622643
:1033E2004CE068ED88E690E00E94622640E068EDDD
:1033F20089E690E00E94622640E068ED80E790E076
:103402000E94622640E068ED8CE790E00E9462260E
:1034120040E068ED82E690E00E94622640E068EDBE
:1034220083E690E00E94622640E068ED84E690E048
:103432000E94622640E068ED80E890E00E946226E9
:0C344200E0E6F0E0858181FFFDCF0895F9
:10344E00CF9385E491E80E9429226DE471E886E825
:10345E0092E60E9440200AC00E942326882331F063
:10346E0086E892E60E9496250E94772686E892E6E6
:10347E000E944F268111F0CFC0E01FC00E941D2672
:10348E00882339F00E947426682F81E892E60E9404
:10349E00742481E892E60E944F26882379F30E94D5
:1034AE001726882359F381E892E60E949625C1E0FB
:1034BE008A3009F0C0E00E942725CC23F9F22FE7CD
:1034CE0088E391E0215080409040E1F700C0000079
:0434DE00CF910895ED
:1034E2008F929F92AF92BF92CF92DF92EF92FF9212
:1034F2000E94C80C4B015C010E946A2524E036E55B
:103502004AE150E40E94E32523E333E948E853E427
:103512000E94E3259B01AC0164E076E58AE190E438
:103522000E9466269B01AC0160E070E080E89FE3A8
:103532000E94E22528E539E348EA50EC0E944F0454
:103542006B017C01C501B4010E948F1C20E030E0B8
:1035520048EC52E40E946626A70196010E946A2660
:10356200FF90EF90DF90CF90BF90AF909F908F90A1
:023572000895BA
:103574000F931F93CF93DF93DB012D913C91119710
:1035840030FF25C016964D915C91179714962D9196
:103594003C9115974217530778F41296ED91FC91DC
:1035A4001397808312962D913C9113972F5F3F4F71
:1035B40012962D933C93139716962D913C91179741
:1035C4002F5F3F4F16962D933C93179715C01C966B
:1035D400ED91FC911D97309719F48FEF9FEF0CC07C
:1035E4008B01EC010995892BC1F7F801868197813C
:1035F400019686839783CE01DF91CF911F910F911E
:02360400089527
:10360600EF92FF920F931F93CF93DF930F92CDB755
:10361600DEB769838A01E22E60E00E94E021F82E7F
:10362600882369F161E0CE0101960E946E21F82E91
:10363600811104C083E08093040921C0E0E0F9E031
:1036460087818160878381E08483858185FD0AC0C7
:10365600858182FD07C0858183FD04C085818370D5
:10366600833099F70E940B25882329F083E0809305
:103676000409F12C04C06E2DC8010E94F1208F2D83
:103686000F90DF91CF911F910F91FF90EF900895CA
:10369600A2E0B0E0E1E5FBE10C9496235C016B014E
:1036A600FB01228133818480958080819181898389
:1036B6009A836680778037FD03C08D7F89839A83DE
:1036C600FA014081518162817381CE0101967C01AC
:1036D6000AE010E09401C6010E94101809811A81BF
:1036E600F6014085518541505109481B590BB301DC
:1036F600680F791F9401C5010E94F21D9C01F50116
:103706008081918190FF06C0F601828193818217A4
:0E37160093070CF4C9012296EEE00C94AF2349
:10372400CF93DF9380E491E80E942922C0E00E94B5
:103734001D26882339F00E947426682F81E892E6BA
:103744000E94742481E892E60E944F268823C1F0E7
:103754000E941726882389F081E892E60E94962524
:10376400D82F0E942725DA3041F4CF5FC13029F4E5
:1037740080E491E80E942922DACFC230C1F602C067
:10378400C230A9F68AE00E9427252FE78AE196E055
:10379400215080409040E1F700C00000DF91CF91BC
:0237A400089586
:1037A6001F920F920FB60F9211242F933F934F93B0
:1037B6005F936F937F938F939F93AF93BF93EF9393
:1037C600FF937A9B05C0E091B762F091B8620995C4
:1037D6007D9B05C0E091B562F091B66209957C9B30
:1037E60005C0E091B362F091B4620995799B05C07A
:1037F600E091A962F091AA6209958FEF8FB9FF91C6
:10380600EF91BF91AF919F918F917F916F915F9152
:103816004F913F912F910F900FBE0F901F901895CB
:10382600CF93DF93EC0187EB94E80E9429228CEC7E
:1038360094E80E94292282E095E80E942922CE017E
:103846000E94292266E175E886E892E60E944020F9
:10385600BE0186E892E60E9440200AC00E94232606
:10386600882331F086E892E60E9496250E94772604
:1038760086E892E60E944F268111F0CF2FE788E373
:1038860091E0215080409040E1F700C000000E9486
:0C389600921B0E943525DF91CF91089510
:1038A200CF93DF93EC0187EB94E80E9429228CEC02
:1038B20094E80E94292285E295E80E942922CE01FD
:1038C2000E9429226BE375E886E892E60E94402076
:1038D200BE0186E892E60E9440200AC00E9423268A
:1038E200882331F086E892E60E9496250E94772688
:1038F20086E892E60E944F268111F0CF2FE788E3F7
:1039020091E0215080409040E1F700C000000E9409
:0C391200921B0E943525DF91CF91089593
:10391E00E89409C097FB3EF490958095709561955B
:10392E007F4F8F4F9F4F9923A9F0F92F96E9BB2711
:10393E009395F695879577956795B795F111F8CF8D
:10394E00FAF4BB0F11F460FF1BC06F5F7F4F8F4FF8
:10395E009F4F16C0882311F096E911C0772321F0EE
:10396E009EE8872F762F05C0662371F096E8862F86
:10397E0070E060E02AF09A95660F771F881FDAF7DD
:0A398E00880F9695879597F9089524
:10399800FF920F931F93CF93DF938C018DE591E8EE
:1039A8000E942922C8010E942922B80186E892E6CD
:1039B8000E944020F12C11C086E892E60E944F2612
:1039C800882371F00E942326882351F086E892E626
:1039D8000E9496250E947726F394E801CF0DD11D09
:1039E80088818111E9CF2FE788E391E02150804059
:1039F8009040E1F700C000000E947F1DDF91CF9149
:083A08001F910F91FF9008953A
:103A1000A2E8B0E0EEE0FDE10C9498235C014A01DD
:103A2000CF57DF4F68837983C158D040C12CD12C48
:103A3000CF57DF4FE881F981C158D040808188237A
:103A4000E9F07401860120E830E0AE014F5F5F4F7E
:103A5000BE016F577F4FC5010E94CA0A8C0D9D1D84
:103A60008C159D054CF48FE490E08093006090935A
:103A700001608FEF9FEF03C06C01DACFC601CE5714
:083A8000DF4FECE00C94B123D0
:103A88001F920F920FB60F9211242F933F934F93CB
:103A98005F936F937F938F939F93AF93BF93EF93AE
:103AA800FF938091430180FF07C0E091C362F091CA
:103AB800C462309709F009958091430181FF07C0DE
:103AC800E091C162F091C262309709F0099583E0F4
:103AD80080934301FF91EF91BF91AF919F918F9197
:103AE8007F916F915F914F913F912F910F900FBEF2
:063AF8000F901F901895CD
:103AFE00CF93DF9380E491E80E942922C0E00E94D8
:103B0E001D26882339F00E947426682F81E892E6DC
:103B1E000E94742481E892E60E944F26882389F041
:103B2E000E941726882351F081E892E60E9496257E
:103B3E00D82F0E942725DA3009F4CF5FC130F9F66D
:103B4E0002C0C130E1F68AE00E9427252FE788E304
:103B5E0091E0215080409040E1F700C00000DF91DD
:043B6E00CF91089556
:103B72001F920F920FB60F9211242F933F934F93E0
:103B82005F936F937F938F939F93AF93BF93EF93C3
:103B9200FF93599B05C0E091BB62F091BC6209950D
:103BA200589B05C0E091B962F091BA6209955A9B9F
:103BB20005C0E091AB62F091AC6209958FEF8BB9D1
:103BC200FF91EF91BF91AF919F918F917F916F91F3
:103BD2005F914F913F912F910F900FBE0F901F90C9
:023BE200189534
:103BE400A0E0B0E0E8EFFDE10C9498236C015B01E8
:103BF4007A01E901480181E08822992400FD03C08B
:103C04004217530750F0A701B501C6010E942923AA
:103C1400EC16FD0610F0C70117C08E010E191F091E
:103C24000115110541F0B60180E290E00E94BA1A34
:103C340001501109F5CF8114910429F4A701B501AC
:103C4400C6010E942923CE01CDB7DEB7ECE00C9467
:023C5400B1239A
:103C56000E941126882339F00E946E26682F86E876
:103C660092E60E9474240E941D26882339F00E9441
:103C76007426682F81E892E60E94742481E892E611
:103C86000E944F26882351F00E941726882331F080
:103C960081E892E60E9496250E94712686E892E6C1
:103CA6000E944F26882351F00E942326882331F054
:0E3CB60086E892E60E9496250E9477260895E1
:103CC4001F920F920FB60F9211242F933F934F938D
:103CD4005F936F937F938F939F93AF93BF93EF9370
:103CE400FF93189B05C0E091AF62F091B062099513
:103CF400199B05C0E091AD62F091AE6209958FEF1A
:103D040083B9FF91EF91BF91AF919F918F917F9173
:103D14006F915F914F913F912F910F900FBE0F9034
:043D24001F9018953F
:103D28001F920F920FB60F9211242F933F934F9328
:103D38005F936F937F938F939F93AF93BF93EF930B
:103D4800FF93BE9B05C0E091B162F091B262099504
:103D5800BD9B05C0E091A762F091A86209958FEF1D
:103D680087BBFF91EF91BF91AF919F918F917F9109
:103D78006F915F914F913F912F910F900FBE0F90D0
:043D88001F901895DB
:103D8C00CF93DF93CDB7DEB72697CDBFDEBF85EFE0
:103D9C0089838091E1628A8342E0BE016F5F7F4F2D
:103DAC0086E70E94222482EF8B838091E0628C83D1
:103DBC0042E0BE016D5F7F4F86E70E94222484EFB4
:103DCC008D838091DF628E8342E0BE016B5F7F4FFB
:103DDC0086E70E9422242696CDBFDEBFDF91CF91CD
:023DEC00089538
:103DEE001F920F920FB60F9211242F933F934F9362
:103DFE005F936F937F938F939F93AF93BF93EF9345
:103E0E00FF938091060B80FF0AC0E091BD62F09196
:103E1E00BE62309709F0099581E08093060BFF9101
:103E2E00EF91BF91AF919F918F917F916F915F9124
:103E3E004F913F912F910F900FBE0F901F9018959D
:103E4E001F920F920FB60F9211242F933F934F9301
:103E5E005F936F937F938F939F93AF93BF93EF93E4
:103E6E00FF938091160B80FF0AC0E091C562F0911E
:103E7E00C662309709F0099581E08093160BFF9189
:103E8E00EF91BF91AF919F918F917F916F915F91C4
:103E9E004F913F912F910F900FBE0F901F9018953D
:103EAE0083E294E80E94292285EB91E80E94292260
:103EBE008CE394E80E9429226FE474E886E892E687
:103ECE000E9440200AC00E942326882331F086E8F3
:103EDE0092E60E9496250E94772686E892E60E9438
:103EEE004F268111F0CF2FE788E391E021508040DB
:0E3EFE009040E1F700C000000E94921B089562
:103F0C000E94532288F09F5798F0B92F9927B751E8
:103F1C00B0F0E1F0660F771F881F991F1AF0BA9561
:103F2C00C9F714C0B13091F00E94FE25B1E008959C
:103F3C000C94FE25672F782F8827B85F39F0B93F8E
:103F4C00CCF3869577956795B395D9F73EF4909514
:0E3F5C008095709561957F4F8F4F9F4F089510
:103F6A000F931F93CF93DF938C010F5F1F4FFC01B9
:103F7A008081FB0124853585232B11F0EB0109C0D3
:103F8A008FEF9FEF17C00995892BD1F7F80181911F
:103F9A008F01EC85FD85BE018111F5CF8AE0099577
:103FAA0021E030E0892B11F420E030E088279927BE
:0E3FBA00821B930BDF91CF911F910F91089501
:103FC800E0E0F8E083E896E080879187158280EC4E
:103FD800868383E08783138614861686158681E98F
:103FE80096E28093CB629093CC6282E996E28093CA
:103FF800C9629093CA6283E996E28093C7629093FC
:10400800C8621092CD621092CE62E091D962F091AE
:0C401800DA6287E392E6808391830895CA
:10402400DC01ED91FC91119780818A3221F080E0CE
:1040340090E03AE00EC03196ED93FC93DB01ED91F4
:10404400FC911197CF0102968D939C93808191816D
:104054000895ED91FC911197208120532A3068F442
:10406400389FA001399F500D1124CA01820F911D60
:0C4074003196ED93FC931197ECCF08956A
:10408000CF93DF93FC01EB0188819481492F50E0AD
:104090004F5F5F4F238130E042175307D9F08823E9
:1040A000C9F070E0A081B181A90FB11D8C939481FA
:1040B0009F5F94837F5FDE01A70FB11D8C91492F15
:1040C00050E04F5F5F4F238130E04217530711F0FC
:0A40D0008111E8CFDF91CF91089530
:1040DA001F920F920FB60F9211242F933F934F9373
:1040EA005F936F937F938F939F93AF93BF93EF9356
:1040FA00FF9382E080930D06E091A562F091A6629B
:10410A00309709F00995FF91EF91BF91AF919F9177
:10411A008F917F916F915F914F913F912F910F9066
:08412A000FBE0F901F901895C5
:104132001F920F920FB60F9211242F933F934F931A
:104142005F936F937F938F939F93AF93BF93EF93FD
:10415200FF9381E080930D06E091A362F091A46247
:10416200309709F00995FF91EF91BF91AF919F911F
:104172008F917F916F915F914F913F912F910F900E
:084182000FBE0F901F9018956D
:10418A001F920F920FB60F9211242F933F934F93C2
:10419A005F936F937F938F939F93AF93BF93EF93A5
:1041AA00FF93E091BF62F091C062309709F00995E0
:1041BA0081E080935301FF91EF91BF91AF919F915D
:1041CA008F917F916F915F914F913F912F910F90B6
:0841DA000FBE0F901F90189515
:1041E20020E2209305096623D1F0A82FB92F90E091
:1041F200E0E0F9E022E0858185FD17C0858182FD3E
:1042020007C0858183FD04C085818370833099F75F
:1042120080858D939F5F691711F02483ECCF87E02F
:104222008093040908952483E6CF80858D939F5F50
:064232006913F9CFF4CF7F
:10423800A0E0B0E0E2E2F1E20C949A237C01FB01F9
:10424800EA01C901A280B380C480D58000811181B0
:10425800209711F4CEE6D2E6009719F4CE010E9419
:104268004325B7FC04C0A816B90608F4C501960191
:10427800AC01BE01C7010E94F21DCDB7DEB7EAE06E
:044288000C94B323BC
:10428C00CF93DF93EC010E944A260E946A250E947C
:10429C00E92568830E94711A20E030E040E251E485
:1042AC000E9466260E94861F6B830E9475250E94C1
:1042BC00861F69830E9429268A8384E68C838091D9
:1042CC00DD628D83CE010E947615DF91CF9108952A
:1042DC00662309F1DC016150262F30E02F5F3F4F40
:1042EC00280F391FE0E0F9E09D919087958195FDAD
:1042FC000AC0958192FD07C0958193FD04C09581FC
:10430C009370933099F7958194FD07C0A217B3076A
:0E431C0059F781E0089581E0089580E008954A
:10432A00E0E2F8E086E191E080879187158280ECEF
:10433A00868383E08783138614861686158684E926
:10434A0096E28093D3629093D46285E996E2809351
:10435A00D1629093D26286E996E28093CF6290937B
:0C436A00D0621092D5621092D6620895C5
:10437600E0E0F2E0108A118A128A138A8EE4848BB6
:10438600158A10A610A211A212A213A214A215A297
:1043960016A217A211A617A610AA85E081AB12AA2B
:1043A60013AA14AA15A616A612A613A614A615AA2B
:0A43B60016AA17AA10AE80E00895C1
:1043C0009091050993709330E1F0880F682B60930A
:1043D0000709E0E0F9E0858185FD0AC0858182FD5D
:1043E00007C0858183FD04C085818370833099F780
:1043F0000E940B25882339F083E08093040980E034
:0A440000089580E0089581E008951A
:10440A00990F0008550FAA0BE0E8FEEF16161706DB
:10441A00E807F907C0F012161306E407F50798F043
:10442A00621B730B840B950B39F40A2661F0232B5C
:10443A00242B252B21F408950A2609F4A140A695D8
:08444A008FEF811D811D089513
:10445200CF92DF92FF920F931F93CF93DF936C0162
:10446200F12C09C00E941726882341F0F8018081AF
:104472000E942725F394E601CF0DD11D8E0188817C
:104482008111F0CFDF91CF911F910F91FF90DF90BB
:04449200CF9008952A
:1044960057FD9058440F551F59F05F3F71F04795EF
:1044A600880F97FB991F61F09F3F79F087950895D4
:1044B600121613061406551FF2CF4695F1DF08C0F3
:1044C600161617061806991FF1CF86957105610510
:0444D60008940895A9
:1044DA00A1E21A2EAA1BBB1BFD010DC0AA1FBB1FFE
:1044EA00EE1FFF1FA217B307E407F50720F0A21B70
:1044FA00B30BE40BF50B661F771F881F991F1A94DD
:10450A0069F760957095809590959B01AC01BD0106
:04451A00CF01089530
:10451E0089E598E80E94A9250E9437248FE493EC40
:10452E000197F1F700C000000E9443128091E162F2
:10453E0081788093E16285E28093DF6281E08093EF
:10454E00E0620E94C61E81E798E80E94A92581E0DC
:02455E000895BE
:10456000CF93DF93EC0190E0E92FF0E0EE0FFF1F17
:10457000EF5DFD498081811102C081810EC0A8815B
:10458000B9812C91821305C091811196A883B983BA
:1045900001C09F5F9B3040F3892FDF91CF91089539
:1045A0008091A80486FF16C080E28093A5048091C4
:1045B000D7629091D86281608093D7629093D862DD
:1045C0008091D7629091D8628F7E8093D7629093CA
:0C45D000D862089580E28093A60408954C
:1045DC0089342DE0920710F088E49DE0883027E0C4
:1045EC00920710F488E097E0BC016850774080E0B7
:1045FC0090E00E948F1C2BEB3FE040E85DE30E94B3
:0C460C006A260E94861F84E6861B089523
:10461800E0E4F1E081818111FDCFE0E4F1E08FEF8A
:1046280093E084879587108611868287938781E037
:104638008783128281898111FDCFE0E4F1E081E076
:0A464800828B89E4808B80E00895E6
:10465200A0E0B0E0EFE2F3E20C949C236C01EB01EA
:104662008A017B01E40EF51ECE15DF0541F089912A
:10467200B601082E000C990B0E94BA1AF5CFC80198
:0A468200CDB7DEB7E8E00C94B523D5
:10468C00CF93DF9300D0CDB7DEB78091DF628C7F04
:10469C0081608093DF6294EF99838A8342E0BE014C
:1046AC006F5F7F4F86E70E9422240F900F90DF915F
:0446BC00CF910895FD
:1046C000E0E0F6E0118212821382148216861386CD
:1046D000148681E0808780E481878FEF85838FEF68
:1046E0009FE0848B958B128A138A83E0808380E01D
:0246F00008952B
:1046F2000E94B4130E9460230E94D9190E94BB2118
:104702000E940C230E94FD240E9488240E949B2464
:104712000E94E41F0E9495210E94BB250E94512500
:024722000895F8
:104724002F923F924F925F926F927F928F929F92BD
:10473400AF92BF92CF92DF92EF92FF920F931F93AB
:10474400CF93DF93CDB7DEB7CA1BDB0BCDBFDEBF84
:024754000994C6
:104756002A88398848885F846E847D848C849B840B
:10476600AA84B984C884DF80EE80FD800C811B8119
:10477600AA81B981CE0FD11DCDBFDEBFED0108954F
:10478600A0E0B0E0E9ECF3E20C94A223AE014B5FAB
:104796005F4FFA0161917191AF01E091D962F09199
:1047A600DA62808191810E94F323E2E00C94BB23BC
:1047B600A0E0B0E0E1EEF3E20C94A223AE014B5F81
:1047C6005F4FFA0161917191AF01E091D962F09169
:1047D600DA62808191810E94F323E2E00C94BB238C
:1047E600A2E0B0E0E9EFF3E20C94A0238C01498348
:1047F6005A83AE014F5F5F4F0E94081DF80120816A
:1048060024FF02C08FEF9FEF2296E4E00C94B923B9
:104816000E9479230E94192580ED92E20E943B2690
:104826008CE494E20E94452680E694E20E944026AB
:0E48360084E898E80E94A9250E94200EFDCF7C
:104844001F93CF93DF93EB01142F60E00E94E021CC
:10485400882339F0612FCE010E946E2193E090935A
:0A4864000409DF91CF911F91089520
:10486E00CF93DF9300D0CDB7DEB780EE898386EB92
:10487E008A8342E0BE016F5F7F4F86E70E9422244B
:0A488E000F900F90DF91CF91089575
:1048980080918F6290919062A0919162B0919262A2
:1048A8000196A11DB11D80938F6290939062A09391
:0848B8009162B0939262089531
:1048C00080918B6290918C62A0918D62B0918E628A
:1048D0000196A11DB11D80938B6290938C62A09371
:0848E0008D62B0938E62089511
:1048E800FC014481242F30E02F5F3F4F838190E00B
:1048F8002817390741F0A081B181A40FB11D6C932D
:0849080084818F5F8483089510
:10491000E0E0FBE08FEF9FEF848795871286138698
:1049200086E08183108681E1848381E0858316821D
:064930001186808308954A
:10493600E0E1FBE080EA9FE0848795871286138694
:1049460086E081831086148281E085831682118633
:0449560080830895BD
:10495A00092E0394000C11F4882352F0BB0F40F483
:10496A00BF2B11F460FF04C06F5F7F4F8F4F9F4FC3
:02497A0008959E
:10497C00E0E0F6E0808781E082870E945E26882353
:10498C00E1F3E0E0F6E08089918921E02587089544
:10499C0082E00E94BE249F938F938DE595E89F93B0
:1049AC008F930E94C3230F900F900F900F90089538
:1049BC00DB018F939F930E948025BF91AF91A29FA3
:1049CC00800D911DA39F900DB29F900D1124089501
:1049DC00A29FB001B39FC001A39F700D811D112434
:0E49EC00911DB29F700D811D1124911D089523
:1049FA0043E068ED80E590E00E94622640E068EDC1
:0C4A0A0081E590E00E94622680E00895A3
:104A1600809105098C7141F490910509937081E0AC
:0C4A2600933019F080E0089581E00895BD
:104A32000E94C325E0E0F9E084E0808381E0828384
:0C4A42009DEF95839FE096838383089589
:104A4E00CF93C82F0E941726882331F0E0E0F8E0BC
:0C4A5E00948190649483C283CF910895EA
:104A6A0087E891E80E94CC1C2FE788E391E0215067
:0C4A7A0080409040E1F700C0000008956B
:104A8600FC01AF014F5F5F4F2081222311F0FA0135
:0C4A9600F8CF9F01281B390BC9010895BF
:104AA20040E068ED80E191E00E946226E0E1F1E001
:0A4AB20012821382789480E00895C8
:104ABC00CF93C82F0E9417268823E1F3C0930208D6
:084ACC0080E090E0CF91089515
:104AD4000E9453140E948F1C20E030E048EC52E402
:064AE4000E946626089501
:104AEA000E9459100E948F1C20E030E040E85AE3EF
:064AFA000E946A260895E7
:104B00000E94EE24A59F900DB49F900DA49F800D50
:064B1000911D112408951F
:104B1600EC010E9498260E949726CE010E949926B3
:064B2600CE010E9484266E
:104B2C00FC019381A081B181A90FB11D8C919F5F74
:044B3C0093830895C2
:104B40000E94571F0E94352588E994E80E94A925F4
:024B50000895C6
:104B5200E091D962F091DA62608171810E94B51FA1
:024B62000895B4
:104B64009C01215631092A31310510F48F7599279A
:024B74000895A2
:104B7600E0EBF0E0148285E88083128280E00895FD
:104B8600E0E0F4E08AE0818388E0838B828B0895FD
:104B9600B7FF0C9480250E948025821B930B0895F5
:104BA6009C01215431092A31310508F480620895A7
:0E4BB600FC0160837183428313821482089590
:0E4BC4005058BB27AA270E94A9170C94AD24B5
:0E4BD2000E94861F6894B1110C94FF2508956F
:0E4BE00000240A9416161706180609060895F2
:0E4BEE0000240A9412161306140605060895F4
:0E4BFC00E894BB2766277727CB0197F9089529
:0C4C0A00E0E4F1E0808181608083089587
:0C4C1600E0E4F1E080818E7F808308954F
:0C4C220080910408881F8827881F0895CF
:0C4C2E008091040885FB882780F9089518
:0C4C3A0080912408881F8827881F089597
:0C4C46008091240885FB882780F90895E0
:0C4C520082E00E94BE240E94EE22089521
:0C4C5E0097F99F6780E870E060E008951F
:0C4C6A00EE0FFF1F0590F491E02D09945F
:0A4C76008093BD629093BE62089522
:0A4C80008093BF629093C062089514
:0A4C8A008093C5629093C6620895FE
:0A4C94000E9446230E94E7140895D1
:0A4C9E00FC0183819481891B0895B5
:0A4CA8000E94052208F481E008953F
:0A4CB2000E94052208F48FEF089518
:084CBC0080910D06817008953E
:084CC400FC0164BF4083089568
:084CCC000E9468160C94AD244F
:084CD4000E94D7160C94AD24D8
:064CDC008091000808951C
:064CE20080930208089512
:064CE800809120080895F0
:064CEE00809322080895E6
:064CF4000E9486190895DC
:064CFA009FEF80EC08951D
:044D00000C9400000F
:044D04009F770895F8
:044D08000E949E0067
:024D0C00089508
:024D0E00089506
:024D1000089504
:024D1200089502
:024D1400089500
:024D16000895FE
:024D18000895FC
:024D1A000895FA
:024D1C000895F8
:024D1E000895F6
:024D20000895F4
:024D22000895F2
:024D24000895F0
:024D26000895EE
:024D28000895EC
:024D2A000895EA
:024D2C000895E8
:024D2E000895E6
:024D30000895E4
:024D32000895E2
:104D340068076C094C836A9074A07AC00080688804
:064D440000846C82008176
:104D4A000300000000000000000000005E250000D3
:084D5A0000000000DCCFD135A0
:084D62000000000000C0153F35
:084D6A000000803F0000C03F83
:074D7200286E756C6C29002E
:064D7900286E696C2900A0
:024D7F00DB62F5
:02000004008278
:090000000000000000D00800001F
:00000001FF
