:100000000C9469000C940C260C940C260C940C2671
:100010000C940C260C94D81C0C942A200C940C26BE
:100020000C94F61D0C940C260C940C260C940C26A7
:100030000C940C260C940C260C948B1E0C94BB1E5A
:100040000C940C260C940C260C940C260C940C2668
:100050000C940C260C940C260C940C260C940C2658
:100060000C94671B0C940C260C94FE1F0C94D21F4E
:100070000C940C260C944D1D0C940C260C940C2600
:100080000C940C260C940C260C94281E0C940C2614
:10009000400E600E630E6B0E890EBA0ED80EE80E7F
:1000A000EB0EFF0E070F130F6000622180622162CA
:1000B00047004C4C624762528062526277004C7239
:1000C000627762D38062D362D5004C9762D562DCDE
:1000D0008000809101108F7C806080688093011087
:1000E00011241FBECFEFCDBFDFE7DEBFE8EAF0E0AF
:1000F00040E017C0B591A59135912591059107FD77
:100100000CC095918591EF01F92FE82F05900D9284
:10011000A217B307D9F7FE0104C01D92A217B307B7
:10012000E1F7E13DF40731F70E9497230C9417257E
:04013000F894FFCF71
:1001340052783A200048574555493A20007379735C
:10014400206765742068776575690D0A000D0A5487
:10015400783A20000A496E697469616C697A696E3B
:100164006720524E327878332E2E2E0A4669726DED
:10017400776172653A20006D616320736176650D65
:100184000A000A0A436F6E6669677572696E6720B2
:10019400524E3278783320466F7220414250206AA2
:1001A4006F696E0A002D2D2D2D2D2D2D2D2D2D2D0C
:1001B4002D2D2D2D2D2D2D2D2D2D2D2D2D2D2D2D6B
:1001C4002D2D2D2D2D2D2D2D2D2D2D2D2D2D2D2D5B
:1001D4002D2D2D2D2D2D2D2D2D2D2D2D2D2D2D2D4B
:1001E4002D2D2D2D2D2D2D2D2D2D2D2D0A006D6117
:1001F400632070617573650D0A006D61632072651B
:1002040073756D650D0A006D6163207365742064F8
:100214007220340D0A006D61632073657420646577
:10022400766575692037304233443537454430307C
:1002340035413831410D0A006D61632073657420C6
:1002440064657661646472203236304337443844DE
:100254000D0A006D61632073657420617070736BA7
:1002640065792031363446383732303634303646C4
:1002740032333542344543453033314143343038E9
:100284004345370D0A006D616320736574206E77F2
:100294006B736B65792031423146434133443446B4
:1002A40030343937314543344439314630344630BB
:1002B4003943383637370D0A006D6163207365742E
:1002C400206172206F6E0D0A006D61632073657486
:1002D40020727864656C61793120353030300D0AD4
:1002E400006D61632073657420616472206F6E0D0C
:1002F4000A000A000A0A436F6E6669677572696EBE
:100304006720524E3278783320466F72204F544122
:1003140041206A6F696E0A006D6163207365742001
:10032400646576657569203030303441333042304D
:10033400304638394237340D0A006D6163207365E5
:1003440074206465766164647220303030303030FB
:1003540030300D0A006D6163207365742061707024
:10036400736B65792030303030303030303030309D
:100374003030303030303030303030303030303079
:1003840030303030300D0A006D61632073657420A5
:100394006E776B736B6579203030303030303030AD
:1003A4003030303030303030303030303030303049
:1003B40030303030303030300D0A006D61632073DE
:1003C4006574206170706B6579203530323942373D
:1003D400383842303235374632413234313942418D
:1003E400333944413339333341370D0A006D616386
:1003F4002073657420617070657569203030303009
:100404003030303030303030303030300D0A000A87
:100414000A4A6F696E696E672054544E2077697476
:1004240068204F5441410A0054783A206D6163209A
:100434006A6F696E206F7461610A006D6163206A7E
:100444006F696E206F7461610D0A000A0A4A6F6950
:100454006E696E672054544E207769746820414257
:10046400500A0054783A206D6163206A6F696E20E7
:100474006162700A006D6163206A6F696E20616257
:10048400700D0A000A507265737320627574746F7C
:100494006E20746F207472616E736D697420646170
:1004A4007461000A0A5472616E736D697474696EC2
:1004B4006720446174610A002D2D2D2D2D2D2D2DC5
:1004C4002D2D2D2D2D2D2D2D2D2D2D2D2D2D2D2D58
:1004D4002D2D2D2D2D2D2D2D2D2D2D2D2D2D2D2D48
:1004E4002D2D2D2D2D2D2D2D2D2D2D2D0A000A5484
:1004F400783A206D616320747820636E6620313011
:1005040020006D616320747820636E662031302092
:10051400000A54783A206D616320747820756E6304
:100524006E6620313120006D616320747820756E11
:10053400636E6620313120006D616320676574202D
:100544007374617475730D0A0073797320736C6529
:0A055400657020313830303030007F
:10055E0025640A000A4166746572203130303020FD
:10056E004D6F6973747572652052656164696E674B
:10057E0073002D2D2D2D2D2D2D2D2D2D2D2D2D2D84
:10058E002D2D2D2D2D2D2D2D2D2D2D2D2D2D2D2D8D
:10059E002D2D2D2D2D2D2D2D2D2D2D2D2D2D2D2D7D
:1005AE002D2D2D2D2D2D2D2D2D2D2D2D2D2D2D2D6D
:1005BE002D2D2D2D2D2D2D2D2D00546865204D41C9
:1005CE00582072656164696E6720776173202564B7
:1005DE000A00546865204D494E2072656164696E4B
:1005EE0067207761732025640A0A00546865204DE0
:1005FE004158206D61707320746F2025640A005479
:10060E006865204D494E206D61707320746F2025F2
:10061E00640A000A0A43757272656E742053656E21
:10062E00736F7220446174610A002D2D2D2D2D2DB6
:10063E002D2D2D2D2D2D2D2D2D2D2D2D2D2D2D2DDC
:10064E002D2D2D2D2D2D2D2D2D2D2D2D2D2D2D2DCC
:10065E002D2D2D2D2D2D2D2D2D2D2D2D2D2D2D2DBC
:10066E002D2D2D2D2D2D2D2D2D2D2D2D2D2D2D2DAC
:10067E002D0A0052656C61746976652048756D6946
:10068E00646974793A2025752525200D0A004D6F71
:10069E006973747572653A2025752525200D0A003B
:1006AE0050726573737572653A20257520685061B6
:1006BE000D0A0054656D70657261747572653A202D
:1006CE0025692043200D0A000A4A534F4E20466FDB
:1006DE00726D61740D005061796C6F61643A207BAC
:1006EE002074656D703A2025692C2068756D6964DB
:1006FE006974793A2025752C206D6F697374757243
:10070E00653A2025752C2070726573737572653A83
:10071E002025750D0A0A7D003031323334353637D7
:10072E003839414243444546000A5765617468654D
:10073E007220436C69636B204E4F5420696E69744E
:10074E0069616C697A65642070726F7065726C791C
:10075E0021000A496E74657261637469766520546E
:10076E0065726D696E616C20697320616374697660
:10077E00653A20636F6D6D616E6473207375636887
:10078E00206173202773797320666163746F7279A9
:10079E005245534554272077696C6C00626520736F
:1007AE00656E7420746F2074686520524E327878AE
:1007BE003320616E6420726573706F6E7365732083
:1007CE0077696C6C2062652061707065617220685B
:1007DE006572652E000A5768656E207265616479D0
:1007EE002C20707265737320627574746F6E207432
:1007FE006F206A6F696E2054544E0A00544F444F56
:10080E003A20205772697465206C6F7720706F776D
:0C081E0065722074657374732E2E2E001A
:10082A000A496E697469616C697A696E6720424D1A
:10083A00453238302E2E2E00424D4532383020694E
:0B084A006E697469616C697A65640076
:1008550057656C636F6D6520746F20746865204102
:0A0865006772692D496F542E0A00D6
:10087000A2E2B0E0EEE3F4E00C94202329833A8373
:100880004B835C8329013A01E89477F841145104C1
:100890006104710409F458C669877A878B879C873D
:1008A0007B018C0161157105A0E88A07AFE39A0707
:1008B00009F44AC62D873E874F87588B4B015C0150
:1008C0006B017C01E894F7F8B1E0CB16D104B0E8F5
:1008D000EB06BFE7FB0644F4E1E04E165104E0E806
:1008E0006E06EFE77E064CF02D853E854F855889D4
:1008F000C501B4010E946F2532C609851A852B8572
:100900003C8537FF4DC04114510410E861061BE4DB
:1009100071060CF04AC04114510420E862062FE32E
:1009200072060CF470C0D301C20107E1B595A7951A
:10093000979587950A95D1F78F579109A109B10924
:1009400027E130E0281B390BD301C201022E04C07D
:10095000B595A795979587950A94D2F7AC01BD01F7
:1009600004C0440F551F661F771F2A95D2F74416FF
:1009700055066606770609F046C081709927AA27B2
:10098000BB2742E050E060E070E08A019B01081B59
:10099000190B2A0B3B0B0D831E832F83388737C01F
:1009A0001D821E821F82188608C022E030E040E0CF
:1009B00050E02D833E834F8358874114510430E823
:1009C00063063FE7730619F5C114D10440E8E40655
:1009D0004FE3F40609F4B8C55CF0E980FA800B81B6
:1009E0001C8117FDB6C56D857E858F859889B7C535
:1009F000E980FA800B811C8117FFABC56D857E8570
:100A00008F8598898AC01D821E821F821886411494
:100A1000510400E860060FE3700669F4E980FA808B
:100A20000B811C8117FF99C5A501940160E070E05E
:100A300080E89FE365C009811A812B813C81011503
:100A40001105210540E4340729F4A5019401C501ED
:100A5000B401C2C089819A81AB81BC810097A10594
:100A6000BF4359F409851A852B853C8537FD05C0A0
:100A7000C501B4010E942A0F72C5C501B4010E94CC
:100A80000E26C114D104E104F10449F0950184015A
:100A90003F730115110520483F4309F040C009810B
:100AA0001A812B813C8137FF08C09B01AC0160E0BB
:100AB00070E080E89FE30E94F22529853A854B8506
:100AC0005C8557FF4CC530E8E31A3FE3F30A0D811C
:100AD0001E812F813885C02AD12AE22AF32AC11427
:100AE000D104E104F10479F421E230E020930060C4
:100AF000309301609B01AC010E946E259B01AC010B
:100B00000E94F2252CC52D813E814F8158852130D0
:100B100031054105510509F022C5905820C50985C8
:100B20001A852B853C8537FF21C02D813E814F8161
:100B30005885232B242B252B59F481E290E08093B8
:100B4000006090930160A5019401C501B401D4CF68
:100B50000D811E812F813885013011052105310558
:100B600071F420E030E040E85FEB0DC000E010E001
:100B700020E83FE30D831E832F83388708C020E0E1
:100B800030E040E85FE32D833E834F83588731E0B8
:100B90004316510461043DE473060CF497C048EF1A
:100BA000C4164FEFD4064FE7E4064FE3F406BCF457
:100BB000E980FA800B811C8117FF4BC32AEC32EFCE
:100BC00049E451E76D817E818F8198850E94F625E9
:100BD0002AEC32EF49E451E70E94F625C0C408E050
:100BE000C016D10400E8E0060FE3F00654F0E980F7
:100BF000FA800B811C811E141F0410061106F4F2EA
:100C000028C320E030E040E85FE30E946E256B01DE
:100C10007C0120E03AEA48EB5FE30E94F6254B01B5
:100C20005C0120E735EA4CEE56E3C701B6010E94AD
:100C3000F62569837A838B839C8320E030E040E84B
:100C40005EE3C701B6010E94F6259B01AC016BEA89
:100C50007AEA8AEA9EE30E946E25A70196010E9425
:100C6000F6259B01AC0160E070E080E09FE30E940C
:100C70006E252B013C01A7019601C701B6010E9418
:100C8000F6259B01AC01C301B2010E94F6252BE3BE
:100C90003AEA48EB5FE30E94F6259B01AC016981CB
:100CA0007A818B819C810E946E256B017C019B0166
:100CB000AC01C501B4010E946F256627707F69876A
:100CC0007A878B879C87A501940120C2C114D10427
:100CD00000E8E006F1046CF420E030E040E85BE47A
:100CE0000E94F6256B017C0148EE5FEF6FEF7FEF0E
:100CF00003C040E050E0BA01D701C60117E1B59545
:100D0000A795979587951A95D1F78F579109A109BE
:100D1000B1098C019D01040F151F261F371F0D8B74
:100D20001E8B2F8B388FE894E7F8FF24460157017C
:100D30006894A7F81FE3B12A22E7C21624ECD20672
:100D40002CE1E206F104B4F037EDC31633EBD30621
:100D50003DE5E306F1049CF08D899E89AF89B88D4D
:100D60000196A11DB11D8D8B9E8BAF8BB88F90E826
:100D7000A91AB10819861A861B861C8608C0E12CA0
:100D8000F12C8701E394E986FA860B871C87098595
:100D90001A85000F111F000F111F09A31AA3F801D4
:100DA000EE59FD49E080F18002811381E98AFA8AD7
:100DB0000B8B1C8BA8019701C501B4010E946E2505
:100DC000698F7A8F8B8F9C8FA8019701C501B40121
:100DD0000E946F259B01AC0160E070E080E89FE31A
:100DE0000E94F2256D8F7E8F8F8F98A39B01AC019F
:100DF000698D7A8D8B8D9C8D0E94F62569837A830F
:100E00008B839C8349805A806B807C80442400EFD4
:100E1000502275016401F594E794D794C794CC24CB
:100E200010EFD122E894F5F86894F5F8D701C601DF
:100E3000A05CBF4FC984DA84EB84FC84F5E1CC0C60
:100E4000DD1CEE1CFF1CFA95D1F7C80ED91EEA1E58
:100E5000FB1EA7019601C301B2010E94F6259B016A
:100E6000AC01698D7A8D8B8D9C8D0E946E25698772
:100E70007A878B879C8729893A894B895C89C70146
:100E8000B6010E946E259B01AC01C501B4010E9410
:100E90006E25A30192010E94F6259B01AC01698594
:100EA0007A858B859C850E946E252D8D3E8D4F8D7C
:100EB00058A10E94F62569877A878B879C872981AC
:100EC0003A814B815C81CA01B9010E94F6256B0110
:100ED0007C0122E431EF43E55EE30E94F62525E53F
:100EE00032E34CE65EE30E946F25A70196010E9463
:100EF000F62525E033EA4BE85EE30E946F25A70163
:100F000096010E94F6252BEA3AEA4AEA5EE30E943D
:100F10006F25A70196010E94F62527EB3DE64BEDD4
:100F20005EE30E946F25A70196010E94F6252AE93B
:100F300039E949E15FE30E946F254B015C01A7019C
:100F40009601C701B6010E94F6259B01AC01C501BF
:100F5000B4010E94F6256B017C01A3019201698115
:100F60007A818B819C810E946F2529853A854B85EA
:100F70005C850E94F625A70196010E946F256B01F2
:100F80007C01A3019201C301B2010E94F625698B85
:100F90007A8B8B8B9C8B20E030E040E450E40E9405
:100FA0006F25A70196010E946F254B015C018824E3
:100FB00020EF9222A5019401C301B2010E94F625FF
:100FC0002B013C0120E030E040E450E4C501B401D5
:100FD0000E946E2529893A894B895C890E946E2579
:100FE0009B01AC01C701B6010E946E2529813A819F
:100FF0004B815C810E94F6256B017C01A501940167
:1010000069857A858B859C850E94F6259B01AC01BC
:10101000C701B6010E946F254B015C019B01AC0129
:10102000C301B2010E946F256B017C01CC2430EF1B
:10103000D32220E030E446E75FE3C701B6010E9417
:10104000F62569837A838B839C83A3019201C70170
:10105000B6010E946E259B01AC01C501B4010E943E
:101060006E252FE438E346E75FE30E94F6254B0147
:101070005C0126EC33E246EF58EBC701B6010E9453
:10108000F6259B01AC01C501B4010E946F25E9A1C1
:10109000FAA1EE5AFD4920813181428153810E949B
:1010A0006F256B017C016D897E898F89988D0E94E7
:1010B000251C4B015C0109A11AA1065A1D49D80142
:1010C0004D905D906D907C90A701960169817A8129
:1010D0008B819C810E946F25A30192010E946F2544
:1010E000A50194010E946F256627707F69877A8722
:1010F0008B879C87A50194010E946E25A301920114
:101100000E946E2529813A814B815C810E946E2567
:101110009B01AC01C701B6010E946E254B015C0129
:10112000CD84DE84EF84F888CC24B0EFDB22A701E5
:1011300096016D857E858F8598890E946E2529850B
:101140003A854B855C850E94F6252B013C012D8557
:101150003E854F855889C501B4010E94F6259B0143
:10116000AC01C301B2010E946F2569837A838B832E
:101170009C83A701960169857A858B859C850E9451
:10118000F625962EA72EB82E892E6987798B182FD3
:10119000092F262F372F482F592F69817A818B816C
:1011A0009C810E946F256B017C016D877E878F87F4
:1011B000988B81E0C816D104E10483E4F8060CF0B2
:1011C000FDCC2D853E854F8558892115310541057A
:1011D0005344E9F42CE33AEA48E353E369817A8122
:1011E0008B819C810E946F252B013C01292D3A2D7A
:1011F0004B2D582DC701B6010E946E259B01AC01F5
:10120000C301B2010E94E525181694F5D7CCD70189
:10121000C601BF770197A641B344DCF42D853E8516
:101220004F855889211531054641534C09F5292D23
:101230003A2D4B2D582DC701B6010E946E259B01FA
:10124000AC0169817A818B819C810E94E02518160E
:101250007CF020E632E442EA5DE06D817E818F81A0
:1012600098850E94F62520E632E442EA5DE0B4CC9F
:10127000D701C601BF7781309105A105EFE3BE0715
:101280000CF46AC057E1B595A795979587955A953F
:10129000D1F78E5740E050E060E870E08A019B0192
:1012A00004C035952795179507958A95D2F7C00EF6
:1012B000D11EE21EF31E26013701E89477F867E19C
:1012C00075946794579447946A95D1F71FE7411A2C
:1012D0005108610871088FEF9FEFAFE7B0E0042C71
:1012E00004C0B595A795979587950A94D2F78095F0
:1012F0009095A095B0959C01AD012C213D214E21EA
:101300005F21E894E7F8FF246894E7F887E190E02C
:10131000841995092601370104C075946794579480
:1013200047948A95D2F7ED84FE840F85188917FFBC
:1013300008C07094609450944094411C511C611CEE
:10134000711C692D7A2D8B2D982D0E946E25698731
:10135000798B182F092F03C0412C512C3201298180
:101360003A814B815C8169857989812F902F0E9418
:101370006F254B015C01882420E8922220E032E7AF
:1013800041E35FE3C501B4010E94F6256D877E87C6
:101390008F87988B29853989412F502FC501B4013A
:1013A0000E946E259B01AC0169817A818B819C81B1
:1013B0000E946E2528E132E741E35FE30E94F625B3
:1013C0006B017C012CE83EEB4FEB55E3C501B4010A
:1013D0000E94F6259B01AC01C701B6010E946F2552
:1013E0004B015C019B01AC016D857E858F859889E1
:1013F0000E946F256B017C012D853E854F855889A4
:101400000E946E259B01AC01C501B4010E946E25AE
:1014100069837A838B839C83A7019601C701B601F8
:101420000E94F6254B015C012CE43BEB41E353E3C6
:101430000E94F6252EE03AEE4DED55E30E946E2512
:10144000A50194010E94F62525E533EB4AE858E30F
:101450000E946F25A50194010E94F62521E63BE03C
:1014600046E35BE30E946E25A50194010E94F625E8
:101470002BEA3AEA4AE25EE30E946F25A501940155
:101480000E94F6259B01AC01C701B6010E946E25A2
:101490004B015C019B01AC01C701B6010E94F6251E
:1014A0006D877E878F87988B20E030E040E050E4A6
:1014B000C501B4010E946E259B01AC016D857E853E
:1014C0008F8598890E94F2254B015C0129813A8120
:1014D0004B815C81C701B6010E94F62529813A81C2
:1014E0004B815C810E946F259B01AC01C501B40159
:1014F0000E946E25A70196010E946E259B01AC01FA
:1015000060E070E080E89FE30E946E259301820115
:1015100047E1000F111F221F331F4A95D1F7060F15
:10152000171F281F391F0115110540E82407310531
:1015300024F4A2010E94791802C0C901B8012D81CA
:101540003E814F81588548CB60E070E080E89FE3A2
:1015500006C060E070E0CB0102C0C501B401A296F4
:06156000E0E10C943923C8
:10156600AEE0B0E0E9EBFAE00C9421234C016B010C
:1015760019821A828FEF9FEF8B839C831D821E82B6
:101586004F83588729873A87A12CB12CD6016D90B5
:101596007C90F301EA0DFB1D808181110FC0D601FD
:1015A600ED93FC938081853209F0D3C13F01BFEFF3
:1015B6006B1A7B0AF6016082718219C0853279F353
:1015C600B401082E000C990B0E940C1A4FEFA41AB6
:1015D600B40ADCCF8C32ACF08D32F9F489819A8171
:1015E600816089839A833196D601ED93FC93D60167
:1015F600ED91FC9180818B3269F789819A818460B3
:10160600F0CF803221F489819A818860EACF8332D3
:1016160051F489819A818061E4CF803321F48981F4
:101626009A818260DECFB701C6010E94771F8D8343
:101636009E8397FF0BC029813A81B1E02B2729832E
:101646003A839195819591098D839E8389819A81AB
:1016560080FF03C08D7F89839A83D601ED91FC912B
:10166600119780818E3249F43196ED93FC93B70140
:10167600C6010E94771F8B839C83C6010E943C2271
:10168600582ED601ED91FC918081082E000C990B05
:101696000E945F25893609F443C084F4833609F431
:1016A60002C134F4853209F427C18136E1F030C134
:1016B6008436B1F188360CF4D9C02AC1803709F4D2
:1016C6009AC03CF48E3609F4BCC08F3609F461C06A
:1016D6001FC1853709F440C0883709F476C08337BF
:1016E60009F016C1F3C0652D70E0A701CE010B9677
:1016F6000E940000892B09F426C1D601ED91FC91C8
:101706001197CF0101968D939C932081AE01455F81
:101716005F4FBE016F5F7F4FC4010E94000010C182
:10172600652D70E0970141E050E0CE010B960E94D6
:10173600E616892B09F407C1F6018081918101968D
:1017460080839183AE01455F5F4FBE016F5F7F4F20
:10175600C4010E942A15F4C0652D70E0970140E08F
:1017660050E0CE010B960E94E616892B09F4EBC0D9
:10177600D6018D919C91119701968D939C93AE0104
:10178600455F5F4FBE016F5F7F4FC4010E949D1A88
:10179600D7C0652D70E0970140E050E0CE010B9672
:1017A6000E94E616892B09F4CEC0F601808191814C
:1017B600019680839183AE01455F5F4FBE016F5FE7
:1017C6007F4FC4010E94D218BBC0652D70E09701FF
:1017D60040E050E0CE010B960E94E616892B09F4F4
:1017E600B2C0D601ED91FC911197CF0101968D9370
:1017F6009C9320811CC0970140E050E060EF70E0B0
:10180600CE010B960E94E616892B09F49CC0F601C0
:10181600808191810196808391838B859C85892B1C
:1018260029F420E030E041E752E684C028E7AE0123
:10183600455F5F4FBE016F5F7F4FC4010E943B1142
:101846007FC0A501400F511F652D70E09701CE01A5
:101856000B960E940000892B09F475C0D6018D9164
:101866009C91119701968D939C9373C0652D70E0A2
:10187600A701CE010B960E940000892B09F463C0D4
:10188600D601ED91FC911197CF0101968D939C9312
:101896002081AE01455F5F4FBE016F5F7F4FC40180
:1018A6000E9400004DC0B0E85B124DC0F601808179
:1018B6009181019680839183D701ED91FC911197D7
:1018C600CF0102968D939C93808120C0B0E85B1275
:1018D6003AC0F60180819181019680839183D70178
:1018E600ED91FC911197CF0102968D939C934081C7
:1018F600518120E030E01EC0B0E85B1224C0F60142
:10190600208131812F5F3F4F208331838B870DC02C
:1019160085E28B87D6016D927C9219821A821D828E
:101926001E828FEF9FEF8B839C8321E030E0AE0118
:10193600455F5F4FBE016F5F7F4FC4010E94AD20C0
:101946008A0D9B1D07C0F6018081918101968083D7
:0C1956009183C5012E96EFE00C943A231B
:101962004F925F926F927F928F929F92AF92BF92AD
:10197200CF92DF92EF92FF92C0908D62D0908E62F2
:10198200E0908F62F0909062F594E794D794C794B8
:101992008AEFD81AE108F108C701B6019595879533
:1019A2007795679595958795779567959B01AC0196
:1019B2000E946A244B015C01E0E0F2E6A285B38555
:1019C2009B01AC01012E1DE0559547953795279552
:1019D2001A95D1F7102D0E9457252B013C016894CE
:1019E20012F875946794579447941694D1F7A0858A
:1019F200B185A70196010E945725DC01CB01B5955F
:101A0200A79597958795840D951DA61DB71D072E41
:101A120072E1B595A795979587957A95D1F7702D2F
:101A22009C01AD0130584F4F5F4FA681B7810E9494
:101A32000C252B013C01032E3FE0759467945794CB
:101A420047943A95D1F7302D411451046104710441
:101A520009F4CEC0A5019401012E1BE055954795CE
:101A6200379527951A95D1F7102DA089B1890E9433
:101A720057254B015C01A685B785A70196010E94F7
:101A82005725DC01CB01880F991FAA1FBB1F880EA7
:101A9200991EAA1EBB1ED501C401B595A79597959F
:101AA2008795B595A7959795879584849584092CF4
:101AB200000CAA08BB08540199248824880E991E98
:101AC200AA1EBB1E072E7CE0B594A7949794879418
:101AD2007A95D1F7702D8091916290919262A09146
:101AE2009362B0919462A5019401280F391F4A1F95
:101AF2005B1FABECB3EF0E945A25805B9C4399239A
:101B02005CF0660F771F881F991FA30192010E9444
:101B1200F92169017A010AC0A30192010E94F92107
:101B220069017A01CC0CDD1CEE1CFF1CC701B60159
:101B3200689412F896958795779567951694D1F7DC
:101B42009B01AC010E946A249B01AC01012E1DE0A5
:101B520056954795379527951A95D1F7102DE0E0C0
:101B6200F2E6A689B7890E9457254B015C01072E30
:101B72007CE0B594A794979487947A95D1F7702DC9
:101B8200A7019601569547953795279556954795FE
:101B920037952795A489B5890E945725DC01CB0189
:101BA200072E7DE0B595A795979587957A95D1F7FC
:101BB200702DB501A401480F591F6A1F7B1F82892E
:101BC2009389092E000CAA0BBB0B840F951FA61F2D
:101BD200B71F689413F8B595A795979587951694AE
:101BE200D1F7BC01CD016C0D7D1D8E1D9F1D03C063
:101BF20060E070E0CB01FF90EF90DF90CF90BF905C
:101C0200AF909F908F907F906F905F904F900895CC
:101C12001F93CF93DF938091D1629091D26280FF24
:101C220021C08091D862843059F08B3079F08130B4
:101C320081F480E28093A50482E08093D86209C097
:101C420083E08093D8620E94972503C083E080934B
:101C5200D8628091D1629091D2628E7F8093D1625C
:101C62009093D262E091D8628E2F90E08C309105F1
:101C720008F0EBC0FC01E85BFF4F0C94C12580E249
:101C82008093A5040E941A180E941B22811104C08D
:101C920087E397E80E94352580E28093A60480E6D8
:101CA20097E80E9435258AEA97E80E94352583EE57
:101CB20097E80E94352581E08093D862C6C00E94D1
:101CC200BF1DC3C00E9406260E942C2583E080937C
:101CD200D862BBC08091D7628F5F8093D762C0E227
:101CE200C093A60481E892E60E94922161E872E61E
:101CF20087E492E60E94AB1487E492E60E94A71B57
:101D02000E94912584E08093D862C093A5049DC06F
:101D12008091856290918662A0918762B09188627B
:101D2200843B9105A105B10509F52091D7628DEC9F
:101D3200289F812D1124869586958695880F982F48
:101D4200990F990F890F281304C083E08093D862FA
:101D520003C085E08093D8620E9497251092856225
:101D62001092866210928762109288620E94BF1D52
:101D72006CC08091D7628F5F8093D762C5EAD4E04E
:101D820010E2188381E892E60E94922161E872E6ED
:101D920087E492E60E94AB1487E492E60E94E51B78
:101DA2000E94912584E08093D86218834EC01092DD
:101DB20085621092866210928762109288620E94F7
:101DC2005A240E9491258BE08093D8623EC00E94E3
:101DD200BF1D3BC00E941B2281E892E60E94922115
:101DE20081E892E60E949C1561E872E687E492E639
:101DF2000E94AB148BE08093D86227C08AE098E8F7
:101E02000E9435258BE08093D8621FC081E892E65C
:101E12000E94922181E892E60E949C158BE08093B9
:101E2200D86213C08091856290918662A091876288
:101E3200B09188620297A105B10529F40E94972505
:101E420086E08093D8620E94BF1DDF91CF911F91DF
:021E52000895F1
:101E54004F925F926F927F928F929F92AF92BF92B6
:101E6400CF92DF92EF92FF920F931F936B017C014D
:101E7400DC01CB01B701A6014427552760787F77A1
:101E84004115510560487F4759F4A7019601C701E0
:101E9400B6010E94F625A70196010E946F251AC07B
:101EA400181619061A061B06D4F0892B8A2B8B2BBD
:101EB40009F4CCC081E290E08093006090930160CB
:101EC400A7019601C701B6010E946E259B01AC01D2
:101ED4000E94F225562F472F382F292FBBC067E1C8
:101EE400F594E794D794C7946A95D1F7C114D104B3
:101EF400E104F104E1F4C12CD12C7601A7FD0AC060
:101F0400880F991FAA1FBB1F2FEFC21AD20AE20A19
:101F1400F20AF4CF21E0C21AD108E108F108F094E2
:101F2400E094D094C094C11CD11CE11CF11C2FE797
:101F3400C21AD108E108F108AF77BB27A068C0FE38
:101F440004C0880F991FAA1FBB1FF594E794D79468
:101F5400C794880F991FAA1FBB1FE9E1F0E040E076
:101F640050E060E071E0812C912C540100E010E01D
:101F7400980128013901440E551E661E771E8415EA
:101F84009505A605B70574F093018201040F151F8A
:101F9400261F371F84199509A609B709840E951EB3
:101FA400A61EB71E880F991FAA1FBB1F769567959B
:101FB400579547953197E9F6892B8A2B8B2BA1F1FD
:101FC40020E632E442EA5DE060E070E080E89FE30E
:101FD4000E946E2520E030E040E85FE30E94E525A2
:101FE40087FD22C020E632E442EA5DE060E070E072
:101FF40080E89FE30E946F2520E030E040E85FE343
:102004000E94E525181634F482E0880E911CA11C68
:10201400B11C0AC0D501C40181709927AA27BB2726
:10202400880E991EAA1EBB1ED501C401B595A7959D
:1020340097958795B15C37E1CC0CDD1CEE1CFF1C39
:102044003A95D1F7C80ED91EEA1EFB1E5C2D4D2D04
:102054003E2D2F2D652F742F832F922F1F910F91BB
:10206400FF90EF90DF90CF90BF90AF909F908F90B4
:0A2074007F906F905F904F900895E9
:10207E004F925F926F927F928F929F92AF92BF928A
:10208E00CF92DF92EF92FF9280908D6290908E624F
:10209E00A0908F62B09090622CE2921A21E0A20A78
:1020AE00B108C0909562D0909662E0909762F090E1
:1020BE0098620B2EBEE0CC0CDD1CEE1CFF1CBA95FC
:1020CE00D1F7B02DE0E0F2E6848D958D092E000C4F
:1020DE00AA0BBB0B072E74E1880F991FAA1FBB1FFB
:1020EE007A95D1F7702DC81AD90AEA0AFB0AA68D7D
:1020FE00B78DA50194010E945725C61AD70AE80A82
:10210E00F90A30E4D30EE11CF11C0B2EBFE0F5945E
:10211E00E794D794C794BA95D1F7B02DA38DB0E0BC
:10212E00A50194010E940C252B013C01032E3BE0DE
:10213E0075946794579447943A95D1F7302D40E8AB
:10214E00540E611C711CA0A10A2E000CBB0BA50124
:10215E0094010E945725052E5AE0959587957795FF
:10216E0067955A95D1F7502DA30192010E946A24CA
:10217E00DC01CB01072E7AE0B595A795979587954B
:10218E007A95D1F7702D9C01AD01405E5F4FA18D08
:10219E00B28D0E945725DC01CB01905EAF4FBF4F31
:1021AE00BC01CD01052E5EE09595879577956795D7
:1021BE005A95D1F7502DA70196010E946A246B0102
:1021CE007C01052E5FE095958795779567955A95D5
:1021DE00D1F7502D9B01AC010E946A249B01AC01EA
:1021EE00689416F855954795379527951694D1F717
:1021FE00A08DB0E00E940C25DC01CB01689413F891
:10220E00B595A795979587951694D1F7A701960141
:10221E00281B390B4A0B5B0BDA01C9011AF480E05B
:10222E0090E0DC0181309105A10539E1B30724F07E
:10223E0080E090E0A0E0B9E1BC01CD01052E5CE0AC
:10224E0095958795779567955A95D1F7502DFF906F
:10225E00EF90DF90CF90BF90AF909F908F907F9038
:08226E006F905F904F900895FE
:10227600AFE0B0E0E1E4F1E10C941E231C016B0138
:1022860049835A832B83FB018281938184809580C5
:1022960000811181A680B78097FD02C00D7F02C024
:1022A60081E090E0E981FA8140805180628073800C
:1022B6009801207133272C833D83740104FF08C0E5
:1022C600411451046104710419F032E0E31AF10873
:1022D600F801E870FF27EE83FF8303FF03C0F1E0F8
:1022E600EF1AF108F6010084F185E02D3197EE87AB
:1022F600FF87EA0DFB1D10829C012E193F092887D6
:102306003987C801827099278A879B87EB818E2F30
:10231600EE0F990B9C01215431092C873D872E85A0
:102326003F852230310530F48C819D81892B09F05F
:1023360042C05CC0411451046104710461F18E8590
:102346009F8501978E879F87C2018F7099278A3054
:10235600910514F4C09602C0895A9F4FEC85FD85FD
:102366007A9748F49C012062215631092A313105B9
:1023760010F40E943E25EE85FF85EA0DFB1D808345
:10238600F1E0EF1AF10884E0769467945794479445
:102396008A95D1F7C4CF888599858E0D9F1D18160D
:1023A60019066CF21E141F040CF0BECFEA85FB85DD
:1023B600EF2B29F6B9CFE981FA8180819181A2813B
:1023C600B381892B8A2B8B2B89F0EE85FF85EA0D4D
:1023D600FB1D31972B8120838E859F8502978E87E3
:1023E6009F87FC01EA0DFB1D80E38083EE81FF8160
:1023F600EF2B59F02E853F85215031092E873F87D7
:10240600F901EA0DFB1D80E28083F60140855185C6
:10241600415051092E853F85421B530BB9016A0D68
:102426007B1D9401C1010E94861D9C01F1018081E2
:10243600918190FF06C0F6018281938182179307EE
:0C2446000CF4C9012F96E2E10C9437233E
:102452000F931F93CF93DF93CDB7DEB76897CDBFAE
:10246200DEBF28E1AE014F5F5F4F68E886E70E945A
:10247200551A00E012E68A8190E0982F8827298178
:10248200820F911DF801808391838C8190E0982FB7
:1024920088272B81820F911D828393838E8190E006
:1024A200982F88272D81820F911D8483958388859B
:1024B20090E0982F88272F81820F911D8683978322
:1024C2008A8590E0982F88272985820F911D808721
:1024D20091878C8590E0982F88272B85820F911DFC
:1024E200828793878E8590E0982F88272D85820F8B
:1024F200911D84879587888990E0982F88272F855A
:10250200820F911D868797878A8990E0982F882766
:102512002989820F911D808B918B8C8990E0982F55
:1025220088272B89820F911D828B938B8E8990E055
:10253200982F88272D89820F911D848B958B888DEA
:1025420090E0982F88272F89820F911D868B978B79
:1025520021E0AE014F5F5F4F61EA86E70E94551AA4
:102562008981F801808F27E0AE014F5F5F4F61EEF6
:1025720086E70E94551A2A8130E0322F222799815C
:10258200290F311DF801218F328F9B81938F9D81FD
:102592002C81F0E12F9F90011124492F4F70242BA1
:1025A200F801248F358F2E81F0E12F9F90011124A5
:1025B20092959F70292BF801268F378F9F8190A3C8
:1025C2006896CDBFDEBFDF91CF911F910F91089525
:1025D200CF93DF9380E094E023E0FC012083C0E40A
:1025E200D4E035E03883A0E6B4E032E13C9360EA1F
:1025F20074E030E2FB013083FC01148241E04C8341
:1026020040E114964C931497FB013483FC01108A29
:10261200118A128A138A148A158A168A178A188AC4
:10262200198A1A8A1B8A1C8A1D8A1E8A1F8A509638
:102632001C92509751961C92519752961C92529707
:1026420053961C92539754961C92549755961C92EB
:10265200559756961C92569757961C92FB01108AD4
:10266200118A128A138A148A158A8BE0868B178A3A
:10267200E0EEF5E011821082158217821086118633
:102682001682228382E196E28093B5629093B662CB
:1026920083E196E28093B3629093B46284E196E21E
:1026A2008093B1629093B26285E196E28093AF62C9
:1026B2009093B06286E196E28093AD629093AE62AF
:1026C20087E196E28093AB629093AC6288E196E2F6
:1026D2008093A9629093AA6289E196E28093A762AD
:1026E2009093A8628AE196E28093A5629093A66293
:1026F2008BE196E28093A3629093A4628CE196E2CE
:0E2702008093A1629093A262DF91CF9108951F
:102710008F929F92AF92BF92CF92DF92EF92FF92F1
:102720008091996290919A62A0919B62B0919C6213
:10273000E0E0F2E64081518160E070E06C017D01F3
:10274000689413F8F594E794D794C7941694D1F746
:10275000C41AD50AE60AF70A689412F8B595A7953F
:10276000979587951694D1F7440F551F661F771FCD
:102770004C015D01841A950AA60AB70AA5019401C5
:10278000A281B3810E9457254B015C01072E7BE09B
:10279000B594A794979487947A95D1F7702DA70153
:1027A0009601C701B6010E946A249B01AC01012E6B
:1027B0001CE055954795379527951A95D1F7102D1B
:1027C000A481B5810E945725DC01CB01072E7EE054
:1027D000B595A795979587957A95D1F7702D880D22
:1027E000991DAA1DBB1D80938D6290938E62A0934C
:1027F0008F62B09390626C017D01CC0CDD1CEE1CED
:10280000FF1CCC0CDD1CEE1CFF1C8C0D9D1DAE1D99
:10281000BF1D80589F4FAF4FBF4F692F7A2F8B2F0F
:10282000992787FD9A95FF90EF90DF90CF90BF900A
:08283000AF909F908F90089576
:10283800CF93DF93CDB7DEB72897CDBFDEBF28E0B3
:10284800AE014F5F5F4F67EF86E70E94551A8F8191
:1028580090E0A0E0B0E0BA2FA92F982F882728850C
:10286800822B8093956290939662A0939762B0931F
:1028780098628C8190E0A0E0B0E0AC01BD01032E2D
:102888003CE0440F551F661F771F3A95D1F7302D4E
:102898009D81892F90E0A0E0B0E0880F991FAA1FC2
:1028A800BB1F880F991FAA1FBB1F880F991FAA1F3C
:1028B800BB1F880F991FAA1FBB1F842B952BA62B04
:1028C800B72B2E8122952F70822B8093996290933B
:1028D8009A62A0939B62B0939C62898190E0A0E089
:1028E800B0E0AC01BD01032E3CE0440F551F661F4C
:1028F800771F3A95D1F7302D9A81892F90E0A0E083
:10290800B0E0880F991FAA1FBB1F880F991FAA1F25
:10291800BB1F880F991FAA1FBB1F880F991FAA1FCB
:10292800BB1F842B952BA62BB72B2B8122952F70A1
:10293800822B8093916290939262A0939362B0935A
:0E29480094622896CDBFDEBFDF91CF91089537
:10295600CF93DF93CDB7DEB76197CDBFDEBF21E161
:10296600E6E2F7E8DE01119601900D922A95E1F76D
:10297600FB01208122952F70E1E0F0E0EC0FFD1FB6
:10298600E20FF11D2081FC012083FB0120812F70C5
:10299600E1E0F0E0EC0FFD1FE20FF11D2081FC01EC
:1029A6002183FB01218122952F70E1E0F0E0EC0FFD
:1029B600FD1FE20FF11D2081FC012283FB01218115
:1029C6002F70E1E0F0E0EC0FFD1FE20FF11D20811A
:1029D600FC012383FB01228122952F70E1E0F0E0C8
:1029E600EC0FFD1FE20FF11D2081FC012483FB018A
:1029F60022812F70E1E0F0E0EC0FFD1FE20FF11DE8
:102A06002081FC012583FB01238122952F70E1E0C3
:102A1600F0E0EC0FFD1FE20FF11D2081FC01268383
:102A2600FB0123812F70E1E0F0E0EC0FFD1FE20FC8
:102A3600F11D2081FC0127832DE020872AE02187D4
:0E2A460012866196CDBFDEBFDF91CF9108955D
:102A5400A2E0B0E0E0E3F5E10C941E233C016B013D
:102A6400FB0122813381A480B58080819181898397
:102A74009A8386809780FA01208031804280538037
:102A8400B201A10157FE07C044275527BA014219D4
:102A940053096409750937FD03C08D7F89839A83BF
:102AA400950157FC05C0898182FD02C083FF02C0E5
:102AB40021503109CE0101967C010AE010E0C601E3
:102AC4000E94B51757FC03C0298122FF0AC0019751
:102AD400F401E80FF91F57FC02C02BE209C02DE2F4
:102AE40007C023FF06C00197F401E80FF91F20E295
:102AF400208309811A81F60140855185415051098D
:102B0400481B590BB401680F791F9501C3010E943A
:102B1400861D9C01F3018081918190FF06C0F6011E
:102B240082819381821793070CF4C9012296E2E112
:042B34000C943723A3
:102B3800CF93DF93EC0181E296E80E94B52188E308
:102B480096E80E94B52189811F928F9381E896E8C3
:102B58009F938F930E944F238A811F928F938CE9B2
:102B680096E89F938F930E944F232B8130E0C901F1
:102B7800880F991F220F331F220F331F220F331F75
:102B8800820F931F9F938F938EEA96E89F938F935C
:102B98000E944F238881282F082E000C330B3F9367
:102BA8008F9381EC96E89F938F930E944F2386ED35
:102BB80096E80E94352580E895E80E9435252B8106
:102BC80030E0C901880F991F220F331F220F331FCE
:102BD800220F331F820F931F9F938F938A811F9217
:102BE8008F9389811F928F938881282F082E000C3C
:102BF800330B3F938F9384EE96E89F938F930E94B5
:102C08004F238DB79EB74A968DBF9EBFDF91CF9158
:022C180008951D
:102C1A0010C00E94832558F00E947C2540F029F4B8
:102C2A005F3F29F00C94BB2551110C948B250C9411
:102C3A0009260E94D72168F39923B1F3552391F30A
:102C4A00951B550BBB27AA2762177307840738F011
:102C5A009F5F5F4F220F331F441FAA1FA9F335D06E
:102C6A000E2E3AF0E0E832D091505040E695001C22
:102C7A00CAF72BD0FE2F29D0660F771F881FBB1FDC
:102C8A00261737074807AB07B0E809F0BB0B802DBA
:102C9A00BF01FF2793585F4F3AF09E3F510578F0E6
:102CAA000C94BB250C948B255F3FE4F3983ED4F338
:102CBA00869577956795B795F7959F5FC9F7880FBA
:102CCA00911D9695879597F90895E1E0660F771F0C
:102CDA00881FBB1F621773078407BA0720F0621B9D
:0E2CEA00730B840BBA0BEE1F88F7E09508956C
:102CF8000FC00E947C2538F00E94832520F0952380
:102D080011F00C94BB250C94092611240C948B25E6
:102D18000E94D72170F3959FC1F3950F50E0551F7E
:102D2800629FF001729FBB27F00DB11D639FAA2718
:102D3800F00DB11DAA1F649F6627B00DA11D661F67
:102D4800829F2227B00DA11D621F739FB00DA11D88
:102D5800621F839FA00D611D221F749F3327A00D42
:102D6800611D231F849F600D211D822F762F6A2FDE
:102D780011249F5750409AF0F1F088234AF0EE0F43
:102D8800FF1FBB1F661F771F881F91505040A9F770
:102D98009E3F510580F00C94BB250C948B255F3F1A
:102DA800E4F3983ED4F3869577956795B795F795AC
:102DB800E7959F5FC1F7FE2B880F911D9695879524
:042DC80097F90895DA
:102DCC00CF93DF93DC01F90168387105F1F05CF405
:102DDC006138710561F164387105A1F160387105D4
:102DEC0009F051C02FC0603C710509F441C0603F2F
:102DFC007105F1F1603A710509F045C0C081D181CE
:102E0C00CE0102968083918325C0C081D181CE01F1
:102E1C00029680839183452B39F04881042E000C57
:102E2C00550B660B770B1CC0488150E029C0C08144
:102E3C00D181CE01049680839183488159816A8126
:102E4C007B810EC0C081D181CE010296808391839B
:102E5C00452BA1F048815981052E000C660B770B90
:102E6C004D935D936D937C93139781E090E00DC02F
:102E7C00C081D181CE010296808391834881598192
:102E8C0060E070E0EDCF80E090E0DF91CF910895AD
:102E9C0011C00E947C2538F00E94832520F039F463
:102EAC009F3F19F426F40C9409260EF4E095E7FBE9
:102EBC000C94BB25E92F0E94D72158F3BA1762074F
:102ECC0073078407950720F079F4A6F50C948A25EE
:102EDC000EF4E0950B2EBA2FA02D0B01B901900129
:102EEC000C01CA01A0011124FF27591B99F0593F6D
:102EFC0050F4503E68F11A16F040A22F232F342FB5
:102F0C004427585FF3CF469537952795A795F04002
:102F1C005395C9F77EF41F16BA0B620B730B840B17
:102F2C00BAF09150A1F0FF0FBB1F661F771F881FCF
:102F3C00C2F70EC0BA0F621F731F841F48F4879527
:102F4C0077956795B795F7959E3F08F0B0CF939519
:0E2F5C00880F08F09927EE0F97958795089536
:102F6A00A0E0B0E0EBEBF7E10C942023DC012801B0
:102F7A001696AD90BC901797F701808191811296B1
:102F8A00ED91FC9113971896CD91DC9119972197A1
:102F9A00F7FF02C0E1E0F0E0CA0DDB1D188269010B
:102FAA00A1E0B0E08F01021B130B4C01F2E08F226B
:102FBA009924052C000C66087708CE018A199B090A
:102FCA00CA15DB0519F1411551056105710589F02D
:102FDA00CB01BA01A30192010E94F921CA01A62FCD
:102FEA00B72F605D6A9341E0C41AD108A901BC01F8
:102FFA00E4CF98012C0D3D1D121613064CF31C1438
:10300A001D0434F48114910419F702C080E090E0A1
:10301A00AB2B31F4F701208131812F7E208331835C
:0A302A00CDB7DEB7E0E10C943923C6
:10303400CF9388E591E89F938F930E9467234FEF86
:1030440062E070E68CE792E60E9467254FEF61E04C
:1030540071E687E792E60E94672582E08093660422
:103064002FE739EA93E0215030409040E1F700C067
:103074000000809365042FE738E381E0215030405D
:103084008040E1F700C0000084E0809345040F9085
:103094000F900E94A925882339F00E940026682FEA
:1030A40087E792E60E94002487E792E60E94DB25E8
:1030B400882379F30E94A325882359F387E792E6AE
:1030C4000E942225C82F0E94B324CA3011F78AE037
:1030D4000E94B3249FE728E331E091502040304020
:0E30E400E1F700C000000E947919CF91089515
:1030F2000F931F93CF93DF93EA0140385105D4F029
:1031020020E030E040E05FE70E94F6259E012F5765
:103112003109203831056CF120E030E040E05FE712
:103122000E94F625CE5FD109C038D1051CF1CFE748
:10313200D0E020C042385F4FECF420E030E040E8BD
:103142005CE00E94F6259E012A593F4F22384FEF3C
:1031520034077CF420E030E040E85CE00E94F62591
:10316200C453DF4FC2382FEFD20724F4C2E8DFEF97
:1031720001C0E9019E0121583F4F8901330F220B03
:10318200330BA9019801E7E1220F331F441F551F9A
:10319200EA95D1F70E94F625DF91CF911F910F9109
:0231A20008958E
:1031A400A2E0B0E0E8EDF8E10C9422234C016B01BD
:1031B400FB012281338164807580808191818983C0
:1031C4009A83A680B78037FD03C08D7F89839A8355
:1031D400FA014081518162817381CE0101967C01A3
:1031E40008E010E09301C6010E94B517298124FF6D
:1031F40006C00197F501E80FF91F20E32083298118
:1032040023FF06C00197F501E80FF91F20E2208390
:1032140009811A81F6014085518541505109481BA5
:10322400590BB501680F791F9301C4010E94861DD3
:103234009C01F4018081918190FF06C0F601828196
:103244009381821793070CF4C9012296EEE00C9443
:023254003B231A
:1032560040E068ED80E690E00E94EE2540E068EDF3
:1032660081E690E00E94EE2540E068ED85E690E07C
:103276000E94EE2540E068ED88E790E00E94EE258A
:103286004CE068ED88E690E00E94EE2540E068EDAF
:1032960089E690E00E94EE2540E068ED80E790E048
:1032A6000E94EE2540E068ED8CE790E00E94EE2556
:1032B60040E068ED82E690E00E94EE2540E068ED91
:1032C60083E690E00E94EE2540E068ED84E690E01B
:1032D6000E94EE2540E068ED80E890E00E94EE2531
:0C32E600E0E6F0E0858181FFFDCF089557
:1032F200CF9389E391E80E94B52161E471E88CE7FC
:1033020092E60E94A51F0AC00E94AF25882331F0D1
:103312008CE792E60E9422250E9403268CE792E621
:103322000E94DB258111F0CFC0E01FC00E94A925B9
:10333200882339F00E940026682F87E792E60E94D0
:10334200002487E792E60E94DB25882379F30E9416
:10335200A325882359F387E792E60E942225C1E03C
:103362008A3009F0C0E00E94B324CC23F9F22FE79F
:1033720088E391E0215080409040E1F700C00000D6
:04338200CF9108954A
:103386008F929F92AF92BF92CF92DF92EF92FF926F
:103396000E94B10C4B015C010E94F62424E036E544
:1033A6004AE150E40E946F2523E333E948E853E4F9
:1033B6000E946F259B01AC0164E076E58AE190E40A
:1033C6000E94F2259B01AC0160E070E080E89FE37B
:1033D6000E946E2528E539E348EA50EC0E9438043D
:1033E6006B017C01C501B4010E94231C20E030E082
:1033F60048EC52E40E94F225A70196010E94F625A8
:10340600FF90EF90DF90CF90BF90AF909F908F90FE
:02341600089517
:103418000F931F93CF93DF93DB012D913C9111976D
:1034280030FF25C016964D915C91179714962D91F3
:103438003C9115974217530778F41296ED91FC9139
:103448001397808312962D913C9113972F5F3F4FCE
:1034580012962D933C93139716962D913C9117979E
:103468002F5F3F4F16962D933C93179715C01C96C8
:10347800ED91FC911D97309719F48FEF9FEF0CC0D9
:103488008B01EC010995892BC1F7F8018681978199
:10349800019686839783CE01DF91CF911F910F917B
:0234A800089585
:1034AA00EF92FF920F931F93CF93DF930F92CDB7B3
:1034BA00DEB769838A01E22E60E00E944921F82E74
:1034CA00882369F161E0CE0101960E94D720F82E87
:1034DA00811104C083E08093040921C0E0E0F9E08F
:1034EA0087818160878381E08483858185FD0AC025
:1034FA00858182FD07C0858183FD04C08581837033
:10350A00833099F70E949724882329F083E08093D7
:10351A000409F12C04C06E2DC8010E9482208F2D4F
:10352A000F90DF91CF911F910F91FF90EF90089527
:10353A00A2E0B0E0E3EAFAE10C9422235C016B0119
:10354A00FB012281338184809580808191818983E6
:10355A009A836680778037FD03C08D7F89839A833B
:10356A00FA014081518162817381CE0101967C0109
:10357A000AE010E09401C6010E94B51709811A8178
:10358A00F6014085518541505109481B590BB30139
:10359A00680F791F9401C5010E94861D9C01F501DF
:1035AA008081918190FF06C0F60182819381821702
:0E35BA0093070CF4C9012296EEE00C943B231B
:1035C80086E891E80E94B52189EA91E80E94B52130
:1035D80082EF91E80E94601C8EEF91E80E94601CC7
:1035E8008BE092E80E94601C8AE192E80E94601CCD
:1035F8008CE392E80E94601C87E592E80E94601CB8
:103608008AE892E80E94601C8DEB92E80E94601C98
:103618008DEC92E80E94601C85EE92E80E94601C86
:103628008BE791E80E94601C86EF92E80E94B52122
:103638002FE788E391E0215080409040E1F700C0F7
:0436480000000895E1
:10364C00CF93DF9384E391E80E94B521C0E00E9400
:10365C00A925882339F00E940026682F87E792E677
:10366C000E94002487E792E60E94DB258823C1F0A4
:10367C000E94A325882389F087E792E60E942225E1
:10368C00D82F0E94B324DA3041F4CF5FC13029F433
:10369C0084E391E80E94B521DACFC230C1F602C0B2
:1036AC00C230A9F68AE00E94B3242FE78AE196E0A3
:1036BC00215080409040E1F700C00000DF91CF9195
:0236CC0008955F
:1036CE001F920F920FB60F9211242F933F934F9389
:1036DE005F936F937F938F939F93AF93BF93EF936C
:1036EE00FF937A9B05C0E091B162F091B2620995A9
:1036FE007D9B05C0E091AF62F091B06209957C9B15
:10370E0005C0E091AD62F091AE620995799B05C05E
:10371E00E091A362F091A46209958FEF8FB9FF91AA
:10372E00EF91BF91AF919F918F917F916F915F912B
:10373E004F913F912F910F900FBE0F901F901895A4
:10374E00CF93DF93EC0187EA94E80E94B5218CEBCE
:10375E0094E80E94B52182EF94E80E94B521CE0133
:10376E000E94B52166E075E88CE792E60E94A51FDF
:10377E00BE018CE792E60E94A51F0AC00E94AF25EB
:10378E00882331F08CE792E60E9422250E940326C0
:10379E008CE792E60E94DB258111F0CF2FE78AE1BC
:1037AE0096E0215080409040E1F700C000000E945A
:0C37BE00261B0E94C124DF91CF910895CA
:1037CA00CF93DF93EC0187EA94E80E94B5218CEB52
:1037DA0094E80E94B52185E195E80E94B521CE01C1
:1037EA000E94B5216BE275E88CE792E60E94A51F5C
:1037FA00BE018CE792E60E94A51F0AC00E94AF256F
:10380A00882331F08CE792E60E9422250E94032643
:10381A008CE792E60E94DB258111F0CF2FE788E33F
:10382A0091E0215080409040E1F700C000000E94E2
:0C383A00261B0E94C124DF91CF9108954D
:10384600E89409C097FB3EF4909580957095619534
:103856007F4F8F4F9F4F9923A9F0F92F96E9BB27EA
:103866009395F695879577956795B795F111F8CF66
:10387600FAF4BB0F11F460FF1BC06F5F7F4F8F4FD1
:103886009F4F16C0882311F096E911C0772321F0C7
:103896009EE8872F762F05C0662371F096E8862F5F
:1038A60070E060E02AF09A95660F771F881FDAF7B6
:0A38B600880F9695879597F90895FD
:1038C000FF920F931F93CF93DF938C0181E591E8D3
:1038D0000E94B521C8010E94B521B8018CE792E68B
:1038E0000E94A51FF12C11C08CE792E60E94DB25F7
:1038F000882371F00E94AF25882351F08CE792E66F
:103900000E9422250E940326F394E801CF0DD11DC9
:1039100088818111E9CF2FE788E391E02150804031
:103920009040E1F700C000000E94131DDF91CF918D
:083930001F910F91FF90089513
:10393800A2E8B0E0E2EAFCE10C9424235C014A012D
:10394800CF57DF4F68837983C158D040C12CD12C21
:10395800CF57DF4FE881F981C158D0408081882353
:10396800E9F07401860120E830E0AE014F5F5F4F57
:10397800BE016F577F4FC5010E94B30A8C0D9D1D74
:103988008C159D054CF48FE490E080930060909333
:1039980001608FEF9FEF03C06C01DACFC601CE57ED
:0839A800DF4FECE00C943D231D
:1039B0001F920F920FB60F9211242F933F934F93A4
:1039C0005F936F937F938F939F93AF93BF93EF9387
:1039D000FF938091430180FF07C0E091BD62F091A9
:1039E000BE62309709F009958091430181FF07C0BD
:1039F000E091BB62F091BC62309709F0099583E0D9
:103A000080934301FF91EF91BF91AF919F918F916F
:103A10007F916F915F914F913F912F910F900FBECA
:063A20000F901F901895A5
:103A2600CF93DF9384E391E80E94B521C0E00E9422
:103A3600A925882339F00E940026682F87E792E699
:103A46000E94002487E792E60E94DB25882389F0FE
:103A56000E94A325882351F087E792E60E9422253B
:103A6600D82F0E94B324DA3009F4CF5FC130F9F6BB
:103A760002C0C130E1F68AE00E94B3242FE788E352
:103A860091E0215080409040E1F700C00000DF91B6
:043A9600CF9108952F
:103A9A001F920F920FB60F9211242F933F934F93B9
:103AAA005F936F937F938F939F93AF93BF93EF939C
:103ABA00FF93599B05C0E091B562F091B6620995F2
:103ACA00589B05C0E091B362F091B46209955A9B84
:103ADA0005C0E091A562F091A66209958FEF8BB9B6
:103AEA00FF91EF91BF91AF919F918F917F916F91CC
:103AFA005F914F913F912F910F900FBE0F901F90A2
:023B0A0018950C
:103B0C00A0E0B0E0ECE8FDE10C9424236C015B0137
:103B1C007A01E901480181E08822992400FD03C063
:103B2C004217530750F0A701B501C6010E94B522F8
:103B3C00EC16FD0610F0C70117C08E010E191F09F7
:103B4C000115110541F0B60180E290E00E940C1ABB
:103B5C0001501109F5CF8114910429F4A701B50185
:103B6C00C6010E94B522CE01CDB7DEB7ECE00C94B5
:023B7C003D23E7
:103B7E000E949D25882339F00E94FA25682F8CE734
:103B8E0092E60E9400240E94A925882339F00E9403
:103B9E000026682F87E792E60E94002487E792E6C8
:103BAE000E94DB25882351F00E94A325882331F043
:103BBE0087E792E60E9422250E94FD258CE792E679
:103BCE000E94DB25882351F00E94AF25882331F017
:0E3BDE008CE792E60E9422250E94032608959D
:103BEC001F920F920FB60F9211242F933F934F9366
:103BFC005F936F937F938F939F93AF93BF93EF9349
:103C0C00FF93189B05C0E091A962F091AA620995F7
:103C1C00199B05C0E091A762F091A86209958FEFFE
:103C2C0083B9FF91EF91BF91AF919F918F917F914C
:103C3C006F915F914F913F912F910F900FBE0F900D
:043C4C001F90189518
:103C50001F920F920FB60F9211242F933F934F9301
:103C60005F936F937F938F939F93AF93BF93EF93E4
:103C7000FF93BE9B05C0E091AB62F091AC620995E9
:103C8000BD9B05C0E091A162F091A26209958FEF02
:103C900087BBFF91EF91BF91AF919F918F917F91E2
:103CA0006F915F914F913F912F910F900FBE0F90A9
:043CB0001F901895B4
:103CB400CF93DF93CDB7DEB72697CDBFDEBF85EFB9
:103CC40089838091DB628A8342E0BE016F5F7F4F0C
:103CD40086E70E94AE2382EF8B838091DA628C8325
:103CE40042E0BE016D5F7F4F86E70E94AE2384EF02
:103CF4008D838091D9628E8342E0BE016B5F7F4FDA
:103D040086E70E94AE232696CDBFDEBFDF91CF911A
:023D1400089510
:103D16001F920F920FB60F9211242F933F934F933A
:103D26005F936F937F938F939F93AF93BF93EF931D
:103D3600FF938091060B80FF0AC0E091B762F09175
:103D4600B862309709F0099581E08093060BFF91E0
:103D5600EF91BF91AF919F918F917F916F915F91FD
:103D66004F913F912F910F900FBE0F901F90189576
:103D76001F920F920FB60F9211242F933F934F93DA
:103D86005F936F937F938F939F93AF93BF93EF93BD
:103D9600FF938091160B80FF0AC0E091BF62F091FD
:103DA600C062309709F0099581E08093160BFF9168
:103DB600EF91BF91AF919F918F917F916F915F919D
:103DC6004F913F912F910F900FBE0F901F90189516
:103DD6000E94DF2188F09F5798F0B92F9927B75195
:103DE600B0F0E1F0660F771F881F991F1AF0BA9599
:103DF600C9F714C0B13091F00E948A25B1E0089548
:103E06000C948A25672F782F8827B85F39F0B93F39
:103E1600CCF3869577956795B395D9F73EF490954B
:0E3E26008095709561957F4F8F4F9F4F089547
:103E34000F931F93CF93DF938C010F5F1F4FFC01F0
:103E44008081FB0124853585232B11F0EB0109C00A
:103E54008FEF9FEF17C00995892BD1F7F801819156
:103E64008F01EC85FD85BE018111F5CF8AE00995AE
:103E740021E030E0892B11F420E030E088279927F5
:0E3E8400821B930BDF91CF911F910F91089538
:103E9200E0E0F8E083E896E080879187158280EC85
:103EA200868383E0878313861486168615868DE1C2
:103EB20096E28093C5629093C6628EE196E2809309
:103EC200C3629093C4628FE196E28093C162909341
:103ED200C2621092C7621092C862E091D362F091FE
:0C3EE200D46287E392E680839183089508
:103EEE00DC01ED91FC91119780818A3221F080E006
:103EFE0090E03AE00EC03196ED93FC93DB01ED912C
:103F0E00FC911197CF0102968D939C9380819181A4
:103F1E000895ED91FC911197208120532A3068F479
:103F2E00389FA001399F500D1124CA01820F911D97
:0C3F3E003196ED93FC931197ECCF0895A1
:103F4A00CF93DF93FC01EB0188819481492F50E0E4
:103F5A004F5F5F4F238130E042175307D9F0882320
:103F6A00C9F070E0A081B181A90FB11D8C93948131
:103F7A009F5F94837F5FDE01A70FB11D8C91492F4C
:103F8A0050E04F5F5F4F238130E04217530711F033
:0A3F9A008111E8CFDF91CF91089567
:103FA4001F920F920FB60F9211242F933F934F93AA
:103FB4005F936F937F938F939F93AF93BF93EF938D
:103FC400FF9382E080930D06E0919F62F091A062DE
:103FD400309709F00995FF91EF91BF91AF919F91AF
:103FE4008F917F916F915F914F913F912F910F909E
:083FF4000FBE0F901F901895FD
:103FFC001F920F920FB60F9211242F933F934F9352
:10400C005F936F937F938F939F93AF93BF93EF9334
:10401C00FF9381E080930D06E0919D62F0919E628A
:10402C00309709F00995FF91EF91BF91AF919F9156
:10403C008F917F916F915F914F913F912F910F9045
:08404C000FBE0F901F901895A4
:104054001F920F920FB60F9211242F933F934F93F9
:104064005F936F937F938F939F93AF93BF93EF93DC
:10407400FF93E091B962F091BA62309709F0099523
:1040840081E080935301FF91EF91BF91AF919F9194
:104094008F917F916F915F914F913F912F910F90ED
:0840A4000FBE0F901F9018954C
:1040AC008FE494E80E94B52189EA91E80E94B52139
:1040BC0087E694E80E94B52169E774E88CE792E6FC
:1040CC000E94A51F0AC00E94AF25882331F08CE7FF
:1040DC0092E60E9422250E9403268CE792E60E941B
:1040EC00DB258111F0CF8FE097E20197F1F700C04B
:0840FC0000000E94261B08953C
:1041040020E2209305096623D1F0A82FB92F90E06F
:10411400E0E0F9E022E0858185FD17C0858182FD1C
:1041240007C0858183FD04C085818370833099F73E
:1041340080858D939F5F691711F02483ECCF87E00E
:104144008093040908952483E6CF80858D939F5F2F
:064154006913F9CFF4CF5E
:10415A00A0E0B0E0E3EBF0E20C9426237C01FB0143
:10416A00EA01C901A280B380C480D580008111818F
:10417A00209711F4CAE6D2E6009719F4CE010E94FC
:10418A00CF24B7FC04C0A816B90608F4C5019601E5
:10419A00AC01BE01C7010E94861DCDB7DEB7EAE0B9
:0441AA000C943F230F
:1041AE00662309F1DC016150262F30E02F5F3F4F6F
:1041BE00280F391FE0E0F9E09D919087958195FDDC
:1041CE000AC0958192FD07C0958193FD04C095812B
:1041DE009370933099F7958194FD07C0A217B3079A
:0E41EE0059F781E0089581E0089580E008957A
:1041FC00E0E2F8E086E191E080879187158280EC1F
:10420C00868383E08783138614861686158680E260
:10421C0096E28093CD629093CE6281E296E2809397
:10422C00CB629093CC6282E296E28093C9629093C7
:0C423C00CA621092CF621092D062089506
:10424800E0E0F2E0108A118A128A138A8EE4848BE5
:10425800158A10A610A211A212A213A214A215A2C6
:1042680016A217A211A617A610AA85E081AB12AA5A
:1042780013AA14AA15A616A612A613A614A615AA5A
:0A42880016AA17AA10AE80E00895F0
:104292009091050993709330E1F0880F682B609339
:1042A2000709E0E0F9E0858185FD0AC0858182FD8C
:1042B20007C0858183FD04C085818370833099F7AF
:1042C2000E949724882339F083E08093040980E0D8
:0A42D200089580E0089581E008954A
:1042DC00990F0008550FAA0BE0E8FEEF161617060B
:1042EC00E807F907C0F012161306E407F50798F073
:1042FC00621B730B840B950B39F40A2661F0232B8C
:10430C00242B252B21F408950A2609F4A140A69507
:08431C008FEF811D811D089542
:10432400CF93DF93EC010E94D6250E94F6240E94CD
:10433400752568830E94C31920E030E040E251E40F
:104344000E94F2250E94EB1E6B830E9401250E94AD
:10435400EB1E69830E94B5258A83CE010E949C15B9
:06436400DF91CF910895E6
:10436A00CF92DF92FF920F931F93CF93DF936C014B
:10437A00F12C09C00E94A325882341F0F80180810D
:10438A000E94B324F394E601CF0DD11D8E018881DA
:10439A008111F0CFDF91CF911F910F91FF90DF90A4
:0443AA00CF90089513
:1043AE0057FD9058440F551F59F05F3F71F04795D8
:1043BE00880F97FB991F61F09F3F79F087950895BD
:1043CE00121613061406551FF2CF4695F1DF08C0DC
:1043DE00161617061806991FF1CF869571056105F9
:0443EE000894089592
:1043F200A1E21A2EAA1BBB1BFD010DC0AA1FBB1FE7
:10440200EE1FFF1FA217B307E407F50720F0A21B58
:10441200B30BE40BF50B661F771F881F991F1A94C5
:1044220069F760957095809590959B01AC01BD01EF
:04443200CF01089519
:104436008AE298E80E9435250E94C3238FE493EC14
:104446000197F1F700C000000E9429128091DB62FB
:1044560081788093DB6285E28093D96281E08093E4
:10446600DA620E945A1E82E498E80E94352581E0AD
:024476000895A7
:10447800CF93DF93EC0190E0E92FF0E0EE0FFF1F00
:10448800EF5DFD498081811102C081810EC0A88144
:10449800B9812C91821305C091811196A883B983A3
:1044A80001C09F5F9B3040F3892FDF91CF91089522
:1044B8008091A80486FF16C080E28093A5048091AD
:1044C800D1629091D26281608093D1629093D262DE
:1044D8008091D1629091D2628F7E8093D1629093C5
:0C44E800D262089580E28093A60408953B
:1044F40089342DE0920710F088E49DE0883027E0AD
:10450400920710F488E097E0BC016850774080E09F
:1045140090E00E94231C2BEB3FE040E85DE30E9407
:0C452400F6250E94EB1E84E6861B08951D
:10453000E0E4F1E081818111FDCFE0E4F1E08FEF73
:1045400093E084879587108611868287938781E020
:104550008783128281898111FDCFE0E4F1E081E05F
:0A456000828B89E4808B80E00895CF
:10456A00A0E0B0E0EBEBF2E20C9428236C01EB0143
:10457A008A017B01E40EF51ECE15DF0541F0899113
:10458A00B601082E000C990B0E940C1AF5CFC8012F
:0A459A00CDB7DEB7E8E00C94412332
:1045A400CF93DF9300D0CDB7DEB78091D9628C7FF3
:1045B40081608093D96294EF99838A8342E0BE013B
:1045C4006F5F7F4F86E70E94AE230F900F90DF91BD
:0445D400CF910895E6
:1045D800E0E0F6E0118212821382148216861386B6
:1045E800148681E0808780E481878FEF85838FEF51
:1045F8009FE0848B958B128A138A83E0808380E006
:02460800089513
:10460A000E94E9120E94EC220E942B190E94242186
:10461A000E9498220E9489240E9414240E9427241E
:10462A000E94491F0E94FE200E9447250E94DD2405
:02463A000895E1
:10463C002F923F924F925F926F927F928F929F92A6
:10464C00AF92BF92CF92DF92EF92FF920F931F9394
:10465C00CF93DF93CDB7DEB7CA1BDB0BCDBFDEBF6D
:02466C000994AF
:10466E002A88398848885F846E847D848C849B84F4
:10467E00AA84B984C884DF80EE80FD800C811B8102
:10468E00AA81B981CE0FD11DCDBFDEBFED01089538
:10469E00A0E0B0E0E5E5F3E20C942E23AE014B5F13
:1046AE005F4FFA0161917191AF01E091D362F09188
:1046BE00D462808191810E947F23E2E00C94472393
:1046CE00A0E0B0E0EDE6F3E20C942E23AE014B5FDA
:1046DE005F4FFA0161917191AF01E091D362F09158
:1046EE00D462808191810E947F23E2E00C94472363
:1046FE00A2E0B0E0E5E8F3E20C942C238C014983B0
:10470E005A83AE014F5F5F4F0E949C1CF8012081BF
:10471E0024FF02C08FEF9FEF2296E4E00C94452316
:10472E000E9405230E94A5248CE592E20E94C725D3
:10473E0088ED93E20E94D1258CEE93E20E94CC2567
:0E474E0085E598E80E9435250E94090EFDCFF2
:10475C001F93CF93DF93EB01142F60E00E9449214C
:10476C00882339F0612FCE010E94D72093E09093DB
:0A477C000409DF91CF911F91089509
:10478600CF93DF9300D0CDB7DEB780EE898386EB7B
:104796008A8342E0BE016F5F7F4F86E70E94AE23A9
:0A47A6000F900F90DF91CF9108955E
:1047B0008091896290918A62A0918B62B0918C62A3
:1047C0000196A11DB11D8093896290938A62A09386
:0847D0008B62B0938C62089526
:1047D8008091856290918662A0918762B09188628B
:1047E8000196A11DB11D8093856290938662A09366
:0847F8008762B0938862089506
:10480000FC014481242F30E02F5F3F4F838190E0F3
:104810002817390741F0A081B181A40FB11D6C9315
:0848200084818F5F84830895F9
:10482800E0E0FBE08FEF9FEF848795871286138681
:1048380086E08183108681E1848381E08583168206
:0648480011868083089533
:10484E00E0E1FBE080EA9FE084879587128613867D
:10485E0086E081831086148281E08583168211861C
:04486E0080830895A6
:10487200092E0394000C11F4882352F0BB0F40F46C
:10488200BF2B11F460FF04C06F5F7F4F8F4F9F4FAC
:02489200089587
:10489400E0E0F6E0808781E082870E94EA258823B1
:1048A400E1F3E0E0F6E08089918921E0258708952D
:1048B40082E00E944A249F938F938EE595E89F930C
:1048C4008F930E944F230F900F900F900F90089595
:1048D400DB018F939F930E940C25BF91AF91A29F00
:1048E400800D911DA39F900DB29F900D11240895EA
:1048F400A29FB001B39FC001A39F700D811D11241D
:0E490400911DB29F700D811D1124911D08950B
:1049120043E068ED80E590E00E94EE2540E068ED1E
:0C49220081E590E00E94EE2580E0089501
:10492E00809105098C7141F490910509937081E095
:0C493E00933019F080E0089581E00895A6
:10494A000E944F25E0E0F9E084E0808381E08283E1
:0C495A009DEF95839FE096838383089572
:10496600CF93C82F0E94A325882331F0E0E0F8E01A
:0C497600948190649483C283CF910895D3
:104982008BE791E80E94601C2FE788E391E02150B9
:0C49920080409040E1F700C00000089554
:10499E00FC01AF014F5F5F4F2081222311F0FA011E
:0C49AE00F8CF9F01281B390BC9010895A8
:1049BA0040E068ED80E191E00E94EE25E0E1F1E05F
:0A49CA0012821382789480E00895B1
:1049D400CF93C82F0E94A3258823E1F3C093020834
:0849E40080E090E0CF910895FE
:1049EC000E9488130E94231C20E030E048EC52E423
:0649FC000E94F22508955F
:104A02000E943F100E94231C20E030E040E85AE35D
:064A12000E94F625089544
:104A18000E947A24A59F900DB49F900DA49F800DAD
:064A2800911D1124089508
:104A2E00EC010E9424260E942326CE010E942526F8
:064A3E00CE010E941026CB
:104A4400FC019381A081B181A90FB11D8C919F5F5D
:044A540093830895AB
:104A58000E9456200E94C12488E894E80E943525C7
:024A68000895AF
:104A6A00E091D362F091D462608171810E941A1F31
:024A7A0008959D
:104A7C009C01215631092A31310510F48F75992783
:024A8C0008958B
:104A8E00E0EBF0E0148285E88083128280E00895E6
:104A9E00E0E0F4E08AE0818388E0838B828B0895E6
:104AAE00B7FF0C940C250E940C25821B930B0895C6
:104ABE009C01215431092A31310508F48062089590
:0E4ACE00FC0160837183428313821482089579
:0E4ADC005058BB27AA270E944E170C9439246D
:0E4AEA000E94EB1E6894B1110C948B25089568
:0E4AF80000240A9416161706180609060895DB
:0E4B060000240A9412161306140605060895DC
:0E4B1400E894BB2766277727CB0197F9089511
:0C4B2200E0E4F1E0808181608083089570
:0C4B2E00E0E4F1E080818E7F8083089538
:0C4B3A0080910408881F8827881F0895B8
:0C4B46008091040885FB882780F9089501
:0C4B520080912408881F8827881F089580
:0C4B5E008091240885FB882780F90895C9
:0C4B6A0082E00E944A240E947A220895F2
:0C4B760097F99F6780E870E060E0089508
:0C4B8200EE0FFF1F0590F491E02D099448
:0A4B8E008093B7629093B862089517
:0A4B98008093B9629093BA62089509
:0A4BA2008093BF629093C0620895F3
:0A4BAC000E94D2220E941C140895FA
:0A4BB600FC0183819481891B08959E
:0A4BC0000E946E2108F481E00895C0
:0A4BCA000E946E2108F48FEF089599
:084BD40080910D068170089527
:084BDC00FC0164BF4083089551
:084BE4000E940D160C94392407
:084BEC000E947C160C94392490
:064BF40080910008089505
:064BFA00809302080895FB
:064C0000809120080895D8
:064C0600809322080895CE
:064C0C000E94E41A089565
:064C12009FEF80EC089505
:044C18000C940000F8
:044C1C009F770895E1
:044C20000E94980056
:024C24000895F1
:024C26000895EF
:024C28000895ED
:024C2A000895EB
:024C2C000895E9
:024C2E000895E7
:024C30000895E5
:024C32000895E3
:024C34000895E1
:024C36000895DF
:024C38000895DD
:024C3A000895DB
:024C3C000895D9
:024C3E000895D7
:024C40000895D5
:024C42000895D3
:024C44000895D1
:024C46000895CF
:024C48000895CD
:024C4A000895CB
:104C4C0068076C094C836A9074A07AC000806888ED
:064C5C0000846C8200815F
:104C6200030000000000000000000000EA24000031
:084C720000000000DCCFD13589
:084C7A000000000000C0153F1E
:084C82000000803F0000C03F6C
:074C8A00286E756C6C290017
:064C9100286E696C290089
:024C9700D562E4
:02000004008278
:090000000000000000D00800001F
:00000001FF
