:100000000C946E000C94A2260C94A2260C94A226AA
:100010000C94A2260C94C51C0C94BB200C94A22614
:100020000C94871E0C94A2260C94A2260C94A22653
:100030000C94A2260C94A2260C941C1F0C944C1F0A
:100040000C94A2260C94A2260C94A2260C94A22610
:100050000C94A2260C94A2260C94A2260C94A22600
:100060000C940C1C0C94A2260C948F200C946320EE
:100070000C94A2260C943A1D0C94A2260C94A22651
:100080000C94A2260C94A2260C94B91E0C94A226C1
:100090006E0E8E0E910E990EB60EF70E140F240FE3
:1000A0002A0F3E0F460F60006221806221623700F6
:1000B0004D78623762488062486270004D8E62708F
:1000C00062778062776284004DB6628462DE80620D
:1000D000DE62E0004DC362E062E6800080910110C4
:1000E0008F7C806080688093011011241FBECFEF49
:1000F000CDBFDFE7DEBFE6EAF0E040E017C0B59134
:10010000A59135912591059107FD0CC0959185919B
:10011000EF01F92FE82F05900D92A217B307D9F739
:10012000FE0104C01D92A217B307E1F7EB3DF407EF
:0E01300031F70E9428240C94A825F894FFCFE4
:10013E0052783A200048574555493A200073797352
:10014E00206765742068776575690D0A000D0A547D
:10015E00783A20000A496E697469616C697A696E31
:10016E006720524E323930332E2E2E0A4669726D6A
:10017E00776172653A20006D616320736176650D5B
:10018E000A000A0A436F6E6669677572696E6720A8
:10019E00524E3239303320466F7220414250206A1F
:1001AE006F696E0A002D2D2D2D2D2D2D2D2D2D2D02
:1001BE002D2D2D2D2D2D2D2D2D2D2D2D2D2D2D2D61
:1001CE002D2D2D2D2D2D2D2D2D2D2D2D2D2D2D2D51
:1001DE002D2D2D2D2D2D2D2D2D2D2D2D2D2D2D2D41
:1001EE002D2D2D2D2D2D2D2D2D2D2D2D0A006D610D
:1001FE0063207365742064657665756920373042B7
:10020E00334435374544303035394242430D0A00C8
:10021E006D61632073657420646576616464722019
:10022E0032363043353135360D0A006D6163207339
:10023E00657420617070736B657920434336433566
:10024E0046343742423830433336413243434630E8
:10025E0031343536393341413635450D0A006D613D
:10026E006320736574206E776B736B6579204545DB
:10027E0038363243313338303938413745353842E4
:10028E0045314534393233373438393536410D0A34
:10029E00006D616320736574206172206F6E0D0AAC
:1002AE00006D61632073657420727864656C61798A
:1002BE003120353030300D0A006D61632073657466
:1002CE0020616472206F6E0D0A000A000A0A436FE5
:1002DE006E6669677572696E6720524E32393033B9
:1002EE0020466F72204F544141206A6F696E0A009A
:1002FE006D61632073657420646576657569203061
:10030E003030344133304230304638394237340D94
:10031E000A006D61632073657420646576616464A0
:10032E00722030303030303030300D0A006D616365
:10033E002073657420617070736B65792030303076
:10034E00303030303030303030303030303030309F
:10035E00303030303030303030303030300D0A0008
:10036E006D616320736574206E776B736B65792096
:10037E00303030303030303030303030303030306F
:10038E00303030303030303030303030303030305F
:10039E000D0A006D616320736574206170706B656A
:1003AE00792042414141373537464445363833434B
:1003BE0037463145354243343434314336393033A0
:1003CE0037450D0A006D616320736574206170708E
:1003DE00657569203030303030303030303030306C
:1003EE00303030300D0A000A0A4A6F696E696E6746
:1003FE002054544E2077697468204F5441410A00AE
:10040E006D61632070617573650D0A0072616469B8
:10041E006F20736574207366207366370D0A006D46
:10042E00616320726573756D650D0A0054783A200C
:10043E006D6163206A6F696E206F7461610A006D71
:10044E006163206A6F696E206F7461610D0A000A24
:10045E000A4A6F696E696E672054544E207769742C
:10046E0068204142500A0054783A206D6163206A38
:10047E006F696E206162700A006D6163206A6F6938
:10048E006E206162700D0A000A50726573732062ED
:10049E007574746F6E20746F207472616E736D69F3
:1004AE00742064617461000A0A5472616E736D691E
:1004BE007474696E6720446174610A002D2D2D2DB0
:1004CE002D2D2D2D2D2D2D2D2D2D2D2D2D2D2D2D4E
:1004DE002D2D2D2D2D2D2D2D2D2D2D2D2D2D2D2D3E
:1004EE002D2D2D2D2D2D2D2D2D2D2D2D2D2D2D2D2E
:1004FE000A000A54783A206D616320747820636E86
:10050E006620313020006D616320747820636E6642
:10051E0020313020000A54783A206D6163207478BF
:10052E0020756E636E6620313120006D616320741C
:10053E007820756E636E66203131200073797320DA
:0D054E00736C65657020313830303030003E
:10055B0025640A000A416674657220313030302000
:10056B004D6F6973747572652052656164696E674E
:10057B0073002D2D2D2D2D2D2D2D2D2D2D2D2D2D87
:10058B002D2D2D2D2D2D2D2D2D2D2D2D2D2D2D2D90
:10059B002D2D2D2D2D2D2D2D2D2D2D2D2D2D2D2D80
:1005AB002D2D2D2D2D2D2D2D2D2D2D2D2D2D2D2D70
:1005BB002D2D2D2D2D2D2D2D2D00546865204D41CC
:1005CB00582072656164696E6720776173202564BA
:1005DB000A00546865204D494E2072656164696E4E
:1005EB0067207761732025640A0A00546865204DE3
:1005FB004158206D61707320746F2025640A00547C
:10060B006865204D494E206D61707320746F2025F5
:10061B00640A000A0A43757272656E742053656E24
:10062B00736F7220446174610A002D2D2D2D2D2DB9
:10063B002D2D2D2D2D2D2D2D2D2D2D2D2D2D2D2DDF
:10064B002D2D2D2D2D2D2D2D2D2D2D2D2D2D2D2DCF
:10065B002D2D2D2D2D2D2D2D2D2D2D2D2D2D2D2DBF
:10066B002D2D2D2D2D2D2D2D2D2D2D2D2D2D2D2DAF
:10067B002D0A0052656C61746976652048756D6949
:10068B00646974793A2025752525200D0A004D6F74
:10069B006973747572653A2025752525200D0A003E
:1006AB0050726573737572653A20257520685061B9
:1006BB000D0A0054656D70657261747572653A2030
:1006CB0025692043200D0A004261747465727920FC
:1006DB004C6576656C3A2025752525200D0A0A0098
:1006EB000A4A534F4E20466F726D61740D00506174
:1006FB00796C6F61643A207B2074656D703A2025AC
:10070B00692C20626174746572793A2025752C20EE
:10071B0068756D69646974793A2025752C206D6F45
:10072B006973747572653A2025752C207072657328
:10073B00737572653A2025752C206E756D54783A59
:10074B002025750D0A0A7D003031323334353637AA
:10075B003839414243444546000A57656174686520
:10076B007220436C69636B204E4F5420696E697421
:10077B0069616C697A65642070726F7065726C79EF
:10078B0021000A496E746572616374697665205441
:10079B0065726D696E616C20697320616374697633
:1007AB00653A20636F6D6D616E647320737563685A
:1007BB00206173202773797320666163746F72797C
:1007CB005245534554272077696C6C006265207342
:1007DB00656E7420746F2074686520524E32393008
:1007EB003320616E6420726573706F6E7365732056
:1007FB0077696C6C2062652061707065617220682E
:10080B006572652E000A5768656E207265616479A2
:10081B002C20707265737320627574746F6E207404
:10082B006F206A6F696E2054544E0A000A656E740D
:10083B006572696E6720736C6565702E2E2E000ACB
:10084B007472616E736D697420657665727920338D
:10085B00206D696E757465732E2E2E00544F444FA8
:10086B003A20205772697465206C6F7720706F7710
:0C087B0065722074657374732E2E2E00BD
:100887000A496E697469616C697A696E6720424DBD
:10089700453238302E2E2E00424D453238302069F1
:0B08A7006E697469616C697A65640019
:1008B20057656C636F6D6520746F207468652041A5
:0A08C2006772692D496F542E0A0079
:1008CC00A2E2B0E0ECE6F4E00C94B12329833A8385
:1008DC004B835C8329013A01E89477F84114510465
:1008EC006104710409F458C669877A878B879C87E1
:1008FC007B018C0161157105A0E88A07AFE39A07AB
:10090C0009F44AC62D873E874F87588B4B015C01F3
:10091C006B017C01E894F7F8B1E0CB16D104B0E898
:10092C00EB06BFE7FB0644F4E1E04E165104E0E8A9
:10093C006E06EFE77E064CF02D853E854F85588977
:10094C00C501B4010E94002632C609851A852B8583
:10095C003C8537FF4DC04114510410E861061BE47F
:10096C0071060CF04AC04114510420E862062FE3D2
:10097C0072060CF470C0D301C20107E1B595A795BE
:10098C00979587950A95D1F78F579109A109B109C8
:10099C0027E130E0281B390BD301C201022E04C021
:1009AC00B595A795979587950A94D2F7AC01BD019B
:1009BC0004C0440F551F661F771F2A95D2F74416A3
:1009CC0055066606770609F046C081709927AA2756
:1009DC00BB2742E050E060E070E08A019B01081BFD
:1009EC00190B2A0B3B0B0D831E832F83388737C0C3
:1009FC001D821E821F82188608C022E030E040E073
:100A0C0050E02D833E834F8358874114510430E8C6
:100A1C0063063FE7730619F5C114D10440E8E406F8
:100A2C004FE3F40609F4B8C55CF0E980FA800B8159
:100A3C001C8117FDB6C56D857E858F859889B7C5D8
:100A4C00E980FA800B811C8117FFABC56D857E8513
:100A5C008F8598898AC01D821E821F821886411438
:100A6C00510400E860060FE3700669F4E980FA802F
:100A7C000B811C8117FF99C5A501940160E070E002
:100A8C0080E89FE365C009811A812B813C810115A7
:100A9C001105210540E4340729F4A5019401C50191
:100AAC00B401C2C089819A81AB81BC810097A10538
:100ABC00BF4359F409851A852B853C8537FD05C044
:100ACC00C501B4010E945D0F72C5C501B4010E943D
:100ADC00A426C114D104E104F10449F09501840168
:100AEC003F730115110520483F4309F040C00981AF
:100AFC001A812B813C8137FF08C09B01AC0160E05F
:100B0C0070E080E89FE30E94882629853A854B8512
:100B1C005C8557FF4CC530E8E31A3FE3F30A0D81BF
:100B2C001E812F813885C02AD12AE22AF32AC114CA
:100B3C00D104E104F10479F421E230E02093006067
:100B4C00309301609B01AC010E94FF259B01AC011D
:100B5C000E9488262CC52D813E814F8158852130DD
:100B6C0031054105510509F022C5905820C509856C
:100B7C001A852B853C8537FF21C02D813E814F8105
:100B8C005885232B242B252B59F481E290E080935C
:100B9C00006090930160A5019401C501B401D4CF0C
:100BAC000D811E812F8138850130110521053105FC
:100BBC0071F420E030E040E85FEB0DC000E010E0A5
:100BCC0020E83FE30D831E832F83388708C020E085
:100BDC0030E040E85FE32D833E834F83588731E05C
:100BEC004316510461043DE473060CF497C048EFBE
:100BFC00C4164FEFD4064FE7E4064FE3F406BCF4FB
:100C0C00E980FA800B811C8117FF4BC32AEC32EF71
:100C1C0049E451E76D817E818F8198850E948C26F5
:100C2C002AEC32EF49E451E70E948C26C0C408E05C
:100C3C00C016D10400E8E0060FE3F00654F0E9809A
:100C4C00FA800B811C811E141F0410061106F4F28D
:100C5C0028C320E030E040E85FE30E94FF256B01F1
:100C6C007C0120E03AEA48EB5FE30E948C264B01C2
:100C7C005C0120E735EA4CEE56E3C701B6010E9451
:100C8C008C2669837A838B839C8320E030E040E858
:100C9C005EE3C701B6010E948C269B01AC016BEA96
:100CAC007AEA8AEA9EE30E94FF25A70196010E9438
:100CBC008C269B01AC0160E070E080E09FE30E9419
:100CCC00FF252B013C01A7019601C701B6010E942B
:100CDC008C269B01AC01C301B2010E948C262BE334
:100CEC003AEA48EB5FE30E948C269B01AC016981D8
:100CFC007A818B819C810E94FF256B017C019B0179
:100D0C00AC01C501B4010E9400266627707F69877B
:100D1C007A878B879C87A501940120C2C114D104CA
:100D2C0000E8E006F1046CF420E030E040E85BE41D
:100D3C000E948C266B017C0148EE5FEF6FEF7FEF1A
:100D4C0003C040E050E0BA01D701C60117E1B595E8
:100D5C00A795979587951A95D1F78F579109A10962
:100D6C00B1098C019D01040F151F261F371F0D8B18
:100D7C001E8B2F8B388FE894E7F8FF244601570120
:100D8C006894A7F81FE3B12A22E7C21624ECD20616
:100D9C002CE1E206F104B4F037EDC31633EBD306C5
:100DAC003DE5E306F1049CF08D899E89AF89B88DF1
:100DBC000196A11DB11D8D8B9E8BAF8BB88F90E8CA
:100DCC00A91AB10819861A861B861C8608C0E12C44
:100DDC00F12C8701E394E986FA860B871C87098539
:100DEC001A85000F111F000F111F09A31AA3F80178
:100DFC00E859FD49E080F18002811381E98AFA8A81
:100E0C000B8B1C8BA8019701C501B4010E94FF2517
:100E1C00698F7A8F8B8F9C8FA8019701C501B401C4
:100E2C000E9400269B01AC0160E070E080E89FE32B
:100E3C000E9488266D8F7E8F8F8F98A39B01AC01AB
:100E4C00698D7A8D8B8D9C8D0E948C2669837A831B
:100E5C008B839C8349805A806B807C80442400EF78
:100E6C00502275016401F594E794D794C794CC246F
:100E7C0010EFD122E894F5F86894F5F8D701C60183
:100E8C00A05CBF4FC984DA84EB84FC84F5E1CC0C04
:100E9C00DD1CEE1CFF1CFA95D1F7C80ED91EEA1EFC
:100EAC00FB1EA7019601C301B2010E948C269B0177
:100EBC00AC01698D7A8D8B8D9C8D0E94FF25698785
:100ECC007A878B879C8729893A894B895C89C701EA
:100EDC00B6010E94FF259B01AC01C501B4010E9423
:100EEC00FF25A30192010E948C269B01AC01698510
:100EFC007A858B859C850E94FF252D8D3E8D4F8D8F
:100F0C0058A10E948C2669877A878B879C872981B8
:100F1C003A814B815C81CA01B9010E948C266B011C
:100F2C007C0122E431EF43E55EE30E948C2625E54B
:100F3C0032E34CE65EE30E940026A70196010E9474
:100F4C008C2625E033EA4BE85EE30E940026A701DD
:100F5C0096010E948C262BEA3AEA4AEA5EE30E944A
:100F6C000026A70196010E948C2627EB3DE64BED4F
:100F7C005EE30E940026A70196010E948C262AE9B6
:100F8C0039E949E15FE30E9400264B015C01A701AE
:100F9C009601C701B6010E948C269B01AC01C501CC
:100FAC00B4010E948C266B017C01A3019201698122
:100FBC007A818B819C810E94002629853A854B85FC
:100FCC005C850E948C26A70196010E9400266B016D
:100FDC007C01A3019201C301B2010E948C26698B92
:100FEC007A8B8B8B9C8B20E030E040E450E40E94A9
:100FFC000026A70196010E9400264B015C01882463
:10100C0020EF9222A5019401C301B2010E948C260B
:10101C002B013C0120E030E040E450E4C501B40178
:10102C000E94FF2529893A894B895C890E94FF25FA
:10103C009B01AC01C701B6010E94FF2529813A81B1
:10104C004B815C810E948C266B017C01A501940173
:10105C0069857A858B859C850E948C269B01AC01C9
:10106C00C701B6010E9400264B015C019B01AC013B
:10107C00C301B2010E9400266B017C01CC2430EF2D
:10108C00D32220E030E446E75FE3C701B6010E94BB
:10109C008C2669837A838B839C83A3019201C7017D
:1010AC00B6010E94FF259B01AC01C501B4010E9451
:1010BC00FF252FE438E346E75FE30E948C264B01C3
:1010CC005C0126EC33E246EF58EBC701B6010E94F7
:1010DC008C269B01AC01C501B4010E940026E9A13C
:1010EC00FAA1E85AFD4920813181428153810E9445
:1010FC0000266B017C016D897E898F89988D0E94F9
:10110C004E1C4B015C0109A11AA1005A1D49D801C2
:10111C004D905D906D907C90A701960169817A81CC
:10112C008B819C810E940026A30192010E940026C3
:10113C00A50194010E9400266627707F69877A8733
:10114C008B879C87A50194010E94FF25A301920126
:10115C000E94FF2529813A814B815C810E94FF25E9
:10116C009B01AC01C701B6010E94FF254B015C013C
:10117C00CD84DE84EF84F888CC24B0EFDB22A70189
:10118C0096016D857E858F8598890E94FF2529851E
:10119C003A854B855C850E948C262B013C012D8564
:1011AC003E854F855889C501B4010E948C269B0150
:1011BC00AC01C301B2010E94002669837A838B8340
:1011CC009C83A701960169857A858B859C850E94F5
:1011DC008C26962EA72EB82E892E6987798B182FE0
:1011EC00092F262F372F482F592F69817A818B8110
:1011FC009C810E9400266B017C016D877E878F8706
:10120C00988B81E0C816D104E10483E4F8060CF055
:10121C00FDCC2D853E854F8558892115310541051D
:10122C005344E9F42CE33AEA48E353E369817A81C5
:10123C008B819C810E9400262B013C01292D3A2D8B
:10124C004B2D582DC701B6010E94FF259B01AC0107
:10125C00C301B2010E947B26181694F5D7CCD70196
:10126C00C601BF770197A641B344DCF42D853E85BA
:10127C004F855889211531054641534C09F5292DC7
:10128C003A2D4B2D582DC701B6010E94FF259B010D
:10129C00AC0169817A818B819C810E94762618161B
:1012AC007CF020E632E442EA5DE06D817E818F8144
:1012BC0098850E948C2620E632E442EA5DE0B4CCAC
:1012CC00D701C601BF7781309105A105EFE3BE07B9
:1012DC000CF46AC057E1B595A795979587955A95E3
:1012EC00D1F78E5740E050E060E870E08A019B0136
:1012FC0004C035952795179507958A95D2F7C00E9A
:10130C00D11EE21EF31E26013701E89477F867E13F
:10131C0075946794579447946A95D1F71FE7411ACF
:10132C005108610871088FEF9FEFAFE7B0E0042C14
:10133C0004C0B595A795979587950A94D2F7809593
:10134C009095A095B0959C01AD012C213D214E218D
:10135C005F21E894E7F8FF246894E7F887E190E0D0
:10136C00841995092601370104C075946794579424
:10137C0047948A95D2F7ED84FE840F85188917FF60
:10138C0008C07094609450944094411C511C611C92
:10139C00711C692D7A2D8B2D982D0E94FF25698744
:1013AC00798B182F092F03C0412C512C3201298124
:1013BC003A814B815C8169857989812F902F0E94BC
:1013CC0000264B015C01882420E8922220E032E7C1
:1013DC0041E35FE3C501B4010E948C266D877E87D3
:1013EC008F87988B29853989412F502FC501B401DE
:1013FC000E94FF259B01AC0169817A818B819C81C4
:10140C000E94FF2528E132E741E35FE30E948C262E
:10141C006B017C012CE83EEB4FEB55E3C501B401AD
:10142C000E948C269B01AC01C701B6010E940026CC
:10143C004B015C019B01AC016D857E858F85988984
:10144C000E9400266B017C012D853E854F855889B5
:10145C000E94FF259B01AC01C501B4010E94FF2530
:10146C0069837A838B839C83A7019601C701B6019C
:10147C000E948C264B015C012CE43BEB41E353E3D3
:10148C000E948C262EE03AEE4DED55E30E94FF258E
:10149C00A50194010E948C2625E533EB4AE858E31C
:1014AC000E940026A50194010E948C2621E63BE0B7
:1014BC0046E35BE30E94FF25A50194010E948C2664
:1014CC002BEA3AEA4AE25EE30E940026A501940167
:1014DC000E948C269B01AC01C701B6010E94FF251E
:1014EC004B015C019B01AC01C701B6010E948C262B
:1014FC006D877E878F87988B20E030E040E050E44A
:10150C00C501B4010E94FF259B01AC016D857E8550
:10151C008F8598890E9488264B015C0129813A812C
:10152C004B815C81C701B6010E948C2629813A81CE
:10153C004B815C810E9400269B01AC01C501B4016A
:10154C000E94FF25A70196010E94FF259B01AC017B
:10155C0060E070E080E89FE30E94FF259301820128
:10156C0047E1000F111F221F331F4A95D1F7060FB9
:10157C00171F281F391F0115110540E824073105D5
:10158C0024F4A2010E94161902C0C901B8012D81D0
:10159C003E814F81588548CB60E070E080E89FE346
:1015AC0006C060E070E0CB0102C0C501B401A29698
:0615BC00E0E10C94CA23DB
:1015C200AEE0B0E0E7EEFAE00C94B2234C016B011E
:1015D20019821A828FEF9FEF8B839C831D821E825A
:1015E2004F83588729873A87A12CB12CD6016D9059
:1015F2007C90F301EA0DFB1D808181110FC0D601A1
:10160200ED93FC938081853209F0D3C13F01BFEF96
:101612006B1A7B0AF6016082718219C0853279F3F6
:10162200B401082E000C990B0E94A91A4FEFA41ABC
:10163200B40ADCCF8C32ACF08D32F9F489819A8114
:10164200816089839A833196D601ED93FC93D6010A
:10165200ED91FC9180818B3269F789819A81846056
:10166200F0CF803221F489819A818860EACF833277
:1016720051F489819A818061E4CF803321F4898198
:101682009A818260DECFB701C6010E9408208D8355
:101692009E8397FF0BC029813A81B1E02B272983D2
:1016A2003A839195819591098D839E8389819A814F
:1016B20080FF03C08D7F89839A83D601ED91FC91CF
:1016C200119780818E3249F43196ED93FC93B701E4
:1016D200C6010E9408208B839C83C6010E94CD22F2
:1016E200582ED601ED91FC918081082E000C990BA9
:1016F2000E94F025893609F443C084F4833609F444
:1017020002C134F4853209F427C18136E1F030C1D7
:101712008436B1F188360CF4D9C02AC1803709F475
:101722009AC03CF48E3609F4BCC08F3609F461C00D
:101732001FC1853709F440C0883709F476C0833762
:1017420009F016C1F3C0652D70E0A701CE010B961A
:101752000E940000892B09F426C1D601ED91FC916B
:101762001197CF0101968D939C932081AE01455F25
:101772005F4FBE016F5F7F4FC4010E94000010C126
:10178200652D70E0970141E050E0CE010B960E947A
:101792008317892B09F407C1F60180819181019693
:1017A20080839183AE01455F5F4FBE016F5F7F4FC4
:1017B200C4010E94CE15F4C0652D70E0970140E08F
:1017C20050E0CE010B960E948317892B09F4EBC0DF
:1017D200D6018D919C91119701968D939C93AE01A8
:1017E200455F5F4FBE016F5F7F4FC4010E94811B47
:1017F200D7C0652D70E0970140E050E0CE010B9616
:101802000E948317892B09F4CEC0F6018081918151
:10181200019680839183AE01455F5F4FBE016F5F8A
:101822007F4FC4010E946F19BBC0652D70E0970104
:1018320040E050E0CE010B960E948317892B09F4F9
:10184200B2C0D601ED91FC911197CF0101968D9313
:101852009C9320811CC0970140E050E060EF70E053
:10186200CE010B960E948317892B09F49CC0F601C6
:10187200808191810196808391838B859C85892BC0
:1018820029F420E030E04EE752E684C028E7AE01BA
:10189200455F5F4FBE016F5F7F4FC4010E945E12C2
:1018A2007FC0A501400F511F652D70E09701CE0149
:1018B2000B960E940000892B09F475C0D6018D9108
:1018C2009C91119701968D939C9373C0652D70E046
:1018D200A701CE010B960E940000892B09F463C078
:1018E200D601ED91FC911197CF0101968D939C93B6
:1018F2002081AE01455F5F4FBE016F5F7F4FC40124
:101902000E9400004DC0B0E85B124DC0F60180811C
:101912009181019680839183D701ED91FC9111977A
:10192200CF0102968D939C93808120C0B0E85B1218
:101932003AC0F60180819181019680839183D7011B
:10194200ED91FC911197CF0102968D939C9340816A
:10195200518120E030E01EC0B0E85B1224C0F601E5
:10196200208131812F5F3F4F208331838B870DC0D0
:1019720085E28B87D6016D927C9219821A821D8232
:101982001E828FEF9FEF8B839C8321E030E0AE01BC
:10199200455F5F4FBE016F5F7F4FC4010E943E21D2
:1019A2008A0D9B1D07C0F60180819181019680837B
:0C19B2009183C5012E96EFE00C94CB232E
:1019BE004F925F926F927F928F929F92AF92BF9251
:1019CE00CF92DF92EF92FF92C0909662D090976284
:1019DE00E0909862F0909962F594E794D794C7944A
:1019EE008AEFD81AE108F108C701B60195958795D7
:1019FE007795679595958795779567959B01AC013A
:101A0E000E94FB244B015C01E0E0F2E6A285B38567
:101A1E009B01AC01012E1DE05595479537952795F5
:101A2E001A95D1F7102D0E94E8252B013C016894E0
:101A3E0012F875946794579447941694D1F7A0852D
:101A4E00B185A70196010E94E825DC01CB01B59571
:101A5E00A79597958795840D951DA61DB71D072EE5
:101A6E0072E1B595A795979587957A95D1F7702DD3
:101A7E009C01AD0130584F4F5F4FA681B7810E9438
:101A8E009D252B013C01032E3FE0759467945794DE
:101A9E0047943A95D1F7302D4114510461047104E5
:101AAE0009F4CEC0A5019401012E1BE05595479572
:101ABE00379527951A95D1F7102DA089B1890E94D7
:101ACE00E8254B015C01A685B785A70196010E940A
:101ADE00E825DC01CB01880F991FAA1FBB1F880EBA
:101AEE00991EAA1EBB1ED501C401B595A795979543
:101AFE008795B595A7959795879584849584092C98
:101B0E00000CAA08BB08540199248824880E991E3B
:101B1E00AA1EBB1E072E7CE0B594A79497948794BB
:101B2E007A95D1F7702D80919A6290919B62A091D7
:101B3E009C62B0919D62A5019401280F391F4A1F26
:101B4E005B1FABECB3EF0E94EB25805B9C439923AC
:101B5E005CF0660F771F881F991FA30192010E94E8
:101B6E008A2269017A010AC0A30192010E948A2287
:101B7E0069017A01CC0CDD1CEE1CFF1CC701B601FD
:101B8E00689412F896958795779567951694D1F780
:101B9E009B01AC010E94FB249B01AC01012E1DE0B8
:101BAE0056954795379527951A95D1F7102DE0E064
:101BBE00F2E6A689B7890E94E8254B015C01072E43
:101BCE007CE0B594A794979487947A95D1F7702D6D
:101BDE00A7019601569547953795279556954795A2
:101BEE0037952795A489B5890E94E825DC01CB019C
:101BFE00072E7DE0B595A795979587957A95D1F7A0
:101C0E00702DB501A401480F591F6A1F7B1F8289D1
:101C1E009389092E000CAA0BBB0B840F951FA61FD0
:101C2E00B71F689413F8B595A79597958795169451
:101C3E00D1F7BC01CD016C0D7D1D8E1D9F1D03C006
:101C4E0060E070E0CB01FF90EF90DF90CF90BF90FF
:101C5E00AF909F908F907F906F905F904F90089570
:101C6E001F93CF93DF938091DA629091DB6280FFB6
:101C7E0021C08091E262843059F08A3079F081304F
:101C8E0081F480E28093A50482E08093E26209C031
:101C9E0083E08093E2620E94282603C083E0809353
:101CAE00E2628091DA629091DB628E7F8093DA62DB
:101CBE009093DB62E091E2628E2F90E08B30910583
:101CCE0008F0F0C0FC01E85BFF4F0C94522680E256
:101CDE008093A5040E94B7180E94AC22811104C003
:101CEE0084E697E80E94C62580E28093A6048DE8DC
:101CFE0097E80E94C62587ED97E80E94C62580E1E9
:101D0E0098E80E94C62581E08093E262CBC00E94D3
:101D1E00E51DC8C00E949C260E94BD2583E08093CD
:101D2E00E262C0C0C0E2C093A60480E792E60E94C1
:101D3E00232260E772E687E392E60E946E1187E344
:101D4E0092E60E943A1B87E398E80E94C6250E94FD
:101D5E00222684E08093E262C093A504A3C0809102
:101D6E008E6290918F62A0919062B0919162843B4D
:101D7E009105A105B10589F58AE498E80E94C6256A
:101D8E000E947126AC019C01ADECBCEC0E940B25AF
:101D9E009695879596958795969587959C01220F92
:101DAE00331F880F991F880F991F880F991F820F55
:101DBE00931F4817590721F483E08093E26203C012
:101DCE0085E08093E2620E94282610928E62109225
:101DDE008F6210929062109291620E94E51D62C015
:101DEE00C5EAD4E010E2188380E792E60E9423222F
:101DFE0060E772E687E392E60E946E1187E392E651
:101E0E000E94C81B87E398E80E94C6250E942226DE
:101E1E0084E08093E262188345C010928E62109225
:101E2E008F6210929062109291620E94EB240E9437
:101E3E0022268AE08093E26235C00E94B7188AE0BB
:101E4E008093E2622FC00E94AC2280E792E60E944D
:101E5E00232280E792E60E94AF1660E772E687E3E0
:101E6E0092E60E946E118AE08093E2621BC087E6C2
:101E7E0098E80E94C6258AE08093E26213C08091A2
:101E8E008E6290918F62A0919062B091916205974F
:101E9E00A105B10529F40E94282686E08093E2620E
:0C1EAE000E94E51DDF91CF911F91089567
:101EBA004F925F926F927F928F929F92AF92BF9250
:101ECA00CF92DF92EF92FF920F931F936B017C01E7
:101EDA00DC01CB01B701A6014427552760787F773B
:101EEA004115510560487F4759F4A7019601C7017A
:101EFA00B6010E948C26A70196010E9400261AC0EC
:101F0A00181619061A061B06D4F0892B8A2B8B2B56
:101F1A0009F4CCC081E290E0809300609093016064
:101F2A00A7019601C701B6010E94FF259B01AC01DA
:101F3A000E948826562F472F382F292FBBC067E1CA
:101F4A00F594E794D794C7946A95D1F7C114D1044C
:101F5A00E104F104E1F4C12CD12C7601A7FD0AC0F9
:101F6A00880F991FAA1FBB1F2FEFC21AD20AE20AB3
:101F7A00F20AF4CF21E0C21AD108E108F108F0947C
:101F8A00E094D094C094C11CD11CE11CF11C2FE731
:101F9A00C21AD108E108F108AF77BB27A068C0FED2
:101FAA0004C0880F991FAA1FBB1FF594E794D79402
:101FBA00C794880F991FAA1FBB1FE9E1F0E040E010
:101FCA0050E060E071E0812C912C540100E010E0B7
:101FDA00980128013901440E551E661E771E841584
:101FEA009505A605B70574F093018201040F151F24
:101FFA00261F371F84199509A609B709840E951E4D
:10200A00A61EB71E880F991FAA1FBB1F7695679534
:10201A00579547953197E9F6892B8A2B8B2BA1F196
:10202A0020E632E442EA5DE060E070E080E89FE3A7
:10203A000E94FF2520E030E040E85FE30E947B2613
:10204A0087FD22C020E632E442EA5DE060E070E00B
:10205A0080E89FE30E94002620E030E040E85FE34A
:10206A000E947B26181634F482E0880E911CA11C6B
:10207A00B11C0AC0D501C40181709927AA27BB27C0
:10208A00880E991EAA1EBB1ED501C401B595A79537
:10209A0097958795B15C37E1CC0CDD1CEE1CFF1CD3
:1020AA003A95D1F7C80ED91EEA1EFB1E5C2D4D2D9E
:1020BA003E2D2F2D652F742F832F922F1F910F9155
:1020CA00FF90EF90DF90CF90BF90AF909F908F904E
:0A20DA007F906F905F904F90089583
:1020E4004F925F926F927F928F929F92AF92BF9224
:1020F400CF92DF92EF92FF928090966290909762D7
:10210400A0909862B09099622CE2921A21E0A20AFF
:10211400B108C0909E62D0909F62E090A062F0905F
:10212400A1620B2EBEE0CC0CDD1CEE1CFF1CBA958C
:10213400D1F7B02DE0E0F2E6848D958D092E000CE8
:10214400AA0BBB0B072E74E1880F991FAA1FBB1F94
:102154007A95D1F7702DC81AD90AEA0AFB0AA68D16
:10216400B78DA50194010E94E825C61AD70AE80A8A
:10217400F90A30E4D30EE11CF11C0B2EBFE0F594F8
:10218400E794D794C794BA95D1F7B02DA38DB0E056
:10219400A50194010E949D252B013C01032E3BE0E7
:1021A40075946794579447943A95D1F7302D40E845
:1021B400540E611C711CA0A10A2E000CBB0BA501BE
:1021C40094010E94E825052E5AE095958795779508
:1021D40067955A95D1F7502DA30192010E94FB24D3
:1021E400DC01CB01072E7AE0B595A79597958795E5
:1021F4007A95D1F7702D9C01AD01405E5F4FA18DA2
:10220400B28D0E94E825DC01CB01905EAF4FBF4F39
:10221400BC01CD01052E5EE0959587957795679570
:102224005A95D1F7502DA70196010E94FB246B010A
:102234007C01052E5FE095958795779567955A956E
:10224400D1F7502D9B01AC010E94FB249B01AC01F2
:10225400689416F855954795379527951694D1F7B0
:10226400A08DB0E00E949D25DC01CB01689413F899
:10227400B595A795979587951694D1F7A7019601DB
:10228400281B390B4A0B5B0BDA01C9011AF480E0F5
:1022940090E0DC0181309105A10539E1B30724F018
:1022A40080E090E0A0E0B9E1BC01CD01052E5CE046
:1022B40095958795779567955A95D1F7502DFF9009
:1022C400EF90DF90CF90BF90AF909F908F907F90D2
:0822D4006F905F904F90089598
:1022DC00CF93DF93CDB7DEB76197CDBFDEBF21E1E2
:1022EC00E3E5F7E8DE01119601900D922A95E1F7EE
:1022FC00DB012C9122952F70E1E0F0E0EC0FFD1F3B
:10230C00E20FF11D2081FC0120832C912F70E1E064
:10231C00F0E0EC0FFD1FE20FF11D2081DC011196A6
:10232C002C931197FB01218122952F70E1E0F0E0B5
:10233C00EC0FFD1FE20FF11D208112962C93DB0197
:10234C0011962C9111972F70E1E0F0E0EC0FFD1F2E
:10235C00E20FF11D2081FC01238312962C91229512
:10236C002F70E1E0F0E0EC0FFD1FE20FF11D20817A
:10237C00DC0114962C931497FB0122812F70E1E061
:10238C00F0E0EC0FFD1FE20FF11D208115962C9350
:10239C00DB0114964C911497242F22952F7030E06A
:1023AC00E1E0F0E0EC0FFD1FE20FF31F2081FC01D8
:1023BC00268314962C9130E02F703327E1E0F0E067
:1023CC00EC0FFD1FE20FF31F2081DC0117962C93FD
:1023DC00DB011396ED91FC911497F295E295EF7059
:1023EC00EF27FF70EF27EF70FF2721E030E02C0F75
:1023FC003D1FE20FF31F2081DC0118962C93DB01AB
:10240C001396ED91FC911497EF70FF2721E030E0CB
:10241C002C0F3D1FE20FF31F2081DC0119962C932A
:10242C001997FB01258122952F70E1E0F0E0EC0F6C
:10243C00FD1FE20FF11D20811A962C93DB011596DE
:10244C002C9115972F70E1E0F0E0EC0FFD1FE20FDF
:10245C00F11D2081FC01238716962C9122952F705B
:10246C00E1E0F0E0EC0FFD1FE20FF11D2081DC013B
:10247C001C962C931C97FB0126812F70E1E0F0E059
:10248C00EC0FFD1FE20FF11D20811D962C931D9763
:10249C002DE01E962C931E972AE01F962C931F97C7
:1024AC0050961C926196CDBFDEBFDF91CF910895FF
:1024BC00AFE0B0E0E4E6F2E10C94AF231C016B0159
:1024CC0049835A832B83FB0182819381848095807D
:1024DC0000811181A680B78097FD02C00D7F02C0DC
:1024EC0081E090E0E981FA814080518062807380C4
:1024FC009801207133272C833D83740104FF08C09D
:10250C00411451046104710419F032E0E31AF1082A
:10251C00F801E870FF27EE83FF8303FF03C0F1E0AF
:10252C00EF1AF108F6010084F185E02D3197EE8762
:10253C00FF87EA0DFB1D10829C012E193F0928878D
:10254C003987C801827099278A879B87EB818E2FE8
:10255C00EE0F990B9C01215431092C873D872E8558
:10256C003F852230310530F48C819D81892B09F017
:10257C0042C05CC0411451046104710461F18E8548
:10258C009F8501978E879F87C2018F7099278A300C
:10259C00910514F4C09602C0895A9F4FEC85FD85B5
:1025AC007A9748F49C012062215631092A31310571
:1025BC0010F40E94CF25EE85FF85EA0DFB1D80836C
:1025CC00F1E0EF1AF10884E07694679457944794FD
:1025DC008A95D1F7C4CF888599858E0D9F1D1816C5
:1025EC0019066CF21E141F040CF0BECFEA85FB8595
:1025FC00EF2B29F6B9CFE981FA8180819181A281F3
:10260C00B381892B8A2B8B2B89F0EE85FF85EA0D04
:10261C00FB1D31972B8120838E859F8502978E879A
:10262C009F87FC01EA0DFB1D80E38083EE81FF8117
:10263C00EF2B59F02E853F85215031092E873F878E
:10264C00F901EA0DFB1D80E28083F601408551857E
:10265C00415051092E853F85421B530BB9016A0D20
:10266C007B1D9401C1010E94AC1D9C01F101808174
:10267C00918190FF06C0F6018281938182179307A6
:0C268C000CF4C9012F96E2E10C94C82365
:102698000F931F93CF93DF93CDB7DEB76897CDBF66
:1026A800DEBF28E1AE014F5F5F4F68E886E70E9412
:1026B800F21A00E012E68A8190E0982F8827298193
:1026C800820F911DF801808391838C8190E0982F6F
:1026D80088272B81820F911D828393838E8190E0BE
:1026E800982F88272D81820F911D84839583888553
:1026F80090E0982F88272F81820F911D86839783DA
:102708008A8590E0982F88272985820F911D8087D8
:1027180091878C8590E0982F88272B85820F911DB3
:10272800828793878E8590E0982F88272D85820F42
:10273800911D84879587888990E0982F88272F8511
:10274800820F911D868797878A8990E0982F88271E
:102758002989820F911D808B918B8C8990E0982F0D
:1027680088272B89820F911D828B938B8E8990E00D
:10277800982F88272D89820F911D848B958B888DA2
:1027880090E0982F88272F89820F911D868B978B31
:1027980021E0AE014F5F5F4F61EA86E70E94F21ABF
:1027A8008981F801808F27E0AE014F5F5F4F61EEAE
:1027B80086E70E94F21A2A8130E0322F2227998177
:1027C800290F311DF801218F328F9B81938F9D81B5
:1027D8002C81F0E12F9F90011124492F4F70242B59
:1027E800F801248F358F2E81F0E12F9F900111245D
:1027F80092959F70292BF801268F378F9F8190A380
:102808006896CDBFDEBFDF91CF911F910F910895DC
:10281800CF93DF9380E094E023E0FC012083C0E4C1
:10282800D4E035E03883A0E6B4E032E13C9360EAD6
:1028380074E030E2FB013083FC01148241E04C83F8
:1028480040E114964C931497FB013483FC01108AE1
:10285800118A128A138A148A158A168A178A188A7C
:10286800198A1A8A1B8A1C8A1D8A1E8A1F8A5096F0
:102878001C92509751961C92519752961C925297BF
:1028880053961C92539754961C92549755961C92A3
:10289800559756961C92569757961C92FB01108A8C
:1028A800118A128A138A148A158A8BE0868B178AF2
:1028B800E0EEF5E0118210821582178210861186EB
:1028C8001682228388EA96E28093BE629093BF6262
:1028D80089EA96E28093BC629093BD628AEA96E2A6
:1028E8008093BA629093BB628BEA96E28093B86257
:1028F8009093B9628CEA96E28093B6629093B7623D
:102908008DEA96E28093B4629093B5628EEA96E27D
:102918008093B2629093B3628FEA96E28093B0623A
:102928009093B16280EB96E28093AE629093AF622F
:1029380081EB96E28093AC629093AD6282EB96E273
:0E2948008093AA629093AB62DF91CF910895C5
:102956008F929F92AF92BF92CF92DF92EF92FF92A9
:102966008091A2629091A362A091A462B091A562A7
:10297600E0E0F2E64081518160E070E06C017D01AB
:10298600689413F8F594E794D794C7941694D1F7FE
:10299600C41AD50AE60AF70A689412F8B595A795F7
:1029A600979587951694D1F7440F551F661F771F85
:1029B6004C015D01841A950AA60AB70AA50194017D
:1029C600A281B3810E94E8254B015C01072E7BE0C2
:1029D600B594A794979487947A95D1F7702DA7010B
:1029E6009601C701B6010E94FB249B01AC01012E92
:1029F6001CE055954795379527951A95D1F7102DD3
:102A0600A481B5810E94E825DC01CB01072E7EE07A
:102A1600B595A795979587957A95D1F7702D880DD9
:102A2600991DAA1DBB1D8093966290939762A093F1
:102A36009862B09399626C017D01CC0CDD1CEE1C92
:102A4600FF1CCC0CDD1CEE1CFF1C8C0D9D1DAE1D51
:102A5600BF1D80589F4FAF4FBF4F692F7A2F8B2FC7
:102A6600992787FD9A95FF90EF90DF90CF90BF90C2
:082A7600AF909F908F9008952E
:102A7E00CF93DF93CDB7DEB72897CDBFDEBF28E06B
:102A8E00AE014F5F5F4F67EF86E70E94F21A8F81AC
:102A9E0090E0A0E0B0E0BA2FA92F982F88272885C4
:102AAE00822B80939E6290939F62A093A062B093BC
:102ABE00A1628C8190E0A0E0B0E0AC01BD01032EDC
:102ACE003CE0440F551F661F771F3A95D1F7302D06
:102ADE009D81892F90E0A0E0B0E0880F991FAA1F7A
:102AEE00BB1F880F991FAA1FBB1F880F991FAA1FF4
:102AFE00BB1F880F991FAA1FBB1F842B952BA62BBC
:102B0E00B72B2E8122952F70822B8093A2629093E9
:102B1E00A362A093A462B093A562898190E0A0E025
:102B2E00B0E0AC01BD01032E3CE0440F551F661F03
:102B3E00771F3A95D1F7302D9A81892F90E0A0E03A
:102B4E00B0E0880F991FAA1FBB1F880F991FAA1FDD
:102B5E00BB1F880F991FAA1FBB1F880F991FAA1F83
:102B6E00BB1F842B952BA62BB72B2B8122952F7059
:102B7E00822B80939A6290939B62A0939C62B093F7
:0E2B8E009D622896CDBFDEBFDF91CF910895E6
:102B9C00A2E0B0E0E4EDF5E10C94AF233C016B0155
:102BAC00FB0122813381A480B5808081918189834E
:102BBC009A8386809780FA012080318042805380EE
:102BCC00B201A10157FE07C044275527BA0142198B
:102BDC0053096409750937FD03C08D7F89839A8376
:102BEC00950157FC05C0898182FD02C083FF02C09C
:102BFC0021503109CE0101967C010AE010E0C6019A
:102C0C000E94521857FC03C0298122FF0AC0019769
:102C1C00F401E80FF91F57FC02C02BE209C02DE2AA
:102C2C0007C023FF06C00197F401E80FF91F20E24B
:102C3C00208309811A81F601408551854150510943
:102C4C00481B590BB401680F791F9501C3010E94F1
:102C5C00AC1D9C01F3018081918190FF06C0F601AF
:102C6C0082819381821793070CF4C9012296E2E1C9
:042C7C000C94C823C9
:102C800010C00E94142658F00E940D2640F029F42E
:102C90005F3F29F00C944C2651110C941C260C9487
:102CA0009F260E94682268F39923B1F3552391F37C
:102CB000951B550BBB27AA2762177307840738F0AB
:102CC0009F5F5F4F220F331F441FAA1FA9F335D008
:102CD0000E2E3AF0E0E832D091505040E695001CBC
:102CE000CAF72BD0FE2F29D0660F771F881FBB1F76
:102CF000261737074807AB07B0E809F0BB0B802D54
:102D0000BF01FF2793585F4F3AF09E3F510578F07F
:102D10000C944C260C941C265F3FE4F3983ED4F3AD
:102D2000869577956795B795F7959F5FC9F7880F53
:102D3000911D9695879597F90895E1E0660F771FA5
:102D4000881FBB1F621773078407BA0720F0621B36
:0E2D5000730B840BBA0BEE1F88F7E095089505
:102D5E00CF93DF93EC018EE196E80E94462285E345
:102D6E0096E80E94462289811F928F938EE796E8FD
:102D7E009F938F930E94E0238A811F928F9389E9FC
:102D8E0096E89F938F930E94E0238C818F938B8183
:102D9E008F938BEA96E89F938F930E94E02388810E
:102DAE00282F082E000C330B3F938F938EEB96E853
:102DBE009F938F930E94E0238D811F928F9383EDBB
:102DCE0096E89F938F930E94E0238BEE96E80E94E5
:102DDE00C6258DE795E80E94C6258E811F928F939A
:102DEE008C818F938B818F938A811F928F93898190
:102DFE001F928F938D811F928F938881282F082E7B
:102E0E00000C330B3F938F9389EF96E89F938F932C
:102E1E000E94E0238DB79EB782968DBF9EBFDF9135
:042E2E00CF910895A3
:102E32000FC00E940D2638F00E94142620F0952320
:102E420011F00C944C260C949F2611240C941C26F1
:102E52000E94682270F3959FC1F3950F50E0551FB1
:102E6200629FF001729FBB27F00DB11D639FAA27DD
:102E7200F00DB11DAA1F649F6627B00DA11D661F2C
:102E8200829F2227B00DA11D621F739FB00DA11D4D
:102E9200621F839FA00D611D221F749F3327A00D07
:102EA200611D231F849F600D211D822F762F6A2FA3
:102EB20011249F5750409AF0F1F088234AF0EE0F08
:102EC200FF1FBB1F661F771F881F91505040A9F735
:102ED2009E3F510580F00C944C260C941C265F3FBB
:102EE200E4F3983ED4F3869577956795B795F79571
:102EF200E7959F5FC1F7FE2B880F911D96958795E9
:042F020097F908959E
:102F0600CF93DF93DC01F90168387105F1F05CF4C9
:102F16006138710561F164387105A1F16038710598
:102F260009F051C02FC0603C710509F441C0603FF3
:102F36007105F1F1603A710509F045C0C081D18192
:102F4600CE0102968083918325C0C081D181CE01B6
:102F5600029680839183452B39F04881042E000C1C
:102F6600550B660B770B1CC0488150E029C0C08109
:102F7600D181CE01049680839183488159816A81EB
:102F86007B810EC0C081D181CE0102968083918360
:102F9600452BA1F048815981052E000C660B770B55
:102FA6004D935D936D937C93139781E090E00DC0F4
:102FB600C081D181CE010296808391834881598157
:102FC60060E070E0EDCF80E090E0DF91CF91089572
:102FD60011C00E940D2638F00E94142620F039F404
:102FE6009F3F19F426F40C949F260EF4E095E7FB18
:102FF6000C944C26E92F0E94682258F3BA176207F0
:1030060073078407950720F079F4A6F50C941B2620
:103016000EF4E0950B2EBA2FA02D0B01B9019001ED
:103026000C01CA01A0011124FF27591B99F0593F31
:1030360050F4503E68F11A16F040A22F232F342F79
:103046004427585FF3CF469537952795A795F040C7
:103056005395C9F77EF41F16BA0B620B730B840BDC
:10306600BAF09150A1F0FF0FBB1F661F771F881F94
:10307600C2F70EC0BA0F621F731F841F48F48795EC
:1030860077956795B795F7959E3F08F0B0CF9395DE
:0E309600880F08F09927EE0F979587950895FB
:1030A400A0E0B0E0E8E5F8E10C94B123DC012801EC
:1030B4001696AD90BC901797F70180819181129676
:1030C400ED91FC9113971896CD91DC911997219766
:1030D400F7FF02C0E1E0F0E0CA0DDB1D18826901D0
:1030E400A1E0B0E08F01021B130B4C01F2E08F2230
:1030F4009924052C000C66087708CE018A199B09CF
:10310400CA15DB0519F1411551056105710589F0F1
:10311400CB01BA01A30192010E948A22CA01A62FFF
:10312400B72F605D6A9341E0C41AD108A901BC01BC
:10313400E4CF98012C0D3D1D121613064CF31C14FC
:103144001D0434F48114910419F702C080E090E066
:10315400AB2B31F4F701208131812F7E2083318321
:0A316400CDB7DEB7E0E10C94CA23FA
:10316E00CF9382E691E89F938F930E94F8234FEFBF
:10317E0062E070E689E892E60E94F8254FEF61E082
:10318E0071E684E892E60E94F82582E08093660458
:10319E002FE739EA93E0215030409040E1F700C02C
:1031AE000000809365042FE738E381E02150304022
:1031BE008040E1F700C0000084E0809345040F904A
:1031CE000F900E943A26882339F00E949626682F87
:1031DE0084E892E60E94912484E892E60E946C268E
:1031EE00882379F30E943426882359F384E892E6E3
:1031FE000E94B325C82F0E944425CA3011F78AE0D9
:10320E000E9444259FE728E331E091502040304052
:0E321E00E1F700C000000E94161ACF9108953B
:10322C000F931F93CF93DF93EA0140385105D4F0ED
:10323C0020E030E040E05FE70E948C269E012F5793
:10324C003109203831056CF120E030E040E05FE7D7
:10325C000E948C26CE5FD109C038D1051CF1CFE776
:10326C00D0E020C042385F4FECF420E030E040E882
:10327C005CE00E948C269E012A593F4F22384FEF6A
:10328C0034077CF420E030E040E85CE00E948C26BF
:10329C00C453DF4FC2382FEFD20724F4C2E8DFEF5C
:1032AC0001C0E9019E0121583F4F8901330F220BC8
:1032BC00330BA9019801E7E1220F331F441F551F5F
:1032CC00EA95D1F70E948C26DF91CF911F910F9137
:0232DC00089553
:1032DE00A2E0B0E0E5E7F9E10C94B3234C016B01F9
:1032EE00FB01228133816480758080819181898385
:1032FE009A83A680B78037FD03C08D7F89839A831A
:10330E00FA014081518162817381CE0101967C0167
:10331E0008E010E09301C6010E945218298124FF93
:10332E0006C00197F501E80FF91F20E320832981DC
:10333E0023FF06C00197F501E80FF91F20E2208355
:10334E0009811A81F6014085518541505109481B6A
:10335E00590BB501680F791F9301C4010E94AC1D72
:10336E009C01F4018081918190FF06C0F60182815B
:10337E009381821793070CF4C9012296EEE00C9408
:02338E00CC234E
:1033900040E068ED80E690E00E94842640E068ED21
:1033A00081E690E00E94842640E068ED85E690E0AA
:1033B0000E94842640E068ED88E790E00E94842621
:1033C0004CE068ED88E690E00E94842640E068EDDD
:1033D00089E690E00E94842640E068ED80E790E076
:1033E0000E94842640E068ED8CE790E00E948426ED
:1033F00040E068ED82E690E00E94842640E068EDBF
:1034000083E690E00E94842640E068ED84E690E048
:103410000E94842640E068ED80E890E00E948426C7
:0C342000E0E6F0E0858181FFFDCF08951B
:10342C00CF9383E491E80E9446226BE471E889E82B
:10343C0092E60E9436200AC00E944026882331F072
:10344C0089E892E60E94B3250E94992689E892E6C3
:10345C000E946C268111F0CFC0E01FC00E943A265A
:10346C00882339F00E949626682F84E892E60E9401
:10347C00912484E892E60E946C26882379F30E94BA
:10348C003426882359F384E892E60E94B325C1E0E0
:10349C008A3009F0C0E00E944425CC23F9F22FE7D2
:1034AC0088E391E0215080409040E1F700C000009B
:0434BC00CF9108950F
:1034C0008F929F92AF92BF92CF92DF92EF92FF9234
:1034D0000E94DF0C4B015C010E94872524E036E549
:1034E0004AE150E40E94002623E333E948E853E42C
:1034F0000E9400269B01AC0164E076E58AE190E43D
:103500000E9488269B01AC0160E070E080E89FE3A8
:103510000E94FF2528E539E348EA50EC0E94660442
:103520006B017C01C501B4010E944C1C20E030E01D
:1035300048EC52E40E948826A70196010E948C263E
:10354000FF90EF90DF90CF90BF90AF909F908F90C3
:023550000895DC
:103552000F931F93CF93DF93DB012D913C91119732
:1035620030FF25C016964D915C91179714962D91B8
:103572003C9115974217530778F41296ED91FC91FE
:103582001397808312962D913C9113972F5F3F4F93
:1035920012962D933C93139716962D913C91179763
:1035A2002F5F3F4F16962D933C93179715C01C968D
:1035B200ED91FC911D97309719F48FEF9FEF0CC09E
:1035C2008B01EC010995892BC1F7F801868197815E
:1035D200019686839783CE01DF91CF911F910F9140
:0235E20008954A
:1035E400EF92FF920F931F93CF93DF930F92CDB778
:1035F400DEB769838A01E22E60E00E94DA21F82EA8
:10360400882369F161E0CE0101960E946821F82EB9
:10361400811104C083E08093040921C0E0E0F9E053
:1036240087818160878381E08483858185FD0AC0E9
:10363400858182FD07C0858183FD04C085818370F7
:10364400833099F70E942825882329F083E080930A
:103654000409F12C04C06E2DC8010E9413218F2D82
:103664000F90DF91CF911F910F91FF90EF900895EC
:10367400CF93DF93EC018091DC629091DD6201963F
:103684008093DC629093DD6285EB94E80E9446228D
:103694008AEC94E80E94462280E095E80E94462243
:1036A400CE010E94462264E175E889E892E60E9410
:1036B4003620BE0189E892E60E9436200AC00E94A4
:1036C4004026882331F089E892E60E94B3250E94BF
:1036D400992689E892E60E946C268111F0CF2FE7A3
:1036E40088E391E0215080409040E1F700C0000061
:0E36F4000E94521E0E945225DF91CF91089530
:10370200A2E0B0E0E7E8FBE10C94B3235C016B01BB
:10371200FB0122813381848095808081918189831C
:103722009A836680778037FD03C08D7F89839A8371
:10373200FA014081518162817381CE0101967C013F
:103742000AE010E09401C6010E94521809811A8110
:10375200F6014085518541505109481B590BB3016F
:10376200680F791F9401C5010E94AC1D9C01F501EF
:103772008081918190FF06C0F60182819381821738
:0E37820093070CF4C9012296EEE00C94CC23C0
:10379000CF93DF93EC018091DC629091DD62019622
:1037A0008093DC629093DD6285EB94E80E94462270
:1037B0008AEC94E80E94462283E295E80E94462221
:1037C000CE010E94462269E375E889E892E60E94EC
:1037D0003620BE0189E892E60E9436200AC00E9487
:1037E0004026882331F089E892E60E94B3250E94A2
:1037F000992689E892E60E946C268111F0CF8FE02D
:1038000097E20197F1F700C000000E94521E0E944B
:083810005225DF91CF910895CC
:103818001F920F920FB60F9211242F933F934F933D
:103828005F936F937F938F939F93AF93BF93EF9320
:10383800FF937A9B05C0E091BA62F091BB6209954B
:103848007D9B05C0E091B862F091B96209957C9BB7
:1038580005C0E091B662F091B7620995799B05C001
:10386800E091AC62F091AD6209958FEF8FB9FF914D
:10387800EF91BF91AF919F918F917F916F915F91E0
:103888004F913F912F910F900FBE0F901F90189559
:10389800E89409C097FB3EF49095809570956195E2
:1038A8007F4F8F4F9F4F9923A9F0F92F96E9BB2798
:1038B8009395F695879577956795B795F111F8CF14
:1038C800FAF4BB0F11F460FF1BC06F5F7F4F8F4F7F
:1038D8009F4F16C0882311F096E911C0772321F075
:1038E8009EE8872F762F05C0662371F096E8862F0D
:1038F80070E060E02AF09A95660F771F881FDAF764
:0A390800880F9695879597F90895AA
:10391200A2E8B0E0EFE8FCE10C94B5235C014A01B7
:10392200CF57DF4F68837983C158D040C12CD12C47
:10393200CF57DF4FE881F981C158D0408081882379
:10394200E9F07401860120E830E0AE014F5F5F4F7D
:10395200BE016F577F4FC5010E94E10A8C0D9D1D6C
:103962008C159D054CF48FE490E080930060909359
:1039720001608FEF9FEF03C06C01DACFC601CE5713
:08398200DF4FECE00C94CE23B2
:10398A001F920F920FB60F9211242F933F934F93CA
:10399A005F936F937F938F939F93AF93BF93EF93AD
:1039AA00FF938091430180FF07C0E091C662F091C6
:1039BA00C762309709F009958091430181FF07C0DA
:1039CA00E091C462F091C562309709F0099583E0ED
:1039DA0080934301FF91EF91BF91AF919F918F9196
:1039EA007F916F915F914F913F912F910F900FBEF1
:0639FA000F901F901895CC
:103A0000CF93DF938EE391E80E944622C0E00E94AC
:103A10003A26882339F00E949626682F84E892E699
:103A20000E94912484E892E60E946C26882389F003
:103A30000E943426882351F084E892E60E94B32540
:103A4000D82F0E944425DA3009F4CF5FC130F9F64F
:103A500002C0C130E1F68AE00E9444252FE78AE1E6
:103A600096E0215080409040E1F700C00000DF91D7
:043A7000CF91089555
:103A74001F920F920FB60F9211242F933F934F93DF
:103A84005F936F937F938F939F93AF93BF93EF93C2
:103A9400FF93599B05C0E091BE62F091BF62099506
:103AA400589B05C0E091BC62F091BD6209955A9B98
:103AB40005C0E091AE62F091AF6209958FEF8BB9CA
:103AC400FF91EF91BF91AF919F918F917F916F91F2
:103AD4005F914F913F912F910F900FBE0F901F90C8
:023AE400189533
:103AE600FF920F931F93CF93DF938C018BE591E8A1
:103AF6000E944622C8010E944622B80189E892E641
:103B06000E943620F12C11C089E892E60E946C26AC
:103B1600882371F00E944026882351F089E892E6B6
:103B26000E94B3250E949926F394E801CF0DD11D7A
:103B360088818111E9CF8FE097E20197F1F700C004
:103B460000000E94001DDF91CF911F910F91FF9001
:023B56000895D0
:103B5800A0E0B0E0E2EBFDE10C94B5236C015B0161
:103B68007A01E901480181E08822992400FD03C017
:103B78004217530750F0A701B501C6010E9446231A
:103B8800EC16FD0610F0C70117C08E010E191F09AB
:103B98000115110541F0B60180E290E00E94A91AD2
:103BA80001501109F5CF8114910429F4A701B50139
:103BB800C6010E944623CE01CDB7DEB7ECE00C94D7
:023BC800CE230A
:103BCA000E942E26882339F00E949026682F89E8C1
:103BDA0092E60E9491240E943A26882339F00E9494
:103BEA009626682F84E892E60E94912484E892E659
:103BFA000E946C26882351F00E943426882331F0D3
:103C0A0084E892E60E94B3250E94932689E892E608
:103C1A000E946C26882351F00E944026882331F0A6
:0E3C2A0089E892E60E94B3250E94992608952B
:103C380080E991E80E94462283EB91E80E9446229F
:103C48008CEF91E80E94731D8EE192E80E94731D2B
:103C580089E392E80E94731D8CE692E80E94731D26
:103C68008FE992E80E94731D8FEA92E80E94731D03
:103C780087EC92E80E94731D85E891E80E94731D05
:103C880088ED92E80E9446222FE788E391E02150D0
:0C3C980080409040E1F700C0000008955B
:103CA400CF93DF938EE391E80E944622C0E00E9406
:103CB4003A26882339F00E949626682F84E892E6F3
:103CC4000E94912484E892E60E946C268823C1F025
:103CD4000E943426882389F084E892E60E94B32562
:103CE400D82F0E944425DA3041F4CF5FC13029F443
:103CF4008EE391E80E944622DACFC230C1F602C0B8
:0A3D0400C230A9F6DF91CF910895B7
:103D0E001F920F920FB60F9211242F933F934F9342
:103D1E005F936F937F938F939F93AF93BF93EF9325
:103D2E00FF93189B05C0E091B262F091B3620995C2
:103D3E00199B05C0E091B062F091B16209958FEFC9
:103D4E0083B9FF91EF91BF91AF919F918F917F9129
:103D5E006F915F914F913F912F910F900FBE0F90EA
:043D6E001F901895F5
:103D72001F920F920FB60F9211242F933F934F93DE
:103D82005F936F937F938F939F93AF93BF93EF93C1
:103D9200FF93BE9B05C0E091B462F091B5620995B4
:103DA200BD9B05C0E091AA62F091AB6209958FEFCD
:103DB20087BBFF91EF91BF91AF919F918F917F91BF
:103DC2006F915F914F913F912F910F900FBE0F9086
:043DD2001F90189591
:103DD600CF93DF93CDB7DEB72697CDBFDEBF85EF96
:103DE60089838091E5628A8342E0BE016F5F7F4FDF
:103DF60086E70E943F2482EF8B838091E4628C8366
:103E060042E0BE016D5F7F4F86E70E943F2484EF4C
:103E16008D838091E3628E8342E0BE016B5F7F4FAC
:103E260086E70E943F242696CDBFDEBFDF91CF9165
:023E36000895ED
:103E38001F920F920FB60F9211242F933F934F9317
:103E48005F936F937F938F939F93AF93BF93EF93FA
:103E5800FF938091060B80FF0AC0E091C062F09149
:103E6800C162309709F0099581E08093060BFF91B4
:103E7800EF91BF91AF919F918F917F916F915F91DA
:103E88004F913F912F910F900FBE0F901F90189553
:103E98001F920F920FB60F9211242F933F934F93B7
:103EA8005F936F937F938F939F93AF93BF93EF939A
:103EB800FF938091160B80FF0AC0E091C862F091D1
:103EC800C962309709F0099581E08093160BFF913C
:103ED800EF91BF91AF919F918F917F916F915F917A
:103EE8004F913F912F910F900FBE0F901F901895F3
:103EF8000E94702288F09F5798F0B92F9927B751E0
:103F0800B0F0E1F0660F771F881F991F1AF0BA9575
:103F1800C9F714C0B13091F00E941B26B1E0089592
:103F28000C941B26672F782F8827B85F39F0B93F84
:103F3800CCF3869577956795B395D9F73EF4909528
:0E3F48008095709561957F4F8F4F9F4F089524
:103F56000F931F93CF93DF938C010F5F1F4FFC01CD
:103F66008081FB0124853585232B11F0EB0109C0E7
:103F76008FEF9FEF17C00995892BD1F7F801819133
:103F86008F01EC85FD85BE018111F5CF8AE009958B
:103F960021E030E0892B11F420E030E088279927D2
:0E3FA600821B930BDF91CF911F910F91089515
:103FB400E0E0F8E083E896E080879187158280EC62
:103FC400868383E08783138614861686158683EB9F
:103FD40096E28093CE629093CF6284EB96E28093D4
:103FE400CC629093CD6285EB96E28093CA62909303
:103FF400CB621092D0621092D162E091DE62F091B5
:0C400400DF6288E492E6808391830895D7
:10401000DC01ED91FC91119780818A3221F080E0E2
:1040200090E03AE00EC03196ED93FC93DB01ED9108
:10403000FC911197CF0102968D939C938081918181
:104040000895ED91FC911197208120532A3068F456
:10405000389FA001399F500D1124CA01820F911D74
:0C4060003196ED93FC931197ECCF08957E
:10406C00CF93DF93FC01EB0188819481492F50E0C1
:10407C004F5F5F4F238130E042175307D9F08823FD
:10408C00C9F070E0A081B181A90FB11D8C9394810E
:10409C009F5F94837F5FDE01A70FB11D8C91492F29
:1040AC0050E04F5F5F4F238130E04217530711F010
:0A40BC008111E8CFDF91CF91089544
:1040C6001F920F920FB60F9211242F933F934F9387
:1040D6005F936F937F938F939F93AF93BF93EF936A
:1040E600FF9382E080930D06E091A862F091A962A9
:1040F600309709F00995FF91EF91BF91AF919F918C
:104106008F917F916F915F914F913F912F910F907A
:084116000FBE0F901F901895D9
:10411E001F920F920FB60F9211242F933F934F932E
:10412E005F936F937F938F939F93AF93BF93EF9311
:10413E00FF9381E080930D06E091A662F091A76255
:10414E00309709F00995FF91EF91BF91AF919F9133
:10415E008F917F916F915F914F913F912F910F9022
:08416E000FBE0F901F90189581
:104176001F920F920FB60F9211242F933F934F93D6
:104186005F936F937F938F939F93AF93BF93EF93B9
:10419600FF93E091C262F091C362309709F00995EE
:1041A60081E080935301FF91EF91BF91AF919F9171
:1041B6008F917F916F915F914F913F912F910F90CA
:0841C6000FBE0F901F90189529
:1041CE008DE594E80E94462283EB91E80E944622F8
:1041DE0085E794E80E94462267E874E889E892E64B
:1041EE000E9436200AC00E944026882331F089E8BA
:1041FE0092E60E94B3250E94992689E892E60E94D3
:10420E006C268111F0CF8FE097E20197F1F700C095
:08421E0000000E94521E0895E9
:1042260020E2209305096623D1F0A82FB92F90E04C
:10423600E0E0F9E022E0858185FD17C0858182FDF9
:1042460007C0858183FD04C085818370833099F71B
:1042560080858D939F5F691711F02483ECCF87E0EB
:104266008093040908952483E6CF80858D939F5F0C
:064276006913F9CFF4CF3B
:10427C00A0E0B0E0E4E4F1E20C94B7237C01FB0194
:10428C00EA01C901A280B380C480D580008111816C
:10429C00209711F4C7E7D2E6009719F4CE010E94DB
:1042AC006025B7FC04C0A816B90608F4C501960130
:1042BC00AC01BE01C7010E94AC1DCDB7DEB7EAE070
:0442CC000C94D0235B
:1042D000662309F1DC016150262F30E02F5F3F4F4C
:1042E000280F391FE0E0F9E09D919087958195FDB9
:1042F0000AC0958192FD07C0958193FD04C0958108
:104300009370933099F7958194FD07C0A217B30776
:0E43100059F781E0089581E0089580E0089556
:10431E00E0E2F8E086E191E080879187158280ECFB
:10432E00868383E08783138614861686158686EB2E
:10433E0096E28093D6629093D76287EB96E2809353
:10434E00D4629093D56288EB96E28093D26290937A
:0C435E00D3621092D8621092D9620895C8
:10436A00E0E0F2E0108A118A128A138A8EE4848BC2
:10437A00158A10A610A211A212A213A214A215A2A3
:10438A0016A217A211A617A610AA85E081AB12AA37
:10439A0013AA14AA15A616A612A613A614A615AA37
:0A43AA0016AA17AA10AE80E00895CD
:1043B4009091050993709330E1F0880F682B609316
:1043C4000709E0E0F9E0858185FD0AC0858182FD69
:1043D40007C0858183FD04C085818370833099F78C
:1043E4000E942825882339F083E08093040980E023
:0A43F400089580E0089581E0089527
:1043FE00990F0008550FAA0BE0E8FEEF16161706E8
:10440E00E807F907C0F012161306E407F50798F04F
:10441E00621B730B840B950B39F40A2661F0232B68
:10442E00242B252B21F408950A2609F4A140A695E4
:08443E008FEF811D811D08951F
:10444600CF93DF93EC010E9467260E9487250E9486
:10445600062668830E94601A0E947C1F6B837C83F9
:104466000E9492250E947C1F69830E9446268A83A9
:1044760084E68D830E9471268E83CE010E94AF163C
:06448600DF91CF910895C3
:10448C00CF92DF92FF920F931F93CF93DF936C0128
:10449C00F12C09C00E943426882341F0F801808158
:1044AC000E944425F394E601CF0DD11D8E01888125
:1044BC008111F0CFDF91CF911F910F91FF90DF9081
:0444CC00CF900895F0
:1044D00057FD9058440F551F59F05F3F71F04795B5
:1044E000880F97FB991F61F09F3F79F0879508959A
:1044F000121613061406551FF2CF4695F1DF08C0B9
:10450000161617061806991FF1CF869571056105D5
:04451000089408956E
:10451400A1E21A2EAA1BBB1BFD010DC0AA1FBB1FC3
:10452400EE1FFF1FA217B307E407F50720F0A21B35
:10453400B30BE40BF50B661F771F881F991F1A94A2
:1045440069F760957095809590959B01AC01BD01CC
:04455400CF010895F6
:1045580087E898E80E94C6250E9454248FE493ECCB
:104568000197F1F700C000000E944C138091E562AA
:1045780081788093E56285E28093E36281E08093AD
:10458800E4620E94EB1E8FE998E80E94C62581E04C
:02459800089584
:10459A00CF93DF93EC0190E0E92FF0E0EE0FFF1FDD
:1045AA00EF5DFD498081811102C081810EC0A88121
:1045BA00B9812C91821305C091811196A883B98380
:1045CA0001C09F5F9B3040F3892FDF91CF910895FF
:1045DA008091A80486FF16C080E28093A50480918A
:1045EA00DA629091DB6281608093DA629093DB6297
:1045FA008091DA629091DB628F7E8093DA62909387
:0C460A00DB62089580E28093A60408950E
:10461600833F2DE0920710F082EF9DE0803629E07F
:10462600920710F480E699E0BC016056794080E07C
:1046360090E00E944C1C25EE3AE04FEA5DE30E94B2
:0C4646008C260E947C1F84E6861B0895D1
:10465200E0E4F1E081818111FDCFE0E4F1E08FEF50
:1046620093E084879587108611868287938781E0FD
:104672008783128281898111FDCFE0E4F1E081E03C
:0A468200828B89E4808B80E00895AC
:10468C00A0E0B0E0ECE4F3E20C94B9236C01EB0194
:10469C008A017B01E40EF51ECE15DF0541F08991F0
:1046AC00B601082E000C990B0E94A91AF5CFC8016F
:0A46BC00CDB7DEB7E8E00C94D2237E
:1046C600CF93DF9300D0CDB7DEB78091E3628C7FC6
:1046D60081608093E36294EF99838A8342E0BE010E
:1046E6006F5F7F4F86E70E943F240F900F90DF9108
:0446F600CF910895C3
:1046FA00E0E0F6E011821282138214821686138693
:10470A00148681E0808780E481878FEF85838FEF2D
:10471A009FE0848B958B128A138A83E0808380E0E2
:02472A000895F0
:10472C000E940C140E947D230E94C8190E94B5217E
:10473C000E9429230E941A250E94A5240E94B824B5
:10474C000E94DA1F0E948F210E94D8250E946E259C
:02475C000895BE
:10475E002F923F924F925F926F927F928F929F9283
:10476E00AF92BF92CF92DF92EF92FF920F931F9371
:10477E00CF93DF93CDB7DEB7CA1BDB0BCDBFDEBF4A
:02478E0009948C
:104790002A88398848885F846E847D848C849B84D1
:1047A000AA84B984C884DF80EE80FD800C811B81DF
:1047B000AA81B981CE0FD11DCDBFDEBFED01089515
:1047C000A0E0B0E0E6EEF3E20C94BF23AE014B5F55
:1047D0005F4FFA0161917191AF01E091DE62F0915A
:1047E000DF62808191810E941024E2E00C94D82342
:1047F000A0E0B0E0EEEFF3E20C94BF23AE014B5F1C
:104800005F4FFA0161917191AF01E091DE62F09129
:10481000DF62808191810E941024E2E00C94D82311
:10482000A2E0B0E0E6E1F4E20C94BD238C01498300
:104830005A83AE014F5F5F4F0E94891CF8012081AF
:1048400024FF02C08FEF9FEF2296E4E00C94D62362
:104850000E9496230E94362589E694E20E946226F1
:104860008DEE92E20E9458268DE794E20E945D262A
:0E48700082EB98E80E94C6250E94370EFDCF0D
:10487E001F93CF93DF93EB01142F60E00E94DA2198
:10488E00882339F0612FCE010E94682193E0909326
:0A489E000409DF91CF911F910895E6
:1048A800CF93DF9300D0CDB7DEB780EE898386EB58
:1048B8008A8342E0BE016F5F7F4F86E70E943F24F4
:0A48C8000F900F90DF91CF9108953B
:1048D2008091926290919362A0919462B09195625C
:1048E2000196A11DB11D8093926290939362A09351
:0848F2009462B09395620895F1
:1048FA0080918E6290918F62A0919062B091916244
:10490A000196A11DB11D80938E6290938F62A09330
:08491A009062B09391620895D0
:10492200FC014481242F30E02F5F3F4F838190E0D0
:104932002817390741F0A081B181A40FB11D6C93F2
:0849420084818F5F84830895D6
:10494A00E0E0FBE08FEF9FEF84879587128613865E
:10495A0086E08183108681E1848381E085831682E3
:06496A0011868083089510
:10497000E0E1FBE080EA9FE084879587128613865A
:1049800086E081831086148281E0858316821186F9
:044990008083089583
:10499400092E0394000C11F4882352F0BB0F40F449
:1049A400BF2B11F460FF04C06F5F7F4F8F4F9F4F89
:0249B400089564
:1049B600E0E0F6E0808781E082870E9480268823F7
:1049C600E1F3E0E0F6E08089918921E0258708950A
:1049D60082E00E94DB249F938F938BE595E89F935B
:1049E6008F930E94E0230F900F900F900F900895E1
:1049F600DB018F939F930E949D25BF91AF91A29F4C
:104A0600800D911DA39F900DB29F900D11240895C6
:104A1600A29FB001B39FC001A39F700D811D1124F9
:0E4A2600911DB29F700D811D1124911D0895E8
:104A340043E068ED80E590E00E94842640E068ED64
:0C4A440081E590E00E94842680E0089547
:104A5000809105098C7141F490910509937081E072
:0C4A6000933019F080E0089581E0089583
:104A6C000E94E025E0E0F9E084E0808381E082832D
:0C4A7C009DEF95839FE09683838308954F
:104A8800CF93C82F0E943426882331F0E0E0F8E065
:0C4A9800948190649483C283CF910895B0
:104AA40085E891E80E94731D2FE788E391E0215087
:0C4AB40080409040E1F700C00000089531
:104AC000FC01AF014F5F5F4F2081222311F0FA01FB
:0C4AD000F8CF9F01281B390BC901089585
:104ADC0040E068ED80E191E00E948426E0E1F1E0A5
:0A4AEC0012821382789480E008958E
:104AF600CF93C82F0E9434268823E1F3C09302087F
:084B060080E090E0CF910895DA
:104B0E000E94AB140E944C1C20E030E048EC52E4B2
:064B1E000E9488260895A4
:104B24000E9472100E944C1C20E030E040E85AE3DE
:064B34000E948C2608958A
:104B3A000E940B25A59F900DB49F900DA49F800DF8
:064B4A00911D11240895E5
:104B5000EC010E94BA260E94B926CE010E94BB2613
:064B6000CE010E94A62612
:104B6600FC019381A081B181A90FB11D8C919F5F3A
:044B76009383089588
:104B7A000E94E7200E94522586E994E80E94C625F1
:024B8A0008958C
:104B8C00E091DE62F091DF62608171810E94AB1F67
:024B9C0008957A
:104B9E009C01215631092A31310510F48F75992760
:024BAE00089568
:104BB000E0EBF0E0148285E88083128280E00895C3
:104BC000E0E0F4E08AE0818388E0838B828B0895C3
:104BD000B7FF0C949D250E949D25821B930B089581
:104BE0009C01215431092A31310508F4806208956D
:0E4BF000FC0160837183428313821482089556
:0E4BFE005058BB27AA270E94EB170C94CA241C
:0E4C0C000E947C1F6894B1110C941C26089520
:0E4C1A0000240A9416161706180609060895B7
:0E4C280000240A9412161306140605060895B9
:0E4C3600E894BB2766277727CB0197F90895EE
:0C4C4400E0E4F1E080818160808308954D
:0C4C5000E0E4F1E080818E7F8083089515
:0C4C5C0080910408881F8827881F089595
:0C4C68008091040885FB882780F90895DE
:0C4C740080912408881F8827881F08955D
:0C4C80008091240885FB882780F90895A6
:0C4C8C0082E00E94DB240E940B230895AC
:0C4C980097F99F6780E870E060E00895E5
:0C4CA400EE0FFF1F0590F491E02D099425
:0A4CB0008093C0629093C1620895E2
:0A4CBA008093C2629093C3620895D4
:0A4CC4008093C8629093C9620895BE
:0A4CCE000E9463230E943F15089521
:0A4CD800FC0183819481891B08957B
:0A4CE2008091DC629091DD6208957C
:0A4CEC000E94FF2108F481E0089502
:0A4CF6000E94FF2108F48FEF0895DB
:084D000080910D0681700895F9
:084D0800FC0164BF4083089523
:084D10000E9440160C94CA2415
:084D18000E9419170C94CA2433
:064D2000809100080895D7
:064D2600809302080895CD
:064D2C00809120080895AB
:064D3200809322080895A1
:064D38000E941C1E0895FC
:064D3E009FEF80EC0895D8
:044D44000C940000CB
:044D48009F770895B4
:044D4C000E949D0024
:024D50000895C4
:024D52000895C2
:024D54000895C0
:024D56000895BE
:024D58000895BC
:024D5A000895BA
:024D5C000895B8
:024D5E000895B6
:024D60000895B4
:024D62000895B2
:024D64000895B0
:024D66000895AE
:024D68000895AC
:024D6A000895AA
:024D6C000895A8
:024D6E000895A6
:024D70000895A4
:024D72000895A2
:024D74000895A0
:024D760008959E
:104D780068076C094C836A9074A07AC000806888C0
:064D880000846C82008132
:104D8E000300000000000000000000007B25000072
:084D9E0000000000DCCFD1355C
:084DA6000000000000C0153FF1
:084DAE000000803F0000C03F3F
:074DB600286E756C6C2900EA
:064DBD00286E696C29005C
:024DC300E062AC
:02000004008278
:090000000000000000D00800001F
:00000001FF
