:100000000C9475000C942B2D0C942B2D0C942B2DF3
:100010000C942B2D0C9464230C941B270C942B2DE7
:100020000C94B8240C942B2D0C942B2D0C942B2D6C
:100030000C942B2D0C942B2D0C944D250C942B2DC6
:100040000C942B2D0C942B2D0C942B2D0C942B2DD0
:100050000C942B2D0C942B2D0C942B2D0C942B2DC0
:100060000C9412240C942B2D0C94EF260C94C32684
:100070000C942B2D0C94D9230C942B2D0C94962698
:100080000C942B2D0C942B2D0C94EA240C942B2DDA
:100090000F111F11461149115B119811CB11081254
:1000A000141217122B123312600062218062216237
:1000B00037005A82623762488062486258005A9814
:1000C000625862638062636288005AA8628862DA5A
:1000D0008062DA62DC005ACD62DC62E08062E0625B
:1000E000E1005ACF62E162E48000809101108F7CD0
:1000F000806080688093011011241FBECFEFCDBFB8
:10010000DFE7DEBFE8EAF0E040E017C0B591A59177
:1001100035912591059107FD0CC095918591EF01D1
:10012000F92FE82F05900D92A217B307D9F7FE011A
:1001300004C01D92A217B307E1F7E93EF40731F7B7
:0C0140000E947F290C942A2CF894FFCF19
:10014C000D0A00737973206765742068776575698B
:10015C000D0A0020202020202048574555493A20E0
:10016C0025730D0A0073797320666163746F72795D
:10017C0052455345540D0A004669726D776172659C
:10018C002076657273696F6E3A2025730D0A006DC7
:10019C0061632072657365740D0A006D616320677D
:1001AC006574207374617475730D0A004D6163205E
:1001BC007374617475733A2025730D0A000A496EC5
:1001CC00697469616C697A696E6720524E3278780D
:1001DC00332E2E2E0D000D00524E3239303320317D
:1001EC002E302E33000D0A4D6F64756C65205479DA
:1001FC0070653A20524E323930330D002020204F9A
:10020C00627365727665733A204C6F526157414E3A
:10021C00207370656320312E302E300D00524E321B
:10022C0034383320312E302E35000D0A4D6F647565
:10023C006C6520547970653A20524E323438330D47
:10024C00002020204F627365727665733A204C6FE4
:10025C00526157414E207370656320312E302E321F
:10026C000D006D616320736176650D0A006D61632D
:10027C002073657420727832203320383639353249
:10028C0035303030006D61632073657420636820F5
:10029C00646379636C65203020373939006D616394
:1002AC002073657420636820647272616E676520C8
:1002BC003120302036006D616320736574206368D3
:1002CC0020646379636C65203120373939006D61A6
:1002DC00632073657420636820646379636C6520A4
:1002EC003220373939006D6163207365742063687F
:1002FC00206672657120332038363731303030301B
:10030C0030006D61632073657420636820647272C1
:10031C00616E6765203320302035006D616320737A
:10032C00657420636820646379636C6520332037BF
:10033C003939006D616320736574206368207374B0
:10034C00617475732033206F6E006D61632073656B
:10035C007420636820667265712034203836373318
:10036C003030303030006D61632073657420636809
:10037C0020647272616E6765203420302035006D08
:10038C0061632073657420636820646379636C65B2
:10039C00203420373939006D616320736574206314
:1003AC0068207374617475732034206F6E006D61F6
:1003BC006320736574206368206672657120352034
:1003CC00383637353030303030006D61632073652E
:1003DC007420636820647272616E6765203520300A
:1003EC002035006D6163207365742063682064633D
:1003FC0079636C65203520373939006D6163207362
:10040C006574206368207374617475732035206F74
:10041C006E006D616320736574206368206672657D
:10042C0071203620383637373030303030006D613F
:10043C00632073657420636820647272616E6765F3
:10044C00203620302035006D616320736574206385
:10045C006820646379636C65203620373939006D08
:10046C0061632073657420636820737461747573A1
:10047C002036206F6E006D61632073657420636895
:10048C00206672657120372038363739303030307D
:10049C0030006D6163207365742063682064727230
:1004AC00616E6765203720302035006D61632073E5
:1004BC00657420636820646379636C65203720372A
:1004CC003939006D6163207365742063682073741F
:1004DC00617475732037206F6E006D6163207365D6
:1004EC007420636820737461747573202564206FA5
:1004FC006E0D0A006D616320736574206368207350
:10050C007461747573202564206F66660D0A004D46
:10051C006F64756C65206E6F7420737065636966AB
:10052C00696564000A0A436F6E6669677572696E65
:10053C006720524E3278783320466F7220414250F9
:10054C00206A6F696E2E2E2E006D616320736574A8
:10055C0020646576657569203730423344353745FC
:10056C0044303035414130420D0A006D61632073D7
:10057C00657420646576616464722032363043326F
:10058C003242360D0A006D61632073657420617010
:10059C0070736B65792035303143333132394533E3
:1005AC0036433043353635444444333131323835B3
:1005BC004338463533340D0A006D6163207365741E
:1005CC00206E776B736B6579203643303730423150
:1005DC00323635323946383536443436323745358D
:1005EC004234323533353033350D0A006D616320BA
:1005FC00736574206172206F6E0D0A006D6163204B
:10060C0073657420727864656C6179312035303093
:10061C00300D0A006D61632073657420727832208E
:10062C003132203932333330303030300D0A006DF6
:10063C0061632073657420616472206F6E0D0A0013
:10064C000D0A436F6E6669677572696E6720666F17
:10065C0072204F544141206A6F696E202865787072
:10066C00656374207E31302073656320746F207352
:10067C006574206368616E6E656C20667265717559
:10068C00656E637920706C616E292E2E2E006D6163
:10069C00632070617573650D0A006D61632072656E
:1006AC0073756D650D0A006D61632073657420644C
:1006BC0065766575692030303034413330423030E6
:1006CC004638363137450D0A006D61632073657409
:1006DC0020646576616464722030303030303030A4
:1006EC00300D0A006D616320736574206170707346
:1006FC006B65792030303030303030303030303045
:10070C0030303030303030303030303030303030DD
:10071C00303030300D0A006D616320736574206ECB
:10072C00776B736B6579203030303030303030304F
:10073C0030303030303030303030303030303030AD
:10074C00303030303030300D0A006D61632073650D
:10075C0074206170706B65792038394433413433BF
:10076C0030433338324439344338304242313945DE
:10077C003445413038333030390D0A006D61632017
:10078C00736574206170706575692030303030305D
:10079C0030303030303030303030300D0A000A41DB
:1007AC007474656D7074696E6720746F206A6F69FC
:1007BC006E2054544E206F766572204F5441412E5A
:1007CC002E2E006D6163206A6F696E206F746161FB
:1007DC000D0A006F6B000D0A5375636365737366C6
:1007EC00756C6C792073656E74206A6F696E2072FB
:1007FC006571756573742E2E2E0D006B6579735FA4
:10080C006E6F745F696E6974000D0A496E636F7266
:10081C0072656374206B6579732C20636865636BF8
:10082C0020616761696E20616E6420726570726F01
:10083C006772616D0D006163636570746564000DB2
:10084C000A4A6F696E20616363657074206D65730D
:10085C00736167652072656365697665642E2E2EFB
:10086C000D0A52783A2061636365707465640D00FB
:10087C0064656E696564000D0A4E6F646520646979
:10088C0064206E6F74207265636569766520616E95
:10089C0020616363657074206D6573736167652E89
:1008AC000D000D0A4E6F646520686173206E6F74C5
:1008BC00206A6F696E65642E2054686520676174C8
:1008CC0065776179206D61792062652069676E6F4B
:1008DC0072696E6720796F757220726571756573B8
:1008EC007420284D4943206661696C292E0D0054F3
:1008FC006865206170706C69636174696F6E206DDE
:10090C00617920626520657870656374696E672013
:10091C006120646966666572656E74204150504B47
:10092C004559206F7220796F757220646576696302
:10093C006520697320746F6F20636C6F736520740E
:10094C006F2074686520676174657761790D004D5F
:10095C006F766520796F75722064657669636520A2
:10096C00746F206174206C65617374207E31306DFE
:10097C00206177617920616E6420696620706F73E5
:10098C007369626C6520636865636B2074686520AD
:10099C0067617465776179206C6F6720746F20765E
:1009AC0065726966792E0D000A417474656D7074F8
:1009BC00696E6720746F206A6F696E206F7665723E
:1009CC00204142502E2E2E006D6163206A6F696E9D
:1009DC00206162700D0A000D0A53756363657373B1
:1009EC0066756C6C792073656E74207265717565B3
:1009FC0073742E2E2E0D000D0A52783A206163630B
:100A0C0065707465640A41425020697320636F6E8F
:100A1C00666967757265642070726F7065726C7947
:100A2C002E2E2E0D000A0A5472616E736D69747449
:100A3C00696E672044617461002D2D2D2D2D2D2D97
:100A4C002D2D2D2D2D2D2D2D2D2D2D2D2D2D2D2DCA
:100A5C002D2D2D2D2D2D2D2D2D2D2D2D2D2D2D2DBA
:100A6C002D2D2D2D2D2D2D2D2D2D2D2D2D000A54D3
:100A7C00783A206D616320747820636E6620313083
:100A8C0020006D616320747820636E662000313025
:100A9C0020000D0A506172616D657465727320617E
:100AAC006E6420636F6E66696775726174696F6ED0
:100ABC0073206172652076616C69642E200D0A5476
:100ACC006865207061636B65742077617320666F55
:100ADC007277617264656420746F2074686520722B
:100AEC006164696F20666F722054782E0D00696EF8
:100AFC0076616C69645F706172616D000D0A506F94
:100B0C0072742C20646174612C20616E642F6F727E
:100B1C00207479706528636E66206F7220756E6321
:100B2C006E6629206E6F742076616C69642E0D00E0
:100B3C006E6F745F6A6F696E6564000D0A54686548
:100B4C00206E6F6465206973206E6F74206A6F6904
:100B5C006E6564207769746820746865206E6574AE
:100B6C00776F726B2E0D0A5061796C6F6164206E19
:100B7C006F742073656E742E0D00696E76616C69EE
:100B8C00645F646174615F6C656E000D0A54686526
:100B9C00207061796C6F616420697320746F6F20B1
:100BAC006C6172676520666F722074686520646181
:100BBC00746120726174652E0D006D61635F7478D1
:100BCC005F6F6B000D0A526164696F20737563630C
:100BDC0065737366756C6C79207472616E736D6974
:100BEC00747465642074686520636F6E6669726DD9
:100BFC0065642075706C696E6B2E0D00546869739A
:100C0C002063616E206F6363757220696620626178
:100C1C00636B2D6F6666202872657472616E736DDE
:100C2C00697373696F6E7329206368616E6765649D
:100C3C00207468652064617461726174652E0D00A6
:100C4C006D61635F657272000D0A416E2041434B0A
:100C5C0020776173206E6F742072656365697665A9
:100C6C0064206261636B2066726F6D20746865200E
:100C7C007365727665722E0D000A54783A206D6198
:100C8C006320747820756E636E6620313120006DA0
:100C9C00616320747820756E636E6620003131209C
:100CAC00000D0A526164696F207375636365737319
:100CBC0066756C6C79207472616E736D6974746591
:100CCC00642074686520756E636F6E6669726D65FD
:100CDC00642075706C696E6B2E0D000D0A5468657E
:100CEC00207061796C6F616420697320746F6F2060
:100CFC006C6172676520666F722074686520646130
:100D0C00746120726174652E0D546869732063617F
:100D1C006E206F63637572206966206261636B2D50
:100D2C006F6666202872657472616E736D69737379
:100D3C00696F6E7329206368616E676564207468DF
:100D4C00652064722E0D000D0A414E2041434B204C
:100D5C00776173206E6F7420726563656976656464
:100D6C00206261636B2066726F6D207468652073FE
:080D7C0065727665722E0D0010
:100D840025640A000A4166746572203130303020CF
:100D94004D6F6973747572652052656164696E671D
:100DA40073002D2D2D2D2D2D2D2D2D2D2D2D2D2D56
:100DB4002D2D2D2D2D2D2D2D2D2D2D2D2D2D2D2D5F
:100DC4002D2D2D2D2D2D2D2D2D2D2D2D2D2D2D2D4F
:100DD4002D2D2D2D2D2D2D2D2D2D2D2D2D2D2D2D3F
:100DE4002D2D2D2D2D2D2D2D2D00546865204D419B
:100DF400582072656164696E672077617320256489
:100E04000A00546865204D494E2072656164696E1C
:100E140067207761732025640A0A00546865204DB1
:100E24004158206D61707320746F2025640A00544A
:100E34006865204D494E206D61707320746F2025C4
:100E4400640A000A0A43757272656E742053656EF3
:100E5400736F7220446174610052656C61746976C9
:100E6400652048756D69646974793A20257525256E
:100E7400200D0A002020202020202020204D6F69F2
:100E840073747572653A2025752525200D0A002096
:100E940020202020202020205072657373757265F5
:100EA4003A202575206850610D0A0020202020205A
:100EB4002054656D70657261747572653A20256998
:100EC4002043200D0A000A4A534F4E20466F726D8C
:100ED40061740D005061796C6F61643A207B2074F9
:100EE400656D703A2025692C2068756D6964697494
:100EF400793A2025752C206D6F6973747572653A83
:100F04002025752C2070726573737572653A2025DF
:100F140075207D0D0A0A005061796C6F6164206848
:100F2400657820737472696E673A2025736E756DE7
:100F340054783A20256C750A003031323334353612
:100F4400373839414243444546000D0A55736520FC
:100F540074686573652064657461696C7320746F6B
:100F640020726567697374657220796F7572206485
:100F7400657669636520616E642067656E6572617C
:100F84007465206B65797320776974682054544EB6
:100F94000D000A5765617468657220436C69636B60
:100FA400204E4F5420696E697469616C697A656476
:100FB4002070726F7065726C7921000A50726573CB
:100FC4007320627574746F6E20746F206A6F696E1B
:100FD4002054544E2E00456E746572696E67206904
:100FE4006E746572616374697665207465726D6987
:100FF4006E616C20746F2074726F75626C657368B7
:101004006F6F742E0D0073797320736C6565702097
:1010140039303030300D0A005072657373696E6771
:101024002074686520627574746F6E2077696C6CC7
:10103400207072696E7420616E2041444320766191
:101044006C75652E000A53616D706C6520696E20A5
:10105400647279206169722066697273742C2074D9
:1010640068656E2073616D706C6520696E20612007
:10107400637570206F662077617465722E0A005460
:101084004F444F3A20205772697465206C6F772063
:0F109400706F7765722074657374732E2E2E0043
:1010A3000A496E697469616C697A696E6720424D99
:1010B300453238302E2E2E00424D453238302069CD
:0B10C3006E697469616C697A656400F5
:1010CE00A2E2B0E0EDE6F8E00C94CE2929833A8353
:1010DE004B835C8329013A01E89477F8411451045B
:1010EE006104710409F458C669877A878B879C87D7
:1010FE007B018C0161157105A0E88A07AFE39A07A1
:10110E0009F44AC62D873E874F87588B4B015C01E9
:10111E006B017C01E894F7F8B1E0CB16D104B0E88E
:10112E00EB06BFE7FB0644F4E1E04E165104E0E89F
:10113E006E06EFE77E064CF02D853E854F8558896D
:10114E00C501B4010E947F2C32C609851A852B85F4
:10115E003C8537FF4DC04114510410E861061BE475
:10116E0071060CF04AC04114510420E862062FE3C8
:10117E0072060CF470C0D301C20107E1B595A795B4
:10118E00979587950A95D1F78F579109A109B109BE
:10119E0027E130E0281B390BD301C201022E04C017
:1011AE00B595A795979587950A94D2F7AC01BD0191
:1011BE0004C0440F551F661F771F2A95D2F7441699
:1011CE0055066606770609F046C081709927AA274C
:1011DE00BB2742E050E060E070E08A019B01081BF3
:1011EE00190B2A0B3B0B0D831E832F83388737C0B9
:1011FE001D821E821F82188608C022E030E040E069
:10120E0050E02D833E834F8358874114510430E8BC
:10121E0063063FE7730619F5C114D10440E8E406EE
:10122E004FE3F40609F4B8C55CF0E980FA800B814F
:10123E001C8117FDB6C56D857E858F859889B7C5CE
:10124E00E980FA800B811C8117FFABC56D857E8509
:10125E008F8598898AC01D821E821F82188641142E
:10126E00510400E860060FE3700669F4E980FA8025
:10127E000B811C8117FF99C5A501940160E070E0F8
:10128E0080E89FE365C009811A812B813C8101159D
:10129E001105210540E4340729F4A5019401C50187
:1012AE00B401C2C089819A81AB81BC810097A1052E
:1012BE00BF4359F409851A852B853C8537FD05C03A
:1012CE00C501B4010E949A1372C5C501B4010E94F2
:1012DE002D2DC114D104E104F10449F095018401CE
:1012EE003F730115110520483F4309F040C00981A5
:1012FE001A812B813C8137FF08C09B01AC0160E055
:10130E0070E080E89FE30E94142D29853A854B8575
:10131E005C8557FF4CC530E8E31A3FE3F30A0D81B5
:10132E001E812F813885C02AD12AE22AF32AC114C0
:10133E00D104E104F10479F421E230E0209300605D
:10134E00309301609B01AC010E947E2C9B01AC018D
:10135E000E94142D2CC52D813E814F815885213040
:10136E0031054105510509F022C5905820C5098562
:10137E001A852B853C8537FF21C02D813E814F81FB
:10138E005885232B242B252B59F481E290E0809352
:10139E00006090930160A5019401C501B401D4CF02
:1013AE000D811E812F8138850130110521053105F2
:1013BE0071F420E030E040E85FEB0DC000E010E09B
:1013CE0020E83FE30D831E832F83388708C020E07B
:1013DE0030E040E85FE32D833E834F83588731E052
:1013EE004316510461043DE473060CF497C048EFB4
:1013FE00C4164FEFD4064FE7E4064FE3F406BCF4F1
:10140E00E980FA800B811C8117FF4BC32AEC32EF67
:10141E0049E451E76D817E818F8198850E94182D58
:10142E002AEC32EF49E451E70E94182DC0C408E0BF
:10143E00C016D10400E8E0060FE3F00654F0E98090
:10144E00FA800B811C811E141F0410061106F4F283
:10145E0028C320E030E040E85FE30E947E2C6B0161
:10146E007C0120E03AEA48EB5FE30E94182D4B0125
:10147E005C0120E735EA4CEE56E3C701B6010E9447
:10148E00182D69837A838B839C8320E030E040E8BB
:10149E005EE3C701B6010E94182D9B01AC016BEAF9
:1014AE007AEA8AEA9EE30E947E2CA70196010E94A8
:1014BE00182D9B01AC0160E070E080E09FE30E947C
:1014CE007E2C2B013C01A7019601C701B6010E949B
:1014DE00182D9B01AC01C301B2010E94182D2BE304
:1014EE003AEA48EB5FE30E94182D9B01AC0169813B
:1014FE007A818B819C810E947E2C6B017C019B01E9
:10150E00AC01C501B4010E947F2C6627707F6987EC
:10151E007A878B879C87A501940120C2C114D104C0
:10152E0000E8E006F1046CF420E030E040E85BE413
:10153E000E94182D6B017C0148EE5FEF6FEF7FEF7D
:10154E0003C040E050E0BA01D701C60117E1B595DE
:10155E00A795979587951A95D1F78F579109A10958
:10156E00B1098C019D01040F151F261F371F0D8B0E
:10157E001E8B2F8B388FE894E7F8FF244601570116
:10158E006894A7F81FE3B12A22E7C21624ECD2060C
:10159E002CE1E206F104B4F037EDC31633EBD306BB
:1015AE003DE5E306F1049CF08D899E89AF89B88DE7
:1015BE000196A11DB11D8D8B9E8BAF8BB88F90E8C0
:1015CE00A91AB10819861A861B861C8608C0E12C3A
:1015DE00F12C8701E394E986FA860B871C8709852F
:1015EE001A85000F111F000F111F09A31AA3F8016E
:1015FE00ED58FD49E080F18002811381E98AFA8A73
:10160E000B8B1C8BA8019701C501B4010E947E2C87
:10161E00698F7A8F8B8F9C8FA8019701C501B401BA
:10162E000E947F2C9B01AC0160E070E080E89FE39C
:10163E000E94142D6D8F7E8F8F8F98A39B01AC010E
:10164E00698D7A8D8B8D9C8D0E94182D69837A837E
:10165E008B839C8349805A806B807C80442400EF6E
:10166E00502275016401F594E794D794C794CC2465
:10167E0010EFD122E894F5F86894F5F8D701C60179
:10168E00A05CBF4FC984DA84EB84FC84F5E1CC0CFA
:10169E00DD1CEE1CFF1CFA95D1F7C80ED91EEA1EF2
:1016AE00FB1EA7019601C301B2010E94182D9B01DA
:1016BE00AC01698D7A8D8B8D9C8D0E947E2C6987F5
:1016CE007A878B879C8729893A894B895C89C701E0
:1016DE00B6010E947E2C9B01AC01C501B4010E9493
:1016EE007E2CA30192010E94182D9B01AC016985ED
:1016FE007A858B859C850E947E2C2D8D3E8D4F8DFF
:10170E0058A10E94182D69877A878B879C8729811B
:10171E003A814B815C81CA01B9010E94182D6B017F
:10172E007C0122E431EF43E55EE30E94182D25E5AE
:10173E0032E34CE65EE30E947F2CA70196010E94E5
:10174E00182D25E033EA4BE85EE30E947F2CA701BB
:10175E0096010E94182D2BEA3AEA4AEA5EE30E94AD
:10176E007F2CA70196010E94182D27EB3DE64BED2D
:10177E005EE30E947F2CA70196010E94182D2AE994
:10178E0039E949E15FE30E947F2C4B015C01A7011F
:10179E009601C701B6010E94182D9B01AC01C5012F
:1017AE00B4010E94182D6B017C01A3019201698185
:1017BE007A818B819C810E947F2C29853A854B856D
:1017CE005C850E94182DA70196010E947F2C6B014B
:1017DE007C01A3019201C301B2010E94182D698BF5
:1017EE007A8B8B8B9C8B20E030E040E450E40E949F
:1017FE007F2CA70196010E947F2C4B015C0188244F
:10180E0020EF9222A5019401C301B2010E94182D6E
:10181E002B013C0120E030E040E450E4C501B4016E
:10182E000E947E2C29893A894B895C890E947E2CE4
:10183E009B01AC01C701B6010E947E2C29813A8121
:10184E004B815C810E94182D6B017C01A5019401D6
:10185E0069857A858B859C850E94182D9B01AC012C
:10186E00C701B6010E947F2C4B015C019B01AC01AC
:10187E00C301B2010E947F2C6B017C01CC2430EF9E
:10188E00D32220E030E446E75FE3C701B6010E94B1
:10189E00182D69837A838B839C83A3019201C701E0
:1018AE00B6010E947E2C9B01AC01C501B4010E94C1
:1018BE007E2C2FE438E346E75FE30E94182D4B01A0
:1018CE005C0126EC33E246EF58EBC701B6010E94ED
:1018DE00182D9B01AC01C501B4010E947F2CE9A11A
:1018EE00FAA1ED59FD4920813181428153810E9437
:1018FE007F2C6B017C016D897E898F89988D0E946A
:10190E00B1224B015C0109A11AA105591D49D8014B
:10191E004D905D906D907C90A701960169817A81C2
:10192E008B819C810E947F2CA30192010E947F2CAF
:10193E00A50194010E947F2C6627707F69877A87A4
:10194E008B879C87A50194010E947E2CA301920196
:10195E000E947E2C29813A814B815C810E947E2CD3
:10196E009B01AC01C701B6010E947E2C4B015C01AC
:10197E00CD84DE84EF84F888CC24B0EFDB22A7017F
:10198E0096016D857E858F8598890E947E2C29858E
:10199E003A854B855C850E94182D2B013C012D85C7
:1019AE003E854F855889C501B4010E94182D9B01B3
:1019BE00AC01C301B2010E947F2C69837A838B83B1
:1019CE009C83A701960169857A858B859C850E94EB
:1019DE00182D962EA72EB82E892E6987798B182F43
:1019EE00092F262F372F482F592F69817A818B8106
:1019FE009C810E947F2C6B017C016D877E878F8777
:101A0E00988B81E0C816D104E10483E4F8060CF04B
:101A1E00FDCC2D853E854F85588921153105410513
:101A2E005344E9F42CE33AEA48E353E369817A81BB
:101A3E008B819C810E947F2C2B013C01292D3A2DFC
:101A4E004B2D582DC701B6010E947E2C9B01AC0177
:101A5E00C301B2010E94032D181694F5D7CCD701FD
:101A6E00C601BF770197A641B344DCF42D853E85B0
:101A7E004F855889211531054641534C09F5292DBD
:101A8E003A2D4B2D582DC701B6010E947E2C9B017D
:101A9E00AC0169817A818B819C810E94FE2C181683
:101AAE007CF020E632E442EA5DE06D817E818F813A
:101ABE0098850E94182D20E632E442EA5DE0B4CC0F
:101ACE00D701C601BF7781309105A105EFE3BE07AF
:101ADE000CF46AC057E1B595A795979587955A95D9
:101AEE00D1F78E5740E050E060E870E08A019B012C
:101AFE0004C035952795179507958A95D2F7C00E90
:101B0E00D11EE21EF31E26013701E89477F867E135
:101B1E0075946794579447946A95D1F71FE7411AC5
:101B2E005108610871088FEF9FEFAFE7B0E0042C0A
:101B3E0004C0B595A795979587950A94D2F7809589
:101B4E009095A095B0959C01AD012C213D214E2183
:101B5E005F21E894E7F8FF246894E7F887E190E0C6
:101B6E00841995092601370104C07594679457941A
:101B7E0047948A95D2F7ED84FE840F85188917FF56
:101B8E0008C07094609450944094411C511C611C88
:101B9E00711C692D7A2D8B2D982D0E947E2C6987B4
:101BAE00798B182F092F03C0412C512C320129811A
:101BBE003A814B815C8169857989812F902F0E94B2
:101BCE007F2C4B015C01882420E8922220E032E732
:101BDE0041E35FE3C501B4010E94182D6D877E8736
:101BEE008F87988B29853989412F502FC501B401D4
:101BFE000E947E2C9B01AC0169817A818B819C8134
:101C0E000E947E2C28E132E741E35FE30E94182D0B
:101C1E006B017C012CE83EEB4FEB55E3C501B401A3
:101C2E000E94182D9B01AC01C701B6010E947F2CAA
:101C3E004B015C019B01AC016D857E858F8598897A
:101C4E000E947F2C6B017C012D853E854F85588926
:101C5E000E947E2C9B01AC01C501B4010E947E2C1A
:101C6E0069837A838B839C83A7019601C701B60192
:101C7E000E94182D4B015C012CE43BEB41E353E336
:101C8E000E94182D2EE03AEE4DED55E30E947E2C6B
:101C9E00A50194010E94182D25E533EB4AE858E37F
:101CAE000E947F2CA50194010E94182D21E63BE095
:101CBE0046E35BE30E947E2CA50194010E94182D41
:101CCE002BEA3AEA4AE25EE30E947F2CA5019401D8
:101CDE000E94182D9B01AC01C701B6010E947E2CFB
:101CEE004B015C019B01AC01C701B6010E94182D8E
:101CFE006D877E878F87988B20E030E040E050E440
:101D0E00C501B4010E947E2C9B01AC016D857E85C0
:101D1E008F8598890E94142D4B015C0129813A818F
:101D2E004B815C81C701B6010E94182D29813A8131
:101D3E004B815C810E947F2C9B01AC01C501B401DB
:101D4E000E947E2CA70196010E947E2C9B01AC0165
:101D5E0060E070E080E89FE30E947E2C9301820198
:101D6E0047E1000F111F221F331F4A95D1F7060FAF
:101D7E00171F281F391F0115110540E824073105CB
:101D8E0024F4A2010E94082002C0C901B8012D81CD
:101D9E003E814F81588548CB60E070E080E89FE33C
:101DAE0006C060E070E0CB0102C0C501B401A2968E
:061DBE00E0E10C94E729AE
:101DC400AEE0B0E0E8EEFEE00C94CF294C016B01EC
:101DD40019821A828FEF9FEF8B839C831D821E8250
:101DE4004F83588729873A87A12CB12CD6016D904F
:101DF4007C90F301EA0DFB1D808181110FC0D60197
:101E0400ED93FC938081853209F0D3C13F01BFEF8C
:101E14006B1A7B0AF6016082718219C0853279F3EC
:101E2400B401082E000C990B0E949A214FEFA41ABA
:101E3400B40ADCCF8C32ACF08D32F9F489819A810A
:101E4400816089839A833196D601ED93FC93D60100
:101E5400ED91FC9180818B3269F789819A8184604C
:101E6400F0CF803221F489819A818860EACF83326D
:101E740051F489819A818061E4CF803321F489818E
:101E84009A818260DECFB701C6010E9468268D83E5
:101E94009E8397FF0BC029813A81B1E02B272983C8
:101EA4003A839195819591098D839E8389819A8145
:101EB40080FF03C08D7F89839A83D601ED91FC91C5
:101EC400119780818E3249F43196ED93FC93B701DA
:101ED400C6010E9468268B839C83C6010E94072941
:101EE400582ED601ED91FC918081082E000C990B9F
:101EF4000E94682C893609F443C084F4833609F4BB
:101F040002C134F4853209F427C18136E1F030C1CD
:101F14008436B1F188360CF4D9C02AC1803709F46B
:101F24009AC03CF48E3609F4BCC08F3609F461C003
:101F34001FC1853709F440C0883709F476C0833758
:101F440009F016C1F3C0652D70E0A701CE010B9610
:101F54000E940000892B09F426C1D601ED91FC9161
:101F64001197CF0101968D939C932081AE01455F1B
:101F74005F4FBE016F5F7F4FC4010E94000010C11C
:101F8400652D70E0970141E050E0CE010B960E9470
:101F9400D41E892B09F407C1F60180819181019631
:101FA40080839183AE01455F5F4FBE016F5F7F4FBA
:101FB400C4010E94AE1CF4C0652D70E0970140E09E
:101FC40050E0CE010B960E94D41E892B09F4EBC07D
:101FD400D6018D919C91119701968D939C93AE019E
:101FE400455F5F4FBE016F5F7F4FC4010E942B228C
:101FF400D7C0652D70E0970140E050E0CE010B960C
:102004000E94D41E892B09F4CEC0F60180819181EF
:10201400019680839183AE01455F5F4FBE016F5F80
:102024007F4FC4010E946120BBC0652D70E0970101
:1020340040E050E0CE010B960E94D41E892B09F497
:10204400B2C0D601ED91FC911197CF0101968D9309
:102054009C9320811CC0970140E050E060EF70E049
:10206400CE010B960E94D41E892B09F49CC0F60164
:10207400808191810196808391838B859C85892BB6
:1020840029F420E030E042E852E684C028E7AE01BB
:10209400455F5F4FBE016F5F7F4FC4010E94AB1568
:1020A4007FC0A501400F511F652D70E09701CE013F
:1020B4000B960E940000892B09F475C0D6018D91FE
:1020C4009C91119701968D939C9373C0652D70E03C
:1020D400A701CE010B960E940000892B09F463C06E
:1020E400D601ED91FC911197CF0101968D939C93AC
:1020F4002081AE01455F5F4FBE016F5F7F4FC4011A
:102104000E9400004DC0B0E85B124DC0F601808112
:102114009181019680839183D701ED91FC91119770
:10212400CF0102968D939C93808120C0B0E85B120E
:102134003AC0F60180819181019680839183D70111
:10214400ED91FC911197CF0102968D939C93408160
:10215400518120E030E01EC0B0E85B1224C0F601DB
:10216400208131812F5F3F4F208331838B870DC0C6
:1021740085E28B87D6016D927C9219821A821D8228
:102184001E828FEF9FEF8B839C8321E030E0AE01B2
:10219400455F5F4FBE016F5F7F4FC4010E949E2762
:1021A4008A0D9B1D07C0F601808191810196808371
:0C21B4009183C5012E96EFE00C94E82901
:1021C0001F93CF93DF938091D8629091D96280FF63
:1021D00019C08091E062823019F08C3041F009C062
:1021E00080E28093A50483E08093E06202C00E94B5
:1021F000472B8091D8629091D9628E7F8093D8626C
:102200009093D962E091E0628E2F90E08C3091053E
:1022100008F034C1FC01E85BFF4F0C94E42C0E94F1
:10222000001E0E94AD258EE49FE80E943E2C109275
:10223000D8621092D96282E08093E0621FC18091DF
:10224000D8629091D9628E7F8093D8629093D96240
:1022500080E28093A5040E94001E0E94AD250E948A
:102260003928811104C086E99FE80E943E2C80E253
:102270008093A6048FEB9FE80E943E2C1092D862B8
:102280001092D96282E08093E062F8C00E944727F2
:10229000F5C00E94222D0E94252D811108C08AEDD3
:1022A0009FE80E943E2C82E08093E062E7C084E0D9
:1022B0008093E062E3C08091926290919362A091DA
:1022C0009462B09195620196A11DB11D80939262B6
:1022D00090939362A0939462B0939562C0E2C0938E
:1022E000A60486E992E60E94E72886E992E60E9423
:1022F000201D66E972E688E592E60E946A1A88E582
:1023000092E60E9499162FEF8AE197EB21508040C8
:102310009040E1F700C000008AE090E90E94F12BB4
:102320000E94A82C85E08093E062C093A504A6C01B
:1023300080919A6290919B62A0919C62B0919D6203
:10234000843B9105A105B10519F5609192627091E8
:10235000936280919462909195622AE030E040E02F
:1023600050E00E94C528672B682B692B21F484E07C
:102370008093E06203C086E08093E0620E94AE2C0E
:1023800010929A6210929B6210929C6210929D62CF
:102390000E94472773C08091926290919362A091AE
:1023A0009462B09195620196A11DB11D80939262D5
:1023B00090939362A0939462B0939562C5EAD4E03F
:1023C00010E2188386E992E60E94E72886E992E601
:1023D0000E94201D66E972E688E592E60E946A1A6C
:1023E00088E592E60E9440182FEF8AE197EB215092
:1023F00080409040E1F700C000008AE090E90E9430
:10240000F12B0E94A82C85E08093E062188336C0EF
:102410008CE190E90E943E2C89E490E90E943E2CD8
:102420008CE08093E0622AC00E94472727C00E9468
:10243000392886E992E60E94E72886E992E60E941A
:10244000201D66E972E688E592E60E946A1A8CE031
:102450008093E06213C083E890E90E943E2C8CE0F8
:102460008093E0620BC086E992E60E94E72886E945
:1024700092E60E94201D8CE08093E062DF91CF9174
:042480001F9108950B
:102484004F925F926F927F928F929F92AF92BF9280
:10249400CF92DF92EF92FF92C0909E62D0909F62A3
:1024A400E090A062F090A162F594E794D794C79469
:1024B4008AEFD81AE108F108C701B6019595879506
:1024C4007795679595958795779567959B01AC0169
:1024D4000E94572B4B015C01E0E0F2E6A285B38534
:1024E4009B01AC01012E1DE0559547953795279525
:1024F4001A95D1F7102D0E94602C2B013C01689491
:1025040012F875946794579447941694D1F7A0855C
:10251400B185A70196010E94602CDC01CB01B59521
:10252400A79597958795840D951DA61DB71D072E14
:1025340072E1B595A795979587957A95D1F7702D02
:102544009C01AD0130584F4F5F4FA681B7810E9467
:102554001F2C2B013C01032E3FE075946794579484
:1025640047943A95D1F7302D411451046104710414
:1025740009F4CEC0A5019401012E1BE055954795A1
:10258400379527951A95D1F7102DA089B1890E9406
:10259400602C4B015C01A685B785A70196010E94BA
:1025A400602CDC01CB01880F991FAA1FBB1F880E6A
:1025B400991EAA1EBB1ED501C401B595A795979572
:1025C4008795B595A7959795879584849584092CC7
:1025D400000CAA08BB08540199248824880E991E6B
:1025E400AA1EBB1E072E7CE0B594A79497948794EB
:1025F4007A95D1F7702D8091A2629091A362A091F7
:10260400A462B091A562A5019401280F391F4A1F45
:102614005B1FABECB3EF0E94632C805B9C4399235C
:102624005CF0660F771F881F991FA30192010E9417
:10263400C52869017A010AC0A30192010E94C52834
:1026440069017A01CC0CDD1CEE1CFF1CC701B6012C
:10265400689412F896958795779567951694D1F7AF
:102664009B01AC010E94572B9B01AC01012E1DE084
:1026740056954795379527951A95D1F7102DE0E093
:10268400F2E6A689B7890E94602C4B015C01072EF3
:102694007CE0B594A794979487947A95D1F7702D9C
:1026A400A7019601569547953795279556954795D1
:1026B40037952795A489B5890E94602CDC01CB014C
:1026C400072E7DE0B595A795979587957A95D1F7CF
:1026D400702DB501A401480F591F6A1F7B1F828901
:1026E4009389092E000CAA0BBB0B840F951FA61F00
:1026F400B71F689413F8B595A79597958795169481
:10270400D1F7BC01CD016C0D7D1D8E1D9F1D03C035
:1027140060E070E0CB01FF90EF90DF90CF90BF902E
:10272400AF909F908F907F906F905F904F9008959F
:102734004F925F926F927F928F929F92AF92BF92CD
:10274400CF92DF92EF92FF920F931F936B017C0164
:10275400DC01CB01B701A6014427552760787F77B8
:102764004115510560487F4759F4A7019601C701F7
:10277400B6010E94182DA70196010E947F2C1AC051
:10278400181619061A061B06D4F0892B8A2B8B2BD4
:1027940009F4CCC081E290E08093006090930160E2
:1027A400A7019601C701B6010E947E2C9B01AC01D2
:1027B4000E94142D562F472F382F292FBBC067E1B5
:1027C400F594E794D794C7946A95D1F7C114D104CA
:1027D400E104F104E1F4C12CD12C7601A7FD0AC077
:1027E400880F991FAA1FBB1F2FEFC21AD20AE20A31
:1027F400F20AF4CF21E0C21AD108E108F108F094FA
:10280400E094D094C094C11CD11CE11CF11C2FE7AE
:10281400C21AD108E108F108AF77BB27A068C0FE4F
:1028240004C0880F991FAA1FBB1FF594E794D7947F
:10283400C794880F991FAA1FBB1FE9E1F0E040E08D
:1028440050E060E071E0812C912C540100E010E034
:10285400980128013901440E551E661E771E841501
:102864009505A605B70574F093018201040F151FA1
:10287400261F371F84199509A609B709840E951ECA
:10288400A61EB71E880F991FAA1FBB1F76956795B2
:10289400579547953197E9F6892B8A2B8B2BA1F114
:1028A40020E632E442EA5DE060E070E080E89FE325
:1028B4000E947E2C20E030E040E85FE30E94032D7C
:1028C40087FD22C020E632E442EA5DE060E070E089
:1028D40080E89FE30E947F2C20E030E040E85FE343
:1028E4000E94032D181634F482E0880E911CA11C5A
:1028F400B11C0AC0D501C40181709927AA27BB273E
:10290400880E991EAA1EBB1ED501C401B595A795B4
:1029140097958795B15C37E1CC0CDD1CEE1CFF1C50
:102924003A95D1F7C80ED91EEA1EFB1E5C2D4D2D1B
:102934003E2D2F2D652F742F832F922F1F910F91D2
:10294400FF90EF90DF90CF90BF90AF909F908F90CB
:0A2954007F906F905F904F90089500
:10295E004F925F926F927F928F929F92AF92BF92A1
:10296E00CF92DF92EF92FF9280909E6290909F6244
:10297E00A090A062B090A1622CE2921A21E0A20A6D
:10298E00B108C090A662D090A762E090A862F090C5
:10299E00A9620B2EBEE0CC0CDD1CEE1CFF1CBA9502
:1029AE00D1F7B02DE0E0F2E6848D958D092E000C66
:1029BE00AA0BBB0B072E74E1880F991FAA1FBB1F12
:1029CE007A95D1F7702DC81AD90AEA0AFB0AA68D94
:1029DE00B78DA50194010E94602CC61AD70AE80A89
:1029EE00F90A30E4D30EE11CF11C0B2EBFE0F59476
:1029FE00E794D794C794BA95D1F7B02DA38DB0E0D4
:102A0E00A50194010E941F2C2B013C01032E3BE0DB
:102A1E0075946794579447943A95D1F7302D40E8C2
:102A2E00540E611C711CA0A10A2E000CBB0BA5013B
:102A3E0094010E94602C052E5AE095958795779506
:102A4E0067955A95D1F7502DA30192010E94572BED
:102A5E00DC01CB01072E7AE0B595A7959795879562
:102A6E007A95D1F7702D9C01AD01405E5F4FA18D1F
:102A7E00B28D0E94602CDC01CB01905EAF4FBF4F38
:102A8E00BC01CD01052E5EE09595879577956795EE
:102A9E005A95D1F7502DA70196010E94572B6B0125
:102AAE007C01052E5FE095958795779567955A95EC
:102ABE00D1F7502D9B01AC010E94572B9B01AC010D
:102ACE00689416F855954795379527951694D1F72E
:102ADE00A08DB0E00E941F2CDC01CB01689413F88E
:102AEE00B595A795979587951694D1F7A701960159
:102AFE00281B390B4A0B5B0BDA01C9011AF480E073
:102B0E0090E0DC0181309105A10539E1B30724F095
:102B1E0080E090E0A0E0B9E1BC01CD01052E5CE0C3
:102B2E0095958795779567955A95D1F7502DFF9086
:102B3E00EF90DF90CF90BF90AF909F908F907F904F
:082B4E006F905F904F90089515
:102B5600AFE0B0E0E1EBF5E10C94CC291C016B0190
:102B660049835A832B83FB018281938184809580DC
:102B760000811181A680B78097FD02C00D7F02C03B
:102B860081E090E0E981FA81408051806280738023
:102B96009801207133272C833D83740104FF08C0FC
:102BA600411451046104710419F032E0E31AF1088A
:102BB600F801E870FF27EE83FF8303FF03C0F1E00F
:102BC600EF1AF108F6010084F185E02D3197EE87C2
:102BD600FF87EA0DFB1D10829C012E193F092887ED
:102BE6003987C801827099278A879B87EB818E2F48
:102BF600EE0F990B9C01215431092C873D872E85B8
:102C06003F852230310530F48C819D81892B09F076
:102C160042C05CC0411451046104710461F18E85A7
:102C26009F8501978E879F87C2018F7099278A306B
:102C3600910514F4C09602C0895A9F4FEC85FD8514
:102C46007A9748F49C012062215631092A313105D0
:102C560010F40E94472CEE85FF85EA0DFB1D80834C
:102C6600F1E0EF1AF10884E076946794579447945C
:102C76008A95D1F7C4CF888599858E0D9F1D181624
:102C860019066CF21E141F040CF0BECFEA85FB85F4
:102C9600EF2B29F6B9CFE981FA8180819181A28152
:102CA600B381892B8A2B8B2B89F0EE85FF85EA0D64
:102CB600FB1D31972B8120838E859F8502978E87FA
:102CC6009F87FC01EA0DFB1D80E38083EE81FF8177
:102CD600EF2B59F02E853F85215031092E873F87EE
:102CE600F901EA0DFB1D80E28083F60140855185DE
:102CF600415051092E853F85421B530BB9016A0D80
:102D06007B1D9401C1010E944B249C01F10180812D
:102D1600918190FF06C0F601828193818217930705
:0C2D26000CF4C9012F96E2E10C94E529A1
:102D3200CF93DF93D82FC92F88E892E60E94102DF7
:102D420081E39AE80E943E2C85E49AE80E943E2C98
:102D52008AE79AE89F938F930E942D2ACF93DF935D
:102D62000E942D2A2FE789EA93E02150804090406B
:102D7200E1F700C000004BE06EE87AE88DE892E6E9
:102D82000E94842443E06AE97AE88DE892E60E9490
:102D920084244AE06D2F7C2F8DE892E60E948424E1
:102DA2000F900F900F900F900AC00E94D22C882390
:102DB20031F08DE892E60E945D2A0E94922B8DE806
:102DC20092E60E94772C882381F387EA91E60197A5
:102DD200F1F700C0000062EE71E888E892E60E9416
:102DE2007D258823C1F36FED77E888E892E60E949B
:102DF2007D25882329F08EE99AE80E943E2C5AC04C
:102E02006AEF7AE888E892E60E947D25882329F015
:102E120088E09BE80E943E2C4DC06CE37BE888E88A
:102E220092E60E947D25882329F087E49BE80E9490
:102E32003E2C40C066E87BE888E892E60E947D2549
:102E4200882349F287E99BE80E943E2C33C062EE58
:102E520071E888E892E60E947D258823C1F366EC3A
:102E62007BE888E892E60E947D25882329F080EDA0
:102E72009BE80E943E2C2EC066E87BE888E892E63A
:102E82000E947D25882349F087E99BE80E943E2C19
:102E920088E09CE80E943E2C1DC06CE47CE888E837
:102EA20092E60E947D25882391F284E59CE80E94A7
:102EB2003E2C10C06CE471E888E892E60E94EC2295
:102EC2009FEB27E289E0915020408040E1F700C06B
:0A2ED2000000BDCFDF91CF910895FD
:102EDC008F929F92AF92BF92CF92DF92FF920F93FD
:102EEC001F93CF93DF93CDB7DEB7A097CDBFDEBFD7
:102EFC008091DE62882309F468C0813009F0A7C094
:102F0C0089E792E80E94F12B81E992E80E94F12B6B
:102F1C0089EA92E80E94F12B82EC92E80E94F12B54
:102F2C008AED92E80E94F12B82EF92E80E94F12B3D
:102F3C008EE093E80E94F12B87E293E80E94F12B3C
:102F4C008FE393E80E94F12B86E593E80E94F12B26
:102F5C0082E793E80E94F12B8BE893E80E94F12B17
:102F6C0083EA93E80E94F12B8AEB93E80E94F12B01
:102F7C0086ED93E80E94F12B8FEE93E80E94F12BE3
:102F8C0087E094E80E94F12B8EE194E80E94F12BEB
:102F9C008AE394E80E94F12B83E594E80E94F12BDC
:102FAC008BE694E80E94F12B82E894E80E94F12BC6
:102FBC008EE994E80E94F12B87EB94E80E94F12BA8
:102FCC008FEC94E80E94F12B46C00F2EF8EFFF2EE9
:102FDC00F02D00E010E00F2EF0E0AF2EF5E8BF2E44
:102FEC00F02DCE0101966C010F2EF6EE8F2EF4E82B
:102FFC009F2EF02D97E09F1590F01F930F939F92AB
:10300C008F92DF92CF920E94142BC6010E94F12B5B
:10301C000F900F900F900F900F900F9011C01F9367
:10302C000F93BF92AF92DF92CF920E94142BC601E6
:10303C000E94F12B0F900F900F900F900F900F900C
:10304C000F5F1F4FF39408341105A1F604C08BE1F8
:10305C0095E80E943E2CA096CDBFDEBFDF91CF91AC
:10306C001F910F91FF90DF90CF90BF90AF909F90EA
:04307C008F90089594
:10308000CF93DF93D82FC92F88E892E60E94102DA6
:1030900081E39AE80E943E2C85E49AE80E943E2C47
:1030A00085E89CE89F938F930E942D2ACF93DF930E
:1030B0000E942D2A2FE789EA93E02150804090401A
:1030C000E1F700C000004DE06BE97CE88DE892E696
:1030D0000E94842443E069EA7CE88DE892E60E943D
:1030E00084244AE06D2F7C2F8DE892E60E94842490
:1030F0000F900F900F900F900AC00E94D22C88233F
:1031000031F08DE892E60E945D2A0E94922B8DE8B4
:1031100092E60E94772C882381F387EA91E6019753
:10312000F1F700C0000062EE71E888E892E60E94C4
:103130007D258823C1F36FED77E888E892E60E9449
:103140007D25882329F08EE99AE80E943E2C56C0FE
:103150006AEF7AE888E892E60E947D25882329F0C4
:1031600088E09BE80E943E2C49C06CE37BE888E83D
:1031700092E60E947D25882329F087E49BE80E943F
:103180003E2C3CC066E87BE888E892E60E947D25FC
:10319000882349F287E99BE80E943E2C2FC062EE0B
:1031A00071E888E892E60E947D258823C1F366ECE9
:1031B0007BE888E892E60E947D25882329F08DEA45
:1031C0009CE80E943E2C2AC066E87BE888E892E6EC
:1031D0000E947D25882329F087EE9CE80E943E2CE2
:1031E0001DC06CE47CE888E892E60E947D25882377
:1031F000B1F283E59DE80E943E2C10C09FEB27E2D0
:1032000089E0915020408040E1F700C000006CE46C
:1032100071E888E892E60E94EC22C1CFDF91CF915D
:0232200008950F
:103222000F931F93CF93DF93CDB7DEB76897CDBFD0
:10323200DEBF28E1AE014F5F5F4F68E886E70E947C
:10324200E32100E012E68A8190E0982F8827298105
:10325200820F911DF801808391838C8190E0982FD9
:1032620088272B81820F911D828393838E8190E028
:10327200982F88272D81820F911D848395838885BD
:1032820090E0982F88272F81820F911D8683978344
:103292008A8590E0982F88272985820F911D808743
:1032A20091878C8590E0982F88272B85820F911D1E
:1032B200828793878E8590E0982F88272D85820FAD
:1032C200911D84879587888990E0982F88272F857C
:1032D200820F911D868797878A8990E0982F882789
:1032E2002989820F911D808B918B8C8990E0982F78
:1032F20088272B89820F911D828B938B8E8990E078
:10330200982F88272D89820F911D848B958B888D0C
:1033120090E0982F88272F89820F911D868B978B9B
:1033220021E0AE014F5F5F4F61EA86E70E94E32131
:103332008981F801808F27E0AE014F5F5F4F61EE18
:1033420086E70E94E3212A8130E0322F22279981E9
:10335200290F311DF801218F328F9B81938F9D811F
:103362002C81F0E12F9F90011124492F4F70242BC3
:10337200F801248F358F2E81F0E12F9F90011124C7
:1033820092959F70292BF801268F378F9F8190A3EA
:103392006896CDBFDEBFDF91CF911F910F91089547
:1033A200CF93DF9380E094E023E0FC012083C0E42C
:1033B200D4E035E03883A0E6B4E032E13C9360EA41
:1033C20074E030E2FB01308341E0FC0144831C8263
:1033D20040E114964C931497FB013483FC01108A4C
:1033E200118A128A138A148A158A168A178A188AE7
:1033F200198A1A8A1B8A1C8A1D8A1E8A1F8A50965B
:103402001C92509751961C92519752961C92529729
:1034120053961C92539754961C92549755961C920D
:10342200559756961C92569757961C92FB01108AF6
:10343200118A128A138A148A158A8BE0868B178A5C
:10344200E0EEF5E011821082158217821086118655
:103452001682228381E39DE28093C4629093C562C7
:1034620082E39DE28093C2629093C36283E39DE212
:103472008093C0629093C16284E39DE28093BE62B6
:103482009093BF6285E39DE28093BC629093BD629C
:1034920086E39DE28093BA629093BB6287E39DE2EA
:1034A2008093B8629093B96288E39DE28093B6629A
:1034B2009093B76289E39DE28093B4629093B56280
:1034C2008AE39DE28093B2629093B362DF91CF91DF
:0234D20008955B
:1034D400CF93DF93CDB7DEB76197CDBFDEBF21E1D8
:1034E400EDE3FFE8DE01119601900D922A95E1F7D4
:1034F400FB01208122952F70E1E0F0E0EC0FFD1F2D
:10350400E20FF11D2081FC012083FB0120812F703B
:10351400E1E0F0E0EC0FFD1FE20FF11D2081FC0162
:103524002183FB01218122952F70E1E0F0E0EC0F73
:10353400FD1FE20FF11D2081FC012283FB0121818B
:103544002F70E1E0F0E0EC0FFD1FE20FF11D208190
:10355400FC012383FB01228122952F70E1E0F0E03E
:10356400EC0FFD1FE20FF11D2081FC012483FB0100
:1035740022812F70E1E0F0E0EC0FFD1FE20FF11D5E
:103584002081FC012583FB01238122952F70E1E03A
:10359400F0E0EC0FFD1FE20FF11D2081FC012683FA
:1035A400FB0123812F70E1E0F0E0EC0FFD1FE20F3F
:1035B400F11D2081FC0127832DE020872AE021874B
:1035C40012864091926250919362609194627091DC
:1035D40095627F936F935F934F939F938F938BE148
:1035E4009FE89F938F930E94FD29CDBFDEBF619614
:0A35F400CDBFDEBFDF91CF91089537
:1035FE008F929F92AF92BF92CF92DF92EF92FF92F5
:10360E008091AA629091AB62A091AC62B091AD62D2
:10361E00E0E0F2E64081518160E070E06C017D01F6
:10362E00689413F8F594E794D794C7941694D1F749
:10363E00C41AD50AE60AF70A689412F8B595A79542
:10364E00979587951694D1F7440F551F661F771FD0
:10365E004C015D01841A950AA60AB70AA5019401C8
:10366E00A281B3810E94602C4B015C01072E7BE08E
:10367E00B594A794979487947A95D1F7702DA70156
:10368E009601C701B6010E94572B9B01AC01012E7A
:10369E001CE055954795379527951A95D1F7102D1E
:1036AE00A481B5810E94602CDC01CB01072E7EE047
:1036BE00B595A795979587957A95D1F7702D880D25
:1036CE00991DAA1DBB1D80939E6290939F62A0932D
:1036DE00A062B093A1626C017D01CC0CDD1CEE1CCE
:1036EE00FF1CCC0CDD1CEE1CFF1C8C0D9D1DAE1D9D
:1036FE00BF1D80589F4FAF4FBF4F692F7A2F8B2F13
:10370E00992787FD9A95FF90EF90DF90CF90BF900D
:08371E00AF909F908F90089579
:10372600CF93DF93CDB7DEB72897CDBFDEBF28E0B6
:10373600AE014F5F5F4F67EF86E70E94E3218F81FF
:1037460090E0A0E0B0E0BA2FA92F982F882728850F
:10375600822B8093A6629093A762A093A862B093EF
:10376600A9628C8190E0A0E0B0E0AC01BD01032E1F
:103776003CE0440F551F661F771F3A95D1F7302D51
:103786009D81892F90E0A0E0B0E0880F991FAA1FC5
:10379600BB1F880F991FAA1FBB1F880F991FAA1F3F
:1037A600BB1F880F991FAA1FBB1F842B952BA62B07
:1037B600B72B2E8122952F70822B8093AA6290932D
:1037C600AB62A093AC62B093AD62898190E0A0E059
:1037D600B0E0AC01BD01032E3CE0440F551F661F4F
:1037E600771F3A95D1F7302D9A81892F90E0A0E086
:1037F600B0E0880F991FAA1FBB1F880F991FAA1F29
:10380600BB1F880F991FAA1FBB1F880F991FAA1FCE
:10381600BB1F842B952BA62BB72B2B8122952F70A4
:10382600822B8093A2629093A362A093A462B0932A
:0E383600A5622896CDBFDEBFDF91CF91089529
:10384400CF9388E892E60E94102D8AEA97E80E94B6
:103854003E2C8FEC97E80E94F12B2FEB87E299E046
:10386400215080409040E1F700C0000062EE71E812
:1038740088E892E60E947D258823C1F36FED77E8FE
:1038840088E892E60E947D25882349F088E892E63C
:103894000E94102D82EE97E80E943E2C48C067E0FB
:1038A40078E888E892E60E947D258823F9F285E18C
:1038B40098E80E943E2C3BC062EE71E888E892E6EC
:1038C4000E947D258823C1F362E478E888E892E6C3
:1038D4000E947D25882351F088E892E60E94102DED
:1038E4008BE498E80E943E2CC1E031C06CE778E894
:1038F40088E892E60E947D258823F1F288E892E622
:103904000E94102D83E898E80E943E2C8EEA98E8E5
:103914000E943E2C8BEF98E80E943E2C8BE599E8A0
:103924000E943E2CC0E013C00E94842B12C06CE4A1
:1039340071E888E892E60E94EC222FEB87E299E096
:10394400215080409040E1F700C00000B5CFC11184
:08395400EBCF8C2FCF910895F9
:10395C00A2E0B0E0E4EBFCE10C94CC293C016B015F
:10396C00FB0122813381A480B58080819181898380
:10397C009A8386809780FA01208031804280538020
:10398C00B201A10157FE07C044275527BA014219BD
:10399C0053096409750937FD03C08D7F89839A83A8
:1039AC00950157FC05C0898182FD02C083FF02C0CE
:1039BC0021503109CE0101967C010AE010E0C601CC
:1039CC000E94A31F57FC03C0298122FF0AC0019744
:1039DC00F401E80FF91F57FC02C02BE209C02DE2DD
:1039EC0007C023FF06C00197F401E80FF91F20E27E
:1039FC00208309811A81F601408551854150510976
:103A0C00481B590BB401680F791F9501C3010E9423
:103A1C004B249C01F3018081918190FF06C0F6013B
:103A2C0082819381821793070CF4C9012296E2E1FB
:043A3C000C94E529D8
:103A4000CF93DF93EC0187E49EE80E943E2C86EA48
:103A50009DE80E943E2C89811F928F938DE59EE800
:103A60009F938F930E94152A8A811F928F9388E7D4
:103A70009EE89F938F930E94152A2B8130E0C90105
:103A8000880F991F220F331F220F331F220F331F5E
:103A9000820F931F9F938F9383E99EE89F938F9349
:103AA0000E94152A8881282F082E000C330B3F9383
:103AB0008F938FEA9EE89F938F930E94152A8AEC3A
:103AC0009EE80E943E2C86EA9DE80E943E2C2B81B7
:103AD00030E0C901880F991F220F331F220F331FB7
:103AE000220F331F820F931F9F938F938A811F9200
:103AF0008F9389811F928F938881282F082E000C25
:103B0000330B3F938F9388ED9EE89F938F930E9492
:103B1000152A8DB79EB74A968DBF9EBFDF91CF9174
:023B2000089506
:103B220010C00E94932C58F00E948C2C40F029F473
:103B32005F3F29F00C94DE2C51110C949B2C0C94B9
:103B4200282D0E94A32868F39923B1F3552391F3FA
:103B5200951B550BBB27AA2762177307840738F0FA
:103B62009F5F5F4F220F331F441FAA1FA9F335D057
:103B72000E2E3AF0E0E832D091505040E695001C0B
:103B8200CAF72BD0FE2F29D0660F771F881FBB1FC5
:103B9200261737074807AB07B0E809F0BB0B802DA3
:103BA200BF01FF2793585F4F3AF09E3F510578F0CF
:103BB2000C94DE2C0C949B2C5F3FE4F3983ED4F3E0
:103BC200869577956795B795F7959F5FC9F7880FA3
:103BD200911D9695879597F90895E1E0660F771FF5
:103BE200881FBB1F621773078407BA0720F0621B86
:0E3BF200730B840BBA0BEE1F88F7E095089555
:103C000089EC91E80E943E2C4FEF61E071E68DE86F
:103C100092E60E94702C4FEF62E070E688E892E630
:103C20000E94702C82E0809366042FEB37E299E0CB
:103C3000215030409040E1F700C0000080936504BF
:103C40002FE33DE083E0215030408040E1F700C0A9
:103C5000000084E0809345049FE322E43FE091501C
:103C600020403040E1F700C0000062EE71E888E8D3
:103C700092E60E947D258823C1F364EE71E888E80E
:103C800092E60E947D25882359F081EF91E80E94F9
:103C90003E2C88E092E80E943E2C1092DE6213C017
:103CA00069E272E888E892E60E947D258823E9F2BD
:103CB00086E392E80E943E2C8DE492E80E943E2C1E
:103CC00081E08093DE626CE471E888E892E60E940D
:043CD000EC22089545
:103CD4000FC00E948C2C38F00E94932C20F0952366
:103CE40011F00C94DE2C0C94282D11240C949B2C94
:103CF4000E94A32870F3959FC1F3950F50E0551FC0
:103D0400629FF001729FBB27F00DB11D639FAA272C
:103D1400F00DB11DAA1F649F6627B00DA11D661F7B
:103D2400829F2227B00DA11D621F739FB00DA11D9C
:103D3400621F839FA00D611D221F749F3327A00D56
:103D4400611D231F849F600D211D822F762F6A2FF2
:103D540011249F5750409AF0F1F088234AF0EE0F57
:103D6400FF1FBB1F661F771F881F91505040A9F784
:103D74009E3F510580F00C94DE2C0C949B2C5F3FED
:103D8400E4F3983ED4F3869577956795B795F795C0
:103D9400E7959F5FC1F7FE2B880F911D9695879538
:043DA40097F90895EE
:103DA800CF93DF93DC01F90168387105F1F05CF419
:103DB8006138710561F164387105A1F160387105E8
:103DC80009F051C02FC0603C710509F441C0603F43
:103DD8007105F1F1603A710509F045C0C081D181E2
:103DE800CE0102968083918325C0C081D181CE0106
:103DF800029680839183452B39F04881042E000C6C
:103E0800550B660B770B1CC0488150E029C0C08158
:103E1800D181CE01049680839183488159816A813A
:103E28007B810EC0C081D181CE01029680839183AF
:103E3800452BA1F048815981052E000C660B770BA4
:103E48004D935D936D937C93139781E090E00DC043
:103E5800C081D181CE0102968083918348815981A6
:103E680060E070E0EDCF80E090E0DF91CF910895C1
:103E780011C00E948C2C38F00E94932C20F039F449
:103E88009F3F19F426F40C94282D0EF4E095E7FBD7
:103E98000C94DE2CE92F0E94A32858F3BA17620766
:103EA80073078407950720F079F4A6F50C949A2CEB
:103EB8000EF4E0950B2EBA2FA02D0B01B90190013D
:103EC8000C01CA01A0011124FF27591B99F0593F81
:103ED80050F4503E68F11A16F040A22F232F342FC9
:103EE8004427585FF3CF469537952795A795F04017
:103EF8005395C9F77EF41F16BA0B620B730B840B2C
:103F0800BAF09150A1F0FF0FBB1F661F771F881FE3
:103F1800C2F70EC0BA0F621F731F841F48F487953B
:103F280077956795B795F7959E3F08F0B0CF93952D
:0E3F3800880F08F09927EE0F9795879508954A
:103F4600A0E0B0E0E9EAFFE10C94CE29DC0128010B
:103F56001696AD90BC901797F701808191811296C5
:103F6600ED91FC9113971896CD91DC9119972197B5
:103F7600F7FF02C0E1E0F0E0CA0DDB1D188269011F
:103F8600A1E0B0E08F01021B130B4C01F2E08F227F
:103F96009924052C000C66087708CE018A199B091E
:103FA600CA15DB0519F1411551056105710589F041
:103FB600CB01BA01A30192010E94C528CA01A62F0E
:103FC600B72F605D6A9341E0C41AD108A901BC010C
:103FD600E4CF98012C0D3D1D121613064CF31C144C
:103FE6001D0434F48114910419F702C080E090E0B6
:103FF600AB2B31F4F701208131812F7E2083318371
:0A400600CDB7DEB7E0E10C94E72926
:104010000F931F93CF93DF93EA0140385105D4F0FB
:1040200020E030E040E05FE70E94182D9E012F570E
:104030003109203831056CF120E030E040E05FE7E5
:104040000E94182DCE5FD109C038D1051CF1CFE7F1
:10405000D0E020C042385F4FECF420E030E040E890
:104060005CE00E94182D9E012A593F4F22384FEFE5
:1040700034077CF420E030E040E85CE00E94182D3A
:10408000C453DF4FC2382FEFD20724F4C2E8DFEF6A
:1040900001C0E9019E0121583F4F8901330F220BD6
:1040A000330BA9019801E7E1220F331F441F551F6D
:1040B000EA95D1F70E94182DDF91CF911F910F91B2
:0240C000089561
:1040C200A2E0B0E0E7E6F0E20C94D0294C016B01EB
:1040D200FB01228133816480758080819181898393
:1040E2009A83A680B78037FD03C08D7F89839A8328
:1040F200FA014081518162817381CE0101967C0176
:1041020008E010E09301C6010E94A31F298124FF49
:1041120006C00197F501E80FF91F20E320832981EA
:1041220023FF06C00197F501E80FF91F20E2208363
:1041320009811A81F6014085518541505109481B78
:10414200590BB501680F791F9301C4010E944B24DA
:104152009C01F4018081918190FF06C0F601828169
:104162009381821793070CF4C9012296EEE00C9416
:02417200E92939
:1041740040E068ED80E690E00E940C2D41E068ED9F
:1041840081E690E00E940C2D40E068ED85E690E029
:104194000E940C2D40E068ED88E790E00E940C2D11
:1041A40040E268ED88E690E00E940C2D40E068ED66
:1041B40089E690E00E940C2D40E068ED80E790E0F5
:1041C4000E940C2D40E068ED8CE790E00E940C2DDD
:1041D40040E068ED82E690E00E940C2D40E068ED3E
:1041E40083E690E00E940C2D40E068ED84E690E0C8
:1041F4000E940C2D40E068ED80E890E00E940C2DB8
:0C420400E0E6F0E0858181FFFDCF089529
:10421000CF93DF93DC0112963C911297431708F479
:10422000342F13969C91139714964C911497332323
:1042300099F1941701F1ED91FC911197E90FF11D9E
:1042400020812223D1F0EB0180E029938F5F9F5FD3
:1042500012962C911297921708F090E03817E1F01F
:10426000941761F0ED91FC911197E90FF11D2081F8
:104270002111EBCF03C080E001C080E0831730F450
:10428000FB01E80FF11D10828F5F08C0680F711DE0
:10429000FB013197108202C0832FF8CFDF91CF91BD
:0242A00008957F
:1042A2008F929F92AF92BF92CF92DF92EF92FF9244
:1042B2000E9442124B015C010E94092C24E036E567
:1042C2004AE150E40E947F2C23E333E948E853E4B7
:1042D2000E947F2C9B01AC0164E076E58AE190E4C8
:1042E2000E94142D9B01AC0160E070E080E89FE326
:1042F2000E947E2C28E539E348EA50EC0E946708C8
:104302006B017C01C501B4010E94AF2220E030E0C4
:1043120048EC52E40E94142DA70196010E94182D28
:10432200FF90EF90DF90CF90BF90AF909F908F90D3
:024332000895EC
:104334000F931F93CF93DF93DB012D913C91119742
:1043440030FF25C016964D915C91179714962D91C8
:104354003C9115974217530778F41296ED91FC910E
:104364001397808312962D913C9113972F5F3F4FA3
:1043740012962D933C93139716962D913C91179773
:104384002F5F3F4F16962D933C93179715C01C969D
:10439400ED91FC911D97309719F48FEF9FEF0CC0AE
:1043A4008B01EC010995892BC1F7F801868197816E
:1043B400019686839783CE01DF91CF911F910F9150
:0243C40008955A
:1043C600EF92FF920F931F93CF93DF930F92CDB788
:1043D600DEB769838A01E22E60E00E941428F82E77
:1043E600882369F161E0CE0101960E94C827F82E64
:1043F600811104C083E08093040921C0E0E0F9E064
:1044060087818160878381E08483858185FD0AC0F9
:10441600858182FD07C0858183FD04C08581837007
:10442600833099F70E94AE2B882329F083E080938E
:104436000409F12C04C06E2DC8010E9473278F2D2C
:104446000F90DF91CF911F910F91FF90EF900895FC
:10445600A2E0B0E0E1E3F2E20C94D0295C016B014A
:10446600FB012281338184809580808191818983BB
:104476009A836680778037FD03C08D7F89839A8310
:10448600FA014081518162817381CE0101967C01DE
:104496000AE010E09401C6010E94A31F09811A8157
:1044A600F6014085518541505109481B590BB3010E
:1044B600680F791F9401C5010E944B249C01F501E8
:1044C6008081918190FF06C0F601828193818217D7
:0E44D60093070CF4C9012296EEE00C94E9293C
:1044E4008BE991E80E94F12B8CE496E80E943E2C23
:1044F4008AE996E80E94F12B86EA96E80E94F12B5D
:1045040083EB96E80E94F12B85ED96E80E94F12B4F
:1045140080EF96E80E94F12B83E297E80E94F12B4A
:1045240086E597E80E94F12B88E897E80E94F12B32
:1045340088EF95E80E94F12B88E096E80E94F12B21
:1045440080E296E80E94F12B8BE396E80E94F12B1F
:0A4554000E946E170E94842B089548
:10455E00E89409C097FB3EF490958095709561950F
:10456E007F4F8F4F9F4F9923A9F0F92F96E9BB27C5
:10457E009395F695879577956795B795F111F8CF41
:10458E00FAF4BB0F11F460FF1BC06F5F7F4F8F4FAC
:10459E009F4F16C0882311F096E911C0772321F0A2
:1045AE009EE8872F762F05C0662371F096E8862F3A
:1045BE0070E060E02AF09A95660F771F881FDAF791
:0A45CE00880F9695879597F90895D8
:1045D800EF92FF920F931F93CF93DF93EC017B0130
:1045E8009B818C819817F9F0FB0110811123E9F068
:1045F80000E0CE010E94A02B811302C00F5F05C00E
:1046080001E0F7019081981300E0CE010E94FD2B94
:104618009B818C81981751F0F701E00FF11D1081F3
:104628001111E7CF03C000E001C000E0F701E00F7F
:10463800F11D81E09081911180E0DF91CF911F9170
:084648000F91FF90EF9008951F
:10465000A2E8B0E0EEE2F3E20C94D2295C014A0158
:10466000CF57DF4F68837983C158D040C12CD12CFC
:10467000CF57DF4FE881F981C158D040808188232E
:10468000E9F07401860120E830E0AE014F5F5F4F32
:10469000BE016F577F4FC5010E94E20E8C0D9D1D1C
:1046A0008C159D054CF48FE490E08093006090930E
:1046B00001608FEF9FEF03C06C01DACFC601CE57C8
:0846C000DF4FECE00C94EB2944
:1046C8001F920F920FB60F9211242F933F934F937F
:1046D8005F936F937F938F939F93AF93BF93EF9362
:1046E800FF938091430180FF07C0E091CC62F09175
:1046F800CD62309709F009958091430181FF07C089
:10470800E091CA62F091CB62309709F0099583E095
:1047180080934301FF91EF91BF91AF919F918F914A
:104728007F916F915F914F913F912F910F900FBEA5
:064738000F901F90189580
:10473E00A0E1B0E0E5EAF3E20C94D829FB01BA015E
:10474E00AE014F5F5F4F7A0140E1D7011D924A954E
:10475E00E9F742E051E049835A838B839C83F7FF4C
:10476E0009C08FE490E080930060909301608FEF1A
:10477E009FEF14C0A9018C013197ED83FE83C70111
:10478E000E94452A4F8158852D813E81421753073D
:10479E0008F49A01F801E20FF31F10826096E6E02A
:0447AE000C94F1294D
:1047B2001F920F920FB60F9211242F933F934F9394
:1047C2005F936F937F938F939F93AF93BF93EF9377
:1047D200FF93599B05C0E091C062F091C1620995B7
:1047E200589B05C0E091B862F091B96209955A9B55
:1047F20005C0E091B662F091B76209958FEF8BB96F
:10480200FF91EF91BF91AF919F918F917F916F91A6
:104812005F914F913F912F910F900FBE0F901F907C
:024822001895E7
:104824001F920F920FB60F9211242F933F934F9321
:104834005F936F937F938F939F93AF93BF93EF9304
:10484400FF937D9B05C0E091C462F091C562099518
:104854007C9B05C0E091C262F091C3620995799B8B
:1048640005C0E091B462F091B56209958FEF8FB9FC
:10487400FF91EF91BF91AF919F918F917F916F9134
:104884005F914F913F912F910F900FBE0F901F900A
:02489400189575
:10489600A0E0B0E0E1E5F4E20C94D2296C015B0102
:1048A6007A01E901480181E08822992400FD03C0CC
:1048B6004217530750F0A701B501C6010E946229AD
:1048C600EC16FD0610F0C70117C08E010E191F0960
:1048D6000115110541F0B60180E290E00E949A218F
:1048E60001501109F5CF8114910429F4A701B501EE
:1048F600C6010E946229CE01CDB7DEB7ECE00C946A
:02490600EB299B
:10490800DF92EF92FF920F931F93CF93DF9344238D
:1049180009F1EC018B014150E42EF12C8FEFE81ADC
:10492800F80AE60EF71ED12CF80181918F019C81BF
:10493800E881F981E90FF11D8083CE010E94352CB1
:104948009C818B81981302C0DD24D3940E151F051A
:1049580059F701C0D12C8D2DDF91CF911F910F9167
:08496800FF90EF90DF9008952D
:104970001F920F920FB60F9211242F933F934F93D4
:104980005F936F937F938F939F93AF93BF93EF93B7
:10499000FF93189B05C0E091BC62F091BD62099540
:1049A000199B05C0E091BA62F091BB6209958FEF47
:1049B00083B9FF91EF91BF91AF919F918F917F91BB
:1049C0006F915F914F913F912F910F900FBE0F907C
:0449D0001F90189587
:1049D4001F920F920FB60F9211242F933F934F9370
:1049E4005F936F937F938F939F93AF93BF93EF9353
:1049F400FF93BE9B05C0E091BE62F091BF62099532
:104A0400BD9B05C0E091B262F091B36209958FEF4E
:104A140087BBFF91EF91BF91AF919F918F917F9150
:104A24006F915F914F913F912F910F900FBE0F9017
:044A34001F90189522
:104A3800CF93DF93CDB7DEB72697CDBFDEBF85EF27
:104A480089838091E3628A8342E0BE016F5F7F4F72
:104A580086E70E94B22A82EF8B838091E2628C8380
:104A680042E0BE016D5F7F4F86E70E94B22A84EF65
:104A78008D838091E1628E8342E0BE016B5F7F4F40
:104A880086E70E94B22A2696CDBFDEBFDF91CF917E
:024A980008957F
:104A9A001F920F920FB60F9211242F933F934F93A9
:104AAA005F936F937F938F939F93AF93BF93EF938C
:104ABA00FF938091060B80FF0AC0E091C662F091D5
:104ACA00C762309709F0099581E08093060BFF9140
:104ADA00EF91BF91AF919F918F917F916F915F916C
:104AEA004F913F912F910F900FBE0F901F901895E5
:104AFA00CF93DF93EC01FB019B815C81951711F148
:104B0A006881798120E0DB01A90FB11D3C91DF01A9
:104B1A00A20FB11D4C91341302C02F5F04C021E0D3
:104B2A008081831320E0DF01A20FB11D3C91332362
:104B3A0059F09F5F3A81931301C090E09513E3CF38
:104B4A0080E003C080E001C081E0DF91CF91089549
:104B5A006CE471E888E892E60E94EC228FE491E81E
:104B6A000E94F12B2FE78AE196E021508040904085
:104B7A00E1F700C0000041E167E372E688E892E6E7
:104B8A000E94082187E392E69F938F938FE591E82D
:104B9A009F938F930E942D2A6CE471E888E892E62D
:0E4BAA000E94EC220F900F900F900F90089534
:104BB8000E94AB2888F09F5798F0B92F9927B751D2
:104BC800B0F0E1F0660F771F881F991F1AF0BA95A9
:104BD800C9F714C0B13091F00E949A2CB1E0089541
:104BE8000C949A2C672F782F8827B85F39F0B93F33
:104BF800CCF3869577956795B395D9F73EF490955C
:0E4C08008095709561957F4F8F4F9F4F089557
:104C16000F931F93CF93DF938C010F5F1F4FFC0100
:104C26008081FB0124853585232B11F0EB0109C01A
:104C36008FEF9FEF17C00995892BD1F7F801819166
:104C46008F01EC85FD85BE018111F5CF8AE00995BE
:104C560021E030E0892B11F420E030E08827992705
:0E4C6600821B930BDF91CF911F910F91089548
:104C7400E0E0F8E087E490E180879187158280EC9A
:104C8400868383E0878313861486168615868BE3D2
:104C94009DE28093D2629093D3628CE39DE28093F1
:104CA400D0629093D1628DE39DE28093CE62909323
:104CB400CF621092D4621092D562E091DA62F091E0
:0C4CC400DB6288E492E68083918308950F
:104CD000DC01ED91FC91119780818A3221F080E016
:104CE00090E03AE00EC03196ED93FC93DB01ED913C
:104CF000FC911197CF0102968D939C9380819181B5
:104D00000895ED91FC911197208120532A3068F489
:104D1000389FA001399F500D1124CA01820F911DA7
:0C4D20003196ED93FC931197ECCF0895B1
:104D2C001F920F920FB60F9211242F933F934F9314
:104D3C005F936F937F938F939F93AF93BF93EF93F7
:104D4C00FF9380912008E091D662F091D762309762
:104D5C0009F009951092DF62FF91EF91BF91AF912D
:104D6C009F918F917F916F915F914F913F912F9177
:0A4D7C000F900FBE0F901F901895C6
:104D86001F920F920FB60F9211242F933F934F93BA
:104D96005F936F937F938F939F93AF93BF93EF939D
:104DA600FF9382E080930D06E091B062F091B162CC
:104DB600309709F00995FF91EF91BF91AF919F91BF
:104DC6008F917F916F915F914F913F912F910F90AE
:084DD6000FBE0F901F9018950D
:104DDE001F920F920FB60F9211242F933F934F9362
:104DEE005F936F937F938F939F93AF93BF93EF9345
:104DFE00FF9381E080930D06E091AE62F091AF6279
:104E0E00309709F00995FF91EF91BF91AF919F9166
:104E1E008F917F916F915F914F913F912F910F9055
:084E2E000FBE0F901F901895B4
:104E36001F920F920FB60F9211242F933F934F9309
:104E46005F936F937F938F939F93AF93BF93EF93EC
:104E5600FF93E091C862F091C962309709F0099515
:104E660081E080935301FF91EF91BF91AF919F91A4
:104E76008F917F916F915F914F913F912F910F90FD
:084E86000FBE0F901F9018955C
:104E8E000E94B42C882339F00E941C2D682F8DE8C7
:104E9E0092E60E94C72A88E892E60E94772C81113A
:104EAE000AC00E94BA2C882331F088E892E60E944C
:104EBE005D2A0E941F2D8DE892E60E94772C8111AB
:104ECE000AC00E94D22C882331F08DE892E60E940F
:084EDE005D2A0E94922B089549
:104EE60020E2209305096623D1F0A82FB92F90E080
:104EF600E0E0F9E022E0858185FD17C0858182FD2D
:104F060007C0858183FD04C085818370833099F74E
:104F160080858D939F5F691711F02483ECCF87E01E
:104F26008093040908952483E6CF80858D939F5F3F
:064F36006913F9CFF4CF6E
:104F3C00A0E0B0E0E4EAF7E20C94D4297C01FB0198
:104F4C00EA01C901A280B380C480D580008111819F
:104F5C00209711F4CBE7D2E6009719F4CE010E940A
:104F6C00CA2BB7FC04C0A816B90608F4C5019601F3
:104F7C00AC01BE01C7010E944B24CDB7DEB7EAE0FD
:044F8C000C94ED296B
:104F9000662309F1DC016150262F30E02F5F3F4F7F
:104FA000280F391FE0E0F9E09D919087958195FDEC
:104FB0000AC0958192FD07C0958193FD04C095813B
:104FC0009370933099F7958194FD07C0A217B307AA
:0E4FD00059F781E0089581E0089580E008958A
:104FDE00E0E0F2E0108A118A128A138A8EE4848B42
:104FEE00158A10A610A211A212A213A214A215A223
:104FFE0016A217A211A617A610AA85E081AB12AAB7
:10500E0013AA14AA15A616A612A613A614A615AAB6
:0A501E0016AA17AA10AE80E008954C
:105028009091050993709330E1F0880F682B609395
:105038000709E0E0F9E0858185FD0AC0858182FDE8
:1050480007C0858183FD04C085818370833099F70B
:105058000E94AE2B882339F083E08093040980E016
:0A506800089580E0089581E00895A6
:1050720083EA90E90E943E2C0E949D2A2FE986E84D
:1050820091E0215080409040E1F700C000000E9472
:1050920011198091E36281788093E36285E28093C3
:1050A200E16281E08093E2620E941C258BEB90E931
:0850B2000E943E2C81E00895EC
:1050BA00990F0008550FAA0BE0E8FEEF161617061F
:1050CA00E807F907C0F012161306E407F50798F087
:1050DA00621B730B840B950B39F40A2661F0232BA0
:1050EA00242B252B21F408950A2609F4A140A6951C
:0850FA008FEF811D811D089557
:10510200CF92DF92FF920F931F93CF93DF936C01A5
:10511200F12C09C00E94D22C882341F0F801808131
:105122000E94922BF394E601CF0DD11D8E0188814E
:105132008111F0CFDF91CF911F910F91FF90DF90FE
:04514200CF9008956D
:1051460057FD9058440F551F59F05F3F71F0479532
:10515600880F97FB991F61F09F3F79F08795089517
:10516600121613061406551FF2CF4695F1DF08C036
:10517600161617061806991FF1CF86957105610553
:0451860008940895EC
:10518A00A1E21A2EAA1BBB1BFD010DC0AA1FBB1F41
:10519A00EE1FFF1FA217B307E407F50720F0A21BB3
:1051AA00B30BE40BF50B661F771F881F991F1A9420
:1051BA0069F760957095809590959B01AC01BD014A
:0451CA00CF01089574
:1051CE00CF93DF93EC010E94F92C0E94092C0E94D0
:1051DE00852C68830E94512120E030E040E251E4AA
:1051EE000E94142D0E94DC256B830E94142C0E94B9
:1051FE00DC2569830E94D82C8A83DF91CF91089594
:10520E00CF93DF93EC0190E0E92FF0E0EE0FFF1F5C
:10521E00EF5DFD498081811102C081810EC0A881A0
:10522E00B9812C91821305C091811196A883B983FF
:10523E0001C09F5F9B3040F3892FDF91CF9108957E
:10524E00893B2BE0920710F088EB9BE0883725E036
:10525E00920710F488E795E0BC016857754080E02E
:10526E0090E00E94AF2220E030E040E85DE30E9433
:0C527E00182D0E94DC2584E6861B089594
:10528A00E0E4F1E081818111FDCFE0E4F1E08FEF0C
:10529A0093E084879587108611868287938781E0B9
:1052AA008783128281898111FDCFE0E4F1E081E0F8
:0A52BA00828B89E4808B80E0089568
:1052C400A0E0B0E0E8E6F9E20C94D6296C01EB0129
:1052D4008A017B01E40EF51ECE15DF0541F08991AC
:1052E400B601082E000C990B0E949A21F5CFC80133
:0A52F400CDB7DEB7E8E00C94EF2917
:1052FE000E94732A0E94022B0E94C62C0E94CC2C64
:10530E000E94BC2B80EC9CE20E94F42C88E89AE26E
:10531E000E94EA2C8BED9AE20E94EF2C78940E9468
:04532E00E010FDCFBF
:10533200CF93DF9300D0CDB7DEB78091E1628C7F4F
:1053420081608093E16294EF99838A8342E0BE0197
:105352006F5F7F4F86E70E94B22A0F900F90DF9116
:04536200CF9108954A
:10536600E0E0F6E0118281E08283138214821686E1
:1053760013861486808780E481878FEF85838FEF7D
:105386009FE0848B958B128A138A83E0808380E06A
:02539600089578
:105398002F923F924F925F926F927F928F929F923D
:1053A800AF92BF92CF92DF92EF92FF920F931F932B
:1053B800CF93DF93CDB7DEB7CA1BDB0BCDBFDEBF04
:0253C800099446
:1053CA002A88398848885F846E847D848C849B848B
:1053DA00AA84B984C884DF80EE80FD800C811B8199
:1053EA00AA81B981CE0FD11DCDBFDEBFED010895CF
:1053FA00A0E0B0E0E3E0FAE20C94DC29AE014B5FF6
:10540A005F4FFA0161917191AF01E091DA62F09117
:10541A00DB62808191810E94452AE2E00C94F529A1
:10542A00A0E0B0E0EBE1FAE20C94DC29AE014B5FBC
:10543A005F4FFA0161917191AF01E091DA62F091E7
:10544A00DB62808191810E94452AE2E00C94F52971
:10545A00A0E0B0E0E3E3FAE20C94DC29AE014B5F92
:10546A005F4FFA0161917191AF01E091DA62F091B7
:10547A00DB62808191810E94452AE2E00C94F52941
:10548A00A2E0B0E0EBE4FAE20C94DA298C01498359
:10549A005A83AE014F5F5F4F0E942823F801208193
:1054AA0024FF02C08FEF9FEF2296E4E00C94F329C9
:1054BA00CF93DC0113962C91139714963C91149771
:1054CA00321741F0ED91FC91E20FF11DC0810E946B
:0C54DA00FD2B01C0C0E08C2FCF91089585
:1054E6000E94D1190E94B3290E94BA200E94EF2778
:1054F6000E9445290E94762B0E94EF2A0E943A2696
:0A5506000E94502C0E94D82B08953B
:105510008091A80486FF0DC080E28093A50480914D
:10552000D8629091D96281608093D8629093D96259
:0A553000089580E28093A604089518
:10553A00CF93DF9300D0CDB7DEB780EE898386EBB9
:10554A008A8342E0BE016F5F7F4F86E70E94B22ADC
:0A555A000F900F90DF91CF9108959C
:105564001F93CF93DF93EB01142F60E00E94142864
:10557400882339F0612FCE010E94C82793E09093CD
:0A5584000409DF91CF911F910895F3
:10558E00CF93DF93EC018C81E881F981E80FF11D57
:10559E006083CE010E94352C81E02C819B812913E2
:0855AE0080E0DF91CF91089528
:1055B60080919A6290919B62A0919C62B0919D624B
:1055C6000196A11DB11D80939A6290939B62A09350
:0855D6009C62B0939D620895F0
:1055DE00E0E0FBE08FEF9FEF8487958712861386BE
:1055EE0086E08183108681E1848381E08583168243
:0655FE0011868083089570
:105604001092D6621092D762E0E2F8E081E08387DC
:1056140080E8858383E0878386EB92E080879187A7
:04562400168208954D
:10562800A0E0B0E0EAE1FBE20C94DC29AE01475FC0
:105638005F4F6F8178858D819E810E94A12CE2E069
:045648000C94F529A0
:10564C00092E0394000C11F4882352F0BB0F40F484
:10565C00BF2B11F460FF04C06F5F7F4F8F4F9F4FC4
:02566C0008959F
:10566E00E0E0F6E0808781E082870E94082D8823A3
:10567E00E1F3E0E0F6E08089918921E02587089545
:10568E0082E00E94372B9F938F9384E89DE89F932F
:10569E008F930E94152A0F900F900F900F900895E0
:1056AE00DB018F939F930E941F2CBF91AF91A29FFE
:1056BE00800D911DA39F900DB29F900D1124089502
:1056CE00A29FB001B39FC001A39F700D811D112435
:0E56DE00911DB29F700D811D1124911D089524
:1056EC0043E068ED80E590E00E940C2D40E068ED11
:0C56FC0081E590E00E940C2D80E00895F4
:105708008EE692E80E94F12B2FE784E89EE1215073
:0C57180080409040E1F700C000000895C0
:10572400CF93C82F0E94D22C882331F0E0E2F8E016
:0C573400948190649483C283CF91089507
:10574000FC0183819481981739F00190F081E02D5C
:0C575000E80FF11D8081089580E00895AD
:10575C00809105098C7141F490910509937081E059
:0C576C00933019F080E0089581E008956A
:105778000E94582CE0E0F9E084E0808381E0828395
:0C5788009DEF95839FE096838383089536
:10579400FC01AF014F5F5F4F2081222311F0FA011A
:0C57A400F8CF9F01281B390BC9010895A4
:1057B00040E068ED80E191E00E940C2DE0E1F1E035
:0A57C00012821382789480E00895AD
:1057CA00CF93C82F0E94BA2C8823E1F3C093020812
:0857DA0080E090E0CF910895FA
:1057E2000E9481282FE38DE093E021508040904079
:0857F200E1F700C0000008957A
:1057FA00FC0193818481981731F09F5F93838281A2
:08580A00981708F013820895BD
:105812000E94FF1A0E94AF2220E030E048EC52E4DE
:065822000E94142D089500
:105828000E94AF140E94AF2220E030E040E85AE323
:065838000E94182D0895E6
:10583E000E94672BA59F900DB49F900DA49F800D85
:06584E00911D11240895D4
:10585400EC010E943F2D0E943E2DCE010E94402D5E
:06586400CE010E942F2D71
:10586A00FC0194819F5F94838281981301C0148202
:02587A0008958F
:10587C00E091DA62F091DB62608171810E940B260B
:02588C0008957D
:10588E009C01215631092A31310510F48F75992763
:02589E0008956B
:1058A000E0EBF0E0148285E08083128280E00895CE
:1058B000E0E0F4E08AE0818388E0838B828B0895C6
:1058C000B7FF0C941F2C0E941F2C821B930B089572
:1058D0009C01215431092A31310508F48062089570
:0E58E000FC0160837183428313821482089559
:0E58EE00FC0181E023819481291380E008955C
:0E58FC005058BB27AA270E943C1F0C94262B55
:0E590A000E94DC256894B1110C949B2C08952A
:0E59180000240A9416161706180609060895AC
:0E59260000240A9412161306140605060895AE
:0E593400E894BB2766277727CB0197F90895E3
:0E5942009A01AB016FEF7FE70E949F2308954B
:0C595000E0E4F1E0808181608083089534
:0C595C00E0E4F1E080818E7F80830895FC
:0C59680080910408881F8827881F08957C
:0C5974008091040885FB882780F90895C5
:0C598000682F88E892E60E94C72A08956C
:0C598C00E0E2F8E08681806486830895E4
:0C599800E0E2F8E08681806886830895D4
:0C59A4008091240885FB882780F9089575
:0C59B00082E00E94372B0E9427290895F6
:0C59BC0097F99F6780E870E060E00895B4
:0C59C800EE0FFF1F0590F491E02D0994F4
:0A59D4008093C6629093C7620895A5
:0A59DE008093C8629093C962089597
